{
	"contracts/Adv/structs.sol": {
		"Students": {
			"abi": [
				{
					"inputs": [
						{
							"internalType": "uint256",
							"name": "id",
							"type": "uint256"
						},
						{
							"internalType": "uint256",
							"name": "sub",
							"type": "uint256"
						}
					],
					"name": "seeMarks",
					"outputs": [
						{
							"internalType": "uint256",
							"name": "",
							"type": "uint256"
						}
					],
					"stateMutability": "view",
					"type": "function"
				},
				{
					"inputs": [
						{
							"internalType": "uint256",
							"name": "id",
							"type": "uint256"
						},
						{
							"internalType": "uint256[5]",
							"name": "marks",
							"type": "uint256[5]"
						},
						{
							"internalType": "string",
							"name": "name",
							"type": "string"
						}
					],
					"name": "setData",
					"outputs": [],
					"stateMutability": "nonpayable",
					"type": "function"
				},
				{
					"inputs": [
						{
							"internalType": "uint256",
							"name": "",
							"type": "uint256"
						}
					],
					"name": "students",
					"outputs": [
						{
							"internalType": "uint256",
							"name": "id",
							"type": "uint256"
						},
						{
							"internalType": "string",
							"name": "name",
							"type": "string"
						}
					],
					"stateMutability": "view",
					"type": "function"
				},
				{
					"inputs": [
						{
							"internalType": "uint256",
							"name": "id",
							"type": "uint256"
						},
						{
							"internalType": "string",
							"name": "name",
							"type": "string"
						},
						{
							"internalType": "uint256",
							"name": "sub",
							"type": "uint256"
						},
						{
							"internalType": "uint256",
							"name": "marks",
							"type": "uint256"
						}
					],
					"name": "updateInfo",
					"outputs": [],
					"stateMutability": "nonpayable",
					"type": "function"
				}
			],
			"devdoc": {
				"kind": "dev",
				"methods": {},
				"version": 1
			},
			"evm": {
				"assembly": "    /* \"contracts/Adv/structs.sol\":71:857  contract Students {... */\n  mstore(0x40, 0x80)\n  callvalue\n  dup1\n  iszero\n  tag_1\n  jumpi\n  0x00\n  dup1\n  revert\ntag_1:\n  pop\n  dataSize(sub_0)\n  dup1\n  dataOffset(sub_0)\n  0x00\n  codecopy\n  0x00\n  return\nstop\n\nsub_0: assembly {\n        /* \"contracts/Adv/structs.sol\":71:857  contract Students {... */\n      mstore(0x40, 0x80)\n      callvalue\n      dup1\n      iszero\n      tag_1\n      jumpi\n      0x00\n      dup1\n      revert\n    tag_1:\n      pop\n      jumpi(tag_2, lt(calldatasize, 0x04))\n      shr(0xe0, calldataload(0x00))\n      dup1\n      0x06ead22e\n      eq\n      tag_3\n      jumpi\n      dup1\n      0xa3b16660\n      eq\n      tag_4\n      jumpi\n      dup1\n      0xbdbb8ceb\n      eq\n      tag_5\n      jumpi\n      dup1\n      0xded7544a\n      eq\n      tag_6\n      jumpi\n    tag_2:\n      0x00\n      dup1\n      revert\n        /* \"contracts/Adv/structs.sol\":194:219  Student[] public students */\n    tag_3:\n      tag_7\n      0x04\n      dup1\n      calldatasize\n      sub\n      dup2\n      add\n      swap1\n      tag_8\n      swap2\n      swap1\n      tag_9\n      jump\t// in\n    tag_8:\n      tag_10\n      jump\t// in\n    tag_7:\n      mload(0x40)\n      tag_11\n      swap3\n      swap2\n      swap1\n      tag_12\n      jump\t// in\n    tag_11:\n      mload(0x40)\n      dup1\n      swap2\n      sub\n      swap1\n      return\n        /* \"contracts/Adv/structs.sol\":668:854  function seeMarks(uint id, uint sub) public view returns (uint) {... */\n    tag_4:\n      tag_13\n      0x04\n      dup1\n      calldatasize\n      sub\n      dup2\n      add\n      swap1\n      tag_14\n      swap2\n      swap1\n      tag_15\n      jump\t// in\n    tag_14:\n      tag_16\n      jump\t// in\n    tag_13:\n      mload(0x40)\n      tag_17\n      swap2\n      swap1\n      tag_18\n      jump\t// in\n    tag_17:\n      mload(0x40)\n      dup1\n      swap2\n      sub\n      swap1\n      return\n        /* \"contracts/Adv/structs.sol\":226:442  function setData(uint id, uint[5] memory marks, string memory name) public {... */\n    tag_5:\n      tag_19\n      0x04\n      dup1\n      calldatasize\n      sub\n      dup2\n      add\n      swap1\n      tag_20\n      swap2\n      swap1\n      tag_21\n      jump\t// in\n    tag_20:\n      tag_22\n      jump\t// in\n    tag_19:\n      stop\n        /* \"contracts/Adv/structs.sol\":448:662  function updateInfo(uint id, string memory name, uint sub, uint marks) public {... */\n    tag_6:\n      tag_23\n      0x04\n      dup1\n      calldatasize\n      sub\n      dup2\n      add\n      swap1\n      tag_24\n      swap2\n      swap1\n      tag_25\n      jump\t// in\n    tag_24:\n      tag_26\n      jump\t// in\n    tag_23:\n      stop\n        /* \"contracts/Adv/structs.sol\":194:219  Student[] public students */\n    tag_10:\n      0x00\n      dup2\n      dup2\n      sload\n      dup2\n      lt\n      tag_27\n      jumpi\n      0x00\n      dup1\n      revert\n    tag_27:\n      swap1\n      0x00\n      mstore\n      keccak256(0x00, 0x20)\n      swap1\n      0x07\n      mul\n      add\n      0x00\n      swap2\n      pop\n      swap1\n      pop\n      dup1\n      0x00\n      add\n      sload\n      swap1\n      dup1\n      0x06\n      add\n      dup1\n      sload\n      tag_29\n      swap1\n      tag_30\n      jump\t// in\n    tag_29:\n      dup1\n      0x1f\n      add\n      0x20\n      dup1\n      swap2\n      div\n      mul\n      0x20\n      add\n      mload(0x40)\n      swap1\n      dup2\n      add\n      0x40\n      mstore\n      dup1\n      swap3\n      swap2\n      swap1\n      dup2\n      dup2\n      mstore\n      0x20\n      add\n      dup3\n      dup1\n      sload\n      tag_31\n      swap1\n      tag_30\n      jump\t// in\n    tag_31:\n      dup1\n      iszero\n      tag_32\n      jumpi\n      dup1\n      0x1f\n      lt\n      tag_33\n      jumpi\n      0x0100\n      dup1\n      dup4\n      sload\n      div\n      mul\n      dup4\n      mstore\n      swap2\n      0x20\n      add\n      swap2\n      jump(tag_32)\n    tag_33:\n      dup3\n      add\n      swap2\n      swap1\n      0x00\n      mstore\n      keccak256(0x00, 0x20)\n      swap1\n    tag_34:\n      dup2\n      sload\n      dup2\n      mstore\n      swap1\n      0x01\n      add\n      swap1\n      0x20\n      add\n      dup1\n      dup4\n      gt\n      tag_34\n      jumpi\n      dup3\n      swap1\n      sub\n      0x1f\n      and\n      dup3\n      add\n      swap2\n    tag_32:\n      pop\n      pop\n      pop\n      pop\n      pop\n      swap1\n      pop\n      dup3\n      jump\t// out\n        /* \"contracts/Adv/structs.sol\":668:854  function seeMarks(uint id, uint sub) public view returns (uint) {... */\n    tag_16:\n        /* \"contracts/Adv/structs.sol\":726:730  uint */\n      0x00\n        /* \"contracts/Adv/structs.sol\":742:761  Student storage tmp */\n      dup1\n        /* \"contracts/Adv/structs.sol\":765:773  students */\n      0x00\n        /* \"contracts/Adv/structs.sol\":774:776  id */\n      dup5\n        /* \"contracts/Adv/structs.sol\":765:777  students[id] */\n      dup2\n      sload\n      dup2\n      lt\n      tag_36\n      jumpi\n      tag_37\n      tag_38\n      jump\t// in\n    tag_37:\n    tag_36:\n      swap1\n      0x00\n      mstore\n      keccak256(0x00, 0x20)\n      swap1\n      0x07\n      mul\n      add\n        /* \"contracts/Adv/structs.sol\":742:777  Student storage tmp =  students[id] */\n      swap1\n      pop\n        /* \"contracts/Adv/structs.sol\":787:808  uint[5] storage marks */\n      0x00\n        /* \"contracts/Adv/structs.sol\":811:814  tmp */\n      dup2\n        /* \"contracts/Adv/structs.sol\":811:820  tmp.marks */\n      0x01\n      add\n        /* \"contracts/Adv/structs.sol\":787:820  uint[5] storage marks = tmp.marks */\n      swap1\n      pop\n        /* \"contracts/Adv/structs.sol\":837:842  marks */\n      dup1\n        /* \"contracts/Adv/structs.sol\":843:846  sub */\n      dup5\n        /* \"contracts/Adv/structs.sol\":837:847  marks[sub] */\n      0x05\n      dup2\n      lt\n      tag_40\n      jumpi\n      tag_41\n      tag_38\n      jump\t// in\n    tag_41:\n    tag_40:\n      add\n      sload\n        /* \"contracts/Adv/structs.sol\":830:847  return marks[sub] */\n      swap3\n      pop\n      pop\n      pop\n        /* \"contracts/Adv/structs.sol\":668:854  function seeMarks(uint id, uint sub) public view returns (uint) {... */\n      swap3\n      swap2\n      pop\n      pop\n      jump\t// out\n        /* \"contracts/Adv/structs.sol\":226:442  function setData(uint id, uint[5] memory marks, string memory name) public {... */\n    tag_22:\n        /* \"contracts/Adv/structs.sol\":311:330  Student memory temp */\n      tag_44\n      tag_45\n      jump\t// in\n    tag_44:\n        /* \"contracts/Adv/structs.sol\":350:352  id */\n      dup4\n        /* \"contracts/Adv/structs.sol\":340:344  temp */\n      dup2\n        /* \"contracts/Adv/structs.sol\":340:347  temp.id */\n      0x00\n      add\n        /* \"contracts/Adv/structs.sol\":340:352  temp.id = id */\n      dup2\n      dup2\n      mstore\n      pop\n      pop\n        /* \"contracts/Adv/structs.sol\":374:378  name */\n      dup2\n        /* \"contracts/Adv/structs.sol\":362:366  temp */\n      dup2\n        /* \"contracts/Adv/structs.sol\":362:371  temp.name */\n      0x40\n      add\n        /* \"contracts/Adv/structs.sol\":362:378  temp.name = name */\n      dup2\n      swap1\n      mstore\n      pop\n        /* \"contracts/Adv/structs.sol\":401:406  marks */\n      dup3\n        /* \"contracts/Adv/structs.sol\":388:392  temp */\n      dup2\n        /* \"contracts/Adv/structs.sol\":388:398  temp.marks */\n      0x20\n      add\n        /* \"contracts/Adv/structs.sol\":388:406  temp.marks = marks */\n      dup2\n      swap1\n      mstore\n      pop\n        /* \"contracts/Adv/structs.sol\":416:424  students */\n      0x00\n        /* \"contracts/Adv/structs.sol\":430:434  temp */\n      dup2\n        /* \"contracts/Adv/structs.sol\":416:435  students.push(temp) */\n      swap1\n      dup1\n      0x01\n      dup2\n      sload\n      add\n      dup1\n      dup3\n      sstore\n      dup1\n      swap2\n      pop\n      pop\n      0x01\n      swap1\n      sub\n      swap1\n      0x00\n      mstore\n      keccak256(0x00, 0x20)\n      swap1\n      0x07\n      mul\n      add\n      0x00\n      swap1\n      swap2\n      swap1\n      swap2\n      swap1\n      swap2\n      pop\n      0x00\n      dup3\n      add\n      mload\n      dup2\n      0x00\n      add\n      sstore\n      0x20\n      dup3\n      add\n      mload\n      dup2\n      0x01\n      add\n      swap1\n      0x05\n      tag_47\n      swap3\n      swap2\n      swap1\n      tag_48\n      jump\t// in\n    tag_47:\n      pop\n      0x40\n      dup3\n      add\n      mload\n      dup2\n      0x06\n      add\n      swap1\n      dup2\n      tag_49\n      swap2\n      swap1\n      tag_50\n      jump\t// in\n    tag_49:\n      pop\n      pop\n      pop\n        /* \"contracts/Adv/structs.sol\":301:442  {... */\n      pop\n        /* \"contracts/Adv/structs.sol\":226:442  function setData(uint id, uint[5] memory marks, string memory name) public {... */\n      pop\n      pop\n      pop\n      jump\t// out\n        /* \"contracts/Adv/structs.sol\":448:662  function updateInfo(uint id, string memory name, uint sub, uint marks) public {... */\n    tag_26:\n        /* \"contracts/Adv/structs.sol\":536:555  Student storage tmp */\n      0x00\n        /* \"contracts/Adv/structs.sol\":558:566  students */\n      dup1\n        /* \"contracts/Adv/structs.sol\":567:569  id */\n      dup6\n        /* \"contracts/Adv/structs.sol\":558:570  students[id] */\n      dup2\n      sload\n      dup2\n      lt\n      tag_52\n      jumpi\n      tag_53\n      tag_38\n      jump\t// in\n    tag_53:\n    tag_52:\n      swap1\n      0x00\n      mstore\n      keccak256(0x00, 0x20)\n      swap1\n      0x07\n      mul\n      add\n        /* \"contracts/Adv/structs.sol\":536:570  Student storage tmp = students[id] */\n      swap1\n      pop\n        /* \"contracts/Adv/structs.sol\":591:595  name */\n      dup4\n        /* \"contracts/Adv/structs.sol\":580:583  tmp */\n      dup2\n        /* \"contracts/Adv/structs.sol\":580:588  tmp.name */\n      0x06\n      add\n        /* \"contracts/Adv/structs.sol\":580:595  tmp.name = name */\n      swap1\n      dup2\n      tag_55\n      swap2\n      swap1\n      tag_50\n      jump\t// in\n    tag_55:\n      pop\n        /* \"contracts/Adv/structs.sol\":622:627  marks */\n      dup2\n        /* \"contracts/Adv/structs.sol\":605:608  tmp */\n      dup2\n        /* \"contracts/Adv/structs.sol\":605:614  tmp.marks */\n      0x01\n      add\n        /* \"contracts/Adv/structs.sol\":615:618  sub */\n      dup5\n        /* \"contracts/Adv/structs.sol\":605:619  tmp.marks[sub] */\n      0x05\n      dup2\n      lt\n      tag_56\n      jumpi\n      tag_57\n      tag_38\n      jump\t// in\n    tag_57:\n    tag_56:\n      add\n        /* \"contracts/Adv/structs.sol\":605:627  tmp.marks[sub] = marks */\n      dup2\n      swap1\n      sstore\n      pop\n        /* \"contracts/Adv/structs.sol\":652:655  tmp */\n      dup1\n        /* \"contracts/Adv/structs.sol\":637:645  students */\n      0x00\n        /* \"contracts/Adv/structs.sol\":646:648  id */\n      dup7\n        /* \"contracts/Adv/structs.sol\":637:649  students[id] */\n      dup2\n      sload\n      dup2\n      lt\n      tag_59\n      jumpi\n      tag_60\n      tag_38\n      jump\t// in\n    tag_60:\n    tag_59:\n      swap1\n      0x00\n      mstore\n      keccak256(0x00, 0x20)\n      swap1\n      0x07\n      mul\n      add\n        /* \"contracts/Adv/structs.sol\":637:655  students[id] = tmp */\n      0x00\n      dup3\n      add\n      sload\n      dup2\n      0x00\n      add\n      sstore\n      0x01\n      dup3\n      add\n      dup2\n      0x01\n      add\n      swap1\n      0x05\n      tag_62\n      swap3\n      swap2\n      swap1\n      tag_63\n      jump\t// in\n    tag_62:\n      pop\n      0x06\n      dup3\n      add\n      dup2\n      0x06\n      add\n      swap1\n      dup2\n      tag_64\n      swap2\n      swap1\n      tag_65\n      jump\t// in\n    tag_64:\n      pop\n      swap1\n      pop\n      pop\n        /* \"contracts/Adv/structs.sol\":526:662  {... */\n      pop\n        /* \"contracts/Adv/structs.sol\":448:662  function updateInfo(uint id, string memory name, uint sub, uint marks) public {... */\n      pop\n      pop\n      pop\n      pop\n      jump\t// out\n    tag_45:\n      mload(0x40)\n      dup1\n      0x60\n      add\n      0x40\n      mstore\n      dup1\n      0x00\n      dup2\n      mstore\n      0x20\n      add\n      tag_66\n      tag_67\n      jump\t// in\n    tag_66:\n      dup2\n      mstore\n      0x20\n      add\n      0x60\n      dup2\n      mstore\n      pop\n      swap1\n      jump\t// out\n    tag_48:\n      dup3\n      0x05\n      dup2\n      add\n      swap3\n      dup3\n      iszero\n      tag_68\n      jumpi\n      swap2\n      0x20\n      mul\n      dup3\n      add\n    tag_69:\n      dup3\n      dup2\n      gt\n      iszero\n      tag_70\n      jumpi\n      dup3\n      mload\n      dup3\n      sstore\n      swap2\n      0x20\n      add\n      swap2\n      swap1\n      0x01\n      add\n      swap1\n      jump(tag_69)\n    tag_70:\n    tag_68:\n      pop\n      swap1\n      pop\n      tag_71\n      swap2\n      swap1\n      tag_72\n      jump\t// in\n    tag_71:\n      pop\n      swap1\n      jump\t// out\n    tag_63:\n      dup3\n      0x05\n      dup2\n      add\n      swap3\n      dup3\n      iszero\n      tag_73\n      jumpi\n      swap2\n      dup3\n      add\n    tag_74:\n      dup3\n      dup2\n      gt\n      iszero\n      tag_75\n      jumpi\n      dup3\n      sload\n      dup3\n      sstore\n      swap2\n      0x01\n      add\n      swap2\n      swap1\n      0x01\n      add\n      swap1\n      jump(tag_74)\n    tag_75:\n    tag_73:\n      pop\n      swap1\n      pop\n      tag_76\n      swap2\n      swap1\n      tag_72\n      jump\t// in\n    tag_76:\n      pop\n      swap1\n      jump\t// out\n    tag_67:\n      mload(0x40)\n      dup1\n      0xa0\n      add\n      0x40\n      mstore\n      dup1\n      0x05\n      swap1\n      0x20\n      dup3\n      mul\n      dup1\n      calldatasize\n      dup4\n      calldatacopy\n      dup1\n      dup3\n      add\n      swap2\n      pop\n      pop\n      swap1\n      pop\n      pop\n      swap1\n      jump\t// out\n    tag_72:\n    tag_77:\n      dup1\n      dup3\n      gt\n      iszero\n      tag_78\n      jumpi\n      0x00\n      dup2\n      0x00\n      swap1\n      sstore\n      pop\n      0x01\n      add\n      jump(tag_77)\n    tag_78:\n      pop\n      swap1\n      jump\t// out\n        /* \"#utility.yul\":7:82   */\n    tag_79:\n        /* \"#utility.yul\":40:46   */\n      0x00\n        /* \"#utility.yul\":73:75   */\n      0x40\n        /* \"#utility.yul\":67:76   */\n      mload\n        /* \"#utility.yul\":57:76   */\n      swap1\n      pop\n        /* \"#utility.yul\":7:82   */\n      swap1\n      jump\t// out\n        /* \"#utility.yul\":88:205   */\n    tag_80:\n        /* \"#utility.yul\":197:198   */\n      0x00\n        /* \"#utility.yul\":194:195   */\n      dup1\n        /* \"#utility.yul\":187:199   */\n      revert\n        /* \"#utility.yul\":211:328   */\n    tag_81:\n        /* \"#utility.yul\":320:321   */\n      0x00\n        /* \"#utility.yul\":317:318   */\n      dup1\n        /* \"#utility.yul\":310:322   */\n      revert\n        /* \"#utility.yul\":334:411   */\n    tag_82:\n        /* \"#utility.yul\":371:378   */\n      0x00\n        /* \"#utility.yul\":400:405   */\n      dup2\n        /* \"#utility.yul\":389:405   */\n      swap1\n      pop\n        /* \"#utility.yul\":334:411   */\n      swap2\n      swap1\n      pop\n      jump\t// out\n        /* \"#utility.yul\":417:539   */\n    tag_83:\n        /* \"#utility.yul\":490:514   */\n      tag_127\n        /* \"#utility.yul\":508:513   */\n      dup2\n        /* \"#utility.yul\":490:514   */\n      tag_82\n      jump\t// in\n    tag_127:\n        /* \"#utility.yul\":483:488   */\n      dup2\n        /* \"#utility.yul\":480:515   */\n      eq\n        /* \"#utility.yul\":470:533   */\n      tag_128\n      jumpi\n        /* \"#utility.yul\":529:530   */\n      0x00\n        /* \"#utility.yul\":526:527   */\n      dup1\n        /* \"#utility.yul\":519:531   */\n      revert\n        /* \"#utility.yul\":470:533   */\n    tag_128:\n        /* \"#utility.yul\":417:539   */\n      pop\n      jump\t// out\n        /* \"#utility.yul\":545:684   */\n    tag_84:\n        /* \"#utility.yul\":591:596   */\n      0x00\n        /* \"#utility.yul\":629:635   */\n      dup2\n        /* \"#utility.yul\":616:636   */\n      calldataload\n        /* \"#utility.yul\":607:636   */\n      swap1\n      pop\n        /* \"#utility.yul\":645:678   */\n      tag_130\n        /* \"#utility.yul\":672:677   */\n      dup2\n        /* \"#utility.yul\":645:678   */\n      tag_83\n      jump\t// in\n    tag_130:\n        /* \"#utility.yul\":545:684   */\n      swap3\n      swap2\n      pop\n      pop\n      jump\t// out\n        /* \"#utility.yul\":690:1019   */\n    tag_9:\n        /* \"#utility.yul\":749:755   */\n      0x00\n        /* \"#utility.yul\":798:800   */\n      0x20\n        /* \"#utility.yul\":786:795   */\n      dup3\n        /* \"#utility.yul\":777:784   */\n      dup5\n        /* \"#utility.yul\":773:796   */\n      sub\n        /* \"#utility.yul\":769:801   */\n      slt\n        /* \"#utility.yul\":766:885   */\n      iszero\n      tag_132\n      jumpi\n        /* \"#utility.yul\":804:883   */\n      tag_133\n      tag_80\n      jump\t// in\n    tag_133:\n        /* \"#utility.yul\":766:885   */\n    tag_132:\n        /* \"#utility.yul\":924:925   */\n      0x00\n        /* \"#utility.yul\":949:1002   */\n      tag_134\n        /* \"#utility.yul\":994:1001   */\n      dup5\n        /* \"#utility.yul\":985:991   */\n      dup3\n        /* \"#utility.yul\":974:983   */\n      dup6\n        /* \"#utility.yul\":970:992   */\n      add\n        /* \"#utility.yul\":949:1002   */\n      tag_84\n      jump\t// in\n    tag_134:\n        /* \"#utility.yul\":939:1002   */\n      swap2\n      pop\n        /* \"#utility.yul\":895:1012   */\n      pop\n        /* \"#utility.yul\":690:1019   */\n      swap3\n      swap2\n      pop\n      pop\n      jump\t// out\n        /* \"#utility.yul\":1025:1143   */\n    tag_85:\n        /* \"#utility.yul\":1112:1136   */\n      tag_136\n        /* \"#utility.yul\":1130:1135   */\n      dup2\n        /* \"#utility.yul\":1112:1136   */\n      tag_82\n      jump\t// in\n    tag_136:\n        /* \"#utility.yul\":1107:1110   */\n      dup3\n        /* \"#utility.yul\":1100:1137   */\n      mstore\n        /* \"#utility.yul\":1025:1143   */\n      pop\n      pop\n      jump\t// out\n        /* \"#utility.yul\":1149:1248   */\n    tag_86:\n        /* \"#utility.yul\":1201:1207   */\n      0x00\n        /* \"#utility.yul\":1235:1240   */\n      dup2\n        /* \"#utility.yul\":1229:1241   */\n      mload\n        /* \"#utility.yul\":1219:1241   */\n      swap1\n      pop\n        /* \"#utility.yul\":1149:1248   */\n      swap2\n      swap1\n      pop\n      jump\t// out\n        /* \"#utility.yul\":1254:1423   */\n    tag_87:\n        /* \"#utility.yul\":1338:1349   */\n      0x00\n        /* \"#utility.yul\":1372:1378   */\n      dup3\n        /* \"#utility.yul\":1367:1370   */\n      dup3\n        /* \"#utility.yul\":1360:1379   */\n      mstore\n        /* \"#utility.yul\":1412:1416   */\n      0x20\n        /* \"#utility.yul\":1407:1410   */\n      dup3\n        /* \"#utility.yul\":1403:1417   */\n      add\n        /* \"#utility.yul\":1388:1417   */\n      swap1\n      pop\n        /* \"#utility.yul\":1254:1423   */\n      swap3\n      swap2\n      pop\n      pop\n      jump\t// out\n        /* \"#utility.yul\":1429:1568   */\n    tag_88:\n        /* \"#utility.yul\":1518:1524   */\n      dup3\n        /* \"#utility.yul\":1513:1516   */\n      dup2\n        /* \"#utility.yul\":1508:1511   */\n      dup4\n        /* \"#utility.yul\":1502:1525   */\n      mcopy\n        /* \"#utility.yul\":1559:1560   */\n      0x00\n        /* \"#utility.yul\":1550:1556   */\n      dup4\n        /* \"#utility.yul\":1545:1548   */\n      dup4\n        /* \"#utility.yul\":1541:1557   */\n      add\n        /* \"#utility.yul\":1534:1561   */\n      mstore\n        /* \"#utility.yul\":1429:1568   */\n      pop\n      pop\n      pop\n      jump\t// out\n        /* \"#utility.yul\":1574:1676   */\n    tag_89:\n        /* \"#utility.yul\":1615:1621   */\n      0x00\n        /* \"#utility.yul\":1666:1668   */\n      0x1f\n        /* \"#utility.yul\":1662:1669   */\n      not\n        /* \"#utility.yul\":1657:1659   */\n      0x1f\n        /* \"#utility.yul\":1650:1655   */\n      dup4\n        /* \"#utility.yul\":1646:1660   */\n      add\n        /* \"#utility.yul\":1642:1670   */\n      and\n        /* \"#utility.yul\":1632:1670   */\n      swap1\n      pop\n        /* \"#utility.yul\":1574:1676   */\n      swap2\n      swap1\n      pop\n      jump\t// out\n        /* \"#utility.yul\":1682:2059   */\n    tag_90:\n        /* \"#utility.yul\":1770:1773   */\n      0x00\n        /* \"#utility.yul\":1798:1837   */\n      tag_142\n        /* \"#utility.yul\":1831:1836   */\n      dup3\n        /* \"#utility.yul\":1798:1837   */\n      tag_86\n      jump\t// in\n    tag_142:\n        /* \"#utility.yul\":1853:1924   */\n      tag_143\n        /* \"#utility.yul\":1917:1923   */\n      dup2\n        /* \"#utility.yul\":1912:1915   */\n      dup6\n        /* \"#utility.yul\":1853:1924   */\n      tag_87\n      jump\t// in\n    tag_143:\n        /* \"#utility.yul\":1846:1924   */\n      swap4\n      pop\n        /* \"#utility.yul\":1933:1998   */\n      tag_144\n        /* \"#utility.yul\":1991:1997   */\n      dup2\n        /* \"#utility.yul\":1986:1989   */\n      dup6\n        /* \"#utility.yul\":1979:1983   */\n      0x20\n        /* \"#utility.yul\":1972:1977   */\n      dup7\n        /* \"#utility.yul\":1968:1984   */\n      add\n        /* \"#utility.yul\":1933:1998   */\n      tag_88\n      jump\t// in\n    tag_144:\n        /* \"#utility.yul\":2023:2052   */\n      tag_145\n        /* \"#utility.yul\":2045:2051   */\n      dup2\n        /* \"#utility.yul\":2023:2052   */\n      tag_89\n      jump\t// in\n    tag_145:\n        /* \"#utility.yul\":2018:2021   */\n      dup5\n        /* \"#utility.yul\":2014:2053   */\n      add\n        /* \"#utility.yul\":2007:2053   */\n      swap2\n      pop\n        /* \"#utility.yul\":1774:2059   */\n      pop\n        /* \"#utility.yul\":1682:2059   */\n      swap3\n      swap2\n      pop\n      pop\n      jump\t// out\n        /* \"#utility.yul\":2065:2488   */\n    tag_12:\n        /* \"#utility.yul\":2206:2210   */\n      0x00\n        /* \"#utility.yul\":2244:2246   */\n      0x40\n        /* \"#utility.yul\":2233:2242   */\n      dup3\n        /* \"#utility.yul\":2229:2247   */\n      add\n        /* \"#utility.yul\":2221:2247   */\n      swap1\n      pop\n        /* \"#utility.yul\":2257:2328   */\n      tag_147\n        /* \"#utility.yul\":2325:2326   */\n      0x00\n        /* \"#utility.yul\":2314:2323   */\n      dup4\n        /* \"#utility.yul\":2310:2327   */\n      add\n        /* \"#utility.yul\":2301:2307   */\n      dup6\n        /* \"#utility.yul\":2257:2328   */\n      tag_85\n      jump\t// in\n    tag_147:\n        /* \"#utility.yul\":2375:2384   */\n      dup2\n        /* \"#utility.yul\":2369:2373   */\n      dup2\n        /* \"#utility.yul\":2365:2385   */\n      sub\n        /* \"#utility.yul\":2360:2362   */\n      0x20\n        /* \"#utility.yul\":2349:2358   */\n      dup4\n        /* \"#utility.yul\":2345:2363   */\n      add\n        /* \"#utility.yul\":2338:2386   */\n      mstore\n        /* \"#utility.yul\":2403:2481   */\n      tag_148\n        /* \"#utility.yul\":2476:2480   */\n      dup2\n        /* \"#utility.yul\":2467:2473   */\n      dup5\n        /* \"#utility.yul\":2403:2481   */\n      tag_90\n      jump\t// in\n    tag_148:\n        /* \"#utility.yul\":2395:2481   */\n      swap1\n      pop\n        /* \"#utility.yul\":2065:2488   */\n      swap4\n      swap3\n      pop\n      pop\n      pop\n      jump\t// out\n        /* \"#utility.yul\":2494:2968   */\n    tag_15:\n        /* \"#utility.yul\":2562:2568   */\n      0x00\n        /* \"#utility.yul\":2570:2576   */\n      dup1\n        /* \"#utility.yul\":2619:2621   */\n      0x40\n        /* \"#utility.yul\":2607:2616   */\n      dup4\n        /* \"#utility.yul\":2598:2605   */\n      dup6\n        /* \"#utility.yul\":2594:2617   */\n      sub\n        /* \"#utility.yul\":2590:2622   */\n      slt\n        /* \"#utility.yul\":2587:2706   */\n      iszero\n      tag_150\n      jumpi\n        /* \"#utility.yul\":2625:2704   */\n      tag_151\n      tag_80\n      jump\t// in\n    tag_151:\n        /* \"#utility.yul\":2587:2706   */\n    tag_150:\n        /* \"#utility.yul\":2745:2746   */\n      0x00\n        /* \"#utility.yul\":2770:2823   */\n      tag_152\n        /* \"#utility.yul\":2815:2822   */\n      dup6\n        /* \"#utility.yul\":2806:2812   */\n      dup3\n        /* \"#utility.yul\":2795:2804   */\n      dup7\n        /* \"#utility.yul\":2791:2813   */\n      add\n        /* \"#utility.yul\":2770:2823   */\n      tag_84\n      jump\t// in\n    tag_152:\n        /* \"#utility.yul\":2760:2823   */\n      swap3\n      pop\n        /* \"#utility.yul\":2716:2833   */\n      pop\n        /* \"#utility.yul\":2872:2874   */\n      0x20\n        /* \"#utility.yul\":2898:2951   */\n      tag_153\n        /* \"#utility.yul\":2943:2950   */\n      dup6\n        /* \"#utility.yul\":2934:2940   */\n      dup3\n        /* \"#utility.yul\":2923:2932   */\n      dup7\n        /* \"#utility.yul\":2919:2941   */\n      add\n        /* \"#utility.yul\":2898:2951   */\n      tag_84\n      jump\t// in\n    tag_153:\n        /* \"#utility.yul\":2888:2951   */\n      swap2\n      pop\n        /* \"#utility.yul\":2843:2961   */\n      pop\n        /* \"#utility.yul\":2494:2968   */\n      swap3\n      pop\n      swap3\n      swap1\n      pop\n      jump\t// out\n        /* \"#utility.yul\":2974:3196   */\n    tag_18:\n        /* \"#utility.yul\":3067:3071   */\n      0x00\n        /* \"#utility.yul\":3105:3107   */\n      0x20\n        /* \"#utility.yul\":3094:3103   */\n      dup3\n        /* \"#utility.yul\":3090:3108   */\n      add\n        /* \"#utility.yul\":3082:3108   */\n      swap1\n      pop\n        /* \"#utility.yul\":3118:3189   */\n      tag_155\n        /* \"#utility.yul\":3186:3187   */\n      0x00\n        /* \"#utility.yul\":3175:3184   */\n      dup4\n        /* \"#utility.yul\":3171:3188   */\n      add\n        /* \"#utility.yul\":3162:3168   */\n      dup5\n        /* \"#utility.yul\":3118:3189   */\n      tag_85\n      jump\t// in\n    tag_155:\n        /* \"#utility.yul\":2974:3196   */\n      swap3\n      swap2\n      pop\n      pop\n      jump\t// out\n        /* \"#utility.yul\":3202:3319   */\n    tag_91:\n        /* \"#utility.yul\":3311:3312   */\n      0x00\n        /* \"#utility.yul\":3308:3309   */\n      dup1\n        /* \"#utility.yul\":3301:3313   */\n      revert\n        /* \"#utility.yul\":3325:3505   */\n    tag_92:\n        /* \"#utility.yul\":3373:3450   */\n      0x4e487b7100000000000000000000000000000000000000000000000000000000\n        /* \"#utility.yul\":3370:3371   */\n      0x00\n        /* \"#utility.yul\":3363:3451   */\n      mstore\n        /* \"#utility.yul\":3470:3474   */\n      0x41\n        /* \"#utility.yul\":3467:3468   */\n      0x04\n        /* \"#utility.yul\":3460:3475   */\n      mstore\n        /* \"#utility.yul\":3494:3498   */\n      0x24\n        /* \"#utility.yul\":3491:3492   */\n      0x00\n        /* \"#utility.yul\":3484:3499   */\n      revert\n        /* \"#utility.yul\":3511:3792   */\n    tag_93:\n        /* \"#utility.yul\":3594:3621   */\n      tag_159\n        /* \"#utility.yul\":3616:3620   */\n      dup3\n        /* \"#utility.yul\":3594:3621   */\n      tag_89\n      jump\t// in\n    tag_159:\n        /* \"#utility.yul\":3586:3592   */\n      dup2\n        /* \"#utility.yul\":3582:3622   */\n      add\n        /* \"#utility.yul\":3724:3730   */\n      dup2\n        /* \"#utility.yul\":3712:3722   */\n      dup2\n        /* \"#utility.yul\":3709:3731   */\n      lt\n        /* \"#utility.yul\":3688:3706   */\n      0xffffffffffffffff\n        /* \"#utility.yul\":3676:3686   */\n      dup3\n        /* \"#utility.yul\":3673:3707   */\n      gt\n        /* \"#utility.yul\":3670:3732   */\n      or\n        /* \"#utility.yul\":3667:3755   */\n      iszero\n      tag_160\n      jumpi\n        /* \"#utility.yul\":3735:3753   */\n      tag_161\n      tag_92\n      jump\t// in\n    tag_161:\n        /* \"#utility.yul\":3667:3755   */\n    tag_160:\n        /* \"#utility.yul\":3775:3785   */\n      dup1\n        /* \"#utility.yul\":3771:3773   */\n      0x40\n        /* \"#utility.yul\":3764:3786   */\n      mstore\n        /* \"#utility.yul\":3554:3792   */\n      pop\n        /* \"#utility.yul\":3511:3792   */\n      pop\n      pop\n      jump\t// out\n        /* \"#utility.yul\":3798:3927   */\n    tag_94:\n        /* \"#utility.yul\":3832:3838   */\n      0x00\n        /* \"#utility.yul\":3859:3879   */\n      tag_163\n      tag_79\n      jump\t// in\n    tag_163:\n        /* \"#utility.yul\":3849:3879   */\n      swap1\n      pop\n        /* \"#utility.yul\":3888:3921   */\n      tag_164\n        /* \"#utility.yul\":3916:3920   */\n      dup3\n        /* \"#utility.yul\":3908:3914   */\n      dup3\n        /* \"#utility.yul\":3888:3921   */\n      tag_93\n      jump\t// in\n    tag_164:\n        /* \"#utility.yul\":3798:3927   */\n      swap2\n      swap1\n      pop\n      jump\t// out\n        /* \"#utility.yul\":3933:4182   */\n    tag_95:\n        /* \"#utility.yul\":4008:4012   */\n      0x00\n        /* \"#utility.yul\":4098:4116   */\n      0xffffffffffffffff\n        /* \"#utility.yul\":4090:4096   */\n      dup3\n        /* \"#utility.yul\":4087:4117   */\n      gt\n        /* \"#utility.yul\":4084:4140   */\n      iszero\n      tag_166\n      jumpi\n        /* \"#utility.yul\":4120:4138   */\n      tag_167\n      tag_92\n      jump\t// in\n    tag_167:\n        /* \"#utility.yul\":4084:4140   */\n    tag_166:\n        /* \"#utility.yul\":4170:4174   */\n      0x20\n        /* \"#utility.yul\":4162:4168   */\n      dup3\n        /* \"#utility.yul\":4158:4175   */\n      mul\n        /* \"#utility.yul\":4150:4175   */\n      swap1\n      pop\n        /* \"#utility.yul\":3933:4182   */\n      swap2\n      swap1\n      pop\n      jump\t// out\n        /* \"#utility.yul\":4188:4305   */\n    tag_96:\n        /* \"#utility.yul\":4297:4298   */\n      0x00\n        /* \"#utility.yul\":4294:4295   */\n      dup1\n        /* \"#utility.yul\":4287:4299   */\n      revert\n        /* \"#utility.yul\":4329:4972   */\n    tag_97:\n        /* \"#utility.yul\":4423:4428   */\n      0x00\n        /* \"#utility.yul\":4448:4527   */\n      tag_170\n        /* \"#utility.yul\":4464:4526   */\n      tag_171\n        /* \"#utility.yul\":4519:4525   */\n      dup5\n        /* \"#utility.yul\":4464:4526   */\n      tag_95\n      jump\t// in\n    tag_171:\n        /* \"#utility.yul\":4448:4527   */\n      tag_94\n      jump\t// in\n    tag_170:\n        /* \"#utility.yul\":4439:4527   */\n      swap1\n      pop\n        /* \"#utility.yul\":4547:4552   */\n      dup1\n        /* \"#utility.yul\":4600:4604   */\n      0x20\n        /* \"#utility.yul\":4592:4598   */\n      dup5\n        /* \"#utility.yul\":4588:4605   */\n      mul\n        /* \"#utility.yul\":4580:4586   */\n      dup4\n        /* \"#utility.yul\":4576:4606   */\n      add\n        /* \"#utility.yul\":4629:4632   */\n      dup6\n        /* \"#utility.yul\":4621:4627   */\n      dup2\n        /* \"#utility.yul\":4618:4633   */\n      gt\n        /* \"#utility.yul\":4615:4737   */\n      iszero\n      tag_172\n      jumpi\n        /* \"#utility.yul\":4648:4727   */\n      tag_173\n      tag_96\n      jump\t// in\n    tag_173:\n        /* \"#utility.yul\":4615:4737   */\n    tag_172:\n        /* \"#utility.yul\":4763:4769   */\n      dup4\n        /* \"#utility.yul\":4746:4966   */\n    tag_174:\n        /* \"#utility.yul\":4780:4786   */\n      dup2\n        /* \"#utility.yul\":4775:4778   */\n      dup2\n        /* \"#utility.yul\":4772:4787   */\n      lt\n        /* \"#utility.yul\":4746:4966   */\n      iszero\n      tag_176\n      jumpi\n        /* \"#utility.yul\":4855:4858   */\n      dup1\n        /* \"#utility.yul\":4884:4921   */\n      tag_177\n        /* \"#utility.yul\":4917:4920   */\n      dup9\n        /* \"#utility.yul\":4905:4915   */\n      dup3\n        /* \"#utility.yul\":4884:4921   */\n      tag_84\n      jump\t// in\n    tag_177:\n        /* \"#utility.yul\":4879:4882   */\n      dup5\n        /* \"#utility.yul\":4872:4922   */\n      mstore\n        /* \"#utility.yul\":4951:4955   */\n      0x20\n        /* \"#utility.yul\":4946:4949   */\n      dup5\n        /* \"#utility.yul\":4942:4956   */\n      add\n        /* \"#utility.yul\":4935:4956   */\n      swap4\n      pop\n        /* \"#utility.yul\":4822:4966   */\n      pop\n        /* \"#utility.yul\":4806:4810   */\n      0x20\n        /* \"#utility.yul\":4801:4804   */\n      dup2\n        /* \"#utility.yul\":4797:4811   */\n      add\n        /* \"#utility.yul\":4790:4811   */\n      swap1\n      pop\n        /* \"#utility.yul\":4746:4966   */\n      jump(tag_174)\n    tag_176:\n        /* \"#utility.yul\":4750:4771   */\n      pop\n        /* \"#utility.yul\":4429:4972   */\n      pop\n      pop\n        /* \"#utility.yul\":4329:4972   */\n      swap4\n      swap3\n      pop\n      pop\n      pop\n      jump\t// out\n        /* \"#utility.yul\":4996:5335   */\n    tag_98:\n        /* \"#utility.yul\":5065:5070   */\n      0x00\n        /* \"#utility.yul\":5114:5117   */\n      dup3\n        /* \"#utility.yul\":5107:5111   */\n      0x1f\n        /* \"#utility.yul\":5099:5105   */\n      dup4\n        /* \"#utility.yul\":5095:5112   */\n      add\n        /* \"#utility.yul\":5091:5118   */\n      slt\n        /* \"#utility.yul\":5081:5203   */\n      tag_179\n      jumpi\n        /* \"#utility.yul\":5122:5201   */\n      tag_180\n      tag_91\n      jump\t// in\n    tag_180:\n        /* \"#utility.yul\":5081:5203   */\n    tag_179:\n        /* \"#utility.yul\":5226:5230   */\n      0x05\n        /* \"#utility.yul\":5248:5329   */\n      tag_181\n        /* \"#utility.yul\":5325:5328   */\n      dup5\n        /* \"#utility.yul\":5317:5323   */\n      dup3\n        /* \"#utility.yul\":5309:5315   */\n      dup6\n        /* \"#utility.yul\":5248:5329   */\n      tag_97\n      jump\t// in\n    tag_181:\n        /* \"#utility.yul\":5239:5329   */\n      swap2\n      pop\n        /* \"#utility.yul\":5071:5335   */\n      pop\n        /* \"#utility.yul\":4996:5335   */\n      swap3\n      swap2\n      pop\n      pop\n      jump\t// out\n        /* \"#utility.yul\":5341:5458   */\n    tag_99:\n        /* \"#utility.yul\":5450:5451   */\n      0x00\n        /* \"#utility.yul\":5447:5448   */\n      dup1\n        /* \"#utility.yul\":5440:5452   */\n      revert\n        /* \"#utility.yul\":5464:5772   */\n    tag_100:\n        /* \"#utility.yul\":5526:5530   */\n      0x00\n        /* \"#utility.yul\":5616:5634   */\n      0xffffffffffffffff\n        /* \"#utility.yul\":5608:5614   */\n      dup3\n        /* \"#utility.yul\":5605:5635   */\n      gt\n        /* \"#utility.yul\":5602:5658   */\n      iszero\n      tag_184\n      jumpi\n        /* \"#utility.yul\":5638:5656   */\n      tag_185\n      tag_92\n      jump\t// in\n    tag_185:\n        /* \"#utility.yul\":5602:5658   */\n    tag_184:\n        /* \"#utility.yul\":5676:5705   */\n      tag_186\n        /* \"#utility.yul\":5698:5704   */\n      dup3\n        /* \"#utility.yul\":5676:5705   */\n      tag_89\n      jump\t// in\n    tag_186:\n        /* \"#utility.yul\":5668:5705   */\n      swap1\n      pop\n        /* \"#utility.yul\":5760:5764   */\n      0x20\n        /* \"#utility.yul\":5754:5758   */\n      dup2\n        /* \"#utility.yul\":5750:5765   */\n      add\n        /* \"#utility.yul\":5742:5765   */\n      swap1\n      pop\n        /* \"#utility.yul\":5464:5772   */\n      swap2\n      swap1\n      pop\n      jump\t// out\n        /* \"#utility.yul\":5778:5926   */\n    tag_101:\n        /* \"#utility.yul\":5876:5882   */\n      dup3\n        /* \"#utility.yul\":5871:5874   */\n      dup2\n        /* \"#utility.yul\":5866:5869   */\n      dup4\n        /* \"#utility.yul\":5853:5883   */\n      calldatacopy\n        /* \"#utility.yul\":5917:5918   */\n      0x00\n        /* \"#utility.yul\":5908:5914   */\n      dup4\n        /* \"#utility.yul\":5903:5906   */\n      dup4\n        /* \"#utility.yul\":5899:5915   */\n      add\n        /* \"#utility.yul\":5892:5919   */\n      mstore\n        /* \"#utility.yul\":5778:5926   */\n      pop\n      pop\n      pop\n      jump\t// out\n        /* \"#utility.yul\":5932:6357   */\n    tag_102:\n        /* \"#utility.yul\":6010:6015   */\n      0x00\n        /* \"#utility.yul\":6035:6101   */\n      tag_189\n        /* \"#utility.yul\":6051:6100   */\n      tag_190\n        /* \"#utility.yul\":6093:6099   */\n      dup5\n        /* \"#utility.yul\":6051:6100   */\n      tag_100\n      jump\t// in\n    tag_190:\n        /* \"#utility.yul\":6035:6101   */\n      tag_94\n      jump\t// in\n    tag_189:\n        /* \"#utility.yul\":6026:6101   */\n      swap1\n      pop\n        /* \"#utility.yul\":6124:6130   */\n      dup3\n        /* \"#utility.yul\":6117:6122   */\n      dup2\n        /* \"#utility.yul\":6110:6131   */\n      mstore\n        /* \"#utility.yul\":6162:6166   */\n      0x20\n        /* \"#utility.yul\":6155:6160   */\n      dup2\n        /* \"#utility.yul\":6151:6167   */\n      add\n        /* \"#utility.yul\":6200:6203   */\n      dup5\n        /* \"#utility.yul\":6191:6197   */\n      dup5\n        /* \"#utility.yul\":6186:6189   */\n      dup5\n        /* \"#utility.yul\":6182:6198   */\n      add\n        /* \"#utility.yul\":6179:6204   */\n      gt\n        /* \"#utility.yul\":6176:6288   */\n      iszero\n      tag_191\n      jumpi\n        /* \"#utility.yul\":6207:6286   */\n      tag_192\n      tag_99\n      jump\t// in\n    tag_192:\n        /* \"#utility.yul\":6176:6288   */\n    tag_191:\n        /* \"#utility.yul\":6297:6351   */\n      tag_193\n        /* \"#utility.yul\":6344:6350   */\n      dup5\n        /* \"#utility.yul\":6339:6342   */\n      dup3\n        /* \"#utility.yul\":6334:6337   */\n      dup6\n        /* \"#utility.yul\":6297:6351   */\n      tag_101\n      jump\t// in\n    tag_193:\n        /* \"#utility.yul\":6016:6357   */\n      pop\n        /* \"#utility.yul\":5932:6357   */\n      swap4\n      swap3\n      pop\n      pop\n      pop\n      jump\t// out\n        /* \"#utility.yul\":6377:6717   */\n    tag_103:\n        /* \"#utility.yul\":6433:6438   */\n      0x00\n        /* \"#utility.yul\":6482:6485   */\n      dup3\n        /* \"#utility.yul\":6475:6479   */\n      0x1f\n        /* \"#utility.yul\":6467:6473   */\n      dup4\n        /* \"#utility.yul\":6463:6480   */\n      add\n        /* \"#utility.yul\":6459:6486   */\n      slt\n        /* \"#utility.yul\":6449:6571   */\n      tag_195\n      jumpi\n        /* \"#utility.yul\":6490:6569   */\n      tag_196\n      tag_91\n      jump\t// in\n    tag_196:\n        /* \"#utility.yul\":6449:6571   */\n    tag_195:\n        /* \"#utility.yul\":6607:6613   */\n      dup2\n        /* \"#utility.yul\":6594:6614   */\n      calldataload\n        /* \"#utility.yul\":6632:6711   */\n      tag_197\n        /* \"#utility.yul\":6707:6710   */\n      dup5\n        /* \"#utility.yul\":6699:6705   */\n      dup3\n        /* \"#utility.yul\":6692:6696   */\n      0x20\n        /* \"#utility.yul\":6684:6690   */\n      dup7\n        /* \"#utility.yul\":6680:6697   */\n      add\n        /* \"#utility.yul\":6632:6711   */\n      tag_102\n      jump\t// in\n    tag_197:\n        /* \"#utility.yul\":6623:6711   */\n      swap2\n      pop\n        /* \"#utility.yul\":6439:6717   */\n      pop\n        /* \"#utility.yul\":6377:6717   */\n      swap3\n      swap2\n      pop\n      pop\n      jump\t// out\n        /* \"#utility.yul\":6723:7570   */\n    tag_21:\n        /* \"#utility.yul\":6833:6839   */\n      0x00\n        /* \"#utility.yul\":6841:6847   */\n      dup1\n        /* \"#utility.yul\":6849:6855   */\n      0x00\n        /* \"#utility.yul\":6898:6901   */\n      0xe0\n        /* \"#utility.yul\":6886:6895   */\n      dup5\n        /* \"#utility.yul\":6877:6884   */\n      dup7\n        /* \"#utility.yul\":6873:6896   */\n      sub\n        /* \"#utility.yul\":6869:6902   */\n      slt\n        /* \"#utility.yul\":6866:6986   */\n      iszero\n      tag_199\n      jumpi\n        /* \"#utility.yul\":6905:6984   */\n      tag_200\n      tag_80\n      jump\t// in\n    tag_200:\n        /* \"#utility.yul\":6866:6986   */\n    tag_199:\n        /* \"#utility.yul\":7025:7026   */\n      0x00\n        /* \"#utility.yul\":7050:7103   */\n      tag_201\n        /* \"#utility.yul\":7095:7102   */\n      dup7\n        /* \"#utility.yul\":7086:7092   */\n      dup3\n        /* \"#utility.yul\":7075:7084   */\n      dup8\n        /* \"#utility.yul\":7071:7093   */\n      add\n        /* \"#utility.yul\":7050:7103   */\n      tag_84\n      jump\t// in\n    tag_201:\n        /* \"#utility.yul\":7040:7103   */\n      swap4\n      pop\n        /* \"#utility.yul\":6996:7113   */\n      pop\n        /* \"#utility.yul\":7152:7154   */\n      0x20\n        /* \"#utility.yul\":7178:7254   */\n      tag_202\n        /* \"#utility.yul\":7246:7253   */\n      dup7\n        /* \"#utility.yul\":7237:7243   */\n      dup3\n        /* \"#utility.yul\":7226:7235   */\n      dup8\n        /* \"#utility.yul\":7222:7244   */\n      add\n        /* \"#utility.yul\":7178:7254   */\n      tag_98\n      jump\t// in\n    tag_202:\n        /* \"#utility.yul\":7168:7254   */\n      swap3\n      pop\n        /* \"#utility.yul\":7123:7264   */\n      pop\n        /* \"#utility.yul\":7331:7334   */\n      0xc0\n        /* \"#utility.yul\":7320:7329   */\n      dup5\n        /* \"#utility.yul\":7316:7335   */\n      add\n        /* \"#utility.yul\":7303:7336   */\n      calldataload\n        /* \"#utility.yul\":7363:7381   */\n      0xffffffffffffffff\n        /* \"#utility.yul\":7355:7361   */\n      dup2\n        /* \"#utility.yul\":7352:7382   */\n      gt\n        /* \"#utility.yul\":7349:7466   */\n      iszero\n      tag_203\n      jumpi\n        /* \"#utility.yul\":7385:7464   */\n      tag_204\n      tag_81\n      jump\t// in\n    tag_204:\n        /* \"#utility.yul\":7349:7466   */\n    tag_203:\n        /* \"#utility.yul\":7490:7553   */\n      tag_205\n        /* \"#utility.yul\":7545:7552   */\n      dup7\n        /* \"#utility.yul\":7536:7542   */\n      dup3\n        /* \"#utility.yul\":7525:7534   */\n      dup8\n        /* \"#utility.yul\":7521:7543   */\n      add\n        /* \"#utility.yul\":7490:7553   */\n      tag_103\n      jump\t// in\n    tag_205:\n        /* \"#utility.yul\":7480:7553   */\n      swap2\n      pop\n        /* \"#utility.yul\":7274:7563   */\n      pop\n        /* \"#utility.yul\":6723:7570   */\n      swap3\n      pop\n      swap3\n      pop\n      swap3\n      jump\t// out\n        /* \"#utility.yul\":7576:8521   */\n    tag_25:\n        /* \"#utility.yul\":7672:7678   */\n      0x00\n        /* \"#utility.yul\":7680:7686   */\n      dup1\n        /* \"#utility.yul\":7688:7694   */\n      0x00\n        /* \"#utility.yul\":7696:7702   */\n      dup1\n        /* \"#utility.yul\":7745:7748   */\n      0x80\n        /* \"#utility.yul\":7733:7742   */\n      dup6\n        /* \"#utility.yul\":7724:7731   */\n      dup8\n        /* \"#utility.yul\":7720:7743   */\n      sub\n        /* \"#utility.yul\":7716:7749   */\n      slt\n        /* \"#utility.yul\":7713:7833   */\n      iszero\n      tag_207\n      jumpi\n        /* \"#utility.yul\":7752:7831   */\n      tag_208\n      tag_80\n      jump\t// in\n    tag_208:\n        /* \"#utility.yul\":7713:7833   */\n    tag_207:\n        /* \"#utility.yul\":7872:7873   */\n      0x00\n        /* \"#utility.yul\":7897:7950   */\n      tag_209\n        /* \"#utility.yul\":7942:7949   */\n      dup8\n        /* \"#utility.yul\":7933:7939   */\n      dup3\n        /* \"#utility.yul\":7922:7931   */\n      dup9\n        /* \"#utility.yul\":7918:7940   */\n      add\n        /* \"#utility.yul\":7897:7950   */\n      tag_84\n      jump\t// in\n    tag_209:\n        /* \"#utility.yul\":7887:7950   */\n      swap5\n      pop\n        /* \"#utility.yul\":7843:7960   */\n      pop\n        /* \"#utility.yul\":8027:8029   */\n      0x20\n        /* \"#utility.yul\":8016:8025   */\n      dup6\n        /* \"#utility.yul\":8012:8030   */\n      add\n        /* \"#utility.yul\":7999:8031   */\n      calldataload\n        /* \"#utility.yul\":8058:8076   */\n      0xffffffffffffffff\n        /* \"#utility.yul\":8050:8056   */\n      dup2\n        /* \"#utility.yul\":8047:8077   */\n      gt\n        /* \"#utility.yul\":8044:8161   */\n      iszero\n      tag_210\n      jumpi\n        /* \"#utility.yul\":8080:8159   */\n      tag_211\n      tag_81\n      jump\t// in\n    tag_211:\n        /* \"#utility.yul\":8044:8161   */\n    tag_210:\n        /* \"#utility.yul\":8185:8248   */\n      tag_212\n        /* \"#utility.yul\":8240:8247   */\n      dup8\n        /* \"#utility.yul\":8231:8237   */\n      dup3\n        /* \"#utility.yul\":8220:8229   */\n      dup9\n        /* \"#utility.yul\":8216:8238   */\n      add\n        /* \"#utility.yul\":8185:8248   */\n      tag_103\n      jump\t// in\n    tag_212:\n        /* \"#utility.yul\":8175:8248   */\n      swap4\n      pop\n        /* \"#utility.yul\":7970:8258   */\n      pop\n        /* \"#utility.yul\":8297:8299   */\n      0x40\n        /* \"#utility.yul\":8323:8376   */\n      tag_213\n        /* \"#utility.yul\":8368:8375   */\n      dup8\n        /* \"#utility.yul\":8359:8365   */\n      dup3\n        /* \"#utility.yul\":8348:8357   */\n      dup9\n        /* \"#utility.yul\":8344:8366   */\n      add\n        /* \"#utility.yul\":8323:8376   */\n      tag_84\n      jump\t// in\n    tag_213:\n        /* \"#utility.yul\":8313:8376   */\n      swap3\n      pop\n        /* \"#utility.yul\":8268:8386   */\n      pop\n        /* \"#utility.yul\":8425:8427   */\n      0x60\n        /* \"#utility.yul\":8451:8504   */\n      tag_214\n        /* \"#utility.yul\":8496:8503   */\n      dup8\n        /* \"#utility.yul\":8487:8493   */\n      dup3\n        /* \"#utility.yul\":8476:8485   */\n      dup9\n        /* \"#utility.yul\":8472:8494   */\n      add\n        /* \"#utility.yul\":8451:8504   */\n      tag_84\n      jump\t// in\n    tag_214:\n        /* \"#utility.yul\":8441:8504   */\n      swap2\n      pop\n        /* \"#utility.yul\":8396:8514   */\n      pop\n        /* \"#utility.yul\":7576:8521   */\n      swap3\n      swap6\n      swap2\n      swap5\n      pop\n      swap3\n      pop\n      jump\t// out\n        /* \"#utility.yul\":8527:8707   */\n    tag_104:\n        /* \"#utility.yul\":8575:8652   */\n      0x4e487b7100000000000000000000000000000000000000000000000000000000\n        /* \"#utility.yul\":8572:8573   */\n      0x00\n        /* \"#utility.yul\":8565:8653   */\n      mstore\n        /* \"#utility.yul\":8672:8676   */\n      0x22\n        /* \"#utility.yul\":8669:8670   */\n      0x04\n        /* \"#utility.yul\":8662:8677   */\n      mstore\n        /* \"#utility.yul\":8696:8700   */\n      0x24\n        /* \"#utility.yul\":8693:8694   */\n      0x00\n        /* \"#utility.yul\":8686:8701   */\n      revert\n        /* \"#utility.yul\":8713:9033   */\n    tag_30:\n        /* \"#utility.yul\":8757:8763   */\n      0x00\n        /* \"#utility.yul\":8794:8795   */\n      0x02\n        /* \"#utility.yul\":8788:8792   */\n      dup3\n        /* \"#utility.yul\":8784:8796   */\n      div\n        /* \"#utility.yul\":8774:8796   */\n      swap1\n      pop\n        /* \"#utility.yul\":8841:8842   */\n      0x01\n        /* \"#utility.yul\":8835:8839   */\n      dup3\n        /* \"#utility.yul\":8831:8843   */\n      and\n        /* \"#utility.yul\":8862:8880   */\n      dup1\n        /* \"#utility.yul\":8852:8933   */\n      tag_217\n      jumpi\n        /* \"#utility.yul\":8918:8922   */\n      0x7f\n        /* \"#utility.yul\":8910:8916   */\n      dup3\n        /* \"#utility.yul\":8906:8923   */\n      and\n        /* \"#utility.yul\":8896:8923   */\n      swap2\n      pop\n        /* \"#utility.yul\":8852:8933   */\n    tag_217:\n        /* \"#utility.yul\":8980:8982   */\n      0x20\n        /* \"#utility.yul\":8972:8978   */\n      dup3\n        /* \"#utility.yul\":8969:8983   */\n      lt\n        /* \"#utility.yul\":8949:8967   */\n      dup2\n        /* \"#utility.yul\":8946:8984   */\n      sub\n        /* \"#utility.yul\":8943:9027   */\n      tag_218\n      jumpi\n        /* \"#utility.yul\":8999:9017   */\n      tag_219\n      tag_104\n      jump\t// in\n    tag_219:\n        /* \"#utility.yul\":8943:9027   */\n    tag_218:\n        /* \"#utility.yul\":8764:9033   */\n      pop\n        /* \"#utility.yul\":8713:9033   */\n      swap2\n      swap1\n      pop\n      jump\t// out\n        /* \"#utility.yul\":9039:9219   */\n    tag_38:\n        /* \"#utility.yul\":9087:9164   */\n      0x4e487b7100000000000000000000000000000000000000000000000000000000\n        /* \"#utility.yul\":9084:9085   */\n      0x00\n        /* \"#utility.yul\":9077:9165   */\n      mstore\n        /* \"#utility.yul\":9184:9188   */\n      0x32\n        /* \"#utility.yul\":9181:9182   */\n      0x04\n        /* \"#utility.yul\":9174:9189   */\n      mstore\n        /* \"#utility.yul\":9208:9212   */\n      0x24\n        /* \"#utility.yul\":9205:9206   */\n      0x00\n        /* \"#utility.yul\":9198:9213   */\n      revert\n        /* \"#utility.yul\":9225:9366   */\n    tag_105:\n        /* \"#utility.yul\":9274:9278   */\n      0x00\n        /* \"#utility.yul\":9297:9300   */\n      dup2\n        /* \"#utility.yul\":9289:9300   */\n      swap1\n      pop\n        /* \"#utility.yul\":9320:9323   */\n      dup2\n        /* \"#utility.yul\":9317:9318   */\n      0x00\n        /* \"#utility.yul\":9310:9324   */\n      mstore\n        /* \"#utility.yul\":9354:9358   */\n      0x20\n        /* \"#utility.yul\":9351:9352   */\n      0x00\n        /* \"#utility.yul\":9341:9359   */\n      keccak256\n        /* \"#utility.yul\":9333:9359   */\n      swap1\n      pop\n        /* \"#utility.yul\":9225:9366   */\n      swap2\n      swap1\n      pop\n      jump\t// out\n        /* \"#utility.yul\":9372:9465   */\n    tag_106:\n        /* \"#utility.yul\":9409:9415   */\n      0x00\n        /* \"#utility.yul\":9456:9458   */\n      0x20\n        /* \"#utility.yul\":9451:9453   */\n      0x1f\n        /* \"#utility.yul\":9444:9449   */\n      dup4\n        /* \"#utility.yul\":9440:9454   */\n      add\n        /* \"#utility.yul\":9436:9459   */\n      div\n        /* \"#utility.yul\":9426:9459   */\n      swap1\n      pop\n        /* \"#utility.yul\":9372:9465   */\n      swap2\n      swap1\n      pop\n      jump\t// out\n        /* \"#utility.yul\":9471:9578   */\n    tag_107:\n        /* \"#utility.yul\":9515:9523   */\n      0x00\n        /* \"#utility.yul\":9565:9570   */\n      dup3\n        /* \"#utility.yul\":9559:9563   */\n      dup3\n        /* \"#utility.yul\":9555:9571   */\n      shl\n        /* \"#utility.yul\":9534:9571   */\n      swap1\n      pop\n        /* \"#utility.yul\":9471:9578   */\n      swap3\n      swap2\n      pop\n      pop\n      jump\t// out\n        /* \"#utility.yul\":9584:9977   */\n    tag_108:\n        /* \"#utility.yul\":9653:9659   */\n      0x00\n        /* \"#utility.yul\":9703:9704   */\n      0x08\n        /* \"#utility.yul\":9691:9701   */\n      dup4\n        /* \"#utility.yul\":9687:9705   */\n      mul\n        /* \"#utility.yul\":9726:9823   */\n      tag_225\n        /* \"#utility.yul\":9756:9822   */\n      0xffffffffffffffffffffffffffffffffffffffffffffffffffffffffffffffff\n        /* \"#utility.yul\":9745:9754   */\n      dup3\n        /* \"#utility.yul\":9726:9823   */\n      tag_107\n      jump\t// in\n    tag_225:\n        /* \"#utility.yul\":9844:9883   */\n      tag_226\n        /* \"#utility.yul\":9874:9882   */\n      dup7\n        /* \"#utility.yul\":9863:9872   */\n      dup4\n        /* \"#utility.yul\":9844:9883   */\n      tag_107\n      jump\t// in\n    tag_226:\n        /* \"#utility.yul\":9832:9883   */\n      swap6\n      pop\n        /* \"#utility.yul\":9916:9920   */\n      dup1\n        /* \"#utility.yul\":9912:9921   */\n      not\n        /* \"#utility.yul\":9905:9910   */\n      dup5\n        /* \"#utility.yul\":9901:9922   */\n      and\n        /* \"#utility.yul\":9892:9922   */\n      swap4\n      pop\n        /* \"#utility.yul\":9965:9969   */\n      dup1\n        /* \"#utility.yul\":9955:9963   */\n      dup7\n        /* \"#utility.yul\":9951:9970   */\n      and\n        /* \"#utility.yul\":9944:9949   */\n      dup5\n        /* \"#utility.yul\":9941:9971   */\n      or\n        /* \"#utility.yul\":9931:9971   */\n      swap3\n      pop\n        /* \"#utility.yul\":9660:9977   */\n      pop\n      pop\n        /* \"#utility.yul\":9584:9977   */\n      swap4\n      swap3\n      pop\n      pop\n      pop\n      jump\t// out\n        /* \"#utility.yul\":9983:10043   */\n    tag_109:\n        /* \"#utility.yul\":10011:10014   */\n      0x00\n        /* \"#utility.yul\":10032:10037   */\n      dup2\n        /* \"#utility.yul\":10025:10037   */\n      swap1\n      pop\n        /* \"#utility.yul\":9983:10043   */\n      swap2\n      swap1\n      pop\n      jump\t// out\n        /* \"#utility.yul\":10049:10191   */\n    tag_110:\n        /* \"#utility.yul\":10099:10108   */\n      0x00\n        /* \"#utility.yul\":10132:10185   */\n      tag_229\n        /* \"#utility.yul\":10150:10184   */\n      tag_230\n        /* \"#utility.yul\":10159:10183   */\n      tag_231\n        /* \"#utility.yul\":10177:10182   */\n      dup5\n        /* \"#utility.yul\":10159:10183   */\n      tag_82\n      jump\t// in\n    tag_231:\n        /* \"#utility.yul\":10150:10184   */\n      tag_109\n      jump\t// in\n    tag_230:\n        /* \"#utility.yul\":10132:10185   */\n      tag_82\n      jump\t// in\n    tag_229:\n        /* \"#utility.yul\":10119:10185   */\n      swap1\n      pop\n        /* \"#utility.yul\":10049:10191   */\n      swap2\n      swap1\n      pop\n      jump\t// out\n        /* \"#utility.yul\":10197:10272   */\n    tag_111:\n        /* \"#utility.yul\":10240:10243   */\n      0x00\n        /* \"#utility.yul\":10261:10266   */\n      dup2\n        /* \"#utility.yul\":10254:10266   */\n      swap1\n      pop\n        /* \"#utility.yul\":10197:10272   */\n      swap2\n      swap1\n      pop\n      jump\t// out\n        /* \"#utility.yul\":10278:10547   */\n    tag_112:\n        /* \"#utility.yul\":10388:10427   */\n      tag_234\n        /* \"#utility.yul\":10419:10426   */\n      dup4\n        /* \"#utility.yul\":10388:10427   */\n      tag_110\n      jump\t// in\n    tag_234:\n        /* \"#utility.yul\":10449:10540   */\n      tag_235\n        /* \"#utility.yul\":10498:10539   */\n      tag_236\n        /* \"#utility.yul\":10522:10538   */\n      dup3\n        /* \"#utility.yul\":10498:10539   */\n      tag_111\n      jump\t// in\n    tag_236:\n        /* \"#utility.yul\":10490:10496   */\n      dup5\n        /* \"#utility.yul\":10483:10487   */\n      dup5\n        /* \"#utility.yul\":10477:10488   */\n      sload\n        /* \"#utility.yul\":10449:10540   */\n      tag_108\n      jump\t// in\n    tag_235:\n        /* \"#utility.yul\":10443:10447   */\n      dup3\n        /* \"#utility.yul\":10436:10541   */\n      sstore\n        /* \"#utility.yul\":10354:10547   */\n      pop\n        /* \"#utility.yul\":10278:10547   */\n      pop\n      pop\n      pop\n      jump\t// out\n        /* \"#utility.yul\":10553:10626   */\n    tag_113:\n        /* \"#utility.yul\":10598:10601   */\n      0x00\n        /* \"#utility.yul\":10553:10626   */\n      swap1\n      jump\t// out\n        /* \"#utility.yul\":10632:10821   */\n    tag_114:\n        /* \"#utility.yul\":10709:10741   */\n      tag_239\n      tag_113\n      jump\t// in\n    tag_239:\n        /* \"#utility.yul\":10750:10815   */\n      tag_240\n        /* \"#utility.yul\":10808:10814   */\n      dup2\n        /* \"#utility.yul\":10800:10806   */\n      dup5\n        /* \"#utility.yul\":10794:10798   */\n      dup5\n        /* \"#utility.yul\":10750:10815   */\n      tag_112\n      jump\t// in\n    tag_240:\n        /* \"#utility.yul\":10685:10821   */\n      pop\n        /* \"#utility.yul\":10632:10821   */\n      pop\n      pop\n      jump\t// out\n        /* \"#utility.yul\":10827:11013   */\n    tag_115:\n        /* \"#utility.yul\":10887:11007   */\n    tag_242:\n        /* \"#utility.yul\":10904:10907   */\n      dup2\n        /* \"#utility.yul\":10897:10902   */\n      dup2\n        /* \"#utility.yul\":10894:10908   */\n      lt\n        /* \"#utility.yul\":10887:11007   */\n      iszero\n      tag_244\n      jumpi\n        /* \"#utility.yul\":10958:10997   */\n      tag_245\n        /* \"#utility.yul\":10995:10996   */\n      0x00\n        /* \"#utility.yul\":10988:10993   */\n      dup3\n        /* \"#utility.yul\":10958:10997   */\n      tag_114\n      jump\t// in\n    tag_245:\n        /* \"#utility.yul\":10931:10932   */\n      0x01\n        /* \"#utility.yul\":10924:10929   */\n      dup2\n        /* \"#utility.yul\":10920:10933   */\n      add\n        /* \"#utility.yul\":10911:10933   */\n      swap1\n      pop\n        /* \"#utility.yul\":10887:11007   */\n      jump(tag_242)\n    tag_244:\n        /* \"#utility.yul\":10827:11013   */\n      pop\n      pop\n      jump\t// out\n        /* \"#utility.yul\":11019:11562   */\n    tag_116:\n        /* \"#utility.yul\":11120:11122   */\n      0x1f\n        /* \"#utility.yul\":11115:11118   */\n      dup3\n        /* \"#utility.yul\":11112:11123   */\n      gt\n        /* \"#utility.yul\":11109:11555   */\n      iszero\n      tag_247\n      jumpi\n        /* \"#utility.yul\":11154:11192   */\n      tag_248\n        /* \"#utility.yul\":11186:11191   */\n      dup2\n        /* \"#utility.yul\":11154:11192   */\n      tag_105\n      jump\t// in\n    tag_248:\n        /* \"#utility.yul\":11238:11267   */\n      tag_249\n        /* \"#utility.yul\":11256:11266   */\n      dup5\n        /* \"#utility.yul\":11238:11267   */\n      tag_106\n      jump\t// in\n    tag_249:\n        /* \"#utility.yul\":11228:11236   */\n      dup2\n        /* \"#utility.yul\":11224:11268   */\n      add\n        /* \"#utility.yul\":11421:11423   */\n      0x20\n        /* \"#utility.yul\":11409:11419   */\n      dup6\n        /* \"#utility.yul\":11406:11424   */\n      lt\n        /* \"#utility.yul\":11403:11452   */\n      iszero\n      tag_250\n      jumpi\n        /* \"#utility.yul\":11442:11450   */\n      dup2\n        /* \"#utility.yul\":11427:11450   */\n      swap1\n      pop\n        /* \"#utility.yul\":11403:11452   */\n    tag_250:\n        /* \"#utility.yul\":11465:11545   */\n      tag_251\n        /* \"#utility.yul\":11521:11543   */\n      tag_252\n        /* \"#utility.yul\":11539:11542   */\n      dup6\n        /* \"#utility.yul\":11521:11543   */\n      tag_106\n      jump\t// in\n    tag_252:\n        /* \"#utility.yul\":11511:11519   */\n      dup4\n        /* \"#utility.yul\":11507:11544   */\n      add\n        /* \"#utility.yul\":11494:11505   */\n      dup3\n        /* \"#utility.yul\":11465:11545   */\n      tag_115\n      jump\t// in\n    tag_251:\n        /* \"#utility.yul\":11124:11555   */\n      pop\n      pop\n        /* \"#utility.yul\":11109:11555   */\n    tag_247:\n        /* \"#utility.yul\":11019:11562   */\n      pop\n      pop\n      pop\n      jump\t// out\n        /* \"#utility.yul\":11568:11685   */\n    tag_117:\n        /* \"#utility.yul\":11622:11630   */\n      0x00\n        /* \"#utility.yul\":11672:11677   */\n      dup3\n        /* \"#utility.yul\":11666:11670   */\n      dup3\n        /* \"#utility.yul\":11662:11678   */\n      shr\n        /* \"#utility.yul\":11641:11678   */\n      swap1\n      pop\n        /* \"#utility.yul\":11568:11685   */\n      swap3\n      swap2\n      pop\n      pop\n      jump\t// out\n        /* \"#utility.yul\":11691:11860   */\n    tag_118:\n        /* \"#utility.yul\":11735:11741   */\n      0x00\n        /* \"#utility.yul\":11768:11819   */\n      tag_255\n        /* \"#utility.yul\":11816:11817   */\n      0x00\n        /* \"#utility.yul\":11812:11818   */\n      not\n        /* \"#utility.yul\":11804:11809   */\n      dup5\n        /* \"#utility.yul\":11801:11802   */\n      0x08\n        /* \"#utility.yul\":11797:11810   */\n      mul\n        /* \"#utility.yul\":11768:11819   */\n      tag_117\n      jump\t// in\n    tag_255:\n        /* \"#utility.yul\":11764:11820   */\n      not\n        /* \"#utility.yul\":11849:11853   */\n      dup1\n        /* \"#utility.yul\":11843:11847   */\n      dup4\n        /* \"#utility.yul\":11839:11854   */\n      and\n        /* \"#utility.yul\":11829:11854   */\n      swap2\n      pop\n        /* \"#utility.yul\":11742:11860   */\n      pop\n        /* \"#utility.yul\":11691:11860   */\n      swap3\n      swap2\n      pop\n      pop\n      jump\t// out\n        /* \"#utility.yul\":11865:12160   */\n    tag_119:\n        /* \"#utility.yul\":11941:11945   */\n      0x00\n        /* \"#utility.yul\":12087:12116   */\n      tag_257\n        /* \"#utility.yul\":12112:12115   */\n      dup4\n        /* \"#utility.yul\":12106:12110   */\n      dup4\n        /* \"#utility.yul\":12087:12116   */\n      tag_118\n      jump\t// in\n    tag_257:\n        /* \"#utility.yul\":12079:12116   */\n      swap2\n      pop\n        /* \"#utility.yul\":12149:12152   */\n      dup3\n        /* \"#utility.yul\":12146:12147   */\n      0x02\n        /* \"#utility.yul\":12142:12153   */\n      mul\n        /* \"#utility.yul\":12136:12140   */\n      dup3\n        /* \"#utility.yul\":12133:12154   */\n      or\n        /* \"#utility.yul\":12125:12154   */\n      swap1\n      pop\n        /* \"#utility.yul\":11865:12160   */\n      swap3\n      swap2\n      pop\n      pop\n      jump\t// out\n        /* \"#utility.yul\":12165:13560   */\n    tag_50:\n        /* \"#utility.yul\":12282:12319   */\n      tag_259\n        /* \"#utility.yul\":12315:12318   */\n      dup3\n        /* \"#utility.yul\":12282:12319   */\n      tag_86\n      jump\t// in\n    tag_259:\n        /* \"#utility.yul\":12384:12402   */\n      0xffffffffffffffff\n        /* \"#utility.yul\":12376:12382   */\n      dup2\n        /* \"#utility.yul\":12373:12403   */\n      gt\n        /* \"#utility.yul\":12370:12426   */\n      iszero\n      tag_260\n      jumpi\n        /* \"#utility.yul\":12406:12424   */\n      tag_261\n      tag_92\n      jump\t// in\n    tag_261:\n        /* \"#utility.yul\":12370:12426   */\n    tag_260:\n        /* \"#utility.yul\":12450:12488   */\n      tag_262\n        /* \"#utility.yul\":12482:12486   */\n      dup3\n        /* \"#utility.yul\":12476:12487   */\n      sload\n        /* \"#utility.yul\":12450:12488   */\n      tag_30\n      jump\t// in\n    tag_262:\n        /* \"#utility.yul\":12535:12602   */\n      tag_263\n        /* \"#utility.yul\":12595:12601   */\n      dup3\n        /* \"#utility.yul\":12587:12593   */\n      dup3\n        /* \"#utility.yul\":12581:12585   */\n      dup6\n        /* \"#utility.yul\":12535:12602   */\n      tag_116\n      jump\t// in\n    tag_263:\n        /* \"#utility.yul\":12629:12630   */\n      0x00\n        /* \"#utility.yul\":12653:12657   */\n      0x20\n        /* \"#utility.yul\":12640:12657   */\n      swap1\n      pop\n        /* \"#utility.yul\":12685:12687   */\n      0x1f\n        /* \"#utility.yul\":12677:12683   */\n      dup4\n        /* \"#utility.yul\":12674:12688   */\n      gt\n        /* \"#utility.yul\":12702:12703   */\n      0x01\n        /* \"#utility.yul\":12697:13315   */\n      dup2\n      eq\n      tag_265\n      jumpi\n        /* \"#utility.yul\":13359:13360   */\n      0x00\n        /* \"#utility.yul\":13376:13382   */\n      dup5\n        /* \"#utility.yul\":13373:13450   */\n      iszero\n      tag_266\n      jumpi\n        /* \"#utility.yul\":13425:13434   */\n      dup3\n        /* \"#utility.yul\":13420:13423   */\n      dup8\n        /* \"#utility.yul\":13416:13435   */\n      add\n        /* \"#utility.yul\":13410:13436   */\n      mload\n        /* \"#utility.yul\":13401:13436   */\n      swap1\n      pop\n        /* \"#utility.yul\":13373:13450   */\n    tag_266:\n        /* \"#utility.yul\":13476:13543   */\n      tag_267\n        /* \"#utility.yul\":13536:13542   */\n      dup6\n        /* \"#utility.yul\":13529:13534   */\n      dup3\n        /* \"#utility.yul\":13476:13543   */\n      tag_119\n      jump\t// in\n    tag_267:\n        /* \"#utility.yul\":13470:13474   */\n      dup7\n        /* \"#utility.yul\":13463:13544   */\n      sstore\n        /* \"#utility.yul\":13332:13554   */\n      pop\n        /* \"#utility.yul\":12667:13554   */\n      jump(tag_264)\n        /* \"#utility.yul\":12697:13315   */\n    tag_265:\n        /* \"#utility.yul\":12749:12753   */\n      0x1f\n        /* \"#utility.yul\":12745:12754   */\n      not\n        /* \"#utility.yul\":12737:12743   */\n      dup5\n        /* \"#utility.yul\":12733:12755   */\n      and\n        /* \"#utility.yul\":12783:12820   */\n      tag_268\n        /* \"#utility.yul\":12815:12819   */\n      dup7\n        /* \"#utility.yul\":12783:12820   */\n      tag_105\n      jump\t// in\n    tag_268:\n        /* \"#utility.yul\":12842:12843   */\n      0x00\n        /* \"#utility.yul\":12856:13064   */\n    tag_269:\n        /* \"#utility.yul\":12870:12877   */\n      dup3\n        /* \"#utility.yul\":12867:12868   */\n      dup2\n        /* \"#utility.yul\":12864:12878   */\n      lt\n        /* \"#utility.yul\":12856:13064   */\n      iszero\n      tag_271\n      jumpi\n        /* \"#utility.yul\":12949:12958   */\n      dup5\n        /* \"#utility.yul\":12944:12947   */\n      dup10\n        /* \"#utility.yul\":12940:12959   */\n      add\n        /* \"#utility.yul\":12934:12960   */\n      mload\n        /* \"#utility.yul\":12926:12932   */\n      dup3\n        /* \"#utility.yul\":12919:12961   */\n      sstore\n        /* \"#utility.yul\":13000:13001   */\n      0x01\n        /* \"#utility.yul\":12992:12998   */\n      dup3\n        /* \"#utility.yul\":12988:13002   */\n      add\n        /* \"#utility.yul\":12978:13002   */\n      swap2\n      pop\n        /* \"#utility.yul\":13047:13049   */\n      0x20\n        /* \"#utility.yul\":13036:13045   */\n      dup6\n        /* \"#utility.yul\":13032:13050   */\n      add\n        /* \"#utility.yul\":13019:13050   */\n      swap5\n      pop\n        /* \"#utility.yul\":12893:12897   */\n      0x20\n        /* \"#utility.yul\":12890:12891   */\n      dup2\n        /* \"#utility.yul\":12886:12898   */\n      add\n        /* \"#utility.yul\":12881:12898   */\n      swap1\n      pop\n        /* \"#utility.yul\":12856:13064   */\n      jump(tag_269)\n    tag_271:\n        /* \"#utility.yul\":13092:13098   */\n      dup7\n        /* \"#utility.yul\":13083:13090   */\n      dup4\n        /* \"#utility.yul\":13080:13099   */\n      lt\n        /* \"#utility.yul\":13077:13256   */\n      iszero\n      tag_272\n      jumpi\n        /* \"#utility.yul\":13150:13159   */\n      dup5\n        /* \"#utility.yul\":13145:13148   */\n      dup10\n        /* \"#utility.yul\":13141:13160   */\n      add\n        /* \"#utility.yul\":13135:13161   */\n      mload\n        /* \"#utility.yul\":13193:13241   */\n      tag_273\n        /* \"#utility.yul\":13235:13239   */\n      0x1f\n        /* \"#utility.yul\":13227:13233   */\n      dup10\n        /* \"#utility.yul\":13223:13240   */\n      and\n        /* \"#utility.yul\":13212:13221   */\n      dup3\n        /* \"#utility.yul\":13193:13241   */\n      tag_118\n      jump\t// in\n    tag_273:\n        /* \"#utility.yul\":13185:13191   */\n      dup4\n        /* \"#utility.yul\":13178:13242   */\n      sstore\n        /* \"#utility.yul\":13100:13256   */\n      pop\n        /* \"#utility.yul\":13077:13256   */\n    tag_272:\n        /* \"#utility.yul\":13302:13303   */\n      0x01\n        /* \"#utility.yul\":13298:13299   */\n      0x02\n        /* \"#utility.yul\":13290:13296   */\n      dup9\n        /* \"#utility.yul\":13286:13300   */\n      mul\n        /* \"#utility.yul\":13282:13304   */\n      add\n        /* \"#utility.yul\":13276:13280   */\n      dup9\n        /* \"#utility.yul\":13269:13305   */\n      sstore\n        /* \"#utility.yul\":12704:13315   */\n      pop\n      pop\n      pop\n        /* \"#utility.yul\":12667:13554   */\n    tag_264:\n      pop\n        /* \"#utility.yul\":12257:13560   */\n      pop\n      pop\n      pop\n        /* \"#utility.yul\":12165:13560   */\n      pop\n      pop\n      jump\t// out\n        /* \"#utility.yul\":13566:13715   */\n    tag_120:\n        /* \"#utility.yul\":13615:13621   */\n      0x00\n        /* \"#utility.yul\":13649:13654   */\n      dup2\n        /* \"#utility.yul\":13643:13655   */\n      sload\n        /* \"#utility.yul\":13633:13655   */\n      swap1\n      pop\n        /* \"#utility.yul\":13675:13708   */\n      tag_275\n        /* \"#utility.yul\":13701:13707   */\n      dup2\n        /* \"#utility.yul\":13675:13708   */\n      tag_30\n      jump\t// in\n    tag_275:\n        /* \"#utility.yul\":13665:13708   */\n      swap1\n      pop\n        /* \"#utility.yul\":13566:13715   */\n      swap2\n      swap1\n      pop\n      jump\t// out\n        /* \"#utility.yul\":13721:15172   */\n    tag_65:\n        /* \"#utility.yul\":13832:13835   */\n      dup2\n        /* \"#utility.yul\":13826:13830   */\n      dup2\n        /* \"#utility.yul\":13823:13836   */\n      sub\n        /* \"#utility.yul\":13820:13846   */\n      tag_277\n      jumpi\n        /* \"#utility.yul\":13839:13844   */\n      pop\n      pop\n      jump(tag_276)\n        /* \"#utility.yul\":13820:13846   */\n    tag_277:\n        /* \"#utility.yul\":13870:13904   */\n      tag_278\n        /* \"#utility.yul\":13900:13903   */\n      dup3\n        /* \"#utility.yul\":13870:13904   */\n      tag_120\n      jump\t// in\n    tag_278:\n        /* \"#utility.yul\":13969:13987   */\n      0xffffffffffffffff\n        /* \"#utility.yul\":13961:13967   */\n      dup2\n        /* \"#utility.yul\":13958:13988   */\n      gt\n        /* \"#utility.yul\":13955:14011   */\n      iszero\n      tag_279\n      jumpi\n        /* \"#utility.yul\":13991:14009   */\n      tag_280\n      tag_92\n      jump\t// in\n    tag_280:\n        /* \"#utility.yul\":13955:14011   */\n    tag_279:\n        /* \"#utility.yul\":14035:14073   */\n      tag_281\n        /* \"#utility.yul\":14067:14071   */\n      dup3\n        /* \"#utility.yul\":14061:14072   */\n      sload\n        /* \"#utility.yul\":14035:14073   */\n      tag_30\n      jump\t// in\n    tag_281:\n        /* \"#utility.yul\":14120:14187   */\n      tag_282\n        /* \"#utility.yul\":14180:14186   */\n      dup3\n        /* \"#utility.yul\":14172:14178   */\n      dup3\n        /* \"#utility.yul\":14166:14170   */\n      dup6\n        /* \"#utility.yul\":14120:14187   */\n      tag_116\n      jump\t// in\n    tag_282:\n        /* \"#utility.yul\":14214:14215   */\n      0x00\n        /* \"#utility.yul\":14243:14245   */\n      0x1f\n        /* \"#utility.yul\":14235:14241   */\n      dup4\n        /* \"#utility.yul\":14232:14246   */\n      gt\n        /* \"#utility.yul\":14260:14261   */\n      0x01\n        /* \"#utility.yul\":14255:14927   */\n      dup2\n      eq\n      tag_284\n      jumpi\n        /* \"#utility.yul\":14971:14972   */\n      0x00\n        /* \"#utility.yul\":14988:14994   */\n      dup5\n        /* \"#utility.yul\":14985:15062   */\n      iszero\n      tag_285\n      jumpi\n        /* \"#utility.yul\":15037:15046   */\n      dup3\n        /* \"#utility.yul\":15032:15035   */\n      dup8\n        /* \"#utility.yul\":15028:15047   */\n      add\n        /* \"#utility.yul\":15022:15048   */\n      sload\n        /* \"#utility.yul\":15013:15048   */\n      swap1\n      pop\n        /* \"#utility.yul\":14985:15062   */\n    tag_285:\n        /* \"#utility.yul\":15088:15155   */\n      tag_286\n        /* \"#utility.yul\":15148:15154   */\n      dup6\n        /* \"#utility.yul\":15141:15146   */\n      dup3\n        /* \"#utility.yul\":15088:15155   */\n      tag_119\n      jump\t// in\n    tag_286:\n        /* \"#utility.yul\":15082:15086   */\n      dup7\n        /* \"#utility.yul\":15075:15156   */\n      sstore\n        /* \"#utility.yul\":14944:15166   */\n      pop\n        /* \"#utility.yul\":14225:15166   */\n      jump(tag_283)\n        /* \"#utility.yul\":14255:14927   */\n    tag_284:\n        /* \"#utility.yul\":14307:14311   */\n      0x1f\n        /* \"#utility.yul\":14303:14312   */\n      not\n        /* \"#utility.yul\":14295:14301   */\n      dup5\n        /* \"#utility.yul\":14291:14313   */\n      and\n        /* \"#utility.yul\":14333:14369   */\n      tag_287\n        /* \"#utility.yul\":14365:14368   */\n      dup8\n        /* \"#utility.yul\":14333:14369   */\n      tag_105\n      jump\t// in\n    tag_287:\n        /* \"#utility.yul\":14326:14369   */\n      swap7\n      pop\n        /* \"#utility.yul\":14396:14433   */\n      tag_288\n        /* \"#utility.yul\":14428:14432   */\n      dup7\n        /* \"#utility.yul\":14396:14433   */\n      tag_105\n      jump\t// in\n    tag_288:\n        /* \"#utility.yul\":14455:14456   */\n      0x00\n        /* \"#utility.yul\":14469:14676   */\n    tag_289:\n        /* \"#utility.yul\":14483:14490   */\n      dup3\n        /* \"#utility.yul\":14480:14481   */\n      dup2\n        /* \"#utility.yul\":14477:14491   */\n      lt\n        /* \"#utility.yul\":14469:14676   */\n      iszero\n      tag_291\n      jumpi\n        /* \"#utility.yul\":14562:14571   */\n      dup5\n        /* \"#utility.yul\":14557:14560   */\n      dup10\n        /* \"#utility.yul\":14553:14572   */\n      add\n        /* \"#utility.yul\":14547:14573   */\n      sload\n        /* \"#utility.yul\":14539:14545   */\n      dup3\n        /* \"#utility.yul\":14532:14574   */\n      sstore\n        /* \"#utility.yul\":14613:14614   */\n      0x01\n        /* \"#utility.yul\":14605:14611   */\n      dup3\n        /* \"#utility.yul\":14601:14615   */\n      add\n        /* \"#utility.yul\":14591:14615   */\n      swap2\n      pop\n        /* \"#utility.yul\":14660:14661   */\n      0x01\n        /* \"#utility.yul\":14649:14658   */\n      dup6\n        /* \"#utility.yul\":14645:14662   */\n      add\n        /* \"#utility.yul\":14632:14662   */\n      swap5\n      pop\n        /* \"#utility.yul\":14506:14510   */\n      0x20\n        /* \"#utility.yul\":14503:14504   */\n      dup2\n        /* \"#utility.yul\":14499:14511   */\n      add\n        /* \"#utility.yul\":14494:14511   */\n      swap1\n      pop\n        /* \"#utility.yul\":14469:14676   */\n      jump(tag_289)\n    tag_291:\n        /* \"#utility.yul\":14704:14710   */\n      dup7\n        /* \"#utility.yul\":14695:14702   */\n      dup4\n        /* \"#utility.yul\":14692:14711   */\n      lt\n        /* \"#utility.yul\":14689:14868   */\n      iszero\n      tag_292\n      jumpi\n        /* \"#utility.yul\":14762:14771   */\n      dup5\n        /* \"#utility.yul\":14757:14760   */\n      dup10\n        /* \"#utility.yul\":14753:14772   */\n      add\n        /* \"#utility.yul\":14747:14773   */\n      sload\n        /* \"#utility.yul\":14805:14853   */\n      tag_293\n        /* \"#utility.yul\":14847:14851   */\n      0x1f\n        /* \"#utility.yul\":14839:14845   */\n      dup10\n        /* \"#utility.yul\":14835:14852   */\n      and\n        /* \"#utility.yul\":14824:14833   */\n      dup3\n        /* \"#utility.yul\":14805:14853   */\n      tag_118\n      jump\t// in\n    tag_293:\n        /* \"#utility.yul\":14797:14803   */\n      dup4\n        /* \"#utility.yul\":14790:14854   */\n      sstore\n        /* \"#utility.yul\":14712:14868   */\n      pop\n        /* \"#utility.yul\":14689:14868   */\n    tag_292:\n        /* \"#utility.yul\":14914:14915   */\n      0x01\n        /* \"#utility.yul\":14910:14911   */\n      0x02\n        /* \"#utility.yul\":14902:14908   */\n      dup9\n        /* \"#utility.yul\":14898:14912   */\n      mul\n        /* \"#utility.yul\":14894:14916   */\n      add\n        /* \"#utility.yul\":14888:14892   */\n      dup9\n        /* \"#utility.yul\":14881:14917   */\n      sstore\n        /* \"#utility.yul\":14262:14927   */\n      pop\n      pop\n      pop\n        /* \"#utility.yul\":14225:15166   */\n    tag_283:\n      pop\n        /* \"#utility.yul\":13810:15172   */\n      pop\n      pop\n      pop\n        /* \"#utility.yul\":13721:15172   */\n      pop\n      pop\n    tag_276:\n      jump\t// out\n\n    auxdata: 0xa2646970667358221220ddf8c1e0e0c7d8c29c76475d65131c8d5ee2581a0539c7a0be9d3e9a55011fee64736f6c634300081a0033\n}\n",
				"bytecode": {
					"linkReferences": {},
					"object": "6080604052348015600e575f80fd5b50610c5e8061001c5f395ff3fe608060405234801561000f575f80fd5b506004361061004a575f3560e01c806306ead22e1461004e578063a3b166601461007f578063bdbb8ceb146100af578063ded7544a146100cb575b5f80fd5b6100686004803603810190610063919061043f565b6100e7565b6040516100769291906104e9565b60405180910390f35b61009960048036038101906100949190610517565b61019b565b6040516100a69190610555565b60405180910390f35b6100c960048036038101906100c4919061074c565b6101e4565b005b6100e560048036038101906100e091906107b8565b61026d565b005b5f81815481106100f5575f80fd5b905f5260205f2090600702015f91509050805f01549080600601805461011a90610865565b80601f016020809104026020016040519081016040528092919081815260200182805461014690610865565b80156101915780601f1061016857610100808354040283529160200191610191565b820191905f5260205f20905b81548152906001019060200180831161017457829003601f168201915b5050505050905082565b5f805f84815481106101b0576101af610895565b5b905f5260205f20906007020190505f8160010190508084600581106101d8576101d7610895565b5b01549250505092915050565b6101ec61031b565b83815f0181815250508181604001819052508281602001819052505f81908060018154018082558091505060019003905f5260205f2090600702015f909190919091505f820151815f015560208201518160010190600561024e929190610341565b5060408201518160060190816102649190610a5f565b50505050505050565b5f80858154811061028157610280610895565b5b905f5260205f2090600702019050838160060190816102a09190610a5f565b50818160010184600581106102b8576102b7610895565b5b0181905550805f86815481106102d1576102d0610895565b5b905f5260205f2090600702015f820154815f015560018201816001019060056102fb929190610381565b50600682018160060190816103109190610b43565b509050505050505050565b60405180606001604052805f81526020016103346103be565b8152602001606081525090565b8260058101928215610370579160200282015b8281111561036f578251825591602001919060010190610354565b5b50905061037d91906103e0565b5090565b82600581019282156103ad579182015b828111156103ac578254825591600101919060010190610391565b5b5090506103ba91906103e0565b5090565b6040518060a00160405280600590602082028036833780820191505090505090565b5b808211156103f7575f815f9055506001016103e1565b5090565b5f604051905090565b5f80fd5b5f80fd5b5f819050919050565b61041e8161040c565b8114610428575f80fd5b50565b5f8135905061043981610415565b92915050565b5f6020828403121561045457610453610404565b5b5f6104618482850161042b565b91505092915050565b6104738161040c565b82525050565b5f81519050919050565b5f82825260208201905092915050565b8281835e5f83830152505050565b5f601f19601f8301169050919050565b5f6104bb82610479565b6104c58185610483565b93506104d5818560208601610493565b6104de816104a1565b840191505092915050565b5f6040820190506104fc5f83018561046a565b818103602083015261050e81846104b1565b90509392505050565b5f806040838503121561052d5761052c610404565b5b5f61053a8582860161042b565b925050602061054b8582860161042b565b9150509250929050565b5f6020820190506105685f83018461046a565b92915050565b5f80fd5b7f4e487b71000000000000000000000000000000000000000000000000000000005f52604160045260245ffd5b6105a8826104a1565b810181811067ffffffffffffffff821117156105c7576105c6610572565b5b80604052505050565b5f6105d96103fb565b90506105e5828261059f565b919050565b5f67ffffffffffffffff82111561060457610603610572565b5b602082029050919050565b5f80fd5b5f610625610620846105ea565b6105d0565b9050806020840283018581111561063f5761063e61060f565b5b835b818110156106685780610654888261042b565b845260208401935050602081019050610641565b5050509392505050565b5f82601f8301126106865761068561056e565b5b6005610693848285610613565b91505092915050565b5f80fd5b5f67ffffffffffffffff8211156106ba576106b9610572565b5b6106c3826104a1565b9050602081019050919050565b828183375f83830152505050565b5f6106f06106eb846106a0565b6105d0565b90508281526020810184848401111561070c5761070b61069c565b5b6107178482856106d0565b509392505050565b5f82601f8301126107335761073261056e565b5b81356107438482602086016106de565b91505092915050565b5f805f60e0848603121561076357610762610404565b5b5f6107708682870161042b565b935050602061078186828701610672565b92505060c084013567ffffffffffffffff8111156107a2576107a1610408565b5b6107ae8682870161071f565b9150509250925092565b5f805f80608085870312156107d0576107cf610404565b5b5f6107dd8782880161042b565b945050602085013567ffffffffffffffff8111156107fe576107fd610408565b5b61080a8782880161071f565b935050604061081b8782880161042b565b925050606061082c8782880161042b565b91505092959194509250565b7f4e487b71000000000000000000000000000000000000000000000000000000005f52602260045260245ffd5b5f600282049050600182168061087c57607f821691505b60208210810361088f5761088e610838565b5b50919050565b7f4e487b71000000000000000000000000000000000000000000000000000000005f52603260045260245ffd5b5f819050815f5260205f209050919050565b5f6020601f8301049050919050565b5f82821b905092915050565b5f6008830261091e7fffffffffffffffffffffffffffffffffffffffffffffffffffffffffffffffff826108e3565b61092886836108e3565b95508019841693508086168417925050509392505050565b5f819050919050565b5f61096361095e6109598461040c565b610940565b61040c565b9050919050565b5f819050919050565b61097c83610949565b6109906109888261096a565b8484546108ef565b825550505050565b5f90565b6109a4610998565b6109af818484610973565b505050565b5b818110156109d2576109c75f8261099c565b6001810190506109b5565b5050565b601f821115610a17576109e8816108c2565b6109f1846108d4565b81016020851015610a00578190505b610a14610a0c856108d4565b8301826109b4565b50505b505050565b5f82821c905092915050565b5f610a375f1984600802610a1c565b1980831691505092915050565b5f610a4f8383610a28565b9150826002028217905092915050565b610a6882610479565b67ffffffffffffffff811115610a8157610a80610572565b5b610a8b8254610865565b610a968282856109d6565b5f60209050601f831160018114610ac7575f8415610ab5578287015190505b610abf8582610a44565b865550610b26565b601f198416610ad5866108c2565b5f5b82811015610afc57848901518255600182019150602085019450602081019050610ad7565b86831015610b195784890151610b15601f891682610a28565b8355505b6001600288020188555050505b505050505050565b5f81549050610b3c81610865565b9050919050565b818103610b51575050610c26565b610b5a82610b2e565b67ffffffffffffffff811115610b7357610b72610572565b5b610b7d8254610865565b610b888282856109d6565b5f601f831160018114610bb5575f8415610ba3578287015490505b610bad8582610a44565b865550610c1f565b601f198416610bc3876108c2565b9650610bce866108c2565b5f5b82811015610bf557848901548255600182019150600185019450602081019050610bd0565b86831015610c125784890154610c0e601f891682610a28565b8355505b6001600288020188555050505b5050505050505b56fea2646970667358221220ddf8c1e0e0c7d8c29c76475d65131c8d5ee2581a0539c7a0be9d3e9a55011fee64736f6c634300081a0033",
					"opcodes": "PUSH1 0x80 PUSH1 0x40 MSTORE CALLVALUE DUP1 ISZERO PUSH1 0xE JUMPI PUSH0 DUP1 REVERT JUMPDEST POP PUSH2 0xC5E DUP1 PUSH2 0x1C PUSH0 CODECOPY PUSH0 RETURN INVALID PUSH1 0x80 PUSH1 0x40 MSTORE CALLVALUE DUP1 ISZERO PUSH2 0xF JUMPI PUSH0 DUP1 REVERT JUMPDEST POP PUSH1 0x4 CALLDATASIZE LT PUSH2 0x4A JUMPI PUSH0 CALLDATALOAD PUSH1 0xE0 SHR DUP1 PUSH4 0x6EAD22E EQ PUSH2 0x4E JUMPI DUP1 PUSH4 0xA3B16660 EQ PUSH2 0x7F JUMPI DUP1 PUSH4 0xBDBB8CEB EQ PUSH2 0xAF JUMPI DUP1 PUSH4 0xDED7544A EQ PUSH2 0xCB JUMPI JUMPDEST PUSH0 DUP1 REVERT JUMPDEST PUSH2 0x68 PUSH1 0x4 DUP1 CALLDATASIZE SUB DUP2 ADD SWAP1 PUSH2 0x63 SWAP2 SWAP1 PUSH2 0x43F JUMP JUMPDEST PUSH2 0xE7 JUMP JUMPDEST PUSH1 0x40 MLOAD PUSH2 0x76 SWAP3 SWAP2 SWAP1 PUSH2 0x4E9 JUMP JUMPDEST PUSH1 0x40 MLOAD DUP1 SWAP2 SUB SWAP1 RETURN JUMPDEST PUSH2 0x99 PUSH1 0x4 DUP1 CALLDATASIZE SUB DUP2 ADD SWAP1 PUSH2 0x94 SWAP2 SWAP1 PUSH2 0x517 JUMP JUMPDEST PUSH2 0x19B JUMP JUMPDEST PUSH1 0x40 MLOAD PUSH2 0xA6 SWAP2 SWAP1 PUSH2 0x555 JUMP JUMPDEST PUSH1 0x40 MLOAD DUP1 SWAP2 SUB SWAP1 RETURN JUMPDEST PUSH2 0xC9 PUSH1 0x4 DUP1 CALLDATASIZE SUB DUP2 ADD SWAP1 PUSH2 0xC4 SWAP2 SWAP1 PUSH2 0x74C JUMP JUMPDEST PUSH2 0x1E4 JUMP JUMPDEST STOP JUMPDEST PUSH2 0xE5 PUSH1 0x4 DUP1 CALLDATASIZE SUB DUP2 ADD SWAP1 PUSH2 0xE0 SWAP2 SWAP1 PUSH2 0x7B8 JUMP JUMPDEST PUSH2 0x26D JUMP JUMPDEST STOP JUMPDEST PUSH0 DUP2 DUP2 SLOAD DUP2 LT PUSH2 0xF5 JUMPI PUSH0 DUP1 REVERT JUMPDEST SWAP1 PUSH0 MSTORE PUSH1 0x20 PUSH0 KECCAK256 SWAP1 PUSH1 0x7 MUL ADD PUSH0 SWAP2 POP SWAP1 POP DUP1 PUSH0 ADD SLOAD SWAP1 DUP1 PUSH1 0x6 ADD DUP1 SLOAD PUSH2 0x11A SWAP1 PUSH2 0x865 JUMP JUMPDEST DUP1 PUSH1 0x1F ADD PUSH1 0x20 DUP1 SWAP2 DIV MUL PUSH1 0x20 ADD PUSH1 0x40 MLOAD SWAP1 DUP2 ADD PUSH1 0x40 MSTORE DUP1 SWAP3 SWAP2 SWAP1 DUP2 DUP2 MSTORE PUSH1 0x20 ADD DUP3 DUP1 SLOAD PUSH2 0x146 SWAP1 PUSH2 0x865 JUMP JUMPDEST DUP1 ISZERO PUSH2 0x191 JUMPI DUP1 PUSH1 0x1F LT PUSH2 0x168 JUMPI PUSH2 0x100 DUP1 DUP4 SLOAD DIV MUL DUP4 MSTORE SWAP2 PUSH1 0x20 ADD SWAP2 PUSH2 0x191 JUMP JUMPDEST DUP3 ADD SWAP2 SWAP1 PUSH0 MSTORE PUSH1 0x20 PUSH0 KECCAK256 SWAP1 JUMPDEST DUP2 SLOAD DUP2 MSTORE SWAP1 PUSH1 0x1 ADD SWAP1 PUSH1 0x20 ADD DUP1 DUP4 GT PUSH2 0x174 JUMPI DUP3 SWAP1 SUB PUSH1 0x1F AND DUP3 ADD SWAP2 JUMPDEST POP POP POP POP POP SWAP1 POP DUP3 JUMP JUMPDEST PUSH0 DUP1 PUSH0 DUP5 DUP2 SLOAD DUP2 LT PUSH2 0x1B0 JUMPI PUSH2 0x1AF PUSH2 0x895 JUMP JUMPDEST JUMPDEST SWAP1 PUSH0 MSTORE PUSH1 0x20 PUSH0 KECCAK256 SWAP1 PUSH1 0x7 MUL ADD SWAP1 POP PUSH0 DUP2 PUSH1 0x1 ADD SWAP1 POP DUP1 DUP5 PUSH1 0x5 DUP2 LT PUSH2 0x1D8 JUMPI PUSH2 0x1D7 PUSH2 0x895 JUMP JUMPDEST JUMPDEST ADD SLOAD SWAP3 POP POP POP SWAP3 SWAP2 POP POP JUMP JUMPDEST PUSH2 0x1EC PUSH2 0x31B JUMP JUMPDEST DUP4 DUP2 PUSH0 ADD DUP2 DUP2 MSTORE POP POP DUP2 DUP2 PUSH1 0x40 ADD DUP2 SWAP1 MSTORE POP DUP3 DUP2 PUSH1 0x20 ADD DUP2 SWAP1 MSTORE POP PUSH0 DUP2 SWAP1 DUP1 PUSH1 0x1 DUP2 SLOAD ADD DUP1 DUP3 SSTORE DUP1 SWAP2 POP POP PUSH1 0x1 SWAP1 SUB SWAP1 PUSH0 MSTORE PUSH1 0x20 PUSH0 KECCAK256 SWAP1 PUSH1 0x7 MUL ADD PUSH0 SWAP1 SWAP2 SWAP1 SWAP2 SWAP1 SWAP2 POP PUSH0 DUP3 ADD MLOAD DUP2 PUSH0 ADD SSTORE PUSH1 0x20 DUP3 ADD MLOAD DUP2 PUSH1 0x1 ADD SWAP1 PUSH1 0x5 PUSH2 0x24E SWAP3 SWAP2 SWAP1 PUSH2 0x341 JUMP JUMPDEST POP PUSH1 0x40 DUP3 ADD MLOAD DUP2 PUSH1 0x6 ADD SWAP1 DUP2 PUSH2 0x264 SWAP2 SWAP1 PUSH2 0xA5F JUMP JUMPDEST POP POP POP POP POP POP POP JUMP JUMPDEST PUSH0 DUP1 DUP6 DUP2 SLOAD DUP2 LT PUSH2 0x281 JUMPI PUSH2 0x280 PUSH2 0x895 JUMP JUMPDEST JUMPDEST SWAP1 PUSH0 MSTORE PUSH1 0x20 PUSH0 KECCAK256 SWAP1 PUSH1 0x7 MUL ADD SWAP1 POP DUP4 DUP2 PUSH1 0x6 ADD SWAP1 DUP2 PUSH2 0x2A0 SWAP2 SWAP1 PUSH2 0xA5F JUMP JUMPDEST POP DUP2 DUP2 PUSH1 0x1 ADD DUP5 PUSH1 0x5 DUP2 LT PUSH2 0x2B8 JUMPI PUSH2 0x2B7 PUSH2 0x895 JUMP JUMPDEST JUMPDEST ADD DUP2 SWAP1 SSTORE POP DUP1 PUSH0 DUP7 DUP2 SLOAD DUP2 LT PUSH2 0x2D1 JUMPI PUSH2 0x2D0 PUSH2 0x895 JUMP JUMPDEST JUMPDEST SWAP1 PUSH0 MSTORE PUSH1 0x20 PUSH0 KECCAK256 SWAP1 PUSH1 0x7 MUL ADD PUSH0 DUP3 ADD SLOAD DUP2 PUSH0 ADD SSTORE PUSH1 0x1 DUP3 ADD DUP2 PUSH1 0x1 ADD SWAP1 PUSH1 0x5 PUSH2 0x2FB SWAP3 SWAP2 SWAP1 PUSH2 0x381 JUMP JUMPDEST POP PUSH1 0x6 DUP3 ADD DUP2 PUSH1 0x6 ADD SWAP1 DUP2 PUSH2 0x310 SWAP2 SWAP1 PUSH2 0xB43 JUMP JUMPDEST POP SWAP1 POP POP POP POP POP POP POP JUMP JUMPDEST PUSH1 0x40 MLOAD DUP1 PUSH1 0x60 ADD PUSH1 0x40 MSTORE DUP1 PUSH0 DUP2 MSTORE PUSH1 0x20 ADD PUSH2 0x334 PUSH2 0x3BE JUMP JUMPDEST DUP2 MSTORE PUSH1 0x20 ADD PUSH1 0x60 DUP2 MSTORE POP SWAP1 JUMP JUMPDEST DUP3 PUSH1 0x5 DUP2 ADD SWAP3 DUP3 ISZERO PUSH2 0x370 JUMPI SWAP2 PUSH1 0x20 MUL DUP3 ADD JUMPDEST DUP3 DUP2 GT ISZERO PUSH2 0x36F JUMPI DUP3 MLOAD DUP3 SSTORE SWAP2 PUSH1 0x20 ADD SWAP2 SWAP1 PUSH1 0x1 ADD SWAP1 PUSH2 0x354 JUMP JUMPDEST JUMPDEST POP SWAP1 POP PUSH2 0x37D SWAP2 SWAP1 PUSH2 0x3E0 JUMP JUMPDEST POP SWAP1 JUMP JUMPDEST DUP3 PUSH1 0x5 DUP2 ADD SWAP3 DUP3 ISZERO PUSH2 0x3AD JUMPI SWAP2 DUP3 ADD JUMPDEST DUP3 DUP2 GT ISZERO PUSH2 0x3AC JUMPI DUP3 SLOAD DUP3 SSTORE SWAP2 PUSH1 0x1 ADD SWAP2 SWAP1 PUSH1 0x1 ADD SWAP1 PUSH2 0x391 JUMP JUMPDEST JUMPDEST POP SWAP1 POP PUSH2 0x3BA SWAP2 SWAP1 PUSH2 0x3E0 JUMP JUMPDEST POP SWAP1 JUMP JUMPDEST PUSH1 0x40 MLOAD DUP1 PUSH1 0xA0 ADD PUSH1 0x40 MSTORE DUP1 PUSH1 0x5 SWAP1 PUSH1 0x20 DUP3 MUL DUP1 CALLDATASIZE DUP4 CALLDATACOPY DUP1 DUP3 ADD SWAP2 POP POP SWAP1 POP POP SWAP1 JUMP JUMPDEST JUMPDEST DUP1 DUP3 GT ISZERO PUSH2 0x3F7 JUMPI PUSH0 DUP2 PUSH0 SWAP1 SSTORE POP PUSH1 0x1 ADD PUSH2 0x3E1 JUMP JUMPDEST POP SWAP1 JUMP JUMPDEST PUSH0 PUSH1 0x40 MLOAD SWAP1 POP SWAP1 JUMP JUMPDEST PUSH0 DUP1 REVERT JUMPDEST PUSH0 DUP1 REVERT JUMPDEST PUSH0 DUP2 SWAP1 POP SWAP2 SWAP1 POP JUMP JUMPDEST PUSH2 0x41E DUP2 PUSH2 0x40C JUMP JUMPDEST DUP2 EQ PUSH2 0x428 JUMPI PUSH0 DUP1 REVERT JUMPDEST POP JUMP JUMPDEST PUSH0 DUP2 CALLDATALOAD SWAP1 POP PUSH2 0x439 DUP2 PUSH2 0x415 JUMP JUMPDEST SWAP3 SWAP2 POP POP JUMP JUMPDEST PUSH0 PUSH1 0x20 DUP3 DUP5 SUB SLT ISZERO PUSH2 0x454 JUMPI PUSH2 0x453 PUSH2 0x404 JUMP JUMPDEST JUMPDEST PUSH0 PUSH2 0x461 DUP5 DUP3 DUP6 ADD PUSH2 0x42B JUMP JUMPDEST SWAP2 POP POP SWAP3 SWAP2 POP POP JUMP JUMPDEST PUSH2 0x473 DUP2 PUSH2 0x40C JUMP JUMPDEST DUP3 MSTORE POP POP JUMP JUMPDEST PUSH0 DUP2 MLOAD SWAP1 POP SWAP2 SWAP1 POP JUMP JUMPDEST PUSH0 DUP3 DUP3 MSTORE PUSH1 0x20 DUP3 ADD SWAP1 POP SWAP3 SWAP2 POP POP JUMP JUMPDEST DUP3 DUP2 DUP4 MCOPY PUSH0 DUP4 DUP4 ADD MSTORE POP POP POP JUMP JUMPDEST PUSH0 PUSH1 0x1F NOT PUSH1 0x1F DUP4 ADD AND SWAP1 POP SWAP2 SWAP1 POP JUMP JUMPDEST PUSH0 PUSH2 0x4BB DUP3 PUSH2 0x479 JUMP JUMPDEST PUSH2 0x4C5 DUP2 DUP6 PUSH2 0x483 JUMP JUMPDEST SWAP4 POP PUSH2 0x4D5 DUP2 DUP6 PUSH1 0x20 DUP7 ADD PUSH2 0x493 JUMP JUMPDEST PUSH2 0x4DE DUP2 PUSH2 0x4A1 JUMP JUMPDEST DUP5 ADD SWAP2 POP POP SWAP3 SWAP2 POP POP JUMP JUMPDEST PUSH0 PUSH1 0x40 DUP3 ADD SWAP1 POP PUSH2 0x4FC PUSH0 DUP4 ADD DUP6 PUSH2 0x46A JUMP JUMPDEST DUP2 DUP2 SUB PUSH1 0x20 DUP4 ADD MSTORE PUSH2 0x50E DUP2 DUP5 PUSH2 0x4B1 JUMP JUMPDEST SWAP1 POP SWAP4 SWAP3 POP POP POP JUMP JUMPDEST PUSH0 DUP1 PUSH1 0x40 DUP4 DUP6 SUB SLT ISZERO PUSH2 0x52D JUMPI PUSH2 0x52C PUSH2 0x404 JUMP JUMPDEST JUMPDEST PUSH0 PUSH2 0x53A DUP6 DUP3 DUP7 ADD PUSH2 0x42B JUMP JUMPDEST SWAP3 POP POP PUSH1 0x20 PUSH2 0x54B DUP6 DUP3 DUP7 ADD PUSH2 0x42B JUMP JUMPDEST SWAP2 POP POP SWAP3 POP SWAP3 SWAP1 POP JUMP JUMPDEST PUSH0 PUSH1 0x20 DUP3 ADD SWAP1 POP PUSH2 0x568 PUSH0 DUP4 ADD DUP5 PUSH2 0x46A JUMP JUMPDEST SWAP3 SWAP2 POP POP JUMP JUMPDEST PUSH0 DUP1 REVERT JUMPDEST PUSH32 0x4E487B7100000000000000000000000000000000000000000000000000000000 PUSH0 MSTORE PUSH1 0x41 PUSH1 0x4 MSTORE PUSH1 0x24 PUSH0 REVERT JUMPDEST PUSH2 0x5A8 DUP3 PUSH2 0x4A1 JUMP JUMPDEST DUP2 ADD DUP2 DUP2 LT PUSH8 0xFFFFFFFFFFFFFFFF DUP3 GT OR ISZERO PUSH2 0x5C7 JUMPI PUSH2 0x5C6 PUSH2 0x572 JUMP JUMPDEST JUMPDEST DUP1 PUSH1 0x40 MSTORE POP POP POP JUMP JUMPDEST PUSH0 PUSH2 0x5D9 PUSH2 0x3FB JUMP JUMPDEST SWAP1 POP PUSH2 0x5E5 DUP3 DUP3 PUSH2 0x59F JUMP JUMPDEST SWAP2 SWAP1 POP JUMP JUMPDEST PUSH0 PUSH8 0xFFFFFFFFFFFFFFFF DUP3 GT ISZERO PUSH2 0x604 JUMPI PUSH2 0x603 PUSH2 0x572 JUMP JUMPDEST JUMPDEST PUSH1 0x20 DUP3 MUL SWAP1 POP SWAP2 SWAP1 POP JUMP JUMPDEST PUSH0 DUP1 REVERT JUMPDEST PUSH0 PUSH2 0x625 PUSH2 0x620 DUP5 PUSH2 0x5EA JUMP JUMPDEST PUSH2 0x5D0 JUMP JUMPDEST SWAP1 POP DUP1 PUSH1 0x20 DUP5 MUL DUP4 ADD DUP6 DUP2 GT ISZERO PUSH2 0x63F JUMPI PUSH2 0x63E PUSH2 0x60F JUMP JUMPDEST JUMPDEST DUP4 JUMPDEST DUP2 DUP2 LT ISZERO PUSH2 0x668 JUMPI DUP1 PUSH2 0x654 DUP9 DUP3 PUSH2 0x42B JUMP JUMPDEST DUP5 MSTORE PUSH1 0x20 DUP5 ADD SWAP4 POP POP PUSH1 0x20 DUP2 ADD SWAP1 POP PUSH2 0x641 JUMP JUMPDEST POP POP POP SWAP4 SWAP3 POP POP POP JUMP JUMPDEST PUSH0 DUP3 PUSH1 0x1F DUP4 ADD SLT PUSH2 0x686 JUMPI PUSH2 0x685 PUSH2 0x56E JUMP JUMPDEST JUMPDEST PUSH1 0x5 PUSH2 0x693 DUP5 DUP3 DUP6 PUSH2 0x613 JUMP JUMPDEST SWAP2 POP POP SWAP3 SWAP2 POP POP JUMP JUMPDEST PUSH0 DUP1 REVERT JUMPDEST PUSH0 PUSH8 0xFFFFFFFFFFFFFFFF DUP3 GT ISZERO PUSH2 0x6BA JUMPI PUSH2 0x6B9 PUSH2 0x572 JUMP JUMPDEST JUMPDEST PUSH2 0x6C3 DUP3 PUSH2 0x4A1 JUMP JUMPDEST SWAP1 POP PUSH1 0x20 DUP2 ADD SWAP1 POP SWAP2 SWAP1 POP JUMP JUMPDEST DUP3 DUP2 DUP4 CALLDATACOPY PUSH0 DUP4 DUP4 ADD MSTORE POP POP POP JUMP JUMPDEST PUSH0 PUSH2 0x6F0 PUSH2 0x6EB DUP5 PUSH2 0x6A0 JUMP JUMPDEST PUSH2 0x5D0 JUMP JUMPDEST SWAP1 POP DUP3 DUP2 MSTORE PUSH1 0x20 DUP2 ADD DUP5 DUP5 DUP5 ADD GT ISZERO PUSH2 0x70C JUMPI PUSH2 0x70B PUSH2 0x69C JUMP JUMPDEST JUMPDEST PUSH2 0x717 DUP5 DUP3 DUP6 PUSH2 0x6D0 JUMP JUMPDEST POP SWAP4 SWAP3 POP POP POP JUMP JUMPDEST PUSH0 DUP3 PUSH1 0x1F DUP4 ADD SLT PUSH2 0x733 JUMPI PUSH2 0x732 PUSH2 0x56E JUMP JUMPDEST JUMPDEST DUP2 CALLDATALOAD PUSH2 0x743 DUP5 DUP3 PUSH1 0x20 DUP7 ADD PUSH2 0x6DE JUMP JUMPDEST SWAP2 POP POP SWAP3 SWAP2 POP POP JUMP JUMPDEST PUSH0 DUP1 PUSH0 PUSH1 0xE0 DUP5 DUP7 SUB SLT ISZERO PUSH2 0x763 JUMPI PUSH2 0x762 PUSH2 0x404 JUMP JUMPDEST JUMPDEST PUSH0 PUSH2 0x770 DUP7 DUP3 DUP8 ADD PUSH2 0x42B JUMP JUMPDEST SWAP4 POP POP PUSH1 0x20 PUSH2 0x781 DUP7 DUP3 DUP8 ADD PUSH2 0x672 JUMP JUMPDEST SWAP3 POP POP PUSH1 0xC0 DUP5 ADD CALLDATALOAD PUSH8 0xFFFFFFFFFFFFFFFF DUP2 GT ISZERO PUSH2 0x7A2 JUMPI PUSH2 0x7A1 PUSH2 0x408 JUMP JUMPDEST JUMPDEST PUSH2 0x7AE DUP7 DUP3 DUP8 ADD PUSH2 0x71F JUMP JUMPDEST SWAP2 POP POP SWAP3 POP SWAP3 POP SWAP3 JUMP JUMPDEST PUSH0 DUP1 PUSH0 DUP1 PUSH1 0x80 DUP6 DUP8 SUB SLT ISZERO PUSH2 0x7D0 JUMPI PUSH2 0x7CF PUSH2 0x404 JUMP JUMPDEST JUMPDEST PUSH0 PUSH2 0x7DD DUP8 DUP3 DUP9 ADD PUSH2 0x42B JUMP JUMPDEST SWAP5 POP POP PUSH1 0x20 DUP6 ADD CALLDATALOAD PUSH8 0xFFFFFFFFFFFFFFFF DUP2 GT ISZERO PUSH2 0x7FE JUMPI PUSH2 0x7FD PUSH2 0x408 JUMP JUMPDEST JUMPDEST PUSH2 0x80A DUP8 DUP3 DUP9 ADD PUSH2 0x71F JUMP JUMPDEST SWAP4 POP POP PUSH1 0x40 PUSH2 0x81B DUP8 DUP3 DUP9 ADD PUSH2 0x42B JUMP JUMPDEST SWAP3 POP POP PUSH1 0x60 PUSH2 0x82C DUP8 DUP3 DUP9 ADD PUSH2 0x42B JUMP JUMPDEST SWAP2 POP POP SWAP3 SWAP6 SWAP2 SWAP5 POP SWAP3 POP JUMP JUMPDEST PUSH32 0x4E487B7100000000000000000000000000000000000000000000000000000000 PUSH0 MSTORE PUSH1 0x22 PUSH1 0x4 MSTORE PUSH1 0x24 PUSH0 REVERT JUMPDEST PUSH0 PUSH1 0x2 DUP3 DIV SWAP1 POP PUSH1 0x1 DUP3 AND DUP1 PUSH2 0x87C JUMPI PUSH1 0x7F DUP3 AND SWAP2 POP JUMPDEST PUSH1 0x20 DUP3 LT DUP2 SUB PUSH2 0x88F JUMPI PUSH2 0x88E PUSH2 0x838 JUMP JUMPDEST JUMPDEST POP SWAP2 SWAP1 POP JUMP JUMPDEST PUSH32 0x4E487B7100000000000000000000000000000000000000000000000000000000 PUSH0 MSTORE PUSH1 0x32 PUSH1 0x4 MSTORE PUSH1 0x24 PUSH0 REVERT JUMPDEST PUSH0 DUP2 SWAP1 POP DUP2 PUSH0 MSTORE PUSH1 0x20 PUSH0 KECCAK256 SWAP1 POP SWAP2 SWAP1 POP JUMP JUMPDEST PUSH0 PUSH1 0x20 PUSH1 0x1F DUP4 ADD DIV SWAP1 POP SWAP2 SWAP1 POP JUMP JUMPDEST PUSH0 DUP3 DUP3 SHL SWAP1 POP SWAP3 SWAP2 POP POP JUMP JUMPDEST PUSH0 PUSH1 0x8 DUP4 MUL PUSH2 0x91E PUSH32 0xFFFFFFFFFFFFFFFFFFFFFFFFFFFFFFFFFFFFFFFFFFFFFFFFFFFFFFFFFFFFFFFF DUP3 PUSH2 0x8E3 JUMP JUMPDEST PUSH2 0x928 DUP7 DUP4 PUSH2 0x8E3 JUMP JUMPDEST SWAP6 POP DUP1 NOT DUP5 AND SWAP4 POP DUP1 DUP7 AND DUP5 OR SWAP3 POP POP POP SWAP4 SWAP3 POP POP POP JUMP JUMPDEST PUSH0 DUP2 SWAP1 POP SWAP2 SWAP1 POP JUMP JUMPDEST PUSH0 PUSH2 0x963 PUSH2 0x95E PUSH2 0x959 DUP5 PUSH2 0x40C JUMP JUMPDEST PUSH2 0x940 JUMP JUMPDEST PUSH2 0x40C JUMP JUMPDEST SWAP1 POP SWAP2 SWAP1 POP JUMP JUMPDEST PUSH0 DUP2 SWAP1 POP SWAP2 SWAP1 POP JUMP JUMPDEST PUSH2 0x97C DUP4 PUSH2 0x949 JUMP JUMPDEST PUSH2 0x990 PUSH2 0x988 DUP3 PUSH2 0x96A JUMP JUMPDEST DUP5 DUP5 SLOAD PUSH2 0x8EF JUMP JUMPDEST DUP3 SSTORE POP POP POP POP JUMP JUMPDEST PUSH0 SWAP1 JUMP JUMPDEST PUSH2 0x9A4 PUSH2 0x998 JUMP JUMPDEST PUSH2 0x9AF DUP2 DUP5 DUP5 PUSH2 0x973 JUMP JUMPDEST POP POP POP JUMP JUMPDEST JUMPDEST DUP2 DUP2 LT ISZERO PUSH2 0x9D2 JUMPI PUSH2 0x9C7 PUSH0 DUP3 PUSH2 0x99C JUMP JUMPDEST PUSH1 0x1 DUP2 ADD SWAP1 POP PUSH2 0x9B5 JUMP JUMPDEST POP POP JUMP JUMPDEST PUSH1 0x1F DUP3 GT ISZERO PUSH2 0xA17 JUMPI PUSH2 0x9E8 DUP2 PUSH2 0x8C2 JUMP JUMPDEST PUSH2 0x9F1 DUP5 PUSH2 0x8D4 JUMP JUMPDEST DUP2 ADD PUSH1 0x20 DUP6 LT ISZERO PUSH2 0xA00 JUMPI DUP2 SWAP1 POP JUMPDEST PUSH2 0xA14 PUSH2 0xA0C DUP6 PUSH2 0x8D4 JUMP JUMPDEST DUP4 ADD DUP3 PUSH2 0x9B4 JUMP JUMPDEST POP POP JUMPDEST POP POP POP JUMP JUMPDEST PUSH0 DUP3 DUP3 SHR SWAP1 POP SWAP3 SWAP2 POP POP JUMP JUMPDEST PUSH0 PUSH2 0xA37 PUSH0 NOT DUP5 PUSH1 0x8 MUL PUSH2 0xA1C JUMP JUMPDEST NOT DUP1 DUP4 AND SWAP2 POP POP SWAP3 SWAP2 POP POP JUMP JUMPDEST PUSH0 PUSH2 0xA4F DUP4 DUP4 PUSH2 0xA28 JUMP JUMPDEST SWAP2 POP DUP3 PUSH1 0x2 MUL DUP3 OR SWAP1 POP SWAP3 SWAP2 POP POP JUMP JUMPDEST PUSH2 0xA68 DUP3 PUSH2 0x479 JUMP JUMPDEST PUSH8 0xFFFFFFFFFFFFFFFF DUP2 GT ISZERO PUSH2 0xA81 JUMPI PUSH2 0xA80 PUSH2 0x572 JUMP JUMPDEST JUMPDEST PUSH2 0xA8B DUP3 SLOAD PUSH2 0x865 JUMP JUMPDEST PUSH2 0xA96 DUP3 DUP3 DUP6 PUSH2 0x9D6 JUMP JUMPDEST PUSH0 PUSH1 0x20 SWAP1 POP PUSH1 0x1F DUP4 GT PUSH1 0x1 DUP2 EQ PUSH2 0xAC7 JUMPI PUSH0 DUP5 ISZERO PUSH2 0xAB5 JUMPI DUP3 DUP8 ADD MLOAD SWAP1 POP JUMPDEST PUSH2 0xABF DUP6 DUP3 PUSH2 0xA44 JUMP JUMPDEST DUP7 SSTORE POP PUSH2 0xB26 JUMP JUMPDEST PUSH1 0x1F NOT DUP5 AND PUSH2 0xAD5 DUP7 PUSH2 0x8C2 JUMP JUMPDEST PUSH0 JUMPDEST DUP3 DUP2 LT ISZERO PUSH2 0xAFC JUMPI DUP5 DUP10 ADD MLOAD DUP3 SSTORE PUSH1 0x1 DUP3 ADD SWAP2 POP PUSH1 0x20 DUP6 ADD SWAP5 POP PUSH1 0x20 DUP2 ADD SWAP1 POP PUSH2 0xAD7 JUMP JUMPDEST DUP7 DUP4 LT ISZERO PUSH2 0xB19 JUMPI DUP5 DUP10 ADD MLOAD PUSH2 0xB15 PUSH1 0x1F DUP10 AND DUP3 PUSH2 0xA28 JUMP JUMPDEST DUP4 SSTORE POP JUMPDEST PUSH1 0x1 PUSH1 0x2 DUP9 MUL ADD DUP9 SSTORE POP POP POP JUMPDEST POP POP POP POP POP POP JUMP JUMPDEST PUSH0 DUP2 SLOAD SWAP1 POP PUSH2 0xB3C DUP2 PUSH2 0x865 JUMP JUMPDEST SWAP1 POP SWAP2 SWAP1 POP JUMP JUMPDEST DUP2 DUP2 SUB PUSH2 0xB51 JUMPI POP POP PUSH2 0xC26 JUMP JUMPDEST PUSH2 0xB5A DUP3 PUSH2 0xB2E JUMP JUMPDEST PUSH8 0xFFFFFFFFFFFFFFFF DUP2 GT ISZERO PUSH2 0xB73 JUMPI PUSH2 0xB72 PUSH2 0x572 JUMP JUMPDEST JUMPDEST PUSH2 0xB7D DUP3 SLOAD PUSH2 0x865 JUMP JUMPDEST PUSH2 0xB88 DUP3 DUP3 DUP6 PUSH2 0x9D6 JUMP JUMPDEST PUSH0 PUSH1 0x1F DUP4 GT PUSH1 0x1 DUP2 EQ PUSH2 0xBB5 JUMPI PUSH0 DUP5 ISZERO PUSH2 0xBA3 JUMPI DUP3 DUP8 ADD SLOAD SWAP1 POP JUMPDEST PUSH2 0xBAD DUP6 DUP3 PUSH2 0xA44 JUMP JUMPDEST DUP7 SSTORE POP PUSH2 0xC1F JUMP JUMPDEST PUSH1 0x1F NOT DUP5 AND PUSH2 0xBC3 DUP8 PUSH2 0x8C2 JUMP JUMPDEST SWAP7 POP PUSH2 0xBCE DUP7 PUSH2 0x8C2 JUMP JUMPDEST PUSH0 JUMPDEST DUP3 DUP2 LT ISZERO PUSH2 0xBF5 JUMPI DUP5 DUP10 ADD SLOAD DUP3 SSTORE PUSH1 0x1 DUP3 ADD SWAP2 POP PUSH1 0x1 DUP6 ADD SWAP5 POP PUSH1 0x20 DUP2 ADD SWAP1 POP PUSH2 0xBD0 JUMP JUMPDEST DUP7 DUP4 LT ISZERO PUSH2 0xC12 JUMPI DUP5 DUP10 ADD SLOAD PUSH2 0xC0E PUSH1 0x1F DUP10 AND DUP3 PUSH2 0xA28 JUMP JUMPDEST DUP4 SSTORE POP JUMPDEST PUSH1 0x1 PUSH1 0x2 DUP9 MUL ADD DUP9 SSTORE POP POP POP JUMPDEST POP POP POP POP POP POP JUMPDEST JUMP INVALID LOG2 PUSH5 0x6970667358 0x22 SLT KECCAK256 0xDD 0xF8 0xC1 0xE0 0xE0 0xC7 0xD8 0xC2 SWAP13 PUSH23 0x475D65131C8D5EE2581A0539C7A0BE9D3E9A55011FEE64 PUSH20 0x6F6C634300081A00330000000000000000000000 "
				},
				"gasEstimates": {
					"creation": {
						"codeDepositCost": "633200",
						"executionCost": "662",
						"totalCost": "633862"
					},
					"external": {
						"seeMarks(uint256,uint256)": "infinite",
						"setData(uint256,uint256[5],string)": "infinite",
						"students(uint256)": "infinite",
						"updateInfo(uint256,string,uint256,uint256)": "infinite"
					}
				},
				"methodIdentifiers": {
					"seeMarks(uint256,uint256)": "a3b16660",
					"setData(uint256,uint256[5],string)": "bdbb8ceb",
					"students(uint256)": "06ead22e",
					"updateInfo(uint256,string,uint256,uint256)": "ded7544a"
				}
			},
			"storageLayout": {
				"storage": [
					{
						"astId": 14,
						"contract": "contracts/Adv/structs.sol:Students",
						"label": "students",
						"offset": 0,
						"slot": "0",
						"type": "t_array(t_struct(Student)10_storage)dyn_storage"
					}
				],
				"types": {
					"t_array(t_struct(Student)10_storage)dyn_storage": {
						"base": "t_struct(Student)10_storage",
						"encoding": "dynamic_array",
						"label": "struct Students.Student[]",
						"numberOfBytes": "32"
					},
					"t_array(t_uint256)5_storage": {
						"base": "t_uint256",
						"encoding": "inplace",
						"label": "uint256[5]",
						"numberOfBytes": "160"
					},
					"t_string_storage": {
						"encoding": "bytes",
						"label": "string",
						"numberOfBytes": "32"
					},
					"t_struct(Student)10_storage": {
						"encoding": "inplace",
						"label": "struct Students.Student",
						"members": [
							{
								"astId": 3,
								"contract": "contracts/Adv/structs.sol:Students",
								"label": "id",
								"offset": 0,
								"slot": "0",
								"type": "t_uint256"
							},
							{
								"astId": 7,
								"contract": "contracts/Adv/structs.sol:Students",
								"label": "marks",
								"offset": 0,
								"slot": "1",
								"type": "t_array(t_uint256)5_storage"
							},
							{
								"astId": 9,
								"contract": "contracts/Adv/structs.sol:Students",
								"label": "name",
								"offset": 0,
								"slot": "6",
								"type": "t_string_storage"
							}
						],
						"numberOfBytes": "224"
					},
					"t_uint256": {
						"encoding": "inplace",
						"label": "uint256",
						"numberOfBytes": "32"
					}
				}
			},
			"userdoc": {
				"kind": "user",
				"methods": {},
				"version": 1
			}
		}
	}
}