{
	"contracts/Adv/nestedmaps.sol": {
		"NMaps": {
			"abi": [
				{
					"inputs": [
						{
							"internalType": "uint256",
							"name": "",
							"type": "uint256"
						},
						{
							"internalType": "string",
							"name": "",
							"type": "string"
						}
					],
					"name": "marks",
					"outputs": [
						{
							"internalType": "uint256",
							"name": "",
							"type": "uint256"
						}
					],
					"stateMutability": "view",
					"type": "function"
				},
				{
					"inputs": [
						{
							"internalType": "uint256",
							"name": "_id",
							"type": "uint256"
						},
						{
							"internalType": "string",
							"name": "_subject",
							"type": "string"
						},
						{
							"internalType": "uint256",
							"name": "_marks",
							"type": "uint256"
						}
					],
					"name": "setMarks",
					"outputs": [],
					"stateMutability": "nonpayable",
					"type": "function"
				}
			],
			"devdoc": {
				"kind": "dev",
				"methods": {},
				"version": 1
			},
			"evm": {
				"assembly": "    /* \"contracts/Adv/nestedmaps.sol\":71:276  contract NMaps {... */\n  mstore(0x40, 0x80)\n  callvalue\n  dup1\n  iszero\n  tag_1\n  jumpi\n  0x00\n  dup1\n  revert\ntag_1:\n  pop\n  dataSize(sub_0)\n  dup1\n  dataOffset(sub_0)\n  0x00\n  codecopy\n  0x00\n  return\nstop\n\nsub_0: assembly {\n        /* \"contracts/Adv/nestedmaps.sol\":71:276  contract NMaps {... */\n      mstore(0x40, 0x80)\n      callvalue\n      dup1\n      iszero\n      tag_1\n      jumpi\n      0x00\n      dup1\n      revert\n    tag_1:\n      pop\n      jumpi(tag_2, lt(calldatasize, 0x04))\n      shr(0xe0, calldataload(0x00))\n      dup1\n      0x273861db\n      eq\n      tag_3\n      jumpi\n      dup1\n      0x9bdf18b4\n      eq\n      tag_4\n      jumpi\n    tag_2:\n      0x00\n      dup1\n      revert\n        /* \"contracts/Adv/nestedmaps.sol\":155:274  function setMarks(uint _id, string memory _subject, uint _marks) public  {... */\n    tag_3:\n      tag_5\n      0x04\n      dup1\n      calldatasize\n      sub\n      dup2\n      add\n      swap1\n      tag_6\n      swap2\n      swap1\n      tag_7\n      jump\t// in\n    tag_6:\n      tag_8\n      jump\t// in\n    tag_5:\n      stop\n        /* \"contracts/Adv/nestedmaps.sol\":93:148  mapping (uint => mapping (string => uint)) public marks */\n    tag_4:\n      tag_9\n      0x04\n      dup1\n      calldatasize\n      sub\n      dup2\n      add\n      swap1\n      tag_10\n      swap2\n      swap1\n      tag_11\n      jump\t// in\n    tag_10:\n      tag_12\n      jump\t// in\n    tag_9:\n      mload(0x40)\n      tag_13\n      swap2\n      swap1\n      tag_14\n      jump\t// in\n    tag_13:\n      mload(0x40)\n      dup1\n      swap2\n      sub\n      swap1\n      return\n        /* \"contracts/Adv/nestedmaps.sol\":155:274  function setMarks(uint _id, string memory _subject, uint _marks) public  {... */\n    tag_8:\n        /* \"contracts/Adv/nestedmaps.sol\":261:267  _marks */\n      dup1\n        /* \"contracts/Adv/nestedmaps.sol\":238:243  marks */\n      0x00\n        /* \"contracts/Adv/nestedmaps.sol\":238:248  marks[_id] */\n      dup1\n        /* \"contracts/Adv/nestedmaps.sol\":244:247  _id */\n      dup6\n        /* \"contracts/Adv/nestedmaps.sol\":238:248  marks[_id] */\n      dup2\n      mstore\n      0x20\n      add\n      swap1\n      dup2\n      mstore\n      0x20\n      add\n      0x00\n      keccak256\n        /* \"contracts/Adv/nestedmaps.sol\":249:257  _subject */\n      dup4\n        /* \"contracts/Adv/nestedmaps.sol\":238:258  marks[_id][_subject] */\n      mload(0x40)\n      tag_16\n      swap2\n      swap1\n      tag_17\n      jump\t// in\n    tag_16:\n      swap1\n      dup2\n      mstore\n      0x20\n      add\n      mload(0x40)\n      dup1\n      swap2\n      sub\n      swap1\n      keccak256\n        /* \"contracts/Adv/nestedmaps.sol\":238:267  marks[_id][_subject] = _marks */\n      dup2\n      swap1\n      sstore\n      pop\n        /* \"contracts/Adv/nestedmaps.sol\":155:274  function setMarks(uint _id, string memory _subject, uint _marks) public  {... */\n      pop\n      pop\n      pop\n      jump\t// out\n        /* \"contracts/Adv/nestedmaps.sol\":93:148  mapping (uint => mapping (string => uint)) public marks */\n    tag_12:\n      mstore(0x20, 0x00)\n      dup2\n      0x00\n      mstore\n      keccak256(0x00, 0x40)\n      dup2\n      dup1\n      mload\n      0x20\n      dup2\n      add\n      dup3\n      add\n      dup1\n      mload\n      dup5\n      dup3\n      mstore\n      0x20\n      dup4\n      add\n      0x20\n      dup6\n      add\n      keccak256\n      dup2\n      dup4\n      mstore\n      dup1\n      swap6\n      pop\n      pop\n      pop\n      pop\n      pop\n      pop\n      0x00\n      swap2\n      pop\n      swap2\n      pop\n      pop\n      sload\n      dup2\n      jump\t// out\n        /* \"#utility.yul\":7:82   */\n    tag_18:\n        /* \"#utility.yul\":40:46   */\n      0x00\n        /* \"#utility.yul\":73:75   */\n      0x40\n        /* \"#utility.yul\":67:76   */\n      mload\n        /* \"#utility.yul\":57:76   */\n      swap1\n      pop\n        /* \"#utility.yul\":7:82   */\n      swap1\n      jump\t// out\n        /* \"#utility.yul\":88:205   */\n    tag_19:\n        /* \"#utility.yul\":197:198   */\n      0x00\n        /* \"#utility.yul\":194:195   */\n      dup1\n        /* \"#utility.yul\":187:199   */\n      revert\n        /* \"#utility.yul\":211:328   */\n    tag_20:\n        /* \"#utility.yul\":320:321   */\n      0x00\n        /* \"#utility.yul\":317:318   */\n      dup1\n        /* \"#utility.yul\":310:322   */\n      revert\n        /* \"#utility.yul\":334:411   */\n    tag_21:\n        /* \"#utility.yul\":371:378   */\n      0x00\n        /* \"#utility.yul\":400:405   */\n      dup2\n        /* \"#utility.yul\":389:405   */\n      swap1\n      pop\n        /* \"#utility.yul\":334:411   */\n      swap2\n      swap1\n      pop\n      jump\t// out\n        /* \"#utility.yul\":417:539   */\n    tag_22:\n        /* \"#utility.yul\":490:514   */\n      tag_45\n        /* \"#utility.yul\":508:513   */\n      dup2\n        /* \"#utility.yul\":490:514   */\n      tag_21\n      jump\t// in\n    tag_45:\n        /* \"#utility.yul\":483:488   */\n      dup2\n        /* \"#utility.yul\":480:515   */\n      eq\n        /* \"#utility.yul\":470:533   */\n      tag_46\n      jumpi\n        /* \"#utility.yul\":529:530   */\n      0x00\n        /* \"#utility.yul\":526:527   */\n      dup1\n        /* \"#utility.yul\":519:531   */\n      revert\n        /* \"#utility.yul\":470:533   */\n    tag_46:\n        /* \"#utility.yul\":417:539   */\n      pop\n      jump\t// out\n        /* \"#utility.yul\":545:684   */\n    tag_23:\n        /* \"#utility.yul\":591:596   */\n      0x00\n        /* \"#utility.yul\":629:635   */\n      dup2\n        /* \"#utility.yul\":616:636   */\n      calldataload\n        /* \"#utility.yul\":607:636   */\n      swap1\n      pop\n        /* \"#utility.yul\":645:678   */\n      tag_48\n        /* \"#utility.yul\":672:677   */\n      dup2\n        /* \"#utility.yul\":645:678   */\n      tag_22\n      jump\t// in\n    tag_48:\n        /* \"#utility.yul\":545:684   */\n      swap3\n      swap2\n      pop\n      pop\n      jump\t// out\n        /* \"#utility.yul\":690:807   */\n    tag_24:\n        /* \"#utility.yul\":799:800   */\n      0x00\n        /* \"#utility.yul\":796:797   */\n      dup1\n        /* \"#utility.yul\":789:801   */\n      revert\n        /* \"#utility.yul\":813:930   */\n    tag_25:\n        /* \"#utility.yul\":922:923   */\n      0x00\n        /* \"#utility.yul\":919:920   */\n      dup1\n        /* \"#utility.yul\":912:924   */\n      revert\n        /* \"#utility.yul\":936:1038   */\n    tag_26:\n        /* \"#utility.yul\":977:983   */\n      0x00\n        /* \"#utility.yul\":1028:1030   */\n      0x1f\n        /* \"#utility.yul\":1024:1031   */\n      not\n        /* \"#utility.yul\":1019:1021   */\n      0x1f\n        /* \"#utility.yul\":1012:1017   */\n      dup4\n        /* \"#utility.yul\":1008:1022   */\n      add\n        /* \"#utility.yul\":1004:1032   */\n      and\n        /* \"#utility.yul\":994:1032   */\n      swap1\n      pop\n        /* \"#utility.yul\":936:1038   */\n      swap2\n      swap1\n      pop\n      jump\t// out\n        /* \"#utility.yul\":1044:1224   */\n    tag_27:\n        /* \"#utility.yul\":1092:1169   */\n      0x4e487b7100000000000000000000000000000000000000000000000000000000\n        /* \"#utility.yul\":1089:1090   */\n      0x00\n        /* \"#utility.yul\":1082:1170   */\n      mstore\n        /* \"#utility.yul\":1189:1193   */\n      0x41\n        /* \"#utility.yul\":1186:1187   */\n      0x04\n        /* \"#utility.yul\":1179:1194   */\n      mstore\n        /* \"#utility.yul\":1213:1217   */\n      0x24\n        /* \"#utility.yul\":1210:1211   */\n      0x00\n        /* \"#utility.yul\":1203:1218   */\n      revert\n        /* \"#utility.yul\":1230:1511   */\n    tag_28:\n        /* \"#utility.yul\":1313:1340   */\n      tag_54\n        /* \"#utility.yul\":1335:1339   */\n      dup3\n        /* \"#utility.yul\":1313:1340   */\n      tag_26\n      jump\t// in\n    tag_54:\n        /* \"#utility.yul\":1305:1311   */\n      dup2\n        /* \"#utility.yul\":1301:1341   */\n      add\n        /* \"#utility.yul\":1443:1449   */\n      dup2\n        /* \"#utility.yul\":1431:1441   */\n      dup2\n        /* \"#utility.yul\":1428:1450   */\n      lt\n        /* \"#utility.yul\":1407:1425   */\n      0xffffffffffffffff\n        /* \"#utility.yul\":1395:1405   */\n      dup3\n        /* \"#utility.yul\":1392:1426   */\n      gt\n        /* \"#utility.yul\":1389:1451   */\n      or\n        /* \"#utility.yul\":1386:1474   */\n      iszero\n      tag_55\n      jumpi\n        /* \"#utility.yul\":1454:1472   */\n      tag_56\n      tag_27\n      jump\t// in\n    tag_56:\n        /* \"#utility.yul\":1386:1474   */\n    tag_55:\n        /* \"#utility.yul\":1494:1504   */\n      dup1\n        /* \"#utility.yul\":1490:1492   */\n      0x40\n        /* \"#utility.yul\":1483:1505   */\n      mstore\n        /* \"#utility.yul\":1273:1511   */\n      pop\n        /* \"#utility.yul\":1230:1511   */\n      pop\n      pop\n      jump\t// out\n        /* \"#utility.yul\":1517:1646   */\n    tag_29:\n        /* \"#utility.yul\":1551:1557   */\n      0x00\n        /* \"#utility.yul\":1578:1598   */\n      tag_58\n      tag_18\n      jump\t// in\n    tag_58:\n        /* \"#utility.yul\":1568:1598   */\n      swap1\n      pop\n        /* \"#utility.yul\":1607:1640   */\n      tag_59\n        /* \"#utility.yul\":1635:1639   */\n      dup3\n        /* \"#utility.yul\":1627:1633   */\n      dup3\n        /* \"#utility.yul\":1607:1640   */\n      tag_28\n      jump\t// in\n    tag_59:\n        /* \"#utility.yul\":1517:1646   */\n      swap2\n      swap1\n      pop\n      jump\t// out\n        /* \"#utility.yul\":1652:1960   */\n    tag_30:\n        /* \"#utility.yul\":1714:1718   */\n      0x00\n        /* \"#utility.yul\":1804:1822   */\n      0xffffffffffffffff\n        /* \"#utility.yul\":1796:1802   */\n      dup3\n        /* \"#utility.yul\":1793:1823   */\n      gt\n        /* \"#utility.yul\":1790:1846   */\n      iszero\n      tag_61\n      jumpi\n        /* \"#utility.yul\":1826:1844   */\n      tag_62\n      tag_27\n      jump\t// in\n    tag_62:\n        /* \"#utility.yul\":1790:1846   */\n    tag_61:\n        /* \"#utility.yul\":1864:1893   */\n      tag_63\n        /* \"#utility.yul\":1886:1892   */\n      dup3\n        /* \"#utility.yul\":1864:1893   */\n      tag_26\n      jump\t// in\n    tag_63:\n        /* \"#utility.yul\":1856:1893   */\n      swap1\n      pop\n        /* \"#utility.yul\":1948:1952   */\n      0x20\n        /* \"#utility.yul\":1942:1946   */\n      dup2\n        /* \"#utility.yul\":1938:1953   */\n      add\n        /* \"#utility.yul\":1930:1953   */\n      swap1\n      pop\n        /* \"#utility.yul\":1652:1960   */\n      swap2\n      swap1\n      pop\n      jump\t// out\n        /* \"#utility.yul\":1966:2114   */\n    tag_31:\n        /* \"#utility.yul\":2064:2070   */\n      dup3\n        /* \"#utility.yul\":2059:2062   */\n      dup2\n        /* \"#utility.yul\":2054:2057   */\n      dup4\n        /* \"#utility.yul\":2041:2071   */\n      calldatacopy\n        /* \"#utility.yul\":2105:2106   */\n      0x00\n        /* \"#utility.yul\":2096:2102   */\n      dup4\n        /* \"#utility.yul\":2091:2094   */\n      dup4\n        /* \"#utility.yul\":2087:2103   */\n      add\n        /* \"#utility.yul\":2080:2107   */\n      mstore\n        /* \"#utility.yul\":1966:2114   */\n      pop\n      pop\n      pop\n      jump\t// out\n        /* \"#utility.yul\":2120:2545   */\n    tag_32:\n        /* \"#utility.yul\":2198:2203   */\n      0x00\n        /* \"#utility.yul\":2223:2289   */\n      tag_66\n        /* \"#utility.yul\":2239:2288   */\n      tag_67\n        /* \"#utility.yul\":2281:2287   */\n      dup5\n        /* \"#utility.yul\":2239:2288   */\n      tag_30\n      jump\t// in\n    tag_67:\n        /* \"#utility.yul\":2223:2289   */\n      tag_29\n      jump\t// in\n    tag_66:\n        /* \"#utility.yul\":2214:2289   */\n      swap1\n      pop\n        /* \"#utility.yul\":2312:2318   */\n      dup3\n        /* \"#utility.yul\":2305:2310   */\n      dup2\n        /* \"#utility.yul\":2298:2319   */\n      mstore\n        /* \"#utility.yul\":2350:2354   */\n      0x20\n        /* \"#utility.yul\":2343:2348   */\n      dup2\n        /* \"#utility.yul\":2339:2355   */\n      add\n        /* \"#utility.yul\":2388:2391   */\n      dup5\n        /* \"#utility.yul\":2379:2385   */\n      dup5\n        /* \"#utility.yul\":2374:2377   */\n      dup5\n        /* \"#utility.yul\":2370:2386   */\n      add\n        /* \"#utility.yul\":2367:2392   */\n      gt\n        /* \"#utility.yul\":2364:2476   */\n      iszero\n      tag_68\n      jumpi\n        /* \"#utility.yul\":2395:2474   */\n      tag_69\n      tag_25\n      jump\t// in\n    tag_69:\n        /* \"#utility.yul\":2364:2476   */\n    tag_68:\n        /* \"#utility.yul\":2485:2539   */\n      tag_70\n        /* \"#utility.yul\":2532:2538   */\n      dup5\n        /* \"#utility.yul\":2527:2530   */\n      dup3\n        /* \"#utility.yul\":2522:2525   */\n      dup6\n        /* \"#utility.yul\":2485:2539   */\n      tag_31\n      jump\t// in\n    tag_70:\n        /* \"#utility.yul\":2204:2545   */\n      pop\n        /* \"#utility.yul\":2120:2545   */\n      swap4\n      swap3\n      pop\n      pop\n      pop\n      jump\t// out\n        /* \"#utility.yul\":2565:2905   */\n    tag_33:\n        /* \"#utility.yul\":2621:2626   */\n      0x00\n        /* \"#utility.yul\":2670:2673   */\n      dup3\n        /* \"#utility.yul\":2663:2667   */\n      0x1f\n        /* \"#utility.yul\":2655:2661   */\n      dup4\n        /* \"#utility.yul\":2651:2668   */\n      add\n        /* \"#utility.yul\":2647:2674   */\n      slt\n        /* \"#utility.yul\":2637:2759   */\n      tag_72\n      jumpi\n        /* \"#utility.yul\":2678:2757   */\n      tag_73\n      tag_24\n      jump\t// in\n    tag_73:\n        /* \"#utility.yul\":2637:2759   */\n    tag_72:\n        /* \"#utility.yul\":2795:2801   */\n      dup2\n        /* \"#utility.yul\":2782:2802   */\n      calldataload\n        /* \"#utility.yul\":2820:2899   */\n      tag_74\n        /* \"#utility.yul\":2895:2898   */\n      dup5\n        /* \"#utility.yul\":2887:2893   */\n      dup3\n        /* \"#utility.yul\":2880:2884   */\n      0x20\n        /* \"#utility.yul\":2872:2878   */\n      dup7\n        /* \"#utility.yul\":2868:2885   */\n      add\n        /* \"#utility.yul\":2820:2899   */\n      tag_32\n      jump\t// in\n    tag_74:\n        /* \"#utility.yul\":2811:2899   */\n      swap2\n      pop\n        /* \"#utility.yul\":2627:2905   */\n      pop\n        /* \"#utility.yul\":2565:2905   */\n      swap3\n      swap2\n      pop\n      pop\n      jump\t// out\n        /* \"#utility.yul\":2911:3710   */\n    tag_7:\n        /* \"#utility.yul\":2998:3004   */\n      0x00\n        /* \"#utility.yul\":3006:3012   */\n      dup1\n        /* \"#utility.yul\":3014:3020   */\n      0x00\n        /* \"#utility.yul\":3063:3065   */\n      0x60\n        /* \"#utility.yul\":3051:3060   */\n      dup5\n        /* \"#utility.yul\":3042:3049   */\n      dup7\n        /* \"#utility.yul\":3038:3061   */\n      sub\n        /* \"#utility.yul\":3034:3066   */\n      slt\n        /* \"#utility.yul\":3031:3150   */\n      iszero\n      tag_76\n      jumpi\n        /* \"#utility.yul\":3069:3148   */\n      tag_77\n      tag_19\n      jump\t// in\n    tag_77:\n        /* \"#utility.yul\":3031:3150   */\n    tag_76:\n        /* \"#utility.yul\":3189:3190   */\n      0x00\n        /* \"#utility.yul\":3214:3267   */\n      tag_78\n        /* \"#utility.yul\":3259:3266   */\n      dup7\n        /* \"#utility.yul\":3250:3256   */\n      dup3\n        /* \"#utility.yul\":3239:3248   */\n      dup8\n        /* \"#utility.yul\":3235:3257   */\n      add\n        /* \"#utility.yul\":3214:3267   */\n      tag_23\n      jump\t// in\n    tag_78:\n        /* \"#utility.yul\":3204:3267   */\n      swap4\n      pop\n        /* \"#utility.yul\":3160:3277   */\n      pop\n        /* \"#utility.yul\":3344:3346   */\n      0x20\n        /* \"#utility.yul\":3333:3342   */\n      dup5\n        /* \"#utility.yul\":3329:3347   */\n      add\n        /* \"#utility.yul\":3316:3348   */\n      calldataload\n        /* \"#utility.yul\":3375:3393   */\n      0xffffffffffffffff\n        /* \"#utility.yul\":3367:3373   */\n      dup2\n        /* \"#utility.yul\":3364:3394   */\n      gt\n        /* \"#utility.yul\":3361:3478   */\n      iszero\n      tag_79\n      jumpi\n        /* \"#utility.yul\":3397:3476   */\n      tag_80\n      tag_20\n      jump\t// in\n    tag_80:\n        /* \"#utility.yul\":3361:3478   */\n    tag_79:\n        /* \"#utility.yul\":3502:3565   */\n      tag_81\n        /* \"#utility.yul\":3557:3564   */\n      dup7\n        /* \"#utility.yul\":3548:3554   */\n      dup3\n        /* \"#utility.yul\":3537:3546   */\n      dup8\n        /* \"#utility.yul\":3533:3555   */\n      add\n        /* \"#utility.yul\":3502:3565   */\n      tag_33\n      jump\t// in\n    tag_81:\n        /* \"#utility.yul\":3492:3565   */\n      swap3\n      pop\n        /* \"#utility.yul\":3287:3575   */\n      pop\n        /* \"#utility.yul\":3614:3616   */\n      0x40\n        /* \"#utility.yul\":3640:3693   */\n      tag_82\n        /* \"#utility.yul\":3685:3692   */\n      dup7\n        /* \"#utility.yul\":3676:3682   */\n      dup3\n        /* \"#utility.yul\":3665:3674   */\n      dup8\n        /* \"#utility.yul\":3661:3683   */\n      add\n        /* \"#utility.yul\":3640:3693   */\n      tag_23\n      jump\t// in\n    tag_82:\n        /* \"#utility.yul\":3630:3693   */\n      swap2\n      pop\n        /* \"#utility.yul\":3585:3703   */\n      pop\n        /* \"#utility.yul\":2911:3710   */\n      swap3\n      pop\n      swap3\n      pop\n      swap3\n      jump\t// out\n        /* \"#utility.yul\":3716:4370   */\n    tag_11:\n        /* \"#utility.yul\":3794:3800   */\n      0x00\n        /* \"#utility.yul\":3802:3808   */\n      dup1\n        /* \"#utility.yul\":3851:3853   */\n      0x40\n        /* \"#utility.yul\":3839:3848   */\n      dup4\n        /* \"#utility.yul\":3830:3837   */\n      dup6\n        /* \"#utility.yul\":3826:3849   */\n      sub\n        /* \"#utility.yul\":3822:3854   */\n      slt\n        /* \"#utility.yul\":3819:3938   */\n      iszero\n      tag_84\n      jumpi\n        /* \"#utility.yul\":3857:3936   */\n      tag_85\n      tag_19\n      jump\t// in\n    tag_85:\n        /* \"#utility.yul\":3819:3938   */\n    tag_84:\n        /* \"#utility.yul\":3977:3978   */\n      0x00\n        /* \"#utility.yul\":4002:4055   */\n      tag_86\n        /* \"#utility.yul\":4047:4054   */\n      dup6\n        /* \"#utility.yul\":4038:4044   */\n      dup3\n        /* \"#utility.yul\":4027:4036   */\n      dup7\n        /* \"#utility.yul\":4023:4045   */\n      add\n        /* \"#utility.yul\":4002:4055   */\n      tag_23\n      jump\t// in\n    tag_86:\n        /* \"#utility.yul\":3992:4055   */\n      swap3\n      pop\n        /* \"#utility.yul\":3948:4065   */\n      pop\n        /* \"#utility.yul\":4132:4134   */\n      0x20\n        /* \"#utility.yul\":4121:4130   */\n      dup4\n        /* \"#utility.yul\":4117:4135   */\n      add\n        /* \"#utility.yul\":4104:4136   */\n      calldataload\n        /* \"#utility.yul\":4163:4181   */\n      0xffffffffffffffff\n        /* \"#utility.yul\":4155:4161   */\n      dup2\n        /* \"#utility.yul\":4152:4182   */\n      gt\n        /* \"#utility.yul\":4149:4266   */\n      iszero\n      tag_87\n      jumpi\n        /* \"#utility.yul\":4185:4264   */\n      tag_88\n      tag_20\n      jump\t// in\n    tag_88:\n        /* \"#utility.yul\":4149:4266   */\n    tag_87:\n        /* \"#utility.yul\":4290:4353   */\n      tag_89\n        /* \"#utility.yul\":4345:4352   */\n      dup6\n        /* \"#utility.yul\":4336:4342   */\n      dup3\n        /* \"#utility.yul\":4325:4334   */\n      dup7\n        /* \"#utility.yul\":4321:4343   */\n      add\n        /* \"#utility.yul\":4290:4353   */\n      tag_33\n      jump\t// in\n    tag_89:\n        /* \"#utility.yul\":4280:4353   */\n      swap2\n      pop\n        /* \"#utility.yul\":4075:4363   */\n      pop\n        /* \"#utility.yul\":3716:4370   */\n      swap3\n      pop\n      swap3\n      swap1\n      pop\n      jump\t// out\n        /* \"#utility.yul\":4376:4494   */\n    tag_34:\n        /* \"#utility.yul\":4463:4487   */\n      tag_91\n        /* \"#utility.yul\":4481:4486   */\n      dup2\n        /* \"#utility.yul\":4463:4487   */\n      tag_21\n      jump\t// in\n    tag_91:\n        /* \"#utility.yul\":4458:4461   */\n      dup3\n        /* \"#utility.yul\":4451:4488   */\n      mstore\n        /* \"#utility.yul\":4376:4494   */\n      pop\n      pop\n      jump\t// out\n        /* \"#utility.yul\":4500:4722   */\n    tag_14:\n        /* \"#utility.yul\":4593:4597   */\n      0x00\n        /* \"#utility.yul\":4631:4633   */\n      0x20\n        /* \"#utility.yul\":4620:4629   */\n      dup3\n        /* \"#utility.yul\":4616:4634   */\n      add\n        /* \"#utility.yul\":4608:4634   */\n      swap1\n      pop\n        /* \"#utility.yul\":4644:4715   */\n      tag_93\n        /* \"#utility.yul\":4712:4713   */\n      0x00\n        /* \"#utility.yul\":4701:4710   */\n      dup4\n        /* \"#utility.yul\":4697:4714   */\n      add\n        /* \"#utility.yul\":4688:4694   */\n      dup5\n        /* \"#utility.yul\":4644:4715   */\n      tag_34\n      jump\t// in\n    tag_93:\n        /* \"#utility.yul\":4500:4722   */\n      swap3\n      swap2\n      pop\n      pop\n      jump\t// out\n        /* \"#utility.yul\":4728:4827   */\n    tag_35:\n        /* \"#utility.yul\":4780:4786   */\n      0x00\n        /* \"#utility.yul\":4814:4819   */\n      dup2\n        /* \"#utility.yul\":4808:4820   */\n      mload\n        /* \"#utility.yul\":4798:4820   */\n      swap1\n      pop\n        /* \"#utility.yul\":4728:4827   */\n      swap2\n      swap1\n      pop\n      jump\t// out\n        /* \"#utility.yul\":4833:4981   */\n    tag_36:\n        /* \"#utility.yul\":4935:4946   */\n      0x00\n        /* \"#utility.yul\":4972:4975   */\n      dup2\n        /* \"#utility.yul\":4957:4975   */\n      swap1\n      pop\n        /* \"#utility.yul\":4833:4981   */\n      swap3\n      swap2\n      pop\n      pop\n      jump\t// out\n        /* \"#utility.yul\":4987:5126   */\n    tag_37:\n        /* \"#utility.yul\":5076:5082   */\n      dup3\n        /* \"#utility.yul\":5071:5074   */\n      dup2\n        /* \"#utility.yul\":5066:5069   */\n      dup4\n        /* \"#utility.yul\":5060:5083   */\n      mcopy\n        /* \"#utility.yul\":5117:5118   */\n      0x00\n        /* \"#utility.yul\":5108:5114   */\n      dup4\n        /* \"#utility.yul\":5103:5106   */\n      dup4\n        /* \"#utility.yul\":5099:5115   */\n      add\n        /* \"#utility.yul\":5092:5119   */\n      mstore\n        /* \"#utility.yul\":4987:5126   */\n      pop\n      pop\n      pop\n      jump\t// out\n        /* \"#utility.yul\":5132:5522   */\n    tag_38:\n        /* \"#utility.yul\":5238:5241   */\n      0x00\n        /* \"#utility.yul\":5266:5305   */\n      tag_98\n        /* \"#utility.yul\":5299:5304   */\n      dup3\n        /* \"#utility.yul\":5266:5305   */\n      tag_35\n      jump\t// in\n    tag_98:\n        /* \"#utility.yul\":5321:5410   */\n      tag_99\n        /* \"#utility.yul\":5403:5409   */\n      dup2\n        /* \"#utility.yul\":5398:5401   */\n      dup6\n        /* \"#utility.yul\":5321:5410   */\n      tag_36\n      jump\t// in\n    tag_99:\n        /* \"#utility.yul\":5314:5410   */\n      swap4\n      pop\n        /* \"#utility.yul\":5419:5484   */\n      tag_100\n        /* \"#utility.yul\":5477:5483   */\n      dup2\n        /* \"#utility.yul\":5472:5475   */\n      dup6\n        /* \"#utility.yul\":5465:5469   */\n      0x20\n        /* \"#utility.yul\":5458:5463   */\n      dup7\n        /* \"#utility.yul\":5454:5470   */\n      add\n        /* \"#utility.yul\":5419:5484   */\n      tag_37\n      jump\t// in\n    tag_100:\n        /* \"#utility.yul\":5509:5515   */\n      dup1\n        /* \"#utility.yul\":5504:5507   */\n      dup5\n        /* \"#utility.yul\":5500:5516   */\n      add\n        /* \"#utility.yul\":5493:5516   */\n      swap2\n      pop\n        /* \"#utility.yul\":5242:5522   */\n      pop\n        /* \"#utility.yul\":5132:5522   */\n      swap3\n      swap2\n      pop\n      pop\n      jump\t// out\n        /* \"#utility.yul\":5528:5803   */\n    tag_17:\n        /* \"#utility.yul\":5660:5663   */\n      0x00\n        /* \"#utility.yul\":5682:5777   */\n      tag_102\n        /* \"#utility.yul\":5773:5776   */\n      dup3\n        /* \"#utility.yul\":5764:5770   */\n      dup5\n        /* \"#utility.yul\":5682:5777   */\n      tag_38\n      jump\t// in\n    tag_102:\n        /* \"#utility.yul\":5675:5777   */\n      swap2\n      pop\n        /* \"#utility.yul\":5794:5797   */\n      dup2\n        /* \"#utility.yul\":5787:5797   */\n      swap1\n      pop\n        /* \"#utility.yul\":5528:5803   */\n      swap3\n      swap2\n      pop\n      pop\n      jump\t// out\n\n    auxdata: 0xa26469706673582212205cc793bfce047720b56efa50544aa867808b0ff3f0fbdadcec27036e5bdc5b8364736f6c634300081a0033\n}\n",
				"bytecode": {
					"linkReferences": {},
					"object": "6080604052348015600e575f80fd5b506103fd8061001c5f395ff3fe608060405234801561000f575f80fd5b5060043610610034575f3560e01c8063273861db146100385780639bdf18b414610054575b5f80fd5b610052600480360381019061004d9190610271565b610084565b005b61006e600480360381019061006991906102dd565b6100ba565b60405161007b9190610346565b60405180910390f35b805f808581526020019081526020015f20836040516100a391906103b1565b908152602001604051809103902081905550505050565b5f602052815f5260405f20818051602081018201805184825260208301602085012081835280955050505050505f91509150505481565b5f604051905090565b5f80fd5b5f80fd5b5f819050919050565b61011481610102565b811461011e575f80fd5b50565b5f8135905061012f8161010b565b92915050565b5f80fd5b5f80fd5b5f601f19601f8301169050919050565b7f4e487b71000000000000000000000000000000000000000000000000000000005f52604160045260245ffd5b6101838261013d565b810181811067ffffffffffffffff821117156101a2576101a161014d565b5b80604052505050565b5f6101b46100f1565b90506101c0828261017a565b919050565b5f67ffffffffffffffff8211156101df576101de61014d565b5b6101e88261013d565b9050602081019050919050565b828183375f83830152505050565b5f610215610210846101c5565b6101ab565b90508281526020810184848401111561023157610230610139565b5b61023c8482856101f5565b509392505050565b5f82601f83011261025857610257610135565b5b8135610268848260208601610203565b91505092915050565b5f805f60608486031215610288576102876100fa565b5b5f61029586828701610121565b935050602084013567ffffffffffffffff8111156102b6576102b56100fe565b5b6102c286828701610244565b92505060406102d386828701610121565b9150509250925092565b5f80604083850312156102f3576102f26100fa565b5b5f61030085828601610121565b925050602083013567ffffffffffffffff811115610321576103206100fe565b5b61032d85828601610244565b9150509250929050565b61034081610102565b82525050565b5f6020820190506103595f830184610337565b92915050565b5f81519050919050565b5f81905092915050565b8281835e5f83830152505050565b5f61038b8261035f565b6103958185610369565b93506103a5818560208601610373565b80840191505092915050565b5f6103bc8284610381565b91508190509291505056fea26469706673582212205cc793bfce047720b56efa50544aa867808b0ff3f0fbdadcec27036e5bdc5b8364736f6c634300081a0033",
					"opcodes": "PUSH1 0x80 PUSH1 0x40 MSTORE CALLVALUE DUP1 ISZERO PUSH1 0xE JUMPI PUSH0 DUP1 REVERT JUMPDEST POP PUSH2 0x3FD DUP1 PUSH2 0x1C PUSH0 CODECOPY PUSH0 RETURN INVALID PUSH1 0x80 PUSH1 0x40 MSTORE CALLVALUE DUP1 ISZERO PUSH2 0xF JUMPI PUSH0 DUP1 REVERT JUMPDEST POP PUSH1 0x4 CALLDATASIZE LT PUSH2 0x34 JUMPI PUSH0 CALLDATALOAD PUSH1 0xE0 SHR DUP1 PUSH4 0x273861DB EQ PUSH2 0x38 JUMPI DUP1 PUSH4 0x9BDF18B4 EQ PUSH2 0x54 JUMPI JUMPDEST PUSH0 DUP1 REVERT JUMPDEST PUSH2 0x52 PUSH1 0x4 DUP1 CALLDATASIZE SUB DUP2 ADD SWAP1 PUSH2 0x4D SWAP2 SWAP1 PUSH2 0x271 JUMP JUMPDEST PUSH2 0x84 JUMP JUMPDEST STOP JUMPDEST PUSH2 0x6E PUSH1 0x4 DUP1 CALLDATASIZE SUB DUP2 ADD SWAP1 PUSH2 0x69 SWAP2 SWAP1 PUSH2 0x2DD JUMP JUMPDEST PUSH2 0xBA JUMP JUMPDEST PUSH1 0x40 MLOAD PUSH2 0x7B SWAP2 SWAP1 PUSH2 0x346 JUMP JUMPDEST PUSH1 0x40 MLOAD DUP1 SWAP2 SUB SWAP1 RETURN JUMPDEST DUP1 PUSH0 DUP1 DUP6 DUP2 MSTORE PUSH1 0x20 ADD SWAP1 DUP2 MSTORE PUSH1 0x20 ADD PUSH0 KECCAK256 DUP4 PUSH1 0x40 MLOAD PUSH2 0xA3 SWAP2 SWAP1 PUSH2 0x3B1 JUMP JUMPDEST SWAP1 DUP2 MSTORE PUSH1 0x20 ADD PUSH1 0x40 MLOAD DUP1 SWAP2 SUB SWAP1 KECCAK256 DUP2 SWAP1 SSTORE POP POP POP POP JUMP JUMPDEST PUSH0 PUSH1 0x20 MSTORE DUP2 PUSH0 MSTORE PUSH1 0x40 PUSH0 KECCAK256 DUP2 DUP1 MLOAD PUSH1 0x20 DUP2 ADD DUP3 ADD DUP1 MLOAD DUP5 DUP3 MSTORE PUSH1 0x20 DUP4 ADD PUSH1 0x20 DUP6 ADD KECCAK256 DUP2 DUP4 MSTORE DUP1 SWAP6 POP POP POP POP POP POP PUSH0 SWAP2 POP SWAP2 POP POP SLOAD DUP2 JUMP JUMPDEST PUSH0 PUSH1 0x40 MLOAD SWAP1 POP SWAP1 JUMP JUMPDEST PUSH0 DUP1 REVERT JUMPDEST PUSH0 DUP1 REVERT JUMPDEST PUSH0 DUP2 SWAP1 POP SWAP2 SWAP1 POP JUMP JUMPDEST PUSH2 0x114 DUP2 PUSH2 0x102 JUMP JUMPDEST DUP2 EQ PUSH2 0x11E JUMPI PUSH0 DUP1 REVERT JUMPDEST POP JUMP JUMPDEST PUSH0 DUP2 CALLDATALOAD SWAP1 POP PUSH2 0x12F DUP2 PUSH2 0x10B JUMP JUMPDEST SWAP3 SWAP2 POP POP JUMP JUMPDEST PUSH0 DUP1 REVERT JUMPDEST PUSH0 DUP1 REVERT JUMPDEST PUSH0 PUSH1 0x1F NOT PUSH1 0x1F DUP4 ADD AND SWAP1 POP SWAP2 SWAP1 POP JUMP JUMPDEST PUSH32 0x4E487B7100000000000000000000000000000000000000000000000000000000 PUSH0 MSTORE PUSH1 0x41 PUSH1 0x4 MSTORE PUSH1 0x24 PUSH0 REVERT JUMPDEST PUSH2 0x183 DUP3 PUSH2 0x13D JUMP JUMPDEST DUP2 ADD DUP2 DUP2 LT PUSH8 0xFFFFFFFFFFFFFFFF DUP3 GT OR ISZERO PUSH2 0x1A2 JUMPI PUSH2 0x1A1 PUSH2 0x14D JUMP JUMPDEST JUMPDEST DUP1 PUSH1 0x40 MSTORE POP POP POP JUMP JUMPDEST PUSH0 PUSH2 0x1B4 PUSH2 0xF1 JUMP JUMPDEST SWAP1 POP PUSH2 0x1C0 DUP3 DUP3 PUSH2 0x17A JUMP JUMPDEST SWAP2 SWAP1 POP JUMP JUMPDEST PUSH0 PUSH8 0xFFFFFFFFFFFFFFFF DUP3 GT ISZERO PUSH2 0x1DF JUMPI PUSH2 0x1DE PUSH2 0x14D JUMP JUMPDEST JUMPDEST PUSH2 0x1E8 DUP3 PUSH2 0x13D JUMP JUMPDEST SWAP1 POP PUSH1 0x20 DUP2 ADD SWAP1 POP SWAP2 SWAP1 POP JUMP JUMPDEST DUP3 DUP2 DUP4 CALLDATACOPY PUSH0 DUP4 DUP4 ADD MSTORE POP POP POP JUMP JUMPDEST PUSH0 PUSH2 0x215 PUSH2 0x210 DUP5 PUSH2 0x1C5 JUMP JUMPDEST PUSH2 0x1AB JUMP JUMPDEST SWAP1 POP DUP3 DUP2 MSTORE PUSH1 0x20 DUP2 ADD DUP5 DUP5 DUP5 ADD GT ISZERO PUSH2 0x231 JUMPI PUSH2 0x230 PUSH2 0x139 JUMP JUMPDEST JUMPDEST PUSH2 0x23C DUP5 DUP3 DUP6 PUSH2 0x1F5 JUMP JUMPDEST POP SWAP4 SWAP3 POP POP POP JUMP JUMPDEST PUSH0 DUP3 PUSH1 0x1F DUP4 ADD SLT PUSH2 0x258 JUMPI PUSH2 0x257 PUSH2 0x135 JUMP JUMPDEST JUMPDEST DUP2 CALLDATALOAD PUSH2 0x268 DUP5 DUP3 PUSH1 0x20 DUP7 ADD PUSH2 0x203 JUMP JUMPDEST SWAP2 POP POP SWAP3 SWAP2 POP POP JUMP JUMPDEST PUSH0 DUP1 PUSH0 PUSH1 0x60 DUP5 DUP7 SUB SLT ISZERO PUSH2 0x288 JUMPI PUSH2 0x287 PUSH2 0xFA JUMP JUMPDEST JUMPDEST PUSH0 PUSH2 0x295 DUP7 DUP3 DUP8 ADD PUSH2 0x121 JUMP JUMPDEST SWAP4 POP POP PUSH1 0x20 DUP5 ADD CALLDATALOAD PUSH8 0xFFFFFFFFFFFFFFFF DUP2 GT ISZERO PUSH2 0x2B6 JUMPI PUSH2 0x2B5 PUSH2 0xFE JUMP JUMPDEST JUMPDEST PUSH2 0x2C2 DUP7 DUP3 DUP8 ADD PUSH2 0x244 JUMP JUMPDEST SWAP3 POP POP PUSH1 0x40 PUSH2 0x2D3 DUP7 DUP3 DUP8 ADD PUSH2 0x121 JUMP JUMPDEST SWAP2 POP POP SWAP3 POP SWAP3 POP SWAP3 JUMP JUMPDEST PUSH0 DUP1 PUSH1 0x40 DUP4 DUP6 SUB SLT ISZERO PUSH2 0x2F3 JUMPI PUSH2 0x2F2 PUSH2 0xFA JUMP JUMPDEST JUMPDEST PUSH0 PUSH2 0x300 DUP6 DUP3 DUP7 ADD PUSH2 0x121 JUMP JUMPDEST SWAP3 POP POP PUSH1 0x20 DUP4 ADD CALLDATALOAD PUSH8 0xFFFFFFFFFFFFFFFF DUP2 GT ISZERO PUSH2 0x321 JUMPI PUSH2 0x320 PUSH2 0xFE JUMP JUMPDEST JUMPDEST PUSH2 0x32D DUP6 DUP3 DUP7 ADD PUSH2 0x244 JUMP JUMPDEST SWAP2 POP POP SWAP3 POP SWAP3 SWAP1 POP JUMP JUMPDEST PUSH2 0x340 DUP2 PUSH2 0x102 JUMP JUMPDEST DUP3 MSTORE POP POP JUMP JUMPDEST PUSH0 PUSH1 0x20 DUP3 ADD SWAP1 POP PUSH2 0x359 PUSH0 DUP4 ADD DUP5 PUSH2 0x337 JUMP JUMPDEST SWAP3 SWAP2 POP POP JUMP JUMPDEST PUSH0 DUP2 MLOAD SWAP1 POP SWAP2 SWAP1 POP JUMP JUMPDEST PUSH0 DUP2 SWAP1 POP SWAP3 SWAP2 POP POP JUMP JUMPDEST DUP3 DUP2 DUP4 MCOPY PUSH0 DUP4 DUP4 ADD MSTORE POP POP POP JUMP JUMPDEST PUSH0 PUSH2 0x38B DUP3 PUSH2 0x35F JUMP JUMPDEST PUSH2 0x395 DUP2 DUP6 PUSH2 0x369 JUMP JUMPDEST SWAP4 POP PUSH2 0x3A5 DUP2 DUP6 PUSH1 0x20 DUP7 ADD PUSH2 0x373 JUMP JUMPDEST DUP1 DUP5 ADD SWAP2 POP POP SWAP3 SWAP2 POP POP JUMP JUMPDEST PUSH0 PUSH2 0x3BC DUP3 DUP5 PUSH2 0x381 JUMP JUMPDEST SWAP2 POP DUP2 SWAP1 POP SWAP3 SWAP2 POP POP JUMP INVALID LOG2 PUSH5 0x6970667358 0x22 SLT KECCAK256 TLOAD 0xC7 SWAP4 0xBF 0xCE DIV PUSH24 0x20B56EFA50544AA867808B0FF3F0FBDADCEC27036E5BDC5B DUP4 PUSH5 0x736F6C6343 STOP ADDMOD BYTE STOP CALLER "
				},
				"gasEstimates": {
					"creation": {
						"codeDepositCost": "204200",
						"executionCost": "243",
						"totalCost": "204443"
					},
					"external": {
						"marks(uint256,string)": "infinite",
						"setMarks(uint256,string,uint256)": "infinite"
					}
				},
				"methodIdentifiers": {
					"marks(uint256,string)": "9bdf18b4",
					"setMarks(uint256,string,uint256)": "273861db"
				}
			},
			"storageLayout": {
				"storage": [
					{
						"astId": 7,
						"contract": "contracts/Adv/nestedmaps.sol:NMaps",
						"label": "marks",
						"offset": 0,
						"slot": "0",
						"type": "t_mapping(t_uint256,t_mapping(t_string_memory_ptr,t_uint256))"
					}
				],
				"types": {
					"t_mapping(t_string_memory_ptr,t_uint256)": {
						"encoding": "mapping",
						"key": "t_string_memory_ptr",
						"label": "mapping(string => uint256)",
						"numberOfBytes": "32",
						"value": "t_uint256"
					},
					"t_mapping(t_uint256,t_mapping(t_string_memory_ptr,t_uint256))": {
						"encoding": "mapping",
						"key": "t_uint256",
						"label": "mapping(uint256 => mapping(string => uint256))",
						"numberOfBytes": "32",
						"value": "t_mapping(t_string_memory_ptr,t_uint256)"
					},
					"t_string_memory_ptr": {
						"encoding": "bytes",
						"label": "string",
						"numberOfBytes": "32"
					},
					"t_uint256": {
						"encoding": "inplace",
						"label": "uint256",
						"numberOfBytes": "32"
					}
				}
			},
			"userdoc": {
				"kind": "user",
				"methods": {},
				"version": 1
			}
		}
	}
}