{
	"contracts/AlgerbricOp.sol": {
		"AlgerbricOp": {
			"abi": [
				{
					"inputs": [
						{
							"internalType": "uint256",
							"name": "a",
							"type": "uint256"
						},
						{
							"internalType": "uint256",
							"name": "b",
							"type": "uint256"
						}
					],
					"name": "add",
					"outputs": [],
					"stateMutability": "nonpayable",
					"type": "function"
				},
				{
					"inputs": [
						{
							"internalType": "uint256",
							"name": "a",
							"type": "uint256"
						},
						{
							"internalType": "uint256",
							"name": "b",
							"type": "uint256"
						}
					],
					"name": "cal",
					"outputs": [
						{
							"internalType": "uint256",
							"name": "",
							"type": "uint256"
						},
						{
							"internalType": "uint256",
							"name": "",
							"type": "uint256"
						}
					],
					"stateMutability": "pure",
					"type": "function"
				},
				{
					"inputs": [
						{
							"internalType": "uint256",
							"name": "a",
							"type": "uint256"
						},
						{
							"internalType": "uint256",
							"name": "b",
							"type": "uint256"
						}
					],
					"name": "div",
					"outputs": [
						{
							"internalType": "uint256",
							"name": "",
							"type": "uint256"
						}
					],
					"stateMutability": "pure",
					"type": "function"
				},
				{
					"inputs": [],
					"name": "greet",
					"outputs": [
						{
							"internalType": "string",
							"name": "",
							"type": "string"
						}
					],
					"stateMutability": "pure",
					"type": "function"
				},
				{
					"inputs": [
						{
							"internalType": "uint256",
							"name": "a",
							"type": "uint256"
						},
						{
							"internalType": "uint256",
							"name": "b",
							"type": "uint256"
						}
					],
					"name": "mul",
					"outputs": [],
					"stateMutability": "nonpayable",
					"type": "function"
				},
				{
					"inputs": [
						{
							"internalType": "uint256",
							"name": "a",
							"type": "uint256"
						},
						{
							"internalType": "uint256",
							"name": "b",
							"type": "uint256"
						}
					],
					"name": "sub",
					"outputs": [
						{
							"internalType": "uint256",
							"name": "",
							"type": "uint256"
						}
					],
					"stateMutability": "pure",
					"type": "function"
				}
			],
			"devdoc": {
				"kind": "dev",
				"methods": {},
				"version": 1
			},
			"evm": {
				"assembly": "    /* \"contracts/AlgerbricOp.sol\":355:839  contract AlgerbricOp is calculate{... */\n  mstore(0x40, 0x80)\n  callvalue\n  dup1\n  iszero\n  tag_1\n  jumpi\n  0x00\n  dup1\n  revert\ntag_1:\n  pop\n  dataSize(sub_0)\n  dup1\n  dataOffset(sub_0)\n  0x00\n  codecopy\n  0x00\n  return\nstop\n\nsub_0: assembly {\n        /* \"contracts/AlgerbricOp.sol\":355:839  contract AlgerbricOp is calculate{... */\n      mstore(0x40, 0x80)\n      callvalue\n      dup1\n      iszero\n      tag_1\n      jumpi\n      0x00\n      dup1\n      revert\n    tag_1:\n      pop\n      jumpi(tag_2, lt(calldatasize, 0x04))\n      shr(0xe0, calldataload(0x00))\n      dup1\n      0x771602f7\n      eq\n      tag_3\n      jumpi\n      dup1\n      0xa391c15b\n      eq\n      tag_4\n      jumpi\n      dup1\n      0xb67d77c5\n      eq\n      tag_5\n      jumpi\n      dup1\n      0xc8a4ac9c\n      eq\n      tag_6\n      jumpi\n      dup1\n      0xcfae3217\n      eq\n      tag_7\n      jumpi\n      dup1\n      0xdc2e7b33\n      eq\n      tag_8\n      jumpi\n    tag_2:\n      0x00\n      dup1\n      revert\n        /* \"contracts/AlgerbricOp.sol\":596:664  function add(uint a, uint b) public {... */\n    tag_3:\n      tag_9\n      0x04\n      dup1\n      calldatasize\n      sub\n      dup2\n      add\n      swap1\n      tag_10\n      swap2\n      swap1\n      tag_11\n      jump\t// in\n    tag_10:\n      tag_12\n      jump\t// in\n    tag_9:\n      stop\n        /* \"contracts/AlgerbricOp.sol\":183:269  function div(uint a, uint b) public pure returns (uint) {... */\n    tag_4:\n      tag_13\n      0x04\n      dup1\n      calldatasize\n      sub\n      dup2\n      add\n      swap1\n      tag_14\n      swap2\n      swap1\n      tag_11\n      jump\t// in\n    tag_14:\n      tag_15\n      jump\t// in\n    tag_13:\n      mload(0x40)\n      tag_16\n      swap2\n      swap1\n      tag_17\n      jump\t// in\n    tag_16:\n      mload(0x40)\n      dup1\n      swap2\n      sub\n      swap1\n      return\n        /* \"contracts/AlgerbricOp.sol\":92:177  function sub(uint a, uint b) public pure returns (uint) {... */\n    tag_5:\n      tag_18\n      0x04\n      dup1\n      calldatasize\n      sub\n      dup2\n      add\n      swap1\n      tag_19\n      swap2\n      swap1\n      tag_11\n      jump\t// in\n    tag_19:\n      tag_20\n      jump\t// in\n    tag_18:\n      mload(0x40)\n      tag_21\n      swap2\n      swap1\n      tag_17\n      jump\t// in\n    tag_21:\n      mload(0x40)\n      dup1\n      swap2\n      sub\n      swap1\n      return\n        /* \"contracts/AlgerbricOp.sol\":670:738  function mul(uint a, uint b) public {... */\n    tag_6:\n      tag_22\n      0x04\n      dup1\n      calldatasize\n      sub\n      dup2\n      add\n      swap1\n      tag_23\n      swap2\n      swap1\n      tag_11\n      jump\t// in\n    tag_23:\n      tag_24\n      jump\t// in\n    tag_22:\n      stop\n        /* \"contracts/AlgerbricOp.sol\":744:837  function greet() public pure returns (string memory) {... */\n    tag_7:\n      tag_25\n      tag_26\n      jump\t// in\n    tag_25:\n      mload(0x40)\n      tag_27\n      swap2\n      swap1\n      tag_28\n      jump\t// in\n    tag_27:\n      mload(0x40)\n      dup1\n      swap2\n      sub\n      swap1\n      return\n        /* \"contracts/AlgerbricOp.sol\":432:589  function cal(uint a, uint b) public pure returns (uint, uint) {... */\n    tag_8:\n      tag_29\n      0x04\n      dup1\n      calldatasize\n      sub\n      dup2\n      add\n      swap1\n      tag_30\n      swap2\n      swap1\n      tag_11\n      jump\t// in\n    tag_30:\n      tag_31\n      jump\t// in\n    tag_29:\n      mload(0x40)\n      tag_32\n      swap3\n      swap2\n      swap1\n      tag_33\n      jump\t// in\n    tag_32:\n      mload(0x40)\n      dup1\n      swap2\n      sub\n      swap1\n      return\n        /* \"contracts/AlgerbricOp.sol\":596:664  function add(uint a, uint b) public {... */\n    tag_12:\n        /* \"contracts/AlgerbricOp.sol\":656:657  b */\n      dup1\n        /* \"contracts/AlgerbricOp.sol\":652:653  a */\n      dup3\n        /* \"contracts/AlgerbricOp.sol\":652:657  a + b */\n      tag_35\n      swap2\n      swap1\n      tag_36\n      jump\t// in\n    tag_35:\n        /* \"contracts/AlgerbricOp.sol\":642:649  add_res */\n      0x00\n        /* \"contracts/AlgerbricOp.sol\":642:657  add_res = a + b */\n      dup2\n      swap1\n      sstore\n      pop\n        /* \"contracts/AlgerbricOp.sol\":596:664  function add(uint a, uint b) public {... */\n      pop\n      pop\n      jump\t// out\n        /* \"contracts/AlgerbricOp.sol\":183:269  function div(uint a, uint b) public pure returns (uint) {... */\n    tag_15:\n        /* \"contracts/AlgerbricOp.sol\":233:237  uint */\n      0x00\n        /* \"contracts/AlgerbricOp.sol\":260:261  b */\n      dup2\n        /* \"contracts/AlgerbricOp.sol\":256:257  a */\n      dup4\n        /* \"contracts/AlgerbricOp.sol\":256:261  a / b */\n      tag_38\n      swap2\n      swap1\n      tag_39\n      jump\t// in\n    tag_38:\n        /* \"contracts/AlgerbricOp.sol\":249:261  return a / b */\n      swap1\n      pop\n        /* \"contracts/AlgerbricOp.sol\":183:269  function div(uint a, uint b) public pure returns (uint) {... */\n      swap3\n      swap2\n      pop\n      pop\n      jump\t// out\n        /* \"contracts/AlgerbricOp.sol\":92:177  function sub(uint a, uint b) public pure returns (uint) {... */\n    tag_20:\n        /* \"contracts/AlgerbricOp.sol\":142:146  uint */\n      0x00\n        /* \"contracts/AlgerbricOp.sol\":169:170  b */\n      dup2\n        /* \"contracts/AlgerbricOp.sol\":165:166  a */\n      dup4\n        /* \"contracts/AlgerbricOp.sol\":165:170  a - b */\n      tag_41\n      swap2\n      swap1\n      tag_42\n      jump\t// in\n    tag_41:\n        /* \"contracts/AlgerbricOp.sol\":158:170  return a - b */\n      swap1\n      pop\n        /* \"contracts/AlgerbricOp.sol\":92:177  function sub(uint a, uint b) public pure returns (uint) {... */\n      swap3\n      swap2\n      pop\n      pop\n      jump\t// out\n        /* \"contracts/AlgerbricOp.sol\":670:738  function mul(uint a, uint b) public {... */\n    tag_24:\n        /* \"contracts/AlgerbricOp.sol\":730:731  b */\n      dup1\n        /* \"contracts/AlgerbricOp.sol\":726:727  a */\n      dup3\n        /* \"contracts/AlgerbricOp.sol\":726:731  a * b */\n      tag_44\n      swap2\n      swap1\n      tag_45\n      jump\t// in\n    tag_44:\n        /* \"contracts/AlgerbricOp.sol\":716:723  mul_res */\n      0x01\n        /* \"contracts/AlgerbricOp.sol\":716:731  mul_res = a * b */\n      dup2\n      swap1\n      sstore\n      pop\n        /* \"contracts/AlgerbricOp.sol\":670:738  function mul(uint a, uint b) public {... */\n      pop\n      pop\n      jump\t// out\n        /* \"contracts/AlgerbricOp.sol\":744:837  function greet() public pure returns (string memory) {... */\n    tag_26:\n        /* \"contracts/AlgerbricOp.sol\":782:795  string memory */\n      0x60\n        /* \"contracts/AlgerbricOp.sol\":807:830  return 'hello world..!' */\n      mload(0x40)\n      dup1\n      0x40\n      add\n      0x40\n      mstore\n      dup1\n      0x0e\n      dup2\n      mstore\n      0x20\n      add\n      0x68656c6c6f20776f726c642e2e21000000000000000000000000000000000000\n      dup2\n      mstore\n      pop\n      swap1\n      pop\n        /* \"contracts/AlgerbricOp.sol\":744:837  function greet() public pure returns (string memory) {... */\n      swap1\n      jump\t// out\n        /* \"contracts/AlgerbricOp.sol\":432:589  function cal(uint a, uint b) public pure returns (uint, uint) {... */\n    tag_31:\n        /* \"contracts/AlgerbricOp.sol\":482:486  uint */\n      0x00\n        /* \"contracts/AlgerbricOp.sol\":488:492  uint */\n      dup1\n        /* \"contracts/AlgerbricOp.sol\":504:510  uint s */\n      0x00\n        /* \"contracts/AlgerbricOp.sol\":513:522  sub(a, b) */\n      tag_48\n        /* \"contracts/AlgerbricOp.sol\":517:518  a */\n      dup6\n        /* \"contracts/AlgerbricOp.sol\":520:521  b */\n      dup6\n        /* \"contracts/AlgerbricOp.sol\":513:516  sub */\n      tag_20\n        /* \"contracts/AlgerbricOp.sol\":513:522  sub(a, b) */\n      jump\t// in\n    tag_48:\n        /* \"contracts/AlgerbricOp.sol\":504:522  uint s = sub(a, b) */\n      swap1\n      pop\n        /* \"contracts/AlgerbricOp.sol\":532:538  uint d */\n      0x00\n        /* \"contracts/AlgerbricOp.sol\":541:550  div(a, b) */\n      tag_49\n        /* \"contracts/AlgerbricOp.sol\":545:546  a */\n      dup7\n        /* \"contracts/AlgerbricOp.sol\":548:549  b */\n      dup7\n        /* \"contracts/AlgerbricOp.sol\":541:544  div */\n      tag_15\n        /* \"contracts/AlgerbricOp.sol\":541:550  div(a, b) */\n      jump\t// in\n    tag_49:\n        /* \"contracts/AlgerbricOp.sol\":532:550  uint d = div(a, b) */\n      swap1\n      pop\n        /* \"contracts/AlgerbricOp.sol\":577:578  s */\n      dup2\n        /* \"contracts/AlgerbricOp.sol\":580:581  d */\n      dup2\n        /* \"contracts/AlgerbricOp.sol\":569:582  return (s, d) */\n      swap4\n      pop\n      swap4\n      pop\n      pop\n      pop\n        /* \"contracts/AlgerbricOp.sol\":432:589  function cal(uint a, uint b) public pure returns (uint, uint) {... */\n      swap3\n      pop\n      swap3\n      swap1\n      pop\n      jump\t// out\n        /* \"#utility.yul\":88:205   */\n    tag_51:\n        /* \"#utility.yul\":197:198   */\n      0x00\n        /* \"#utility.yul\":194:195   */\n      dup1\n        /* \"#utility.yul\":187:199   */\n      revert\n        /* \"#utility.yul\":334:411   */\n    tag_53:\n        /* \"#utility.yul\":371:378   */\n      0x00\n        /* \"#utility.yul\":400:405   */\n      dup2\n        /* \"#utility.yul\":389:405   */\n      swap1\n      pop\n        /* \"#utility.yul\":334:411   */\n      swap2\n      swap1\n      pop\n      jump\t// out\n        /* \"#utility.yul\":417:539   */\n    tag_54:\n        /* \"#utility.yul\":490:514   */\n      tag_70\n        /* \"#utility.yul\":508:513   */\n      dup2\n        /* \"#utility.yul\":490:514   */\n      tag_53\n      jump\t// in\n    tag_70:\n        /* \"#utility.yul\":483:488   */\n      dup2\n        /* \"#utility.yul\":480:515   */\n      eq\n        /* \"#utility.yul\":470:533   */\n      tag_71\n      jumpi\n        /* \"#utility.yul\":529:530   */\n      0x00\n        /* \"#utility.yul\":526:527   */\n      dup1\n        /* \"#utility.yul\":519:531   */\n      revert\n        /* \"#utility.yul\":470:533   */\n    tag_71:\n        /* \"#utility.yul\":417:539   */\n      pop\n      jump\t// out\n        /* \"#utility.yul\":545:684   */\n    tag_55:\n        /* \"#utility.yul\":591:596   */\n      0x00\n        /* \"#utility.yul\":629:635   */\n      dup2\n        /* \"#utility.yul\":616:636   */\n      calldataload\n        /* \"#utility.yul\":607:636   */\n      swap1\n      pop\n        /* \"#utility.yul\":645:678   */\n      tag_73\n        /* \"#utility.yul\":672:677   */\n      dup2\n        /* \"#utility.yul\":645:678   */\n      tag_54\n      jump\t// in\n    tag_73:\n        /* \"#utility.yul\":545:684   */\n      swap3\n      swap2\n      pop\n      pop\n      jump\t// out\n        /* \"#utility.yul\":690:1164   */\n    tag_11:\n        /* \"#utility.yul\":758:764   */\n      0x00\n        /* \"#utility.yul\":766:772   */\n      dup1\n        /* \"#utility.yul\":815:817   */\n      0x40\n        /* \"#utility.yul\":803:812   */\n      dup4\n        /* \"#utility.yul\":794:801   */\n      dup6\n        /* \"#utility.yul\":790:813   */\n      sub\n        /* \"#utility.yul\":786:818   */\n      slt\n        /* \"#utility.yul\":783:902   */\n      iszero\n      tag_75\n      jumpi\n        /* \"#utility.yul\":821:900   */\n      tag_76\n      tag_51\n      jump\t// in\n    tag_76:\n        /* \"#utility.yul\":783:902   */\n    tag_75:\n        /* \"#utility.yul\":941:942   */\n      0x00\n        /* \"#utility.yul\":966:1019   */\n      tag_77\n        /* \"#utility.yul\":1011:1018   */\n      dup6\n        /* \"#utility.yul\":1002:1008   */\n      dup3\n        /* \"#utility.yul\":991:1000   */\n      dup7\n        /* \"#utility.yul\":987:1009   */\n      add\n        /* \"#utility.yul\":966:1019   */\n      tag_55\n      jump\t// in\n    tag_77:\n        /* \"#utility.yul\":956:1019   */\n      swap3\n      pop\n        /* \"#utility.yul\":912:1029   */\n      pop\n        /* \"#utility.yul\":1068:1070   */\n      0x20\n        /* \"#utility.yul\":1094:1147   */\n      tag_78\n        /* \"#utility.yul\":1139:1146   */\n      dup6\n        /* \"#utility.yul\":1130:1136   */\n      dup3\n        /* \"#utility.yul\":1119:1128   */\n      dup7\n        /* \"#utility.yul\":1115:1137   */\n      add\n        /* \"#utility.yul\":1094:1147   */\n      tag_55\n      jump\t// in\n    tag_78:\n        /* \"#utility.yul\":1084:1147   */\n      swap2\n      pop\n        /* \"#utility.yul\":1039:1157   */\n      pop\n        /* \"#utility.yul\":690:1164   */\n      swap3\n      pop\n      swap3\n      swap1\n      pop\n      jump\t// out\n        /* \"#utility.yul\":1170:1288   */\n    tag_56:\n        /* \"#utility.yul\":1257:1281   */\n      tag_80\n        /* \"#utility.yul\":1275:1280   */\n      dup2\n        /* \"#utility.yul\":1257:1281   */\n      tag_53\n      jump\t// in\n    tag_80:\n        /* \"#utility.yul\":1252:1255   */\n      dup3\n        /* \"#utility.yul\":1245:1282   */\n      mstore\n        /* \"#utility.yul\":1170:1288   */\n      pop\n      pop\n      jump\t// out\n        /* \"#utility.yul\":1294:1516   */\n    tag_17:\n        /* \"#utility.yul\":1387:1391   */\n      0x00\n        /* \"#utility.yul\":1425:1427   */\n      0x20\n        /* \"#utility.yul\":1414:1423   */\n      dup3\n        /* \"#utility.yul\":1410:1428   */\n      add\n        /* \"#utility.yul\":1402:1428   */\n      swap1\n      pop\n        /* \"#utility.yul\":1438:1509   */\n      tag_82\n        /* \"#utility.yul\":1506:1507   */\n      0x00\n        /* \"#utility.yul\":1495:1504   */\n      dup4\n        /* \"#utility.yul\":1491:1508   */\n      add\n        /* \"#utility.yul\":1482:1488   */\n      dup5\n        /* \"#utility.yul\":1438:1509   */\n      tag_56\n      jump\t// in\n    tag_82:\n        /* \"#utility.yul\":1294:1516   */\n      swap3\n      swap2\n      pop\n      pop\n      jump\t// out\n        /* \"#utility.yul\":1522:1621   */\n    tag_57:\n        /* \"#utility.yul\":1574:1580   */\n      0x00\n        /* \"#utility.yul\":1608:1613   */\n      dup2\n        /* \"#utility.yul\":1602:1614   */\n      mload\n        /* \"#utility.yul\":1592:1614   */\n      swap1\n      pop\n        /* \"#utility.yul\":1522:1621   */\n      swap2\n      swap1\n      pop\n      jump\t// out\n        /* \"#utility.yul\":1627:1796   */\n    tag_58:\n        /* \"#utility.yul\":1711:1722   */\n      0x00\n        /* \"#utility.yul\":1745:1751   */\n      dup3\n        /* \"#utility.yul\":1740:1743   */\n      dup3\n        /* \"#utility.yul\":1733:1752   */\n      mstore\n        /* \"#utility.yul\":1785:1789   */\n      0x20\n        /* \"#utility.yul\":1780:1783   */\n      dup3\n        /* \"#utility.yul\":1776:1790   */\n      add\n        /* \"#utility.yul\":1761:1790   */\n      swap1\n      pop\n        /* \"#utility.yul\":1627:1796   */\n      swap3\n      swap2\n      pop\n      pop\n      jump\t// out\n        /* \"#utility.yul\":1802:1941   */\n    tag_59:\n        /* \"#utility.yul\":1891:1897   */\n      dup3\n        /* \"#utility.yul\":1886:1889   */\n      dup2\n        /* \"#utility.yul\":1881:1884   */\n      dup4\n        /* \"#utility.yul\":1875:1898   */\n      mcopy\n        /* \"#utility.yul\":1932:1933   */\n      0x00\n        /* \"#utility.yul\":1923:1929   */\n      dup4\n        /* \"#utility.yul\":1918:1921   */\n      dup4\n        /* \"#utility.yul\":1914:1930   */\n      add\n        /* \"#utility.yul\":1907:1934   */\n      mstore\n        /* \"#utility.yul\":1802:1941   */\n      pop\n      pop\n      pop\n      jump\t// out\n        /* \"#utility.yul\":1947:2049   */\n    tag_60:\n        /* \"#utility.yul\":1988:1994   */\n      0x00\n        /* \"#utility.yul\":2039:2041   */\n      0x1f\n        /* \"#utility.yul\":2035:2042   */\n      not\n        /* \"#utility.yul\":2030:2032   */\n      0x1f\n        /* \"#utility.yul\":2023:2028   */\n      dup4\n        /* \"#utility.yul\":2019:2033   */\n      add\n        /* \"#utility.yul\":2015:2043   */\n      and\n        /* \"#utility.yul\":2005:2043   */\n      swap1\n      pop\n        /* \"#utility.yul\":1947:2049   */\n      swap2\n      swap1\n      pop\n      jump\t// out\n        /* \"#utility.yul\":2055:2432   */\n    tag_61:\n        /* \"#utility.yul\":2143:2146   */\n      0x00\n        /* \"#utility.yul\":2171:2210   */\n      tag_88\n        /* \"#utility.yul\":2204:2209   */\n      dup3\n        /* \"#utility.yul\":2171:2210   */\n      tag_57\n      jump\t// in\n    tag_88:\n        /* \"#utility.yul\":2226:2297   */\n      tag_89\n        /* \"#utility.yul\":2290:2296   */\n      dup2\n        /* \"#utility.yul\":2285:2288   */\n      dup6\n        /* \"#utility.yul\":2226:2297   */\n      tag_58\n      jump\t// in\n    tag_89:\n        /* \"#utility.yul\":2219:2297   */\n      swap4\n      pop\n        /* \"#utility.yul\":2306:2371   */\n      tag_90\n        /* \"#utility.yul\":2364:2370   */\n      dup2\n        /* \"#utility.yul\":2359:2362   */\n      dup6\n        /* \"#utility.yul\":2352:2356   */\n      0x20\n        /* \"#utility.yul\":2345:2350   */\n      dup7\n        /* \"#utility.yul\":2341:2357   */\n      add\n        /* \"#utility.yul\":2306:2371   */\n      tag_59\n      jump\t// in\n    tag_90:\n        /* \"#utility.yul\":2396:2425   */\n      tag_91\n        /* \"#utility.yul\":2418:2424   */\n      dup2\n        /* \"#utility.yul\":2396:2425   */\n      tag_60\n      jump\t// in\n    tag_91:\n        /* \"#utility.yul\":2391:2394   */\n      dup5\n        /* \"#utility.yul\":2387:2426   */\n      add\n        /* \"#utility.yul\":2380:2426   */\n      swap2\n      pop\n        /* \"#utility.yul\":2147:2432   */\n      pop\n        /* \"#utility.yul\":2055:2432   */\n      swap3\n      swap2\n      pop\n      pop\n      jump\t// out\n        /* \"#utility.yul\":2438:2751   */\n    tag_28:\n        /* \"#utility.yul\":2551:2555   */\n      0x00\n        /* \"#utility.yul\":2589:2591   */\n      0x20\n        /* \"#utility.yul\":2578:2587   */\n      dup3\n        /* \"#utility.yul\":2574:2592   */\n      add\n        /* \"#utility.yul\":2566:2592   */\n      swap1\n      pop\n        /* \"#utility.yul\":2638:2647   */\n      dup2\n        /* \"#utility.yul\":2632:2636   */\n      dup2\n        /* \"#utility.yul\":2628:2648   */\n      sub\n        /* \"#utility.yul\":2624:2625   */\n      0x00\n        /* \"#utility.yul\":2613:2622   */\n      dup4\n        /* \"#utility.yul\":2609:2626   */\n      add\n        /* \"#utility.yul\":2602:2649   */\n      mstore\n        /* \"#utility.yul\":2666:2744   */\n      tag_93\n        /* \"#utility.yul\":2739:2743   */\n      dup2\n        /* \"#utility.yul\":2730:2736   */\n      dup5\n        /* \"#utility.yul\":2666:2744   */\n      tag_61\n      jump\t// in\n    tag_93:\n        /* \"#utility.yul\":2658:2744   */\n      swap1\n      pop\n        /* \"#utility.yul\":2438:2751   */\n      swap3\n      swap2\n      pop\n      pop\n      jump\t// out\n        /* \"#utility.yul\":2757:3089   */\n    tag_33:\n        /* \"#utility.yul\":2878:2882   */\n      0x00\n        /* \"#utility.yul\":2916:2918   */\n      0x40\n        /* \"#utility.yul\":2905:2914   */\n      dup3\n        /* \"#utility.yul\":2901:2919   */\n      add\n        /* \"#utility.yul\":2893:2919   */\n      swap1\n      pop\n        /* \"#utility.yul\":2929:3000   */\n      tag_95\n        /* \"#utility.yul\":2997:2998   */\n      0x00\n        /* \"#utility.yul\":2986:2995   */\n      dup4\n        /* \"#utility.yul\":2982:2999   */\n      add\n        /* \"#utility.yul\":2973:2979   */\n      dup6\n        /* \"#utility.yul\":2929:3000   */\n      tag_56\n      jump\t// in\n    tag_95:\n        /* \"#utility.yul\":3010:3082   */\n      tag_96\n        /* \"#utility.yul\":3078:3080   */\n      0x20\n        /* \"#utility.yul\":3067:3076   */\n      dup4\n        /* \"#utility.yul\":3063:3081   */\n      add\n        /* \"#utility.yul\":3054:3060   */\n      dup5\n        /* \"#utility.yul\":3010:3082   */\n      tag_56\n      jump\t// in\n    tag_96:\n        /* \"#utility.yul\":2757:3089   */\n      swap4\n      swap3\n      pop\n      pop\n      pop\n      jump\t// out\n        /* \"#utility.yul\":3095:3275   */\n    tag_62:\n        /* \"#utility.yul\":3143:3220   */\n      0x4e487b7100000000000000000000000000000000000000000000000000000000\n        /* \"#utility.yul\":3140:3141   */\n      0x00\n        /* \"#utility.yul\":3133:3221   */\n      mstore\n        /* \"#utility.yul\":3240:3244   */\n      0x11\n        /* \"#utility.yul\":3237:3238   */\n      0x04\n        /* \"#utility.yul\":3230:3245   */\n      mstore\n        /* \"#utility.yul\":3264:3268   */\n      0x24\n        /* \"#utility.yul\":3261:3262   */\n      0x00\n        /* \"#utility.yul\":3254:3269   */\n      revert\n        /* \"#utility.yul\":3281:3472   */\n    tag_36:\n        /* \"#utility.yul\":3321:3324   */\n      0x00\n        /* \"#utility.yul\":3340:3360   */\n      tag_99\n        /* \"#utility.yul\":3358:3359   */\n      dup3\n        /* \"#utility.yul\":3340:3360   */\n      tag_53\n      jump\t// in\n    tag_99:\n        /* \"#utility.yul\":3335:3360   */\n      swap2\n      pop\n        /* \"#utility.yul\":3374:3394   */\n      tag_100\n        /* \"#utility.yul\":3392:3393   */\n      dup4\n        /* \"#utility.yul\":3374:3394   */\n      tag_53\n      jump\t// in\n    tag_100:\n        /* \"#utility.yul\":3369:3394   */\n      swap3\n      pop\n        /* \"#utility.yul\":3417:3418   */\n      dup3\n        /* \"#utility.yul\":3414:3415   */\n      dup3\n        /* \"#utility.yul\":3410:3419   */\n      add\n        /* \"#utility.yul\":3403:3419   */\n      swap1\n      pop\n        /* \"#utility.yul\":3438:3441   */\n      dup1\n        /* \"#utility.yul\":3435:3436   */\n      dup3\n        /* \"#utility.yul\":3432:3442   */\n      gt\n        /* \"#utility.yul\":3429:3465   */\n      iszero\n      tag_101\n      jumpi\n        /* \"#utility.yul\":3445:3463   */\n      tag_102\n      tag_62\n      jump\t// in\n    tag_102:\n        /* \"#utility.yul\":3429:3465   */\n    tag_101:\n        /* \"#utility.yul\":3281:3472   */\n      swap3\n      swap2\n      pop\n      pop\n      jump\t// out\n        /* \"#utility.yul\":3478:3658   */\n    tag_63:\n        /* \"#utility.yul\":3526:3603   */\n      0x4e487b7100000000000000000000000000000000000000000000000000000000\n        /* \"#utility.yul\":3523:3524   */\n      0x00\n        /* \"#utility.yul\":3516:3604   */\n      mstore\n        /* \"#utility.yul\":3623:3627   */\n      0x12\n        /* \"#utility.yul\":3620:3621   */\n      0x04\n        /* \"#utility.yul\":3613:3628   */\n      mstore\n        /* \"#utility.yul\":3647:3651   */\n      0x24\n        /* \"#utility.yul\":3644:3645   */\n      0x00\n        /* \"#utility.yul\":3637:3652   */\n      revert\n        /* \"#utility.yul\":3664:3849   */\n    tag_39:\n        /* \"#utility.yul\":3704:3705   */\n      0x00\n        /* \"#utility.yul\":3721:3741   */\n      tag_105\n        /* \"#utility.yul\":3739:3740   */\n      dup3\n        /* \"#utility.yul\":3721:3741   */\n      tag_53\n      jump\t// in\n    tag_105:\n        /* \"#utility.yul\":3716:3741   */\n      swap2\n      pop\n        /* \"#utility.yul\":3755:3775   */\n      tag_106\n        /* \"#utility.yul\":3773:3774   */\n      dup4\n        /* \"#utility.yul\":3755:3775   */\n      tag_53\n      jump\t// in\n    tag_106:\n        /* \"#utility.yul\":3750:3775   */\n      swap3\n      pop\n        /* \"#utility.yul\":3794:3795   */\n      dup3\n        /* \"#utility.yul\":3784:3819   */\n      tag_107\n      jumpi\n        /* \"#utility.yul\":3799:3817   */\n      tag_108\n      tag_63\n      jump\t// in\n    tag_108:\n        /* \"#utility.yul\":3784:3819   */\n    tag_107:\n        /* \"#utility.yul\":3841:3842   */\n      dup3\n        /* \"#utility.yul\":3838:3839   */\n      dup3\n        /* \"#utility.yul\":3834:3843   */\n      div\n        /* \"#utility.yul\":3829:3843   */\n      swap1\n      pop\n        /* \"#utility.yul\":3664:3849   */\n      swap3\n      swap2\n      pop\n      pop\n      jump\t// out\n        /* \"#utility.yul\":3855:4049   */\n    tag_42:\n        /* \"#utility.yul\":3895:3899   */\n      0x00\n        /* \"#utility.yul\":3915:3935   */\n      tag_110\n        /* \"#utility.yul\":3933:3934   */\n      dup3\n        /* \"#utility.yul\":3915:3935   */\n      tag_53\n      jump\t// in\n    tag_110:\n        /* \"#utility.yul\":3910:3935   */\n      swap2\n      pop\n        /* \"#utility.yul\":3949:3969   */\n      tag_111\n        /* \"#utility.yul\":3967:3968   */\n      dup4\n        /* \"#utility.yul\":3949:3969   */\n      tag_53\n      jump\t// in\n    tag_111:\n        /* \"#utility.yul\":3944:3969   */\n      swap3\n      pop\n        /* \"#utility.yul\":3993:3994   */\n      dup3\n        /* \"#utility.yul\":3990:3991   */\n      dup3\n        /* \"#utility.yul\":3986:3995   */\n      sub\n        /* \"#utility.yul\":3978:3995   */\n      swap1\n      pop\n        /* \"#utility.yul\":4017:4018   */\n      dup2\n        /* \"#utility.yul\":4011:4015   */\n      dup2\n        /* \"#utility.yul\":4008:4019   */\n      gt\n        /* \"#utility.yul\":4005:4042   */\n      iszero\n      tag_112\n      jumpi\n        /* \"#utility.yul\":4022:4040   */\n      tag_113\n      tag_62\n      jump\t// in\n    tag_113:\n        /* \"#utility.yul\":4005:4042   */\n    tag_112:\n        /* \"#utility.yul\":3855:4049   */\n      swap3\n      swap2\n      pop\n      pop\n      jump\t// out\n        /* \"#utility.yul\":4055:4465   */\n    tag_45:\n        /* \"#utility.yul\":4095:4102   */\n      0x00\n        /* \"#utility.yul\":4118:4138   */\n      tag_115\n        /* \"#utility.yul\":4136:4137   */\n      dup3\n        /* \"#utility.yul\":4118:4138   */\n      tag_53\n      jump\t// in\n    tag_115:\n        /* \"#utility.yul\":4113:4138   */\n      swap2\n      pop\n        /* \"#utility.yul\":4152:4172   */\n      tag_116\n        /* \"#utility.yul\":4170:4171   */\n      dup4\n        /* \"#utility.yul\":4152:4172   */\n      tag_53\n      jump\t// in\n    tag_116:\n        /* \"#utility.yul\":4147:4172   */\n      swap3\n      pop\n        /* \"#utility.yul\":4207:4208   */\n      dup3\n        /* \"#utility.yul\":4204:4205   */\n      dup3\n        /* \"#utility.yul\":4200:4209   */\n      mul\n        /* \"#utility.yul\":4229:4259   */\n      tag_117\n        /* \"#utility.yul\":4247:4258   */\n      dup2\n        /* \"#utility.yul\":4229:4259   */\n      tag_53\n      jump\t// in\n    tag_117:\n        /* \"#utility.yul\":4218:4259   */\n      swap2\n      pop\n        /* \"#utility.yul\":4408:4409   */\n      dup3\n        /* \"#utility.yul\":4399:4406   */\n      dup3\n        /* \"#utility.yul\":4395:4410   */\n      div\n        /* \"#utility.yul\":4392:4393   */\n      dup5\n        /* \"#utility.yul\":4389:4411   */\n      eq\n        /* \"#utility.yul\":4369:4370   */\n      dup4\n        /* \"#utility.yul\":4362:4371   */\n      iszero\n        /* \"#utility.yul\":4342:4425   */\n      or\n        /* \"#utility.yul\":4319:4458   */\n      tag_118\n      jumpi\n        /* \"#utility.yul\":4438:4456   */\n      tag_119\n      tag_62\n      jump\t// in\n    tag_119:\n        /* \"#utility.yul\":4319:4458   */\n    tag_118:\n        /* \"#utility.yul\":4103:4465   */\n      pop\n        /* \"#utility.yul\":4055:4465   */\n      swap3\n      swap2\n      pop\n      pop\n      jump\t// out\n\n    auxdata: 0xa2646970667358221220adcc9cf1fdffe26d0fcde18e3b6a422d290715b14ff9d6807585da3c4cbd266064736f6c634300081a0033\n}\n",
				"bytecode": {
					"linkReferences": {},
					"object": "6080604052348015600e575f80fd5b506104c38061001c5f395ff3fe608060405234801561000f575f80fd5b5060043610610060575f3560e01c8063771602f714610064578063a391c15b14610080578063b67d77c5146100b0578063c8a4ac9c146100e0578063cfae3217146100fc578063dc2e7b331461011a575b5f80fd5b61007e6004803603810190610079919061023f565b61014b565b005b61009a6004803603810190610095919061023f565b610160565b6040516100a7919061028c565b60405180910390f35b6100ca60048036038101906100c5919061023f565b610175565b6040516100d7919061028c565b60405180910390f35b6100fa60048036038101906100f5919061023f565b61018a565b005b6101046101a0565b6040516101119190610315565b60405180910390f35b610134600480360381019061012f919061023f565b6101dd565b604051610142929190610335565b60405180910390f35b80826101579190610389565b5f819055505050565b5f818361016d91906103e9565b905092915050565b5f81836101829190610419565b905092915050565b8082610196919061044c565b6001819055505050565b60606040518060400160405280600e81526020017f68656c6c6f20776f726c642e2e21000000000000000000000000000000000000815250905090565b5f805f6101ea8585610175565b90505f6101f78686610160565b905081819350935050509250929050565b5f80fd5b5f819050919050565b61021e8161020c565b8114610228575f80fd5b50565b5f8135905061023981610215565b92915050565b5f806040838503121561025557610254610208565b5b5f6102628582860161022b565b92505060206102738582860161022b565b9150509250929050565b6102868161020c565b82525050565b5f60208201905061029f5f83018461027d565b92915050565b5f81519050919050565b5f82825260208201905092915050565b8281835e5f83830152505050565b5f601f19601f8301169050919050565b5f6102e7826102a5565b6102f181856102af565b93506103018185602086016102bf565b61030a816102cd565b840191505092915050565b5f6020820190508181035f83015261032d81846102dd565b905092915050565b5f6040820190506103485f83018561027d565b610355602083018461027d565b9392505050565b7f4e487b71000000000000000000000000000000000000000000000000000000005f52601160045260245ffd5b5f6103938261020c565b915061039e8361020c565b92508282019050808211156103b6576103b561035c565b5b92915050565b7f4e487b71000000000000000000000000000000000000000000000000000000005f52601260045260245ffd5b5f6103f38261020c565b91506103fe8361020c565b92508261040e5761040d6103bc565b5b828204905092915050565b5f6104238261020c565b915061042e8361020c565b92508282039050818111156104465761044561035c565b5b92915050565b5f6104568261020c565b91506104618361020c565b925082820261046f8161020c565b915082820484148315176104865761048561035c565b5b509291505056fea2646970667358221220adcc9cf1fdffe26d0fcde18e3b6a422d290715b14ff9d6807585da3c4cbd266064736f6c634300081a0033",
					"opcodes": "PUSH1 0x80 PUSH1 0x40 MSTORE CALLVALUE DUP1 ISZERO PUSH1 0xE JUMPI PUSH0 DUP1 REVERT JUMPDEST POP PUSH2 0x4C3 DUP1 PUSH2 0x1C PUSH0 CODECOPY PUSH0 RETURN INVALID PUSH1 0x80 PUSH1 0x40 MSTORE CALLVALUE DUP1 ISZERO PUSH2 0xF JUMPI PUSH0 DUP1 REVERT JUMPDEST POP PUSH1 0x4 CALLDATASIZE LT PUSH2 0x60 JUMPI PUSH0 CALLDATALOAD PUSH1 0xE0 SHR DUP1 PUSH4 0x771602F7 EQ PUSH2 0x64 JUMPI DUP1 PUSH4 0xA391C15B EQ PUSH2 0x80 JUMPI DUP1 PUSH4 0xB67D77C5 EQ PUSH2 0xB0 JUMPI DUP1 PUSH4 0xC8A4AC9C EQ PUSH2 0xE0 JUMPI DUP1 PUSH4 0xCFAE3217 EQ PUSH2 0xFC JUMPI DUP1 PUSH4 0xDC2E7B33 EQ PUSH2 0x11A JUMPI JUMPDEST PUSH0 DUP1 REVERT JUMPDEST PUSH2 0x7E PUSH1 0x4 DUP1 CALLDATASIZE SUB DUP2 ADD SWAP1 PUSH2 0x79 SWAP2 SWAP1 PUSH2 0x23F JUMP JUMPDEST PUSH2 0x14B JUMP JUMPDEST STOP JUMPDEST PUSH2 0x9A PUSH1 0x4 DUP1 CALLDATASIZE SUB DUP2 ADD SWAP1 PUSH2 0x95 SWAP2 SWAP1 PUSH2 0x23F JUMP JUMPDEST PUSH2 0x160 JUMP JUMPDEST PUSH1 0x40 MLOAD PUSH2 0xA7 SWAP2 SWAP1 PUSH2 0x28C JUMP JUMPDEST PUSH1 0x40 MLOAD DUP1 SWAP2 SUB SWAP1 RETURN JUMPDEST PUSH2 0xCA PUSH1 0x4 DUP1 CALLDATASIZE SUB DUP2 ADD SWAP1 PUSH2 0xC5 SWAP2 SWAP1 PUSH2 0x23F JUMP JUMPDEST PUSH2 0x175 JUMP JUMPDEST PUSH1 0x40 MLOAD PUSH2 0xD7 SWAP2 SWAP1 PUSH2 0x28C JUMP JUMPDEST PUSH1 0x40 MLOAD DUP1 SWAP2 SUB SWAP1 RETURN JUMPDEST PUSH2 0xFA PUSH1 0x4 DUP1 CALLDATASIZE SUB DUP2 ADD SWAP1 PUSH2 0xF5 SWAP2 SWAP1 PUSH2 0x23F JUMP JUMPDEST PUSH2 0x18A JUMP JUMPDEST STOP JUMPDEST PUSH2 0x104 PUSH2 0x1A0 JUMP JUMPDEST PUSH1 0x40 MLOAD PUSH2 0x111 SWAP2 SWAP1 PUSH2 0x315 JUMP JUMPDEST PUSH1 0x40 MLOAD DUP1 SWAP2 SUB SWAP1 RETURN JUMPDEST PUSH2 0x134 PUSH1 0x4 DUP1 CALLDATASIZE SUB DUP2 ADD SWAP1 PUSH2 0x12F SWAP2 SWAP1 PUSH2 0x23F JUMP JUMPDEST PUSH2 0x1DD JUMP JUMPDEST PUSH1 0x40 MLOAD PUSH2 0x142 SWAP3 SWAP2 SWAP1 PUSH2 0x335 JUMP JUMPDEST PUSH1 0x40 MLOAD DUP1 SWAP2 SUB SWAP1 RETURN JUMPDEST DUP1 DUP3 PUSH2 0x157 SWAP2 SWAP1 PUSH2 0x389 JUMP JUMPDEST PUSH0 DUP2 SWAP1 SSTORE POP POP POP JUMP JUMPDEST PUSH0 DUP2 DUP4 PUSH2 0x16D SWAP2 SWAP1 PUSH2 0x3E9 JUMP JUMPDEST SWAP1 POP SWAP3 SWAP2 POP POP JUMP JUMPDEST PUSH0 DUP2 DUP4 PUSH2 0x182 SWAP2 SWAP1 PUSH2 0x419 JUMP JUMPDEST SWAP1 POP SWAP3 SWAP2 POP POP JUMP JUMPDEST DUP1 DUP3 PUSH2 0x196 SWAP2 SWAP1 PUSH2 0x44C JUMP JUMPDEST PUSH1 0x1 DUP2 SWAP1 SSTORE POP POP POP JUMP JUMPDEST PUSH1 0x60 PUSH1 0x40 MLOAD DUP1 PUSH1 0x40 ADD PUSH1 0x40 MSTORE DUP1 PUSH1 0xE DUP2 MSTORE PUSH1 0x20 ADD PUSH32 0x68656C6C6F20776F726C642E2E21000000000000000000000000000000000000 DUP2 MSTORE POP SWAP1 POP SWAP1 JUMP JUMPDEST PUSH0 DUP1 PUSH0 PUSH2 0x1EA DUP6 DUP6 PUSH2 0x175 JUMP JUMPDEST SWAP1 POP PUSH0 PUSH2 0x1F7 DUP7 DUP7 PUSH2 0x160 JUMP JUMPDEST SWAP1 POP DUP2 DUP2 SWAP4 POP SWAP4 POP POP POP SWAP3 POP SWAP3 SWAP1 POP JUMP JUMPDEST PUSH0 DUP1 REVERT JUMPDEST PUSH0 DUP2 SWAP1 POP SWAP2 SWAP1 POP JUMP JUMPDEST PUSH2 0x21E DUP2 PUSH2 0x20C JUMP JUMPDEST DUP2 EQ PUSH2 0x228 JUMPI PUSH0 DUP1 REVERT JUMPDEST POP JUMP JUMPDEST PUSH0 DUP2 CALLDATALOAD SWAP1 POP PUSH2 0x239 DUP2 PUSH2 0x215 JUMP JUMPDEST SWAP3 SWAP2 POP POP JUMP JUMPDEST PUSH0 DUP1 PUSH1 0x40 DUP4 DUP6 SUB SLT ISZERO PUSH2 0x255 JUMPI PUSH2 0x254 PUSH2 0x208 JUMP JUMPDEST JUMPDEST PUSH0 PUSH2 0x262 DUP6 DUP3 DUP7 ADD PUSH2 0x22B JUMP JUMPDEST SWAP3 POP POP PUSH1 0x20 PUSH2 0x273 DUP6 DUP3 DUP7 ADD PUSH2 0x22B JUMP JUMPDEST SWAP2 POP POP SWAP3 POP SWAP3 SWAP1 POP JUMP JUMPDEST PUSH2 0x286 DUP2 PUSH2 0x20C JUMP JUMPDEST DUP3 MSTORE POP POP JUMP JUMPDEST PUSH0 PUSH1 0x20 DUP3 ADD SWAP1 POP PUSH2 0x29F PUSH0 DUP4 ADD DUP5 PUSH2 0x27D JUMP JUMPDEST SWAP3 SWAP2 POP POP JUMP JUMPDEST PUSH0 DUP2 MLOAD SWAP1 POP SWAP2 SWAP1 POP JUMP JUMPDEST PUSH0 DUP3 DUP3 MSTORE PUSH1 0x20 DUP3 ADD SWAP1 POP SWAP3 SWAP2 POP POP JUMP JUMPDEST DUP3 DUP2 DUP4 MCOPY PUSH0 DUP4 DUP4 ADD MSTORE POP POP POP JUMP JUMPDEST PUSH0 PUSH1 0x1F NOT PUSH1 0x1F DUP4 ADD AND SWAP1 POP SWAP2 SWAP1 POP JUMP JUMPDEST PUSH0 PUSH2 0x2E7 DUP3 PUSH2 0x2A5 JUMP JUMPDEST PUSH2 0x2F1 DUP2 DUP6 PUSH2 0x2AF JUMP JUMPDEST SWAP4 POP PUSH2 0x301 DUP2 DUP6 PUSH1 0x20 DUP7 ADD PUSH2 0x2BF JUMP JUMPDEST PUSH2 0x30A DUP2 PUSH2 0x2CD JUMP JUMPDEST DUP5 ADD SWAP2 POP POP SWAP3 SWAP2 POP POP JUMP JUMPDEST PUSH0 PUSH1 0x20 DUP3 ADD SWAP1 POP DUP2 DUP2 SUB PUSH0 DUP4 ADD MSTORE PUSH2 0x32D DUP2 DUP5 PUSH2 0x2DD JUMP JUMPDEST SWAP1 POP SWAP3 SWAP2 POP POP JUMP JUMPDEST PUSH0 PUSH1 0x40 DUP3 ADD SWAP1 POP PUSH2 0x348 PUSH0 DUP4 ADD DUP6 PUSH2 0x27D JUMP JUMPDEST PUSH2 0x355 PUSH1 0x20 DUP4 ADD DUP5 PUSH2 0x27D JUMP JUMPDEST SWAP4 SWAP3 POP POP POP JUMP JUMPDEST PUSH32 0x4E487B7100000000000000000000000000000000000000000000000000000000 PUSH0 MSTORE PUSH1 0x11 PUSH1 0x4 MSTORE PUSH1 0x24 PUSH0 REVERT JUMPDEST PUSH0 PUSH2 0x393 DUP3 PUSH2 0x20C JUMP JUMPDEST SWAP2 POP PUSH2 0x39E DUP4 PUSH2 0x20C JUMP JUMPDEST SWAP3 POP DUP3 DUP3 ADD SWAP1 POP DUP1 DUP3 GT ISZERO PUSH2 0x3B6 JUMPI PUSH2 0x3B5 PUSH2 0x35C JUMP JUMPDEST JUMPDEST SWAP3 SWAP2 POP POP JUMP JUMPDEST PUSH32 0x4E487B7100000000000000000000000000000000000000000000000000000000 PUSH0 MSTORE PUSH1 0x12 PUSH1 0x4 MSTORE PUSH1 0x24 PUSH0 REVERT JUMPDEST PUSH0 PUSH2 0x3F3 DUP3 PUSH2 0x20C JUMP JUMPDEST SWAP2 POP PUSH2 0x3FE DUP4 PUSH2 0x20C JUMP JUMPDEST SWAP3 POP DUP3 PUSH2 0x40E JUMPI PUSH2 0x40D PUSH2 0x3BC JUMP JUMPDEST JUMPDEST DUP3 DUP3 DIV SWAP1 POP SWAP3 SWAP2 POP POP JUMP JUMPDEST PUSH0 PUSH2 0x423 DUP3 PUSH2 0x20C JUMP JUMPDEST SWAP2 POP PUSH2 0x42E DUP4 PUSH2 0x20C JUMP JUMPDEST SWAP3 POP DUP3 DUP3 SUB SWAP1 POP DUP2 DUP2 GT ISZERO PUSH2 0x446 JUMPI PUSH2 0x445 PUSH2 0x35C JUMP JUMPDEST JUMPDEST SWAP3 SWAP2 POP POP JUMP JUMPDEST PUSH0 PUSH2 0x456 DUP3 PUSH2 0x20C JUMP JUMPDEST SWAP2 POP PUSH2 0x461 DUP4 PUSH2 0x20C JUMP JUMPDEST SWAP3 POP DUP3 DUP3 MUL PUSH2 0x46F DUP2 PUSH2 0x20C JUMP JUMPDEST SWAP2 POP DUP3 DUP3 DIV DUP5 EQ DUP4 ISZERO OR PUSH2 0x486 JUMPI PUSH2 0x485 PUSH2 0x35C JUMP JUMPDEST JUMPDEST POP SWAP3 SWAP2 POP POP JUMP INVALID LOG2 PUSH5 0x6970667358 0x22 SLT KECCAK256 0xAD 0xCC SWAP13 CALL REVERT SELFDESTRUCT 0xE2 PUSH14 0xFCDE18E3B6A422D290715B14FF9 0xD6 DUP1 PUSH22 0x85DA3C4CBD266064736F6C634300081A003300000000 "
				},
				"gasEstimates": {
					"creation": {
						"codeDepositCost": "243800",
						"executionCost": "285",
						"totalCost": "244085"
					},
					"external": {
						"add(uint256,uint256)": "infinite",
						"cal(uint256,uint256)": "infinite",
						"div(uint256,uint256)": "infinite",
						"greet()": "infinite",
						"mul(uint256,uint256)": "infinite",
						"sub(uint256,uint256)": "infinite"
					}
				},
				"methodIdentifiers": {
					"add(uint256,uint256)": "771602f7",
					"cal(uint256,uint256)": "dc2e7b33",
					"div(uint256,uint256)": "a391c15b",
					"greet()": "cfae3217",
					"mul(uint256,uint256)": "c8a4ac9c",
					"sub(uint256,uint256)": "b67d77c5"
				}
			},
			"storageLayout": {
				"storage": [
					{
						"astId": 42,
						"contract": "contracts/AlgerbricOp.sol:AlgerbricOp",
						"label": "add_res",
						"offset": 0,
						"slot": "0",
						"type": "t_uint256"
					},
					{
						"astId": 44,
						"contract": "contracts/AlgerbricOp.sol:AlgerbricOp",
						"label": "mul_res",
						"offset": 0,
						"slot": "1",
						"type": "t_uint256"
					}
				],
				"types": {
					"t_uint256": {
						"encoding": "inplace",
						"label": "uint256",
						"numberOfBytes": "32"
					}
				}
			},
			"userdoc": {
				"kind": "user",
				"methods": {},
				"version": 1
			}
		}
	}
}