{
	"contracts/Adv2/crossbordertrade.sol": {
		"CrossBorderTrade": {
			"abi": [
				{
					"inputs": [
						{
							"internalType": "uint256",
							"name": "",
							"type": "uint256"
						}
					],
					"name": "TradeAgreements",
					"outputs": [
						{
							"internalType": "address",
							"name": "exporter",
							"type": "address"
						},
						{
							"internalType": "address",
							"name": "importer",
							"type": "address"
						},
						{
							"internalType": "string",
							"name": "product",
							"type": "string"
						},
						{
							"internalType": "uint256",
							"name": "quantity",
							"type": "uint256"
						},
						{
							"internalType": "uint256",
							"name": "price",
							"type": "uint256"
						},
						{
							"internalType": "string",
							"name": "shipmentStatus",
							"type": "string"
						},
						{
							"internalType": "bool",
							"name": "isCompliant",
							"type": "bool"
						},
						{
							"internalType": "bool",
							"name": "paymentReceived",
							"type": "bool"
						}
					],
					"stateMutability": "view",
					"type": "function"
				},
				{
					"inputs": [],
					"name": "agreementcounter",
					"outputs": [
						{
							"internalType": "uint256",
							"name": "",
							"type": "uint256"
						}
					],
					"stateMutability": "view",
					"type": "function"
				},
				{
					"inputs": [
						{
							"internalType": "address",
							"name": "_importer",
							"type": "address"
						},
						{
							"internalType": "string",
							"name": "_product",
							"type": "string"
						},
						{
							"internalType": "uint256",
							"name": "_quantity",
							"type": "uint256"
						},
						{
							"internalType": "uint256",
							"name": "_price",
							"type": "uint256"
						}
					],
					"name": "createAgreement",
					"outputs": [],
					"stateMutability": "nonpayable",
					"type": "function"
				},
				{
					"inputs": [
						{
							"internalType": "uint256",
							"name": "_agreementId",
							"type": "uint256"
						}
					],
					"name": "getTradeAgreementDetails",
					"outputs": [
						{
							"internalType": "address",
							"name": "exporter",
							"type": "address"
						},
						{
							"internalType": "address",
							"name": "importer",
							"type": "address"
						},
						{
							"internalType": "string",
							"name": "product",
							"type": "string"
						},
						{
							"internalType": "uint256",
							"name": "quantity",
							"type": "uint256"
						},
						{
							"internalType": "uint256",
							"name": "price",
							"type": "uint256"
						},
						{
							"internalType": "string",
							"name": "shipmentStatus",
							"type": "string"
						},
						{
							"internalType": "bool",
							"name": "isCompliant",
							"type": "bool"
						},
						{
							"internalType": "bool",
							"name": "paymentReceived",
							"type": "bool"
						}
					],
					"stateMutability": "view",
					"type": "function"
				},
				{
					"inputs": [
						{
							"internalType": "uint256",
							"name": "_agreementId",
							"type": "uint256"
						}
					],
					"name": "makePayment",
					"outputs": [],
					"stateMutability": "payable",
					"type": "function"
				},
				{
					"inputs": [
						{
							"internalType": "uint256",
							"name": "_agreementid",
							"type": "uint256"
						},
						{
							"internalType": "bool",
							"name": "_isCompliant",
							"type": "bool"
						}
					],
					"name": "updateCompliantStatus",
					"outputs": [],
					"stateMutability": "nonpayable",
					"type": "function"
				},
				{
					"inputs": [
						{
							"internalType": "uint256",
							"name": "_agreementId",
							"type": "uint256"
						},
						{
							"internalType": "string",
							"name": "_newStatus",
							"type": "string"
						}
					],
					"name": "updateShipmentStatus",
					"outputs": [],
					"stateMutability": "nonpayable",
					"type": "function"
				}
			],
			"devdoc": {
				"kind": "dev",
				"methods": {},
				"version": 1
			},
			"evm": {
				"assembly": "    /* \"contracts/Adv2/crossbordertrade.sol\":71:3014  contract CrossBorderTrade {... */\n  mstore(0x40, 0x80)\n  callvalue\n  dup1\n  iszero\n  tag_1\n  jumpi\n  0x00\n  dup1\n  revert\ntag_1:\n  pop\n  dataSize(sub_0)\n  dup1\n  dataOffset(sub_0)\n  0x00\n  codecopy\n  0x00\n  return\nstop\n\nsub_0: assembly {\n        /* \"contracts/Adv2/crossbordertrade.sol\":71:3014  contract CrossBorderTrade {... */\n      mstore(0x40, 0x80)\n      jumpi(tag_1, lt(calldatasize, 0x04))\n      shr(0xe0, calldataload(0x00))\n      dup1\n      0x9b074a6f\n      gt\n      tag_9\n      jumpi\n      dup1\n      0x9b074a6f\n      eq\n      tag_5\n      jumpi\n      dup1\n      0xbe091c0f\n      eq\n      tag_6\n      jumpi\n      dup1\n      0xbf217b66\n      eq\n      tag_7\n      jumpi\n      dup1\n      0xf445d492\n      eq\n      tag_8\n      jumpi\n      jump(tag_1)\n    tag_9:\n      dup1\n      0x5114cb52\n      eq\n      tag_2\n      jumpi\n      dup1\n      0x729f5535\n      eq\n      tag_3\n      jumpi\n      dup1\n      0x8c990f51\n      eq\n      tag_4\n      jumpi\n    tag_1:\n      0x00\n      dup1\n      revert\n        /* \"contracts/Adv2/crossbordertrade.sol\":1785:2277  function makePayment(uint _agreementId) external payable {... */\n    tag_2:\n      tag_10\n      0x04\n      dup1\n      calldatasize\n      sub\n      dup2\n      add\n      swap1\n      tag_11\n      swap2\n      swap1\n      tag_12\n      jump\t// in\n    tag_11:\n      tag_13\n      jump\t// in\n    tag_10:\n      stop\n        /* \"contracts/Adv2/crossbordertrade.sol\":2283:3006  function getTradeAgreementDetails(uint _agreementId) public view returns(... */\n    tag_3:\n      callvalue\n      dup1\n      iszero\n      tag_14\n      jumpi\n      0x00\n      dup1\n      revert\n    tag_14:\n      pop\n      tag_15\n      0x04\n      dup1\n      calldatasize\n      sub\n      dup2\n      add\n      swap1\n      tag_16\n      swap2\n      swap1\n      tag_12\n      jump\t// in\n    tag_16:\n      tag_17\n      jump\t// in\n    tag_15:\n      mload(0x40)\n      tag_18\n      swap9\n      swap8\n      swap7\n      swap6\n      swap5\n      swap4\n      swap3\n      swap2\n      swap1\n      tag_19\n      jump\t// in\n    tag_18:\n      mload(0x40)\n      dup1\n      swap2\n      sub\n      swap1\n      return\n        /* \"contracts/Adv2/crossbordertrade.sol\":456:1066  function createAgreement (          //exporter is creating the contract so he is msg.sender... */\n    tag_4:\n      callvalue\n      dup1\n      iszero\n      tag_20\n      jumpi\n      0x00\n      dup1\n      revert\n    tag_20:\n      pop\n      tag_21\n      0x04\n      dup1\n      calldatasize\n      sub\n      dup2\n      add\n      swap1\n      tag_22\n      swap2\n      swap1\n      tag_23\n      jump\t// in\n    tag_22:\n      tag_24\n      jump\t// in\n    tag_21:\n      stop\n        /* \"contracts/Adv2/crossbordertrade.sol\":1204:1475  function updateShipmentStatus(uint _agreementId, string memory _newStatus) external {... */\n    tag_5:\n      callvalue\n      dup1\n      iszero\n      tag_25\n      jumpi\n      0x00\n      dup1\n      revert\n    tag_25:\n      pop\n      tag_26\n      0x04\n      dup1\n      calldatasize\n      sub\n      dup2\n      add\n      swap1\n      tag_27\n      swap2\n      swap1\n      tag_28\n      jump\t// in\n    tag_27:\n      tag_29\n      jump\t// in\n    tag_26:\n      stop\n        /* \"contracts/Adv2/crossbordertrade.sol\":404:432  uint public agreementcounter */\n    tag_6:\n      callvalue\n      dup1\n      iszero\n      tag_30\n      jumpi\n      0x00\n      dup1\n      revert\n    tag_30:\n      pop\n      tag_31\n      tag_32\n      jump\t// in\n    tag_31:\n      mload(0x40)\n      tag_33\n      swap2\n      swap1\n      tag_34\n      jump\t// in\n    tag_33:\n      mload(0x40)\n      dup1\n      swap2\n      sub\n      swap1\n      return\n        /* \"contracts/Adv2/crossbordertrade.sol\":1481:1779  function updateCompliantStatus(uint _agreementid, bool _isCompliant) external {... */\n    tag_7:\n      callvalue\n      dup1\n      iszero\n      tag_35\n      jumpi\n      0x00\n      dup1\n      revert\n    tag_35:\n      pop\n      tag_36\n      0x04\n      dup1\n      calldatasize\n      sub\n      dup2\n      add\n      swap1\n      tag_37\n      swap2\n      swap1\n      tag_38\n      jump\t// in\n    tag_37:\n      tag_39\n      jump\t// in\n    tag_36:\n      stop\n        /* \"contracts/Adv2/crossbordertrade.sol\":344:398  mapping(uint => TradeAgreement) public TradeAgreements */\n    tag_8:\n      callvalue\n      dup1\n      iszero\n      tag_40\n      jumpi\n      0x00\n      dup1\n      revert\n    tag_40:\n      pop\n      tag_41\n      0x04\n      dup1\n      calldatasize\n      sub\n      dup2\n      add\n      swap1\n      tag_42\n      swap2\n      swap1\n      tag_12\n      jump\t// in\n    tag_42:\n      tag_43\n      jump\t// in\n    tag_41:\n      mload(0x40)\n      tag_44\n      swap9\n      swap8\n      swap7\n      swap6\n      swap5\n      swap4\n      swap3\n      swap2\n      swap1\n      tag_19\n      jump\t// in\n    tag_44:\n      mload(0x40)\n      dup1\n      swap2\n      sub\n      swap1\n      return\n        /* \"contracts/Adv2/crossbordertrade.sol\":1785:2277  function makePayment(uint _agreementId) external payable {... */\n    tag_13:\n        /* \"contracts/Adv2/crossbordertrade.sol\":1887:1902  TradeAgreements */\n      0x00\n        /* \"contracts/Adv2/crossbordertrade.sol\":1887:1916  TradeAgreements[_agreementId] */\n      dup1\n        /* \"contracts/Adv2/crossbordertrade.sol\":1903:1915  _agreementId */\n      dup3\n        /* \"contracts/Adv2/crossbordertrade.sol\":1887:1916  TradeAgreements[_agreementId] */\n      dup2\n      mstore\n      0x20\n      add\n      swap1\n      dup2\n      mstore\n      0x20\n      add\n      0x00\n      keccak256\n        /* \"contracts/Adv2/crossbordertrade.sol\":1887:1925  TradeAgreements[_agreementId].importer */\n      0x01\n      add\n      0x00\n      swap1\n      sload\n      swap1\n      0x0100\n      exp\n      swap1\n      div\n      0xffffffffffffffffffffffffffffffffffffffff\n      and\n        /* \"contracts/Adv2/crossbordertrade.sol\":1873:1925  msg.sender == TradeAgreements[_agreementId].importer */\n      0xffffffffffffffffffffffffffffffffffffffff\n      and\n        /* \"contracts/Adv2/crossbordertrade.sol\":1873:1883  msg.sender */\n      caller\n        /* \"contracts/Adv2/crossbordertrade.sol\":1873:1925  msg.sender == TradeAgreements[_agreementId].importer */\n      0xffffffffffffffffffffffffffffffffffffffff\n      and\n      eq\n        /* \"contracts/Adv2/crossbordertrade.sol\":1852:1988  require(... */\n      tag_46\n      jumpi\n      mload(0x40)\n      0x08c379a000000000000000000000000000000000000000000000000000000000\n      dup2\n      mstore\n      0x04\n      add\n      tag_47\n      swap1\n      tag_48\n      jump\t// in\n    tag_47:\n      mload(0x40)\n      dup1\n      swap2\n      sub\n      swap1\n      revert\n    tag_46:\n        /* \"contracts/Adv2/crossbordertrade.sol\":2019:2034  TradeAgreements */\n      0x00\n        /* \"contracts/Adv2/crossbordertrade.sol\":2019:2048  TradeAgreements[_agreementId] */\n      dup1\n        /* \"contracts/Adv2/crossbordertrade.sol\":2035:2047  _agreementId */\n      dup3\n        /* \"contracts/Adv2/crossbordertrade.sol\":2019:2048  TradeAgreements[_agreementId] */\n      dup2\n      mstore\n      0x20\n      add\n      swap1\n      dup2\n      mstore\n      0x20\n      add\n      0x00\n      keccak256\n        /* \"contracts/Adv2/crossbordertrade.sol\":2019:2054  TradeAgreements[_agreementId].price */\n      0x04\n      add\n      sload\n        /* \"contracts/Adv2/crossbordertrade.sol\":2006:2015  msg.value */\n      callvalue\n        /* \"contracts/Adv2/crossbordertrade.sol\":2006:2054  msg.value == TradeAgreements[_agreementId].price */\n      eq\n        /* \"contracts/Adv2/crossbordertrade.sol\":1998:2094  require(msg.value == TradeAgreements[_agreementId].price,... */\n      tag_49\n      jumpi\n      mload(0x40)\n      0x08c379a000000000000000000000000000000000000000000000000000000000\n      dup2\n      mstore\n      0x04\n      add\n      tag_50\n      swap1\n      tag_51\n      jump\t// in\n    tag_50:\n      mload(0x40)\n      dup1\n      swap2\n      sub\n      swap1\n      revert\n    tag_49:\n        /* \"contracts/Adv2/crossbordertrade.sol\":2161:2166  false */\n      0x00\n        /* \"contracts/Adv2/crossbordertrade.sol\":2112:2166  TradeAgreements[_agreementId].paymentReceived == false */\n      iszero\n      iszero\n        /* \"contracts/Adv2/crossbordertrade.sol\":2112:2127  TradeAgreements */\n      0x00\n        /* \"contracts/Adv2/crossbordertrade.sol\":2112:2141  TradeAgreements[_agreementId] */\n      dup1\n        /* \"contracts/Adv2/crossbordertrade.sol\":2128:2140  _agreementId */\n      dup4\n        /* \"contracts/Adv2/crossbordertrade.sol\":2112:2141  TradeAgreements[_agreementId] */\n      dup2\n      mstore\n      0x20\n      add\n      swap1\n      dup2\n      mstore\n      0x20\n      add\n      0x00\n      keccak256\n        /* \"contracts/Adv2/crossbordertrade.sol\":2112:2157  TradeAgreements[_agreementId].paymentReceived */\n      0x06\n      add\n      0x01\n      swap1\n      sload\n      swap1\n      0x0100\n      exp\n      swap1\n      div\n      0xff\n      and\n        /* \"contracts/Adv2/crossbordertrade.sol\":2112:2166  TradeAgreements[_agreementId].paymentReceived == false */\n      iszero\n      iszero\n      eq\n        /* \"contracts/Adv2/crossbordertrade.sol\":2104:2208  require(TradeAgreements[_agreementId].paymentReceived == false,... */\n      tag_52\n      jumpi\n      mload(0x40)\n      0x08c379a000000000000000000000000000000000000000000000000000000000\n      dup2\n      mstore\n      0x04\n      add\n      tag_53\n      swap1\n      tag_54\n      jump\t// in\n    tag_53:\n      mload(0x40)\n      dup1\n      swap2\n      sub\n      swap1\n      revert\n    tag_52:\n        /* \"contracts/Adv2/crossbordertrade.sol\":2266:2270  true */\n      0x01\n        /* \"contracts/Adv2/crossbordertrade.sol\":2218:2233  TradeAgreements */\n      0x00\n        /* \"contracts/Adv2/crossbordertrade.sol\":2218:2247  TradeAgreements[_agreementId] */\n      dup1\n        /* \"contracts/Adv2/crossbordertrade.sol\":2234:2246  _agreementId */\n      dup4\n        /* \"contracts/Adv2/crossbordertrade.sol\":2218:2247  TradeAgreements[_agreementId] */\n      dup2\n      mstore\n      0x20\n      add\n      swap1\n      dup2\n      mstore\n      0x20\n      add\n      0x00\n      keccak256\n        /* \"contracts/Adv2/crossbordertrade.sol\":2218:2263  TradeAgreements[_agreementId].paymentReceived */\n      0x06\n      add\n      0x01\n        /* \"contracts/Adv2/crossbordertrade.sol\":2218:2270  TradeAgreements[_agreementId].paymentReceived = true */\n      0x0100\n      exp\n      dup2\n      sload\n      dup2\n      0xff\n      mul\n      not\n      and\n      swap1\n      dup4\n      iszero\n      iszero\n      mul\n      or\n      swap1\n      sstore\n      pop\n        /* \"contracts/Adv2/crossbordertrade.sol\":1785:2277  function makePayment(uint _agreementId) external payable {... */\n      pop\n      jump\t// out\n        /* \"contracts/Adv2/crossbordertrade.sol\":2283:3006  function getTradeAgreementDetails(uint _agreementId) public view returns(... */\n    tag_17:\n        /* \"contracts/Adv2/crossbordertrade.sol\":2365:2381  address exporter */\n      0x00\n        /* \"contracts/Adv2/crossbordertrade.sol\":2391:2407  address importer */\n      dup1\n        /* \"contracts/Adv2/crossbordertrade.sol\":2417:2438  string memory product */\n      0x60\n        /* \"contracts/Adv2/crossbordertrade.sol\":2448:2461  uint quantity */\n      0x00\n        /* \"contracts/Adv2/crossbordertrade.sol\":2471:2481  uint price */\n      dup1\n        /* \"contracts/Adv2/crossbordertrade.sol\":2491:2519  string memory shipmentStatus */\n      0x60\n        /* \"contracts/Adv2/crossbordertrade.sol\":2529:2545  bool isCompliant */\n      0x00\n        /* \"contracts/Adv2/crossbordertrade.sol\":2555:2575  bool paymentReceived */\n      dup1\n        /* \"contracts/Adv2/crossbordertrade.sol\":2597:2633  TradeAgreement memory temp_agreement */\n      0x00\n        /* \"contracts/Adv2/crossbordertrade.sol\":2636:2651  TradeAgreements */\n      dup1\n        /* \"contracts/Adv2/crossbordertrade.sol\":2636:2665  TradeAgreements[_agreementId] */\n      0x00\n        /* \"contracts/Adv2/crossbordertrade.sol\":2652:2664  _agreementId */\n      dup12\n        /* \"contracts/Adv2/crossbordertrade.sol\":2636:2665  TradeAgreements[_agreementId] */\n      dup2\n      mstore\n      0x20\n      add\n      swap1\n      dup2\n      mstore\n      0x20\n      add\n      0x00\n      keccak256\n        /* \"contracts/Adv2/crossbordertrade.sol\":2597:2665  TradeAgreement memory temp_agreement = TradeAgreements[_agreementId] */\n      mload(0x40)\n      dup1\n      0x0100\n      add\n      0x40\n      mstore\n      swap1\n      dup2\n      0x00\n      dup3\n      add\n      0x00\n      swap1\n      sload\n      swap1\n      0x0100\n      exp\n      swap1\n      div\n      0xffffffffffffffffffffffffffffffffffffffff\n      and\n      0xffffffffffffffffffffffffffffffffffffffff\n      and\n      0xffffffffffffffffffffffffffffffffffffffff\n      and\n      dup2\n      mstore\n      0x20\n      add\n      0x01\n      dup3\n      add\n      0x00\n      swap1\n      sload\n      swap1\n      0x0100\n      exp\n      swap1\n      div\n      0xffffffffffffffffffffffffffffffffffffffff\n      and\n      0xffffffffffffffffffffffffffffffffffffffff\n      and\n      0xffffffffffffffffffffffffffffffffffffffff\n      and\n      dup2\n      mstore\n      0x20\n      add\n      0x02\n      dup3\n      add\n      dup1\n      sload\n      tag_56\n      swap1\n      tag_57\n      jump\t// in\n    tag_56:\n      dup1\n      0x1f\n      add\n      0x20\n      dup1\n      swap2\n      div\n      mul\n      0x20\n      add\n      mload(0x40)\n      swap1\n      dup2\n      add\n      0x40\n      mstore\n      dup1\n      swap3\n      swap2\n      swap1\n      dup2\n      dup2\n      mstore\n      0x20\n      add\n      dup3\n      dup1\n      sload\n      tag_58\n      swap1\n      tag_57\n      jump\t// in\n    tag_58:\n      dup1\n      iszero\n      tag_59\n      jumpi\n      dup1\n      0x1f\n      lt\n      tag_60\n      jumpi\n      0x0100\n      dup1\n      dup4\n      sload\n      div\n      mul\n      dup4\n      mstore\n      swap2\n      0x20\n      add\n      swap2\n      jump(tag_59)\n    tag_60:\n      dup3\n      add\n      swap2\n      swap1\n      0x00\n      mstore\n      keccak256(0x00, 0x20)\n      swap1\n    tag_61:\n      dup2\n      sload\n      dup2\n      mstore\n      swap1\n      0x01\n      add\n      swap1\n      0x20\n      add\n      dup1\n      dup4\n      gt\n      tag_61\n      jumpi\n      dup3\n      swap1\n      sub\n      0x1f\n      and\n      dup3\n      add\n      swap2\n    tag_59:\n      pop\n      pop\n      pop\n      pop\n      pop\n      dup2\n      mstore\n      0x20\n      add\n      0x03\n      dup3\n      add\n      sload\n      dup2\n      mstore\n      0x20\n      add\n      0x04\n      dup3\n      add\n      sload\n      dup2\n      mstore\n      0x20\n      add\n      0x05\n      dup3\n      add\n      dup1\n      sload\n      tag_62\n      swap1\n      tag_57\n      jump\t// in\n    tag_62:\n      dup1\n      0x1f\n      add\n      0x20\n      dup1\n      swap2\n      div\n      mul\n      0x20\n      add\n      mload(0x40)\n      swap1\n      dup2\n      add\n      0x40\n      mstore\n      dup1\n      swap3\n      swap2\n      swap1\n      dup2\n      dup2\n      mstore\n      0x20\n      add\n      dup3\n      dup1\n      sload\n      tag_63\n      swap1\n      tag_57\n      jump\t// in\n    tag_63:\n      dup1\n      iszero\n      tag_64\n      jumpi\n      dup1\n      0x1f\n      lt\n      tag_65\n      jumpi\n      0x0100\n      dup1\n      dup4\n      sload\n      div\n      mul\n      dup4\n      mstore\n      swap2\n      0x20\n      add\n      swap2\n      jump(tag_64)\n    tag_65:\n      dup3\n      add\n      swap2\n      swap1\n      0x00\n      mstore\n      keccak256(0x00, 0x20)\n      swap1\n    tag_66:\n      dup2\n      sload\n      dup2\n      mstore\n      swap1\n      0x01\n      add\n      swap1\n      0x20\n      add\n      dup1\n      dup4\n      gt\n      tag_66\n      jumpi\n      dup3\n      swap1\n      sub\n      0x1f\n      and\n      dup3\n      add\n      swap2\n    tag_64:\n      pop\n      pop\n      pop\n      pop\n      pop\n      dup2\n      mstore\n      0x20\n      add\n      0x06\n      dup3\n      add\n      0x00\n      swap1\n      sload\n      swap1\n      0x0100\n      exp\n      swap1\n      div\n      0xff\n      and\n      iszero\n      iszero\n      iszero\n      iszero\n      dup2\n      mstore\n      0x20\n      add\n      0x06\n      dup3\n      add\n      0x01\n      swap1\n      sload\n      swap1\n      0x0100\n      exp\n      swap1\n      div\n      0xff\n      and\n      iszero\n      iszero\n      iszero\n      iszero\n      dup2\n      mstore\n      pop\n      pop\n      swap1\n      pop\n        /* \"contracts/Adv2/crossbordertrade.sol\":2695:2709  temp_agreement */\n      dup1\n        /* \"contracts/Adv2/crossbordertrade.sol\":2695:2718  temp_agreement.exporter */\n      0x00\n      add\n      mload\n        /* \"contracts/Adv2/crossbordertrade.sol\":2732:2746  temp_agreement */\n      dup2\n        /* \"contracts/Adv2/crossbordertrade.sol\":2732:2755  temp_agreement.importer */\n      0x20\n      add\n      mload\n        /* \"contracts/Adv2/crossbordertrade.sol\":2769:2783  temp_agreement */\n      dup3\n        /* \"contracts/Adv2/crossbordertrade.sol\":2769:2791  temp_agreement.product */\n      0x40\n      add\n      mload\n        /* \"contracts/Adv2/crossbordertrade.sol\":2805:2819  temp_agreement */\n      dup4\n        /* \"contracts/Adv2/crossbordertrade.sol\":2805:2828  temp_agreement.quantity */\n      0x60\n      add\n      mload\n        /* \"contracts/Adv2/crossbordertrade.sol\":2842:2856  temp_agreement */\n      dup5\n        /* \"contracts/Adv2/crossbordertrade.sol\":2842:2862  temp_agreement.price */\n      0x80\n      add\n      mload\n        /* \"contracts/Adv2/crossbordertrade.sol\":2876:2890  temp_agreement */\n      dup6\n        /* \"contracts/Adv2/crossbordertrade.sol\":2876:2905  temp_agreement.shipmentStatus */\n      0xa0\n      add\n      mload\n        /* \"contracts/Adv2/crossbordertrade.sol\":2919:2933  temp_agreement */\n      dup7\n        /* \"contracts/Adv2/crossbordertrade.sol\":2919:2945  temp_agreement.isCompliant */\n      0xc0\n      add\n      mload\n        /* \"contracts/Adv2/crossbordertrade.sol\":2959:2973  temp_agreement */\n      dup8\n        /* \"contracts/Adv2/crossbordertrade.sol\":2959:2989  temp_agreement.paymentReceived */\n      0xe0\n      add\n      mload\n        /* \"contracts/Adv2/crossbordertrade.sol\":2675:2999  return(... */\n      swap9\n      pop\n      swap9\n      pop\n      swap9\n      pop\n      swap9\n      pop\n      swap9\n      pop\n      swap9\n      pop\n      swap9\n      pop\n      swap9\n      pop\n      pop\n        /* \"contracts/Adv2/crossbordertrade.sol\":2283:3006  function getTradeAgreementDetails(uint _agreementId) public view returns(... */\n      swap2\n      swap4\n      swap6\n      swap8\n      pop\n      swap2\n      swap4\n      swap6\n      swap8\n      jump\t// out\n        /* \"contracts/Adv2/crossbordertrade.sol\":456:1066  function createAgreement (          //exporter is creating the contract so he is msg.sender... */\n    tag_24:\n        /* \"contracts/Adv2/crossbordertrade.sol\":700:716  agreementcounter */\n      0x01\n      0x00\n        /* \"contracts/Adv2/crossbordertrade.sol\":700:718  agreementcounter++ */\n      dup2\n      sload\n      dup1\n      swap3\n      swap2\n      swap1\n      tag_68\n      swap1\n      tag_69\n      jump\t// in\n    tag_68:\n      swap2\n      swap1\n      pop\n      sstore\n      pop\n        /* \"contracts/Adv2/crossbordertrade.sol\":764:1059  TradeAgreement({... */\n      mload(0x40)\n      dup1\n      0x0100\n      add\n      0x40\n      mstore\n      dup1\n        /* \"contracts/Adv2/crossbordertrade.sol\":803:813  msg.sender */\n      caller\n        /* \"contracts/Adv2/crossbordertrade.sol\":764:1059  TradeAgreement({... */\n      0xffffffffffffffffffffffffffffffffffffffff\n      and\n      dup2\n      mstore\n      0x20\n      add\n        /* \"contracts/Adv2/crossbordertrade.sol\":837:846  _importer */\n      dup6\n        /* \"contracts/Adv2/crossbordertrade.sol\":764:1059  TradeAgreement({... */\n      0xffffffffffffffffffffffffffffffffffffffff\n      and\n      dup2\n      mstore\n      0x20\n      add\n        /* \"contracts/Adv2/crossbordertrade.sol\":869:877  _product */\n      dup5\n        /* \"contracts/Adv2/crossbordertrade.sol\":764:1059  TradeAgreement({... */\n      dup2\n      mstore\n      0x20\n      add\n        /* \"contracts/Adv2/crossbordertrade.sol\":901:910  _quantity */\n      dup4\n        /* \"contracts/Adv2/crossbordertrade.sol\":764:1059  TradeAgreement({... */\n      dup2\n      mstore\n      0x20\n      add\n        /* \"contracts/Adv2/crossbordertrade.sol\":931:937  _price */\n      dup3\n        /* \"contracts/Adv2/crossbordertrade.sol\":764:1059  TradeAgreement({... */\n      dup2\n      mstore\n      0x20\n      add\n      mload(0x40)\n      dup1\n      0x40\n      add\n      0x40\n      mstore\n      dup1\n      0x0a\n      dup2\n      mstore\n      0x20\n      add\n      0x496e205472616e73697400000000000000000000000000000000000000000000\n      dup2\n      mstore\n      pop\n      dup2\n      mstore\n      0x20\n      add\n        /* \"contracts/Adv2/crossbordertrade.sol\":1007:1012  false */\n      0x00\n        /* \"contracts/Adv2/crossbordertrade.sol\":764:1059  TradeAgreement({... */\n      iszero\n      iszero\n      dup2\n      mstore\n      0x20\n      add\n        /* \"contracts/Adv2/crossbordertrade.sol\":1043:1048  false */\n      0x00\n        /* \"contracts/Adv2/crossbordertrade.sol\":764:1059  TradeAgreement({... */\n      iszero\n      iszero\n      dup2\n      mstore\n      pop\n        /* \"contracts/Adv2/crossbordertrade.sol\":728:743  TradeAgreements */\n      0x00\n        /* \"contracts/Adv2/crossbordertrade.sol\":728:761  TradeAgreements[agreementcounter] */\n      dup1\n        /* \"contracts/Adv2/crossbordertrade.sol\":744:760  agreementcounter */\n      sload(0x01)\n        /* \"contracts/Adv2/crossbordertrade.sol\":728:761  TradeAgreements[agreementcounter] */\n      dup2\n      mstore\n      0x20\n      add\n      swap1\n      dup2\n      mstore\n      0x20\n      add\n      0x00\n      keccak256\n        /* \"contracts/Adv2/crossbordertrade.sol\":728:1059  TradeAgreements[agreementcounter] = TradeAgreement({... */\n      0x00\n      dup3\n      add\n      mload\n      dup2\n      0x00\n      add\n      exp(0x0100, 0x00)\n      dup2\n      sload\n      dup2\n      0xffffffffffffffffffffffffffffffffffffffff\n      mul\n      not\n      and\n      swap1\n      dup4\n      0xffffffffffffffffffffffffffffffffffffffff\n      and\n      mul\n      or\n      swap1\n      sstore\n      pop\n      0x20\n      dup3\n      add\n      mload\n      dup2\n      0x01\n      add\n      exp(0x0100, 0x00)\n      dup2\n      sload\n      dup2\n      0xffffffffffffffffffffffffffffffffffffffff\n      mul\n      not\n      and\n      swap1\n      dup4\n      0xffffffffffffffffffffffffffffffffffffffff\n      and\n      mul\n      or\n      swap1\n      sstore\n      pop\n      0x40\n      dup3\n      add\n      mload\n      dup2\n      0x02\n      add\n      swap1\n      dup2\n      tag_70\n      swap2\n      swap1\n      tag_71\n      jump\t// in\n    tag_70:\n      pop\n      0x60\n      dup3\n      add\n      mload\n      dup2\n      0x03\n      add\n      sstore\n      0x80\n      dup3\n      add\n      mload\n      dup2\n      0x04\n      add\n      sstore\n      0xa0\n      dup3\n      add\n      mload\n      dup2\n      0x05\n      add\n      swap1\n      dup2\n      tag_72\n      swap2\n      swap1\n      tag_71\n      jump\t// in\n    tag_72:\n      pop\n      0xc0\n      dup3\n      add\n      mload\n      dup2\n      0x06\n      add\n      exp(0x0100, 0x00)\n      dup2\n      sload\n      dup2\n      0xff\n      mul\n      not\n      and\n      swap1\n      dup4\n      iszero\n      iszero\n      mul\n      or\n      swap1\n      sstore\n      pop\n      0xe0\n      dup3\n      add\n      mload\n      dup2\n      0x06\n      add\n      exp(0x0100, 0x01)\n      dup2\n      sload\n      dup2\n      0xff\n      mul\n      not\n      and\n      swap1\n      dup4\n      iszero\n      iszero\n      mul\n      or\n      swap1\n      sstore\n      pop\n      swap1\n      pop\n      pop\n        /* \"contracts/Adv2/crossbordertrade.sol\":456:1066  function createAgreement (          //exporter is creating the contract so he is msg.sender... */\n      pop\n      pop\n      pop\n      pop\n      jump\t// out\n        /* \"contracts/Adv2/crossbordertrade.sol\":1204:1475  function updateShipmentStatus(uint _agreementId, string memory _newStatus) external {... */\n    tag_29:\n        /* \"contracts/Adv2/crossbordertrade.sol\":1320:1335  TradeAgreements */\n      0x00\n        /* \"contracts/Adv2/crossbordertrade.sol\":1320:1349  TradeAgreements[_agreementId] */\n      dup1\n        /* \"contracts/Adv2/crossbordertrade.sol\":1336:1348  _agreementId */\n      dup4\n        /* \"contracts/Adv2/crossbordertrade.sol\":1320:1349  TradeAgreements[_agreementId] */\n      dup2\n      mstore\n      0x20\n      add\n      swap1\n      dup2\n      mstore\n      0x20\n      add\n      0x00\n      keccak256\n        /* \"contracts/Adv2/crossbordertrade.sol\":1320:1358  TradeAgreements[_agreementId].exporter */\n      0x00\n      add\n      0x00\n      swap1\n      sload\n      swap1\n      0x0100\n      exp\n      swap1\n      div\n      0xffffffffffffffffffffffffffffffffffffffff\n      and\n        /* \"contracts/Adv2/crossbordertrade.sol\":1306:1358  msg.sender == TradeAgreements[_agreementId].exporter */\n      0xffffffffffffffffffffffffffffffffffffffff\n      and\n        /* \"contracts/Adv2/crossbordertrade.sol\":1306:1316  msg.sender */\n      caller\n        /* \"contracts/Adv2/crossbordertrade.sol\":1306:1358  msg.sender == TradeAgreements[_agreementId].exporter */\n      0xffffffffffffffffffffffffffffffffffffffff\n      and\n      eq\n        /* \"contracts/Adv2/crossbordertrade.sol\":1298:1401  require(msg.sender == TradeAgreements[_agreementId].exporter, \"Not Authorised to perform this action.\") */\n      tag_74\n      jumpi\n      mload(0x40)\n      0x08c379a000000000000000000000000000000000000000000000000000000000\n      dup2\n      mstore\n      0x04\n      add\n      tag_75\n      swap1\n      tag_76\n      jump\t// in\n    tag_75:\n      mload(0x40)\n      dup1\n      swap2\n      sub\n      swap1\n      revert\n    tag_74:\n        /* \"contracts/Adv2/crossbordertrade.sol\":1458:1468  _newStatus */\n      dup1\n        /* \"contracts/Adv2/crossbordertrade.sol\":1411:1426  TradeAgreements */\n      0x00\n        /* \"contracts/Adv2/crossbordertrade.sol\":1411:1440  TradeAgreements[_agreementId] */\n      dup1\n        /* \"contracts/Adv2/crossbordertrade.sol\":1427:1439  _agreementId */\n      dup5\n        /* \"contracts/Adv2/crossbordertrade.sol\":1411:1440  TradeAgreements[_agreementId] */\n      dup2\n      mstore\n      0x20\n      add\n      swap1\n      dup2\n      mstore\n      0x20\n      add\n      0x00\n      keccak256\n        /* \"contracts/Adv2/crossbordertrade.sol\":1411:1455  TradeAgreements[_agreementId].shipmentStatus */\n      0x05\n      add\n        /* \"contracts/Adv2/crossbordertrade.sol\":1411:1468  TradeAgreements[_agreementId].shipmentStatus = _newStatus */\n      swap1\n      dup2\n      tag_77\n      swap2\n      swap1\n      tag_71\n      jump\t// in\n    tag_77:\n      pop\n        /* \"contracts/Adv2/crossbordertrade.sol\":1204:1475  function updateShipmentStatus(uint _agreementId, string memory _newStatus) external {... */\n      pop\n      pop\n      jump\t// out\n        /* \"contracts/Adv2/crossbordertrade.sol\":404:432  uint public agreementcounter */\n    tag_32:\n      sload(0x01)\n      dup2\n      jump\t// out\n        /* \"contracts/Adv2/crossbordertrade.sol\":1481:1779  function updateCompliantStatus(uint _agreementid, bool _isCompliant) external {... */\n    tag_39:\n        /* \"contracts/Adv2/crossbordertrade.sol\":1604:1619  TradeAgreements */\n      0x00\n        /* \"contracts/Adv2/crossbordertrade.sol\":1604:1633  TradeAgreements[_agreementid] */\n      dup1\n        /* \"contracts/Adv2/crossbordertrade.sol\":1620:1632  _agreementid */\n      dup4\n        /* \"contracts/Adv2/crossbordertrade.sol\":1604:1633  TradeAgreements[_agreementid] */\n      dup2\n      mstore\n      0x20\n      add\n      swap1\n      dup2\n      mstore\n      0x20\n      add\n      0x00\n      keccak256\n        /* \"contracts/Adv2/crossbordertrade.sol\":1604:1642  TradeAgreements[_agreementid].importer */\n      0x01\n      add\n      0x00\n      swap1\n      sload\n      swap1\n      0x0100\n      exp\n      swap1\n      div\n      0xffffffffffffffffffffffffffffffffffffffff\n      and\n        /* \"contracts/Adv2/crossbordertrade.sol\":1590:1642  msg.sender == TradeAgreements[_agreementid].importer */\n      0xffffffffffffffffffffffffffffffffffffffff\n      and\n        /* \"contracts/Adv2/crossbordertrade.sol\":1590:1600  msg.sender */\n      caller\n        /* \"contracts/Adv2/crossbordertrade.sol\":1590:1642  msg.sender == TradeAgreements[_agreementid].importer */\n      0xffffffffffffffffffffffffffffffffffffffff\n      and\n      eq\n        /* \"contracts/Adv2/crossbordertrade.sol\":1569:1706  require(... */\n      tag_79\n      jumpi\n      mload(0x40)\n      0x08c379a000000000000000000000000000000000000000000000000000000000\n      dup2\n      mstore\n      0x04\n      add\n      tag_80\n      swap1\n      tag_76\n      jump\t// in\n    tag_80:\n      mload(0x40)\n      dup1\n      swap2\n      sub\n      swap1\n      revert\n    tag_79:\n        /* \"contracts/Adv2/crossbordertrade.sol\":1760:1772  _isCompliant */\n      dup1\n        /* \"contracts/Adv2/crossbordertrade.sol\":1716:1731  TradeAgreements */\n      0x00\n        /* \"contracts/Adv2/crossbordertrade.sol\":1716:1745  TradeAgreements[_agreementid] */\n      dup1\n        /* \"contracts/Adv2/crossbordertrade.sol\":1732:1744  _agreementid */\n      dup5\n        /* \"contracts/Adv2/crossbordertrade.sol\":1716:1745  TradeAgreements[_agreementid] */\n      dup2\n      mstore\n      0x20\n      add\n      swap1\n      dup2\n      mstore\n      0x20\n      add\n      0x00\n      keccak256\n        /* \"contracts/Adv2/crossbordertrade.sol\":1716:1757  TradeAgreements[_agreementid].isCompliant */\n      0x06\n      add\n      0x00\n        /* \"contracts/Adv2/crossbordertrade.sol\":1716:1772  TradeAgreements[_agreementid].isCompliant = _isCompliant */\n      0x0100\n      exp\n      dup2\n      sload\n      dup2\n      0xff\n      mul\n      not\n      and\n      swap1\n      dup4\n      iszero\n      iszero\n      mul\n      or\n      swap1\n      sstore\n      pop\n        /* \"contracts/Adv2/crossbordertrade.sol\":1481:1779  function updateCompliantStatus(uint _agreementid, bool _isCompliant) external {... */\n      pop\n      pop\n      jump\t// out\n        /* \"contracts/Adv2/crossbordertrade.sol\":344:398  mapping(uint => TradeAgreement) public TradeAgreements */\n    tag_43:\n      mstore(0x20, 0x00)\n      dup1\n      0x00\n      mstore\n      keccak256(0x00, 0x40)\n      0x00\n      swap2\n      pop\n      swap1\n      pop\n      dup1\n      0x00\n      add\n      0x00\n      swap1\n      sload\n      swap1\n      0x0100\n      exp\n      swap1\n      div\n      0xffffffffffffffffffffffffffffffffffffffff\n      and\n      swap1\n      dup1\n      0x01\n      add\n      0x00\n      swap1\n      sload\n      swap1\n      0x0100\n      exp\n      swap1\n      div\n      0xffffffffffffffffffffffffffffffffffffffff\n      and\n      swap1\n      dup1\n      0x02\n      add\n      dup1\n      sload\n      tag_81\n      swap1\n      tag_57\n      jump\t// in\n    tag_81:\n      dup1\n      0x1f\n      add\n      0x20\n      dup1\n      swap2\n      div\n      mul\n      0x20\n      add\n      mload(0x40)\n      swap1\n      dup2\n      add\n      0x40\n      mstore\n      dup1\n      swap3\n      swap2\n      swap1\n      dup2\n      dup2\n      mstore\n      0x20\n      add\n      dup3\n      dup1\n      sload\n      tag_82\n      swap1\n      tag_57\n      jump\t// in\n    tag_82:\n      dup1\n      iszero\n      tag_83\n      jumpi\n      dup1\n      0x1f\n      lt\n      tag_84\n      jumpi\n      0x0100\n      dup1\n      dup4\n      sload\n      div\n      mul\n      dup4\n      mstore\n      swap2\n      0x20\n      add\n      swap2\n      jump(tag_83)\n    tag_84:\n      dup3\n      add\n      swap2\n      swap1\n      0x00\n      mstore\n      keccak256(0x00, 0x20)\n      swap1\n    tag_85:\n      dup2\n      sload\n      dup2\n      mstore\n      swap1\n      0x01\n      add\n      swap1\n      0x20\n      add\n      dup1\n      dup4\n      gt\n      tag_85\n      jumpi\n      dup3\n      swap1\n      sub\n      0x1f\n      and\n      dup3\n      add\n      swap2\n    tag_83:\n      pop\n      pop\n      pop\n      pop\n      pop\n      swap1\n      dup1\n      0x03\n      add\n      sload\n      swap1\n      dup1\n      0x04\n      add\n      sload\n      swap1\n      dup1\n      0x05\n      add\n      dup1\n      sload\n      tag_86\n      swap1\n      tag_57\n      jump\t// in\n    tag_86:\n      dup1\n      0x1f\n      add\n      0x20\n      dup1\n      swap2\n      div\n      mul\n      0x20\n      add\n      mload(0x40)\n      swap1\n      dup2\n      add\n      0x40\n      mstore\n      dup1\n      swap3\n      swap2\n      swap1\n      dup2\n      dup2\n      mstore\n      0x20\n      add\n      dup3\n      dup1\n      sload\n      tag_87\n      swap1\n      tag_57\n      jump\t// in\n    tag_87:\n      dup1\n      iszero\n      tag_88\n      jumpi\n      dup1\n      0x1f\n      lt\n      tag_89\n      jumpi\n      0x0100\n      dup1\n      dup4\n      sload\n      div\n      mul\n      dup4\n      mstore\n      swap2\n      0x20\n      add\n      swap2\n      jump(tag_88)\n    tag_89:\n      dup3\n      add\n      swap2\n      swap1\n      0x00\n      mstore\n      keccak256(0x00, 0x20)\n      swap1\n    tag_90:\n      dup2\n      sload\n      dup2\n      mstore\n      swap1\n      0x01\n      add\n      swap1\n      0x20\n      add\n      dup1\n      dup4\n      gt\n      tag_90\n      jumpi\n      dup3\n      swap1\n      sub\n      0x1f\n      and\n      dup3\n      add\n      swap2\n    tag_88:\n      pop\n      pop\n      pop\n      pop\n      pop\n      swap1\n      dup1\n      0x06\n      add\n      0x00\n      swap1\n      sload\n      swap1\n      0x0100\n      exp\n      swap1\n      div\n      0xff\n      and\n      swap1\n      dup1\n      0x06\n      add\n      0x01\n      swap1\n      sload\n      swap1\n      0x0100\n      exp\n      swap1\n      div\n      0xff\n      and\n      swap1\n      pop\n      dup9\n      jump\t// out\n        /* \"#utility.yul\":7:82   */\n    tag_91:\n        /* \"#utility.yul\":40:46   */\n      0x00\n        /* \"#utility.yul\":73:75   */\n      0x40\n        /* \"#utility.yul\":67:76   */\n      mload\n        /* \"#utility.yul\":57:76   */\n      swap1\n      pop\n        /* \"#utility.yul\":7:82   */\n      swap1\n      jump\t// out\n        /* \"#utility.yul\":88:205   */\n    tag_92:\n        /* \"#utility.yul\":197:198   */\n      0x00\n        /* \"#utility.yul\":194:195   */\n      dup1\n        /* \"#utility.yul\":187:199   */\n      revert\n        /* \"#utility.yul\":211:328   */\n    tag_93:\n        /* \"#utility.yul\":320:321   */\n      0x00\n        /* \"#utility.yul\":317:318   */\n      dup1\n        /* \"#utility.yul\":310:322   */\n      revert\n        /* \"#utility.yul\":334:411   */\n    tag_94:\n        /* \"#utility.yul\":371:378   */\n      0x00\n        /* \"#utility.yul\":400:405   */\n      dup2\n        /* \"#utility.yul\":389:405   */\n      swap1\n      pop\n        /* \"#utility.yul\":334:411   */\n      swap2\n      swap1\n      pop\n      jump\t// out\n        /* \"#utility.yul\":417:539   */\n    tag_95:\n        /* \"#utility.yul\":490:514   */\n      tag_152\n        /* \"#utility.yul\":508:513   */\n      dup2\n        /* \"#utility.yul\":490:514   */\n      tag_94\n      jump\t// in\n    tag_152:\n        /* \"#utility.yul\":483:488   */\n      dup2\n        /* \"#utility.yul\":480:515   */\n      eq\n        /* \"#utility.yul\":470:533   */\n      tag_153\n      jumpi\n        /* \"#utility.yul\":529:530   */\n      0x00\n        /* \"#utility.yul\":526:527   */\n      dup1\n        /* \"#utility.yul\":519:531   */\n      revert\n        /* \"#utility.yul\":470:533   */\n    tag_153:\n        /* \"#utility.yul\":417:539   */\n      pop\n      jump\t// out\n        /* \"#utility.yul\":545:684   */\n    tag_96:\n        /* \"#utility.yul\":591:596   */\n      0x00\n        /* \"#utility.yul\":629:635   */\n      dup2\n        /* \"#utility.yul\":616:636   */\n      calldataload\n        /* \"#utility.yul\":607:636   */\n      swap1\n      pop\n        /* \"#utility.yul\":645:678   */\n      tag_155\n        /* \"#utility.yul\":672:677   */\n      dup2\n        /* \"#utility.yul\":645:678   */\n      tag_95\n      jump\t// in\n    tag_155:\n        /* \"#utility.yul\":545:684   */\n      swap3\n      swap2\n      pop\n      pop\n      jump\t// out\n        /* \"#utility.yul\":690:1019   */\n    tag_12:\n        /* \"#utility.yul\":749:755   */\n      0x00\n        /* \"#utility.yul\":798:800   */\n      0x20\n        /* \"#utility.yul\":786:795   */\n      dup3\n        /* \"#utility.yul\":777:784   */\n      dup5\n        /* \"#utility.yul\":773:796   */\n      sub\n        /* \"#utility.yul\":769:801   */\n      slt\n        /* \"#utility.yul\":766:885   */\n      iszero\n      tag_157\n      jumpi\n        /* \"#utility.yul\":804:883   */\n      tag_158\n      tag_92\n      jump\t// in\n    tag_158:\n        /* \"#utility.yul\":766:885   */\n    tag_157:\n        /* \"#utility.yul\":924:925   */\n      0x00\n        /* \"#utility.yul\":949:1002   */\n      tag_159\n        /* \"#utility.yul\":994:1001   */\n      dup5\n        /* \"#utility.yul\":985:991   */\n      dup3\n        /* \"#utility.yul\":974:983   */\n      dup6\n        /* \"#utility.yul\":970:992   */\n      add\n        /* \"#utility.yul\":949:1002   */\n      tag_96\n      jump\t// in\n    tag_159:\n        /* \"#utility.yul\":939:1002   */\n      swap2\n      pop\n        /* \"#utility.yul\":895:1012   */\n      pop\n        /* \"#utility.yul\":690:1019   */\n      swap3\n      swap2\n      pop\n      pop\n      jump\t// out\n        /* \"#utility.yul\":1025:1151   */\n    tag_97:\n        /* \"#utility.yul\":1062:1069   */\n      0x00\n        /* \"#utility.yul\":1102:1144   */\n      0xffffffffffffffffffffffffffffffffffffffff\n        /* \"#utility.yul\":1095:1100   */\n      dup3\n        /* \"#utility.yul\":1091:1145   */\n      and\n        /* \"#utility.yul\":1080:1145   */\n      swap1\n      pop\n        /* \"#utility.yul\":1025:1151   */\n      swap2\n      swap1\n      pop\n      jump\t// out\n        /* \"#utility.yul\":1157:1253   */\n    tag_98:\n        /* \"#utility.yul\":1194:1201   */\n      0x00\n        /* \"#utility.yul\":1223:1247   */\n      tag_162\n        /* \"#utility.yul\":1241:1246   */\n      dup3\n        /* \"#utility.yul\":1223:1247   */\n      tag_97\n      jump\t// in\n    tag_162:\n        /* \"#utility.yul\":1212:1247   */\n      swap1\n      pop\n        /* \"#utility.yul\":1157:1253   */\n      swap2\n      swap1\n      pop\n      jump\t// out\n        /* \"#utility.yul\":1259:1377   */\n    tag_99:\n        /* \"#utility.yul\":1346:1370   */\n      tag_164\n        /* \"#utility.yul\":1364:1369   */\n      dup2\n        /* \"#utility.yul\":1346:1370   */\n      tag_98\n      jump\t// in\n    tag_164:\n        /* \"#utility.yul\":1341:1344   */\n      dup3\n        /* \"#utility.yul\":1334:1371   */\n      mstore\n        /* \"#utility.yul\":1259:1377   */\n      pop\n      pop\n      jump\t// out\n        /* \"#utility.yul\":1383:1482   */\n    tag_100:\n        /* \"#utility.yul\":1435:1441   */\n      0x00\n        /* \"#utility.yul\":1469:1474   */\n      dup2\n        /* \"#utility.yul\":1463:1475   */\n      mload\n        /* \"#utility.yul\":1453:1475   */\n      swap1\n      pop\n        /* \"#utility.yul\":1383:1482   */\n      swap2\n      swap1\n      pop\n      jump\t// out\n        /* \"#utility.yul\":1488:1657   */\n    tag_101:\n        /* \"#utility.yul\":1572:1583   */\n      0x00\n        /* \"#utility.yul\":1606:1612   */\n      dup3\n        /* \"#utility.yul\":1601:1604   */\n      dup3\n        /* \"#utility.yul\":1594:1613   */\n      mstore\n        /* \"#utility.yul\":1646:1650   */\n      0x20\n        /* \"#utility.yul\":1641:1644   */\n      dup3\n        /* \"#utility.yul\":1637:1651   */\n      add\n        /* \"#utility.yul\":1622:1651   */\n      swap1\n      pop\n        /* \"#utility.yul\":1488:1657   */\n      swap3\n      swap2\n      pop\n      pop\n      jump\t// out\n        /* \"#utility.yul\":1663:1802   */\n    tag_102:\n        /* \"#utility.yul\":1752:1758   */\n      dup3\n        /* \"#utility.yul\":1747:1750   */\n      dup2\n        /* \"#utility.yul\":1742:1745   */\n      dup4\n        /* \"#utility.yul\":1736:1759   */\n      mcopy\n        /* \"#utility.yul\":1793:1794   */\n      0x00\n        /* \"#utility.yul\":1784:1790   */\n      dup4\n        /* \"#utility.yul\":1779:1782   */\n      dup4\n        /* \"#utility.yul\":1775:1791   */\n      add\n        /* \"#utility.yul\":1768:1795   */\n      mstore\n        /* \"#utility.yul\":1663:1802   */\n      pop\n      pop\n      pop\n      jump\t// out\n        /* \"#utility.yul\":1808:1910   */\n    tag_103:\n        /* \"#utility.yul\":1849:1855   */\n      0x00\n        /* \"#utility.yul\":1900:1902   */\n      0x1f\n        /* \"#utility.yul\":1896:1903   */\n      not\n        /* \"#utility.yul\":1891:1893   */\n      0x1f\n        /* \"#utility.yul\":1884:1889   */\n      dup4\n        /* \"#utility.yul\":1880:1894   */\n      add\n        /* \"#utility.yul\":1876:1904   */\n      and\n        /* \"#utility.yul\":1866:1904   */\n      swap1\n      pop\n        /* \"#utility.yul\":1808:1910   */\n      swap2\n      swap1\n      pop\n      jump\t// out\n        /* \"#utility.yul\":1916:2293   */\n    tag_104:\n        /* \"#utility.yul\":2004:2007   */\n      0x00\n        /* \"#utility.yul\":2032:2071   */\n      tag_170\n        /* \"#utility.yul\":2065:2070   */\n      dup3\n        /* \"#utility.yul\":2032:2071   */\n      tag_100\n      jump\t// in\n    tag_170:\n        /* \"#utility.yul\":2087:2158   */\n      tag_171\n        /* \"#utility.yul\":2151:2157   */\n      dup2\n        /* \"#utility.yul\":2146:2149   */\n      dup6\n        /* \"#utility.yul\":2087:2158   */\n      tag_101\n      jump\t// in\n    tag_171:\n        /* \"#utility.yul\":2080:2158   */\n      swap4\n      pop\n        /* \"#utility.yul\":2167:2232   */\n      tag_172\n        /* \"#utility.yul\":2225:2231   */\n      dup2\n        /* \"#utility.yul\":2220:2223   */\n      dup6\n        /* \"#utility.yul\":2213:2217   */\n      0x20\n        /* \"#utility.yul\":2206:2211   */\n      dup7\n        /* \"#utility.yul\":2202:2218   */\n      add\n        /* \"#utility.yul\":2167:2232   */\n      tag_102\n      jump\t// in\n    tag_172:\n        /* \"#utility.yul\":2257:2286   */\n      tag_173\n        /* \"#utility.yul\":2279:2285   */\n      dup2\n        /* \"#utility.yul\":2257:2286   */\n      tag_103\n      jump\t// in\n    tag_173:\n        /* \"#utility.yul\":2252:2255   */\n      dup5\n        /* \"#utility.yul\":2248:2287   */\n      add\n        /* \"#utility.yul\":2241:2287   */\n      swap2\n      pop\n        /* \"#utility.yul\":2008:2293   */\n      pop\n        /* \"#utility.yul\":1916:2293   */\n      swap3\n      swap2\n      pop\n      pop\n      jump\t// out\n        /* \"#utility.yul\":2299:2417   */\n    tag_105:\n        /* \"#utility.yul\":2386:2410   */\n      tag_175\n        /* \"#utility.yul\":2404:2409   */\n      dup2\n        /* \"#utility.yul\":2386:2410   */\n      tag_94\n      jump\t// in\n    tag_175:\n        /* \"#utility.yul\":2381:2384   */\n      dup3\n        /* \"#utility.yul\":2374:2411   */\n      mstore\n        /* \"#utility.yul\":2299:2417   */\n      pop\n      pop\n      jump\t// out\n        /* \"#utility.yul\":2423:2513   */\n    tag_106:\n        /* \"#utility.yul\":2457:2464   */\n      0x00\n        /* \"#utility.yul\":2500:2505   */\n      dup2\n        /* \"#utility.yul\":2493:2506   */\n      iszero\n        /* \"#utility.yul\":2486:2507   */\n      iszero\n        /* \"#utility.yul\":2475:2507   */\n      swap1\n      pop\n        /* \"#utility.yul\":2423:2513   */\n      swap2\n      swap1\n      pop\n      jump\t// out\n        /* \"#utility.yul\":2519:2628   */\n    tag_107:\n        /* \"#utility.yul\":2600:2621   */\n      tag_178\n        /* \"#utility.yul\":2615:2620   */\n      dup2\n        /* \"#utility.yul\":2600:2621   */\n      tag_106\n      jump\t// in\n    tag_178:\n        /* \"#utility.yul\":2595:2598   */\n      dup3\n        /* \"#utility.yul\":2588:2622   */\n      mstore\n        /* \"#utility.yul\":2519:2628   */\n      pop\n      pop\n      jump\t// out\n        /* \"#utility.yul\":2634:3789   */\n    tag_19:\n        /* \"#utility.yul\":2951:2955   */\n      0x00\n        /* \"#utility.yul\":2989:2992   */\n      0x0100\n        /* \"#utility.yul\":2978:2987   */\n      dup3\n        /* \"#utility.yul\":2974:2993   */\n      add\n        /* \"#utility.yul\":2966:2993   */\n      swap1\n      pop\n        /* \"#utility.yul\":3003:3074   */\n      tag_180\n        /* \"#utility.yul\":3071:3072   */\n      0x00\n        /* \"#utility.yul\":3060:3069   */\n      dup4\n        /* \"#utility.yul\":3056:3073   */\n      add\n        /* \"#utility.yul\":3047:3053   */\n      dup12\n        /* \"#utility.yul\":3003:3074   */\n      tag_99\n      jump\t// in\n    tag_180:\n        /* \"#utility.yul\":3084:3156   */\n      tag_181\n        /* \"#utility.yul\":3152:3154   */\n      0x20\n        /* \"#utility.yul\":3141:3150   */\n      dup4\n        /* \"#utility.yul\":3137:3155   */\n      add\n        /* \"#utility.yul\":3128:3134   */\n      dup11\n        /* \"#utility.yul\":3084:3156   */\n      tag_99\n      jump\t// in\n    tag_181:\n        /* \"#utility.yul\":3203:3212   */\n      dup2\n        /* \"#utility.yul\":3197:3201   */\n      dup2\n        /* \"#utility.yul\":3193:3213   */\n      sub\n        /* \"#utility.yul\":3188:3190   */\n      0x40\n        /* \"#utility.yul\":3177:3186   */\n      dup4\n        /* \"#utility.yul\":3173:3191   */\n      add\n        /* \"#utility.yul\":3166:3214   */\n      mstore\n        /* \"#utility.yul\":3231:3309   */\n      tag_182\n        /* \"#utility.yul\":3304:3308   */\n      dup2\n        /* \"#utility.yul\":3295:3301   */\n      dup10\n        /* \"#utility.yul\":3231:3309   */\n      tag_104\n      jump\t// in\n    tag_182:\n        /* \"#utility.yul\":3223:3309   */\n      swap1\n      pop\n        /* \"#utility.yul\":3319:3391   */\n      tag_183\n        /* \"#utility.yul\":3387:3389   */\n      0x60\n        /* \"#utility.yul\":3376:3385   */\n      dup4\n        /* \"#utility.yul\":3372:3390   */\n      add\n        /* \"#utility.yul\":3363:3369   */\n      dup9\n        /* \"#utility.yul\":3319:3391   */\n      tag_105\n      jump\t// in\n    tag_183:\n        /* \"#utility.yul\":3401:3474   */\n      tag_184\n        /* \"#utility.yul\":3469:3472   */\n      0x80\n        /* \"#utility.yul\":3458:3467   */\n      dup4\n        /* \"#utility.yul\":3454:3473   */\n      add\n        /* \"#utility.yul\":3445:3451   */\n      dup8\n        /* \"#utility.yul\":3401:3474   */\n      tag_105\n      jump\t// in\n    tag_184:\n        /* \"#utility.yul\":3522:3531   */\n      dup2\n        /* \"#utility.yul\":3516:3520   */\n      dup2\n        /* \"#utility.yul\":3512:3532   */\n      sub\n        /* \"#utility.yul\":3506:3509   */\n      0xa0\n        /* \"#utility.yul\":3495:3504   */\n      dup4\n        /* \"#utility.yul\":3491:3510   */\n      add\n        /* \"#utility.yul\":3484:3533   */\n      mstore\n        /* \"#utility.yul\":3550:3628   */\n      tag_185\n        /* \"#utility.yul\":3623:3627   */\n      dup2\n        /* \"#utility.yul\":3614:3620   */\n      dup7\n        /* \"#utility.yul\":3550:3628   */\n      tag_104\n      jump\t// in\n    tag_185:\n        /* \"#utility.yul\":3542:3628   */\n      swap1\n      pop\n        /* \"#utility.yul\":3638:3705   */\n      tag_186\n        /* \"#utility.yul\":3700:3703   */\n      0xc0\n        /* \"#utility.yul\":3689:3698   */\n      dup4\n        /* \"#utility.yul\":3685:3704   */\n      add\n        /* \"#utility.yul\":3676:3682   */\n      dup6\n        /* \"#utility.yul\":3638:3705   */\n      tag_107\n      jump\t// in\n    tag_186:\n        /* \"#utility.yul\":3715:3782   */\n      tag_187\n        /* \"#utility.yul\":3777:3780   */\n      0xe0\n        /* \"#utility.yul\":3766:3775   */\n      dup4\n        /* \"#utility.yul\":3762:3781   */\n      add\n        /* \"#utility.yul\":3753:3759   */\n      dup5\n        /* \"#utility.yul\":3715:3782   */\n      tag_107\n      jump\t// in\n    tag_187:\n        /* \"#utility.yul\":2634:3789   */\n      swap10\n      swap9\n      pop\n      pop\n      pop\n      pop\n      pop\n      pop\n      pop\n      pop\n      pop\n      jump\t// out\n        /* \"#utility.yul\":3795:3917   */\n    tag_108:\n        /* \"#utility.yul\":3868:3892   */\n      tag_189\n        /* \"#utility.yul\":3886:3891   */\n      dup2\n        /* \"#utility.yul\":3868:3892   */\n      tag_98\n      jump\t// in\n    tag_189:\n        /* \"#utility.yul\":3861:3866   */\n      dup2\n        /* \"#utility.yul\":3858:3893   */\n      eq\n        /* \"#utility.yul\":3848:3911   */\n      tag_190\n      jumpi\n        /* \"#utility.yul\":3907:3908   */\n      0x00\n        /* \"#utility.yul\":3904:3905   */\n      dup1\n        /* \"#utility.yul\":3897:3909   */\n      revert\n        /* \"#utility.yul\":3848:3911   */\n    tag_190:\n        /* \"#utility.yul\":3795:3917   */\n      pop\n      jump\t// out\n        /* \"#utility.yul\":3923:4062   */\n    tag_109:\n        /* \"#utility.yul\":3969:3974   */\n      0x00\n        /* \"#utility.yul\":4007:4013   */\n      dup2\n        /* \"#utility.yul\":3994:4014   */\n      calldataload\n        /* \"#utility.yul\":3985:4014   */\n      swap1\n      pop\n        /* \"#utility.yul\":4023:4056   */\n      tag_192\n        /* \"#utility.yul\":4050:4055   */\n      dup2\n        /* \"#utility.yul\":4023:4056   */\n      tag_108\n      jump\t// in\n    tag_192:\n        /* \"#utility.yul\":3923:4062   */\n      swap3\n      swap2\n      pop\n      pop\n      jump\t// out\n        /* \"#utility.yul\":4068:4185   */\n    tag_110:\n        /* \"#utility.yul\":4177:4178   */\n      0x00\n        /* \"#utility.yul\":4174:4175   */\n      dup1\n        /* \"#utility.yul\":4167:4179   */\n      revert\n        /* \"#utility.yul\":4191:4308   */\n    tag_111:\n        /* \"#utility.yul\":4300:4301   */\n      0x00\n        /* \"#utility.yul\":4297:4298   */\n      dup1\n        /* \"#utility.yul\":4290:4302   */\n      revert\n        /* \"#utility.yul\":4314:4494   */\n    tag_112:\n        /* \"#utility.yul\":4362:4439   */\n      0x4e487b7100000000000000000000000000000000000000000000000000000000\n        /* \"#utility.yul\":4359:4360   */\n      0x00\n        /* \"#utility.yul\":4352:4440   */\n      mstore\n        /* \"#utility.yul\":4459:4463   */\n      0x41\n        /* \"#utility.yul\":4456:4457   */\n      0x04\n        /* \"#utility.yul\":4449:4464   */\n      mstore\n        /* \"#utility.yul\":4483:4487   */\n      0x24\n        /* \"#utility.yul\":4480:4481   */\n      0x00\n        /* \"#utility.yul\":4473:4488   */\n      revert\n        /* \"#utility.yul\":4500:4781   */\n    tag_113:\n        /* \"#utility.yul\":4583:4610   */\n      tag_197\n        /* \"#utility.yul\":4605:4609   */\n      dup3\n        /* \"#utility.yul\":4583:4610   */\n      tag_103\n      jump\t// in\n    tag_197:\n        /* \"#utility.yul\":4575:4581   */\n      dup2\n        /* \"#utility.yul\":4571:4611   */\n      add\n        /* \"#utility.yul\":4713:4719   */\n      dup2\n        /* \"#utility.yul\":4701:4711   */\n      dup2\n        /* \"#utility.yul\":4698:4720   */\n      lt\n        /* \"#utility.yul\":4677:4695   */\n      0xffffffffffffffff\n        /* \"#utility.yul\":4665:4675   */\n      dup3\n        /* \"#utility.yul\":4662:4696   */\n      gt\n        /* \"#utility.yul\":4659:4721   */\n      or\n        /* \"#utility.yul\":4656:4744   */\n      iszero\n      tag_198\n      jumpi\n        /* \"#utility.yul\":4724:4742   */\n      tag_199\n      tag_112\n      jump\t// in\n    tag_199:\n        /* \"#utility.yul\":4656:4744   */\n    tag_198:\n        /* \"#utility.yul\":4764:4774   */\n      dup1\n        /* \"#utility.yul\":4760:4762   */\n      0x40\n        /* \"#utility.yul\":4753:4775   */\n      mstore\n        /* \"#utility.yul\":4543:4781   */\n      pop\n        /* \"#utility.yul\":4500:4781   */\n      pop\n      pop\n      jump\t// out\n        /* \"#utility.yul\":4787:4916   */\n    tag_114:\n        /* \"#utility.yul\":4821:4827   */\n      0x00\n        /* \"#utility.yul\":4848:4868   */\n      tag_201\n      tag_91\n      jump\t// in\n    tag_201:\n        /* \"#utility.yul\":4838:4868   */\n      swap1\n      pop\n        /* \"#utility.yul\":4877:4910   */\n      tag_202\n        /* \"#utility.yul\":4905:4909   */\n      dup3\n        /* \"#utility.yul\":4897:4903   */\n      dup3\n        /* \"#utility.yul\":4877:4910   */\n      tag_113\n      jump\t// in\n    tag_202:\n        /* \"#utility.yul\":4787:4916   */\n      swap2\n      swap1\n      pop\n      jump\t// out\n        /* \"#utility.yul\":4922:5230   */\n    tag_115:\n        /* \"#utility.yul\":4984:4988   */\n      0x00\n        /* \"#utility.yul\":5074:5092   */\n      0xffffffffffffffff\n        /* \"#utility.yul\":5066:5072   */\n      dup3\n        /* \"#utility.yul\":5063:5093   */\n      gt\n        /* \"#utility.yul\":5060:5116   */\n      iszero\n      tag_204\n      jumpi\n        /* \"#utility.yul\":5096:5114   */\n      tag_205\n      tag_112\n      jump\t// in\n    tag_205:\n        /* \"#utility.yul\":5060:5116   */\n    tag_204:\n        /* \"#utility.yul\":5134:5163   */\n      tag_206\n        /* \"#utility.yul\":5156:5162   */\n      dup3\n        /* \"#utility.yul\":5134:5163   */\n      tag_103\n      jump\t// in\n    tag_206:\n        /* \"#utility.yul\":5126:5163   */\n      swap1\n      pop\n        /* \"#utility.yul\":5218:5222   */\n      0x20\n        /* \"#utility.yul\":5212:5216   */\n      dup2\n        /* \"#utility.yul\":5208:5223   */\n      add\n        /* \"#utility.yul\":5200:5223   */\n      swap1\n      pop\n        /* \"#utility.yul\":4922:5230   */\n      swap2\n      swap1\n      pop\n      jump\t// out\n        /* \"#utility.yul\":5236:5384   */\n    tag_116:\n        /* \"#utility.yul\":5334:5340   */\n      dup3\n        /* \"#utility.yul\":5329:5332   */\n      dup2\n        /* \"#utility.yul\":5324:5327   */\n      dup4\n        /* \"#utility.yul\":5311:5341   */\n      calldatacopy\n        /* \"#utility.yul\":5375:5376   */\n      0x00\n        /* \"#utility.yul\":5366:5372   */\n      dup4\n        /* \"#utility.yul\":5361:5364   */\n      dup4\n        /* \"#utility.yul\":5357:5373   */\n      add\n        /* \"#utility.yul\":5350:5377   */\n      mstore\n        /* \"#utility.yul\":5236:5384   */\n      pop\n      pop\n      pop\n      jump\t// out\n        /* \"#utility.yul\":5390:5815   */\n    tag_117:\n        /* \"#utility.yul\":5468:5473   */\n      0x00\n        /* \"#utility.yul\":5493:5559   */\n      tag_209\n        /* \"#utility.yul\":5509:5558   */\n      tag_210\n        /* \"#utility.yul\":5551:5557   */\n      dup5\n        /* \"#utility.yul\":5509:5558   */\n      tag_115\n      jump\t// in\n    tag_210:\n        /* \"#utility.yul\":5493:5559   */\n      tag_114\n      jump\t// in\n    tag_209:\n        /* \"#utility.yul\":5484:5559   */\n      swap1\n      pop\n        /* \"#utility.yul\":5582:5588   */\n      dup3\n        /* \"#utility.yul\":5575:5580   */\n      dup2\n        /* \"#utility.yul\":5568:5589   */\n      mstore\n        /* \"#utility.yul\":5620:5624   */\n      0x20\n        /* \"#utility.yul\":5613:5618   */\n      dup2\n        /* \"#utility.yul\":5609:5625   */\n      add\n        /* \"#utility.yul\":5658:5661   */\n      dup5\n        /* \"#utility.yul\":5649:5655   */\n      dup5\n        /* \"#utility.yul\":5644:5647   */\n      dup5\n        /* \"#utility.yul\":5640:5656   */\n      add\n        /* \"#utility.yul\":5637:5662   */\n      gt\n        /* \"#utility.yul\":5634:5746   */\n      iszero\n      tag_211\n      jumpi\n        /* \"#utility.yul\":5665:5744   */\n      tag_212\n      tag_111\n      jump\t// in\n    tag_212:\n        /* \"#utility.yul\":5634:5746   */\n    tag_211:\n        /* \"#utility.yul\":5755:5809   */\n      tag_213\n        /* \"#utility.yul\":5802:5808   */\n      dup5\n        /* \"#utility.yul\":5797:5800   */\n      dup3\n        /* \"#utility.yul\":5792:5795   */\n      dup6\n        /* \"#utility.yul\":5755:5809   */\n      tag_116\n      jump\t// in\n    tag_213:\n        /* \"#utility.yul\":5474:5815   */\n      pop\n        /* \"#utility.yul\":5390:5815   */\n      swap4\n      swap3\n      pop\n      pop\n      pop\n      jump\t// out\n        /* \"#utility.yul\":5835:6175   */\n    tag_118:\n        /* \"#utility.yul\":5891:5896   */\n      0x00\n        /* \"#utility.yul\":5940:5943   */\n      dup3\n        /* \"#utility.yul\":5933:5937   */\n      0x1f\n        /* \"#utility.yul\":5925:5931   */\n      dup4\n        /* \"#utility.yul\":5921:5938   */\n      add\n        /* \"#utility.yul\":5917:5944   */\n      slt\n        /* \"#utility.yul\":5907:6029   */\n      tag_215\n      jumpi\n        /* \"#utility.yul\":5948:6027   */\n      tag_216\n      tag_110\n      jump\t// in\n    tag_216:\n        /* \"#utility.yul\":5907:6029   */\n    tag_215:\n        /* \"#utility.yul\":6065:6071   */\n      dup2\n        /* \"#utility.yul\":6052:6072   */\n      calldataload\n        /* \"#utility.yul\":6090:6169   */\n      tag_217\n        /* \"#utility.yul\":6165:6168   */\n      dup5\n        /* \"#utility.yul\":6157:6163   */\n      dup3\n        /* \"#utility.yul\":6150:6154   */\n      0x20\n        /* \"#utility.yul\":6142:6148   */\n      dup7\n        /* \"#utility.yul\":6138:6155   */\n      add\n        /* \"#utility.yul\":6090:6169   */\n      tag_117\n      jump\t// in\n    tag_217:\n        /* \"#utility.yul\":6081:6169   */\n      swap2\n      pop\n        /* \"#utility.yul\":5897:6175   */\n      pop\n        /* \"#utility.yul\":5835:6175   */\n      swap3\n      swap2\n      pop\n      pop\n      jump\t// out\n        /* \"#utility.yul\":6181:7126   */\n    tag_23:\n        /* \"#utility.yul\":6277:6283   */\n      0x00\n        /* \"#utility.yul\":6285:6291   */\n      dup1\n        /* \"#utility.yul\":6293:6299   */\n      0x00\n        /* \"#utility.yul\":6301:6307   */\n      dup1\n        /* \"#utility.yul\":6350:6353   */\n      0x80\n        /* \"#utility.yul\":6338:6347   */\n      dup6\n        /* \"#utility.yul\":6329:6336   */\n      dup8\n        /* \"#utility.yul\":6325:6348   */\n      sub\n        /* \"#utility.yul\":6321:6354   */\n      slt\n        /* \"#utility.yul\":6318:6438   */\n      iszero\n      tag_219\n      jumpi\n        /* \"#utility.yul\":6357:6436   */\n      tag_220\n      tag_92\n      jump\t// in\n    tag_220:\n        /* \"#utility.yul\":6318:6438   */\n    tag_219:\n        /* \"#utility.yul\":6477:6478   */\n      0x00\n        /* \"#utility.yul\":6502:6555   */\n      tag_221\n        /* \"#utility.yul\":6547:6554   */\n      dup8\n        /* \"#utility.yul\":6538:6544   */\n      dup3\n        /* \"#utility.yul\":6527:6536   */\n      dup9\n        /* \"#utility.yul\":6523:6545   */\n      add\n        /* \"#utility.yul\":6502:6555   */\n      tag_109\n      jump\t// in\n    tag_221:\n        /* \"#utility.yul\":6492:6555   */\n      swap5\n      pop\n        /* \"#utility.yul\":6448:6565   */\n      pop\n        /* \"#utility.yul\":6632:6634   */\n      0x20\n        /* \"#utility.yul\":6621:6630   */\n      dup6\n        /* \"#utility.yul\":6617:6635   */\n      add\n        /* \"#utility.yul\":6604:6636   */\n      calldataload\n        /* \"#utility.yul\":6663:6681   */\n      0xffffffffffffffff\n        /* \"#utility.yul\":6655:6661   */\n      dup2\n        /* \"#utility.yul\":6652:6682   */\n      gt\n        /* \"#utility.yul\":6649:6766   */\n      iszero\n      tag_222\n      jumpi\n        /* \"#utility.yul\":6685:6764   */\n      tag_223\n      tag_93\n      jump\t// in\n    tag_223:\n        /* \"#utility.yul\":6649:6766   */\n    tag_222:\n        /* \"#utility.yul\":6790:6853   */\n      tag_224\n        /* \"#utility.yul\":6845:6852   */\n      dup8\n        /* \"#utility.yul\":6836:6842   */\n      dup3\n        /* \"#utility.yul\":6825:6834   */\n      dup9\n        /* \"#utility.yul\":6821:6843   */\n      add\n        /* \"#utility.yul\":6790:6853   */\n      tag_118\n      jump\t// in\n    tag_224:\n        /* \"#utility.yul\":6780:6853   */\n      swap4\n      pop\n        /* \"#utility.yul\":6575:6863   */\n      pop\n        /* \"#utility.yul\":6902:6904   */\n      0x40\n        /* \"#utility.yul\":6928:6981   */\n      tag_225\n        /* \"#utility.yul\":6973:6980   */\n      dup8\n        /* \"#utility.yul\":6964:6970   */\n      dup3\n        /* \"#utility.yul\":6953:6962   */\n      dup9\n        /* \"#utility.yul\":6949:6971   */\n      add\n        /* \"#utility.yul\":6928:6981   */\n      tag_96\n      jump\t// in\n    tag_225:\n        /* \"#utility.yul\":6918:6981   */\n      swap3\n      pop\n        /* \"#utility.yul\":6873:6991   */\n      pop\n        /* \"#utility.yul\":7030:7032   */\n      0x60\n        /* \"#utility.yul\":7056:7109   */\n      tag_226\n        /* \"#utility.yul\":7101:7108   */\n      dup8\n        /* \"#utility.yul\":7092:7098   */\n      dup3\n        /* \"#utility.yul\":7081:7090   */\n      dup9\n        /* \"#utility.yul\":7077:7099   */\n      add\n        /* \"#utility.yul\":7056:7109   */\n      tag_96\n      jump\t// in\n    tag_226:\n        /* \"#utility.yul\":7046:7109   */\n      swap2\n      pop\n        /* \"#utility.yul\":7001:7119   */\n      pop\n        /* \"#utility.yul\":6181:7126   */\n      swap3\n      swap6\n      swap2\n      swap5\n      pop\n      swap3\n      pop\n      jump\t// out\n        /* \"#utility.yul\":7132:7786   */\n    tag_28:\n        /* \"#utility.yul\":7210:7216   */\n      0x00\n        /* \"#utility.yul\":7218:7224   */\n      dup1\n        /* \"#utility.yul\":7267:7269   */\n      0x40\n        /* \"#utility.yul\":7255:7264   */\n      dup4\n        /* \"#utility.yul\":7246:7253   */\n      dup6\n        /* \"#utility.yul\":7242:7265   */\n      sub\n        /* \"#utility.yul\":7238:7270   */\n      slt\n        /* \"#utility.yul\":7235:7354   */\n      iszero\n      tag_228\n      jumpi\n        /* \"#utility.yul\":7273:7352   */\n      tag_229\n      tag_92\n      jump\t// in\n    tag_229:\n        /* \"#utility.yul\":7235:7354   */\n    tag_228:\n        /* \"#utility.yul\":7393:7394   */\n      0x00\n        /* \"#utility.yul\":7418:7471   */\n      tag_230\n        /* \"#utility.yul\":7463:7470   */\n      dup6\n        /* \"#utility.yul\":7454:7460   */\n      dup3\n        /* \"#utility.yul\":7443:7452   */\n      dup7\n        /* \"#utility.yul\":7439:7461   */\n      add\n        /* \"#utility.yul\":7418:7471   */\n      tag_96\n      jump\t// in\n    tag_230:\n        /* \"#utility.yul\":7408:7471   */\n      swap3\n      pop\n        /* \"#utility.yul\":7364:7481   */\n      pop\n        /* \"#utility.yul\":7548:7550   */\n      0x20\n        /* \"#utility.yul\":7537:7546   */\n      dup4\n        /* \"#utility.yul\":7533:7551   */\n      add\n        /* \"#utility.yul\":7520:7552   */\n      calldataload\n        /* \"#utility.yul\":7579:7597   */\n      0xffffffffffffffff\n        /* \"#utility.yul\":7571:7577   */\n      dup2\n        /* \"#utility.yul\":7568:7598   */\n      gt\n        /* \"#utility.yul\":7565:7682   */\n      iszero\n      tag_231\n      jumpi\n        /* \"#utility.yul\":7601:7680   */\n      tag_232\n      tag_93\n      jump\t// in\n    tag_232:\n        /* \"#utility.yul\":7565:7682   */\n    tag_231:\n        /* \"#utility.yul\":7706:7769   */\n      tag_233\n        /* \"#utility.yul\":7761:7768   */\n      dup6\n        /* \"#utility.yul\":7752:7758   */\n      dup3\n        /* \"#utility.yul\":7741:7750   */\n      dup7\n        /* \"#utility.yul\":7737:7759   */\n      add\n        /* \"#utility.yul\":7706:7769   */\n      tag_118\n      jump\t// in\n    tag_233:\n        /* \"#utility.yul\":7696:7769   */\n      swap2\n      pop\n        /* \"#utility.yul\":7491:7779   */\n      pop\n        /* \"#utility.yul\":7132:7786   */\n      swap3\n      pop\n      swap3\n      swap1\n      pop\n      jump\t// out\n        /* \"#utility.yul\":7792:8014   */\n    tag_34:\n        /* \"#utility.yul\":7885:7889   */\n      0x00\n        /* \"#utility.yul\":7923:7925   */\n      0x20\n        /* \"#utility.yul\":7912:7921   */\n      dup3\n        /* \"#utility.yul\":7908:7926   */\n      add\n        /* \"#utility.yul\":7900:7926   */\n      swap1\n      pop\n        /* \"#utility.yul\":7936:8007   */\n      tag_235\n        /* \"#utility.yul\":8004:8005   */\n      0x00\n        /* \"#utility.yul\":7993:8002   */\n      dup4\n        /* \"#utility.yul\":7989:8006   */\n      add\n        /* \"#utility.yul\":7980:7986   */\n      dup5\n        /* \"#utility.yul\":7936:8007   */\n      tag_105\n      jump\t// in\n    tag_235:\n        /* \"#utility.yul\":7792:8014   */\n      swap3\n      swap2\n      pop\n      pop\n      jump\t// out\n        /* \"#utility.yul\":8020:8136   */\n    tag_119:\n        /* \"#utility.yul\":8090:8111   */\n      tag_237\n        /* \"#utility.yul\":8105:8110   */\n      dup2\n        /* \"#utility.yul\":8090:8111   */\n      tag_106\n      jump\t// in\n    tag_237:\n        /* \"#utility.yul\":8083:8088   */\n      dup2\n        /* \"#utility.yul\":8080:8112   */\n      eq\n        /* \"#utility.yul\":8070:8130   */\n      tag_238\n      jumpi\n        /* \"#utility.yul\":8126:8127   */\n      0x00\n        /* \"#utility.yul\":8123:8124   */\n      dup1\n        /* \"#utility.yul\":8116:8128   */\n      revert\n        /* \"#utility.yul\":8070:8130   */\n    tag_238:\n        /* \"#utility.yul\":8020:8136   */\n      pop\n      jump\t// out\n        /* \"#utility.yul\":8142:8275   */\n    tag_120:\n        /* \"#utility.yul\":8185:8190   */\n      0x00\n        /* \"#utility.yul\":8223:8229   */\n      dup2\n        /* \"#utility.yul\":8210:8230   */\n      calldataload\n        /* \"#utility.yul\":8201:8230   */\n      swap1\n      pop\n        /* \"#utility.yul\":8239:8269   */\n      tag_240\n        /* \"#utility.yul\":8263:8268   */\n      dup2\n        /* \"#utility.yul\":8239:8269   */\n      tag_119\n      jump\t// in\n    tag_240:\n        /* \"#utility.yul\":8142:8275   */\n      swap3\n      swap2\n      pop\n      pop\n      jump\t// out\n        /* \"#utility.yul\":8281:8749   */\n    tag_38:\n        /* \"#utility.yul\":8346:8352   */\n      0x00\n        /* \"#utility.yul\":8354:8360   */\n      dup1\n        /* \"#utility.yul\":8403:8405   */\n      0x40\n        /* \"#utility.yul\":8391:8400   */\n      dup4\n        /* \"#utility.yul\":8382:8389   */\n      dup6\n        /* \"#utility.yul\":8378:8401   */\n      sub\n        /* \"#utility.yul\":8374:8406   */\n      slt\n        /* \"#utility.yul\":8371:8490   */\n      iszero\n      tag_242\n      jumpi\n        /* \"#utility.yul\":8409:8488   */\n      tag_243\n      tag_92\n      jump\t// in\n    tag_243:\n        /* \"#utility.yul\":8371:8490   */\n    tag_242:\n        /* \"#utility.yul\":8529:8530   */\n      0x00\n        /* \"#utility.yul\":8554:8607   */\n      tag_244\n        /* \"#utility.yul\":8599:8606   */\n      dup6\n        /* \"#utility.yul\":8590:8596   */\n      dup3\n        /* \"#utility.yul\":8579:8588   */\n      dup7\n        /* \"#utility.yul\":8575:8597   */\n      add\n        /* \"#utility.yul\":8554:8607   */\n      tag_96\n      jump\t// in\n    tag_244:\n        /* \"#utility.yul\":8544:8607   */\n      swap3\n      pop\n        /* \"#utility.yul\":8500:8617   */\n      pop\n        /* \"#utility.yul\":8656:8658   */\n      0x20\n        /* \"#utility.yul\":8682:8732   */\n      tag_245\n        /* \"#utility.yul\":8724:8731   */\n      dup6\n        /* \"#utility.yul\":8715:8721   */\n      dup3\n        /* \"#utility.yul\":8704:8713   */\n      dup7\n        /* \"#utility.yul\":8700:8722   */\n      add\n        /* \"#utility.yul\":8682:8732   */\n      tag_120\n      jump\t// in\n    tag_245:\n        /* \"#utility.yul\":8672:8732   */\n      swap2\n      pop\n        /* \"#utility.yul\":8627:8742   */\n      pop\n        /* \"#utility.yul\":8281:8749   */\n      swap3\n      pop\n      swap3\n      swap1\n      pop\n      jump\t// out\n        /* \"#utility.yul\":8755:8979   */\n    tag_121:\n        /* \"#utility.yul\":8895:8929   */\n      0x4e6f7420617574686f726973656420746f20706572666f726d20746869732061\n        /* \"#utility.yul\":8891:8892   */\n      0x00\n        /* \"#utility.yul\":8883:8889   */\n      dup3\n        /* \"#utility.yul\":8879:8893   */\n      add\n        /* \"#utility.yul\":8872:8930   */\n      mstore\n        /* \"#utility.yul\":8964:8971   */\n      0x6374696f6e000000000000000000000000000000000000000000000000000000\n        /* \"#utility.yul\":8959:8961   */\n      0x20\n        /* \"#utility.yul\":8951:8957   */\n      dup3\n        /* \"#utility.yul\":8947:8962   */\n      add\n        /* \"#utility.yul\":8940:8972   */\n      mstore\n        /* \"#utility.yul\":8755:8979   */\n      pop\n      jump\t// out\n        /* \"#utility.yul\":8985:9351   */\n    tag_122:\n        /* \"#utility.yul\":9127:9130   */\n      0x00\n        /* \"#utility.yul\":9148:9215   */\n      tag_248\n        /* \"#utility.yul\":9212:9214   */\n      0x25\n        /* \"#utility.yul\":9207:9210   */\n      dup4\n        /* \"#utility.yul\":9148:9215   */\n      tag_101\n      jump\t// in\n    tag_248:\n        /* \"#utility.yul\":9141:9215   */\n      swap2\n      pop\n        /* \"#utility.yul\":9224:9317   */\n      tag_249\n        /* \"#utility.yul\":9313:9316   */\n      dup3\n        /* \"#utility.yul\":9224:9317   */\n      tag_121\n      jump\t// in\n    tag_249:\n        /* \"#utility.yul\":9342:9344   */\n      0x40\n        /* \"#utility.yul\":9337:9340   */\n      dup3\n        /* \"#utility.yul\":9333:9345   */\n      add\n        /* \"#utility.yul\":9326:9345   */\n      swap1\n      pop\n        /* \"#utility.yul\":8985:9351   */\n      swap2\n      swap1\n      pop\n      jump\t// out\n        /* \"#utility.yul\":9357:9776   */\n    tag_48:\n        /* \"#utility.yul\":9523:9527   */\n      0x00\n        /* \"#utility.yul\":9561:9563   */\n      0x20\n        /* \"#utility.yul\":9550:9559   */\n      dup3\n        /* \"#utility.yul\":9546:9564   */\n      add\n        /* \"#utility.yul\":9538:9564   */\n      swap1\n      pop\n        /* \"#utility.yul\":9610:9619   */\n      dup2\n        /* \"#utility.yul\":9604:9608   */\n      dup2\n        /* \"#utility.yul\":9600:9620   */\n      sub\n        /* \"#utility.yul\":9596:9597   */\n      0x00\n        /* \"#utility.yul\":9585:9594   */\n      dup4\n        /* \"#utility.yul\":9581:9598   */\n      add\n        /* \"#utility.yul\":9574:9621   */\n      mstore\n        /* \"#utility.yul\":9638:9769   */\n      tag_251\n        /* \"#utility.yul\":9764:9768   */\n      dup2\n        /* \"#utility.yul\":9638:9769   */\n      tag_122\n      jump\t// in\n    tag_251:\n        /* \"#utility.yul\":9630:9769   */\n      swap1\n      pop\n        /* \"#utility.yul\":9357:9776   */\n      swap2\n      swap1\n      pop\n      jump\t// out\n        /* \"#utility.yul\":9782:9959   */\n    tag_123:\n        /* \"#utility.yul\":9922:9951   */\n      0x5061796d656e7420616d6f756e7420697320696e636f72726563740000000000\n        /* \"#utility.yul\":9918:9919   */\n      0x00\n        /* \"#utility.yul\":9910:9916   */\n      dup3\n        /* \"#utility.yul\":9906:9920   */\n      add\n        /* \"#utility.yul\":9899:9952   */\n      mstore\n        /* \"#utility.yul\":9782:9959   */\n      pop\n      jump\t// out\n        /* \"#utility.yul\":9965:10331   */\n    tag_124:\n        /* \"#utility.yul\":10107:10110   */\n      0x00\n        /* \"#utility.yul\":10128:10195   */\n      tag_254\n        /* \"#utility.yul\":10192:10194   */\n      0x1b\n        /* \"#utility.yul\":10187:10190   */\n      dup4\n        /* \"#utility.yul\":10128:10195   */\n      tag_101\n      jump\t// in\n    tag_254:\n        /* \"#utility.yul\":10121:10195   */\n      swap2\n      pop\n        /* \"#utility.yul\":10204:10297   */\n      tag_255\n        /* \"#utility.yul\":10293:10296   */\n      dup3\n        /* \"#utility.yul\":10204:10297   */\n      tag_123\n      jump\t// in\n    tag_255:\n        /* \"#utility.yul\":10322:10324   */\n      0x20\n        /* \"#utility.yul\":10317:10320   */\n      dup3\n        /* \"#utility.yul\":10313:10325   */\n      add\n        /* \"#utility.yul\":10306:10325   */\n      swap1\n      pop\n        /* \"#utility.yul\":9965:10331   */\n      swap2\n      swap1\n      pop\n      jump\t// out\n        /* \"#utility.yul\":10337:10756   */\n    tag_51:\n        /* \"#utility.yul\":10503:10507   */\n      0x00\n        /* \"#utility.yul\":10541:10543   */\n      0x20\n        /* \"#utility.yul\":10530:10539   */\n      dup3\n        /* \"#utility.yul\":10526:10544   */\n      add\n        /* \"#utility.yul\":10518:10544   */\n      swap1\n      pop\n        /* \"#utility.yul\":10590:10599   */\n      dup2\n        /* \"#utility.yul\":10584:10588   */\n      dup2\n        /* \"#utility.yul\":10580:10600   */\n      sub\n        /* \"#utility.yul\":10576:10577   */\n      0x00\n        /* \"#utility.yul\":10565:10574   */\n      dup4\n        /* \"#utility.yul\":10561:10578   */\n      add\n        /* \"#utility.yul\":10554:10601   */\n      mstore\n        /* \"#utility.yul\":10618:10749   */\n      tag_257\n        /* \"#utility.yul\":10744:10748   */\n      dup2\n        /* \"#utility.yul\":10618:10749   */\n      tag_124\n      jump\t// in\n    tag_257:\n        /* \"#utility.yul\":10610:10749   */\n      swap1\n      pop\n        /* \"#utility.yul\":10337:10756   */\n      swap2\n      swap1\n      pop\n      jump\t// out\n        /* \"#utility.yul\":10762:10941   */\n    tag_125:\n        /* \"#utility.yul\":10902:10933   */\n      0x5061796d656e742068617320616c7265616479206265656e20646f6e65000000\n        /* \"#utility.yul\":10898:10899   */\n      0x00\n        /* \"#utility.yul\":10890:10896   */\n      dup3\n        /* \"#utility.yul\":10886:10900   */\n      add\n        /* \"#utility.yul\":10879:10934   */\n      mstore\n        /* \"#utility.yul\":10762:10941   */\n      pop\n      jump\t// out\n        /* \"#utility.yul\":10947:11313   */\n    tag_126:\n        /* \"#utility.yul\":11089:11092   */\n      0x00\n        /* \"#utility.yul\":11110:11177   */\n      tag_260\n        /* \"#utility.yul\":11174:11176   */\n      0x1d\n        /* \"#utility.yul\":11169:11172   */\n      dup4\n        /* \"#utility.yul\":11110:11177   */\n      tag_101\n      jump\t// in\n    tag_260:\n        /* \"#utility.yul\":11103:11177   */\n      swap2\n      pop\n        /* \"#utility.yul\":11186:11279   */\n      tag_261\n        /* \"#utility.yul\":11275:11278   */\n      dup3\n        /* \"#utility.yul\":11186:11279   */\n      tag_125\n      jump\t// in\n    tag_261:\n        /* \"#utility.yul\":11304:11306   */\n      0x20\n        /* \"#utility.yul\":11299:11302   */\n      dup3\n        /* \"#utility.yul\":11295:11307   */\n      add\n        /* \"#utility.yul\":11288:11307   */\n      swap1\n      pop\n        /* \"#utility.yul\":10947:11313   */\n      swap2\n      swap1\n      pop\n      jump\t// out\n        /* \"#utility.yul\":11319:11738   */\n    tag_54:\n        /* \"#utility.yul\":11485:11489   */\n      0x00\n        /* \"#utility.yul\":11523:11525   */\n      0x20\n        /* \"#utility.yul\":11512:11521   */\n      dup3\n        /* \"#utility.yul\":11508:11526   */\n      add\n        /* \"#utility.yul\":11500:11526   */\n      swap1\n      pop\n        /* \"#utility.yul\":11572:11581   */\n      dup2\n        /* \"#utility.yul\":11566:11570   */\n      dup2\n        /* \"#utility.yul\":11562:11582   */\n      sub\n        /* \"#utility.yul\":11558:11559   */\n      0x00\n        /* \"#utility.yul\":11547:11556   */\n      dup4\n        /* \"#utility.yul\":11543:11560   */\n      add\n        /* \"#utility.yul\":11536:11583   */\n      mstore\n        /* \"#utility.yul\":11600:11731   */\n      tag_263\n        /* \"#utility.yul\":11726:11730   */\n      dup2\n        /* \"#utility.yul\":11600:11731   */\n      tag_126\n      jump\t// in\n    tag_263:\n        /* \"#utility.yul\":11592:11731   */\n      swap1\n      pop\n        /* \"#utility.yul\":11319:11738   */\n      swap2\n      swap1\n      pop\n      jump\t// out\n        /* \"#utility.yul\":11744:11924   */\n    tag_127:\n        /* \"#utility.yul\":11792:11869   */\n      0x4e487b7100000000000000000000000000000000000000000000000000000000\n        /* \"#utility.yul\":11789:11790   */\n      0x00\n        /* \"#utility.yul\":11782:11870   */\n      mstore\n        /* \"#utility.yul\":11889:11893   */\n      0x22\n        /* \"#utility.yul\":11886:11887   */\n      0x04\n        /* \"#utility.yul\":11879:11894   */\n      mstore\n        /* \"#utility.yul\":11913:11917   */\n      0x24\n        /* \"#utility.yul\":11910:11911   */\n      0x00\n        /* \"#utility.yul\":11903:11918   */\n      revert\n        /* \"#utility.yul\":11930:12250   */\n    tag_57:\n        /* \"#utility.yul\":11974:11980   */\n      0x00\n        /* \"#utility.yul\":12011:12012   */\n      0x02\n        /* \"#utility.yul\":12005:12009   */\n      dup3\n        /* \"#utility.yul\":12001:12013   */\n      div\n        /* \"#utility.yul\":11991:12013   */\n      swap1\n      pop\n        /* \"#utility.yul\":12058:12059   */\n      0x01\n        /* \"#utility.yul\":12052:12056   */\n      dup3\n        /* \"#utility.yul\":12048:12060   */\n      and\n        /* \"#utility.yul\":12079:12097   */\n      dup1\n        /* \"#utility.yul\":12069:12150   */\n      tag_266\n      jumpi\n        /* \"#utility.yul\":12135:12139   */\n      0x7f\n        /* \"#utility.yul\":12127:12133   */\n      dup3\n        /* \"#utility.yul\":12123:12140   */\n      and\n        /* \"#utility.yul\":12113:12140   */\n      swap2\n      pop\n        /* \"#utility.yul\":12069:12150   */\n    tag_266:\n        /* \"#utility.yul\":12197:12199   */\n      0x20\n        /* \"#utility.yul\":12189:12195   */\n      dup3\n        /* \"#utility.yul\":12186:12200   */\n      lt\n        /* \"#utility.yul\":12166:12184   */\n      dup2\n        /* \"#utility.yul\":12163:12201   */\n      sub\n        /* \"#utility.yul\":12160:12244   */\n      tag_267\n      jumpi\n        /* \"#utility.yul\":12216:12234   */\n      tag_268\n      tag_127\n      jump\t// in\n    tag_268:\n        /* \"#utility.yul\":12160:12244   */\n    tag_267:\n        /* \"#utility.yul\":11981:12250   */\n      pop\n        /* \"#utility.yul\":11930:12250   */\n      swap2\n      swap1\n      pop\n      jump\t// out\n        /* \"#utility.yul\":12256:12436   */\n    tag_128:\n        /* \"#utility.yul\":12304:12381   */\n      0x4e487b7100000000000000000000000000000000000000000000000000000000\n        /* \"#utility.yul\":12301:12302   */\n      0x00\n        /* \"#utility.yul\":12294:12382   */\n      mstore\n        /* \"#utility.yul\":12401:12405   */\n      0x11\n        /* \"#utility.yul\":12398:12399   */\n      0x04\n        /* \"#utility.yul\":12391:12406   */\n      mstore\n        /* \"#utility.yul\":12425:12429   */\n      0x24\n        /* \"#utility.yul\":12422:12423   */\n      0x00\n        /* \"#utility.yul\":12415:12430   */\n      revert\n        /* \"#utility.yul\":12442:12675   */\n    tag_69:\n        /* \"#utility.yul\":12481:12484   */\n      0x00\n        /* \"#utility.yul\":12504:12528   */\n      tag_271\n        /* \"#utility.yul\":12522:12527   */\n      dup3\n        /* \"#utility.yul\":12504:12528   */\n      tag_94\n      jump\t// in\n    tag_271:\n        /* \"#utility.yul\":12495:12528   */\n      swap2\n      pop\n        /* \"#utility.yul\":12550:12616   */\n      0xffffffffffffffffffffffffffffffffffffffffffffffffffffffffffffffff\n        /* \"#utility.yul\":12543:12548   */\n      dup3\n        /* \"#utility.yul\":12540:12617   */\n      sub\n        /* \"#utility.yul\":12537:12640   */\n      tag_272\n      jumpi\n        /* \"#utility.yul\":12620:12638   */\n      tag_273\n      tag_128\n      jump\t// in\n    tag_273:\n        /* \"#utility.yul\":12537:12640   */\n    tag_272:\n        /* \"#utility.yul\":12667:12668   */\n      0x01\n        /* \"#utility.yul\":12660:12665   */\n      dup3\n        /* \"#utility.yul\":12656:12669   */\n      add\n        /* \"#utility.yul\":12649:12669   */\n      swap1\n      pop\n        /* \"#utility.yul\":12442:12675   */\n      swap2\n      swap1\n      pop\n      jump\t// out\n        /* \"#utility.yul\":12681:12822   */\n    tag_129:\n        /* \"#utility.yul\":12730:12734   */\n      0x00\n        /* \"#utility.yul\":12753:12756   */\n      dup2\n        /* \"#utility.yul\":12745:12756   */\n      swap1\n      pop\n        /* \"#utility.yul\":12776:12779   */\n      dup2\n        /* \"#utility.yul\":12773:12774   */\n      0x00\n        /* \"#utility.yul\":12766:12780   */\n      mstore\n        /* \"#utility.yul\":12810:12814   */\n      0x20\n        /* \"#utility.yul\":12807:12808   */\n      0x00\n        /* \"#utility.yul\":12797:12815   */\n      keccak256\n        /* \"#utility.yul\":12789:12815   */\n      swap1\n      pop\n        /* \"#utility.yul\":12681:12822   */\n      swap2\n      swap1\n      pop\n      jump\t// out\n        /* \"#utility.yul\":12828:12921   */\n    tag_130:\n        /* \"#utility.yul\":12865:12871   */\n      0x00\n        /* \"#utility.yul\":12912:12914   */\n      0x20\n        /* \"#utility.yul\":12907:12909   */\n      0x1f\n        /* \"#utility.yul\":12900:12905   */\n      dup4\n        /* \"#utility.yul\":12896:12910   */\n      add\n        /* \"#utility.yul\":12892:12915   */\n      div\n        /* \"#utility.yul\":12882:12915   */\n      swap1\n      pop\n        /* \"#utility.yul\":12828:12921   */\n      swap2\n      swap1\n      pop\n      jump\t// out\n        /* \"#utility.yul\":12927:13034   */\n    tag_131:\n        /* \"#utility.yul\":12971:12979   */\n      0x00\n        /* \"#utility.yul\":13021:13026   */\n      dup3\n        /* \"#utility.yul\":13015:13019   */\n      dup3\n        /* \"#utility.yul\":13011:13027   */\n      shl\n        /* \"#utility.yul\":12990:13027   */\n      swap1\n      pop\n        /* \"#utility.yul\":12927:13034   */\n      swap3\n      swap2\n      pop\n      pop\n      jump\t// out\n        /* \"#utility.yul\":13040:13433   */\n    tag_132:\n        /* \"#utility.yul\":13109:13115   */\n      0x00\n        /* \"#utility.yul\":13159:13160   */\n      0x08\n        /* \"#utility.yul\":13147:13157   */\n      dup4\n        /* \"#utility.yul\":13143:13161   */\n      mul\n        /* \"#utility.yul\":13182:13279   */\n      tag_278\n        /* \"#utility.yul\":13212:13278   */\n      0xffffffffffffffffffffffffffffffffffffffffffffffffffffffffffffffff\n        /* \"#utility.yul\":13201:13210   */\n      dup3\n        /* \"#utility.yul\":13182:13279   */\n      tag_131\n      jump\t// in\n    tag_278:\n        /* \"#utility.yul\":13300:13339   */\n      tag_279\n        /* \"#utility.yul\":13330:13338   */\n      dup7\n        /* \"#utility.yul\":13319:13328   */\n      dup4\n        /* \"#utility.yul\":13300:13339   */\n      tag_131\n      jump\t// in\n    tag_279:\n        /* \"#utility.yul\":13288:13339   */\n      swap6\n      pop\n        /* \"#utility.yul\":13372:13376   */\n      dup1\n        /* \"#utility.yul\":13368:13377   */\n      not\n        /* \"#utility.yul\":13361:13366   */\n      dup5\n        /* \"#utility.yul\":13357:13378   */\n      and\n        /* \"#utility.yul\":13348:13378   */\n      swap4\n      pop\n        /* \"#utility.yul\":13421:13425   */\n      dup1\n        /* \"#utility.yul\":13411:13419   */\n      dup7\n        /* \"#utility.yul\":13407:13426   */\n      and\n        /* \"#utility.yul\":13400:13405   */\n      dup5\n        /* \"#utility.yul\":13397:13427   */\n      or\n        /* \"#utility.yul\":13387:13427   */\n      swap3\n      pop\n        /* \"#utility.yul\":13116:13433   */\n      pop\n      pop\n        /* \"#utility.yul\":13040:13433   */\n      swap4\n      swap3\n      pop\n      pop\n      pop\n      jump\t// out\n        /* \"#utility.yul\":13439:13499   */\n    tag_133:\n        /* \"#utility.yul\":13467:13470   */\n      0x00\n        /* \"#utility.yul\":13488:13493   */\n      dup2\n        /* \"#utility.yul\":13481:13493   */\n      swap1\n      pop\n        /* \"#utility.yul\":13439:13499   */\n      swap2\n      swap1\n      pop\n      jump\t// out\n        /* \"#utility.yul\":13505:13647   */\n    tag_134:\n        /* \"#utility.yul\":13555:13564   */\n      0x00\n        /* \"#utility.yul\":13588:13641   */\n      tag_282\n        /* \"#utility.yul\":13606:13640   */\n      tag_283\n        /* \"#utility.yul\":13615:13639   */\n      tag_284\n        /* \"#utility.yul\":13633:13638   */\n      dup5\n        /* \"#utility.yul\":13615:13639   */\n      tag_94\n      jump\t// in\n    tag_284:\n        /* \"#utility.yul\":13606:13640   */\n      tag_133\n      jump\t// in\n    tag_283:\n        /* \"#utility.yul\":13588:13641   */\n      tag_94\n      jump\t// in\n    tag_282:\n        /* \"#utility.yul\":13575:13641   */\n      swap1\n      pop\n        /* \"#utility.yul\":13505:13647   */\n      swap2\n      swap1\n      pop\n      jump\t// out\n        /* \"#utility.yul\":13653:13728   */\n    tag_135:\n        /* \"#utility.yul\":13696:13699   */\n      0x00\n        /* \"#utility.yul\":13717:13722   */\n      dup2\n        /* \"#utility.yul\":13710:13722   */\n      swap1\n      pop\n        /* \"#utility.yul\":13653:13728   */\n      swap2\n      swap1\n      pop\n      jump\t// out\n        /* \"#utility.yul\":13734:14003   */\n    tag_136:\n        /* \"#utility.yul\":13844:13883   */\n      tag_287\n        /* \"#utility.yul\":13875:13882   */\n      dup4\n        /* \"#utility.yul\":13844:13883   */\n      tag_134\n      jump\t// in\n    tag_287:\n        /* \"#utility.yul\":13905:13996   */\n      tag_288\n        /* \"#utility.yul\":13954:13995   */\n      tag_289\n        /* \"#utility.yul\":13978:13994   */\n      dup3\n        /* \"#utility.yul\":13954:13995   */\n      tag_135\n      jump\t// in\n    tag_289:\n        /* \"#utility.yul\":13946:13952   */\n      dup5\n        /* \"#utility.yul\":13939:13943   */\n      dup5\n        /* \"#utility.yul\":13933:13944   */\n      sload\n        /* \"#utility.yul\":13905:13996   */\n      tag_132\n      jump\t// in\n    tag_288:\n        /* \"#utility.yul\":13899:13903   */\n      dup3\n        /* \"#utility.yul\":13892:13997   */\n      sstore\n        /* \"#utility.yul\":13810:14003   */\n      pop\n        /* \"#utility.yul\":13734:14003   */\n      pop\n      pop\n      pop\n      jump\t// out\n        /* \"#utility.yul\":14009:14082   */\n    tag_137:\n        /* \"#utility.yul\":14054:14057   */\n      0x00\n        /* \"#utility.yul\":14009:14082   */\n      swap1\n      jump\t// out\n        /* \"#utility.yul\":14088:14277   */\n    tag_138:\n        /* \"#utility.yul\":14165:14197   */\n      tag_292\n      tag_137\n      jump\t// in\n    tag_292:\n        /* \"#utility.yul\":14206:14271   */\n      tag_293\n        /* \"#utility.yul\":14264:14270   */\n      dup2\n        /* \"#utility.yul\":14256:14262   */\n      dup5\n        /* \"#utility.yul\":14250:14254   */\n      dup5\n        /* \"#utility.yul\":14206:14271   */\n      tag_136\n      jump\t// in\n    tag_293:\n        /* \"#utility.yul\":14141:14277   */\n      pop\n        /* \"#utility.yul\":14088:14277   */\n      pop\n      pop\n      jump\t// out\n        /* \"#utility.yul\":14283:14469   */\n    tag_139:\n        /* \"#utility.yul\":14343:14463   */\n    tag_295:\n        /* \"#utility.yul\":14360:14363   */\n      dup2\n        /* \"#utility.yul\":14353:14358   */\n      dup2\n        /* \"#utility.yul\":14350:14364   */\n      lt\n        /* \"#utility.yul\":14343:14463   */\n      iszero\n      tag_297\n      jumpi\n        /* \"#utility.yul\":14414:14453   */\n      tag_298\n        /* \"#utility.yul\":14451:14452   */\n      0x00\n        /* \"#utility.yul\":14444:14449   */\n      dup3\n        /* \"#utility.yul\":14414:14453   */\n      tag_138\n      jump\t// in\n    tag_298:\n        /* \"#utility.yul\":14387:14388   */\n      0x01\n        /* \"#utility.yul\":14380:14385   */\n      dup2\n        /* \"#utility.yul\":14376:14389   */\n      add\n        /* \"#utility.yul\":14367:14389   */\n      swap1\n      pop\n        /* \"#utility.yul\":14343:14463   */\n      jump(tag_295)\n    tag_297:\n        /* \"#utility.yul\":14283:14469   */\n      pop\n      pop\n      jump\t// out\n        /* \"#utility.yul\":14475:15018   */\n    tag_140:\n        /* \"#utility.yul\":14576:14578   */\n      0x1f\n        /* \"#utility.yul\":14571:14574   */\n      dup3\n        /* \"#utility.yul\":14568:14579   */\n      gt\n        /* \"#utility.yul\":14565:15011   */\n      iszero\n      tag_300\n      jumpi\n        /* \"#utility.yul\":14610:14648   */\n      tag_301\n        /* \"#utility.yul\":14642:14647   */\n      dup2\n        /* \"#utility.yul\":14610:14648   */\n      tag_129\n      jump\t// in\n    tag_301:\n        /* \"#utility.yul\":14694:14723   */\n      tag_302\n        /* \"#utility.yul\":14712:14722   */\n      dup5\n        /* \"#utility.yul\":14694:14723   */\n      tag_130\n      jump\t// in\n    tag_302:\n        /* \"#utility.yul\":14684:14692   */\n      dup2\n        /* \"#utility.yul\":14680:14724   */\n      add\n        /* \"#utility.yul\":14877:14879   */\n      0x20\n        /* \"#utility.yul\":14865:14875   */\n      dup6\n        /* \"#utility.yul\":14862:14880   */\n      lt\n        /* \"#utility.yul\":14859:14908   */\n      iszero\n      tag_303\n      jumpi\n        /* \"#utility.yul\":14898:14906   */\n      dup2\n        /* \"#utility.yul\":14883:14906   */\n      swap1\n      pop\n        /* \"#utility.yul\":14859:14908   */\n    tag_303:\n        /* \"#utility.yul\":14921:15001   */\n      tag_304\n        /* \"#utility.yul\":14977:14999   */\n      tag_305\n        /* \"#utility.yul\":14995:14998   */\n      dup6\n        /* \"#utility.yul\":14977:14999   */\n      tag_130\n      jump\t// in\n    tag_305:\n        /* \"#utility.yul\":14967:14975   */\n      dup4\n        /* \"#utility.yul\":14963:15000   */\n      add\n        /* \"#utility.yul\":14950:14961   */\n      dup3\n        /* \"#utility.yul\":14921:15001   */\n      tag_139\n      jump\t// in\n    tag_304:\n        /* \"#utility.yul\":14580:15011   */\n      pop\n      pop\n        /* \"#utility.yul\":14565:15011   */\n    tag_300:\n        /* \"#utility.yul\":14475:15018   */\n      pop\n      pop\n      pop\n      jump\t// out\n        /* \"#utility.yul\":15024:15141   */\n    tag_141:\n        /* \"#utility.yul\":15078:15086   */\n      0x00\n        /* \"#utility.yul\":15128:15133   */\n      dup3\n        /* \"#utility.yul\":15122:15126   */\n      dup3\n        /* \"#utility.yul\":15118:15134   */\n      shr\n        /* \"#utility.yul\":15097:15134   */\n      swap1\n      pop\n        /* \"#utility.yul\":15024:15141   */\n      swap3\n      swap2\n      pop\n      pop\n      jump\t// out\n        /* \"#utility.yul\":15147:15316   */\n    tag_142:\n        /* \"#utility.yul\":15191:15197   */\n      0x00\n        /* \"#utility.yul\":15224:15275   */\n      tag_308\n        /* \"#utility.yul\":15272:15273   */\n      0x00\n        /* \"#utility.yul\":15268:15274   */\n      not\n        /* \"#utility.yul\":15260:15265   */\n      dup5\n        /* \"#utility.yul\":15257:15258   */\n      0x08\n        /* \"#utility.yul\":15253:15266   */\n      mul\n        /* \"#utility.yul\":15224:15275   */\n      tag_141\n      jump\t// in\n    tag_308:\n        /* \"#utility.yul\":15220:15276   */\n      not\n        /* \"#utility.yul\":15305:15309   */\n      dup1\n        /* \"#utility.yul\":15299:15303   */\n      dup4\n        /* \"#utility.yul\":15295:15310   */\n      and\n        /* \"#utility.yul\":15285:15310   */\n      swap2\n      pop\n        /* \"#utility.yul\":15198:15316   */\n      pop\n        /* \"#utility.yul\":15147:15316   */\n      swap3\n      swap2\n      pop\n      pop\n      jump\t// out\n        /* \"#utility.yul\":15321:15616   */\n    tag_143:\n        /* \"#utility.yul\":15397:15401   */\n      0x00\n        /* \"#utility.yul\":15543:15572   */\n      tag_310\n        /* \"#utility.yul\":15568:15571   */\n      dup4\n        /* \"#utility.yul\":15562:15566   */\n      dup4\n        /* \"#utility.yul\":15543:15572   */\n      tag_142\n      jump\t// in\n    tag_310:\n        /* \"#utility.yul\":15535:15572   */\n      swap2\n      pop\n        /* \"#utility.yul\":15605:15608   */\n      dup3\n        /* \"#utility.yul\":15602:15603   */\n      0x02\n        /* \"#utility.yul\":15598:15609   */\n      mul\n        /* \"#utility.yul\":15592:15596   */\n      dup3\n        /* \"#utility.yul\":15589:15610   */\n      or\n        /* \"#utility.yul\":15581:15610   */\n      swap1\n      pop\n        /* \"#utility.yul\":15321:15616   */\n      swap3\n      swap2\n      pop\n      pop\n      jump\t// out\n        /* \"#utility.yul\":15621:17016   */\n    tag_71:\n        /* \"#utility.yul\":15738:15775   */\n      tag_312\n        /* \"#utility.yul\":15771:15774   */\n      dup3\n        /* \"#utility.yul\":15738:15775   */\n      tag_100\n      jump\t// in\n    tag_312:\n        /* \"#utility.yul\":15840:15858   */\n      0xffffffffffffffff\n        /* \"#utility.yul\":15832:15838   */\n      dup2\n        /* \"#utility.yul\":15829:15859   */\n      gt\n        /* \"#utility.yul\":15826:15882   */\n      iszero\n      tag_313\n      jumpi\n        /* \"#utility.yul\":15862:15880   */\n      tag_314\n      tag_112\n      jump\t// in\n    tag_314:\n        /* \"#utility.yul\":15826:15882   */\n    tag_313:\n        /* \"#utility.yul\":15906:15944   */\n      tag_315\n        /* \"#utility.yul\":15938:15942   */\n      dup3\n        /* \"#utility.yul\":15932:15943   */\n      sload\n        /* \"#utility.yul\":15906:15944   */\n      tag_57\n      jump\t// in\n    tag_315:\n        /* \"#utility.yul\":15991:16058   */\n      tag_316\n        /* \"#utility.yul\":16051:16057   */\n      dup3\n        /* \"#utility.yul\":16043:16049   */\n      dup3\n        /* \"#utility.yul\":16037:16041   */\n      dup6\n        /* \"#utility.yul\":15991:16058   */\n      tag_140\n      jump\t// in\n    tag_316:\n        /* \"#utility.yul\":16085:16086   */\n      0x00\n        /* \"#utility.yul\":16109:16113   */\n      0x20\n        /* \"#utility.yul\":16096:16113   */\n      swap1\n      pop\n        /* \"#utility.yul\":16141:16143   */\n      0x1f\n        /* \"#utility.yul\":16133:16139   */\n      dup4\n        /* \"#utility.yul\":16130:16144   */\n      gt\n        /* \"#utility.yul\":16158:16159   */\n      0x01\n        /* \"#utility.yul\":16153:16771   */\n      dup2\n      eq\n      tag_318\n      jumpi\n        /* \"#utility.yul\":16815:16816   */\n      0x00\n        /* \"#utility.yul\":16832:16838   */\n      dup5\n        /* \"#utility.yul\":16829:16906   */\n      iszero\n      tag_319\n      jumpi\n        /* \"#utility.yul\":16881:16890   */\n      dup3\n        /* \"#utility.yul\":16876:16879   */\n      dup8\n        /* \"#utility.yul\":16872:16891   */\n      add\n        /* \"#utility.yul\":16866:16892   */\n      mload\n        /* \"#utility.yul\":16857:16892   */\n      swap1\n      pop\n        /* \"#utility.yul\":16829:16906   */\n    tag_319:\n        /* \"#utility.yul\":16932:16999   */\n      tag_320\n        /* \"#utility.yul\":16992:16998   */\n      dup6\n        /* \"#utility.yul\":16985:16990   */\n      dup3\n        /* \"#utility.yul\":16932:16999   */\n      tag_143\n      jump\t// in\n    tag_320:\n        /* \"#utility.yul\":16926:16930   */\n      dup7\n        /* \"#utility.yul\":16919:17000   */\n      sstore\n        /* \"#utility.yul\":16788:17010   */\n      pop\n        /* \"#utility.yul\":16123:17010   */\n      jump(tag_317)\n        /* \"#utility.yul\":16153:16771   */\n    tag_318:\n        /* \"#utility.yul\":16205:16209   */\n      0x1f\n        /* \"#utility.yul\":16201:16210   */\n      not\n        /* \"#utility.yul\":16193:16199   */\n      dup5\n        /* \"#utility.yul\":16189:16211   */\n      and\n        /* \"#utility.yul\":16239:16276   */\n      tag_321\n        /* \"#utility.yul\":16271:16275   */\n      dup7\n        /* \"#utility.yul\":16239:16276   */\n      tag_129\n      jump\t// in\n    tag_321:\n        /* \"#utility.yul\":16298:16299   */\n      0x00\n        /* \"#utility.yul\":16312:16520   */\n    tag_322:\n        /* \"#utility.yul\":16326:16333   */\n      dup3\n        /* \"#utility.yul\":16323:16324   */\n      dup2\n        /* \"#utility.yul\":16320:16334   */\n      lt\n        /* \"#utility.yul\":16312:16520   */\n      iszero\n      tag_324\n      jumpi\n        /* \"#utility.yul\":16405:16414   */\n      dup5\n        /* \"#utility.yul\":16400:16403   */\n      dup10\n        /* \"#utility.yul\":16396:16415   */\n      add\n        /* \"#utility.yul\":16390:16416   */\n      mload\n        /* \"#utility.yul\":16382:16388   */\n      dup3\n        /* \"#utility.yul\":16375:16417   */\n      sstore\n        /* \"#utility.yul\":16456:16457   */\n      0x01\n        /* \"#utility.yul\":16448:16454   */\n      dup3\n        /* \"#utility.yul\":16444:16458   */\n      add\n        /* \"#utility.yul\":16434:16458   */\n      swap2\n      pop\n        /* \"#utility.yul\":16503:16505   */\n      0x20\n        /* \"#utility.yul\":16492:16501   */\n      dup6\n        /* \"#utility.yul\":16488:16506   */\n      add\n        /* \"#utility.yul\":16475:16506   */\n      swap5\n      pop\n        /* \"#utility.yul\":16349:16353   */\n      0x20\n        /* \"#utility.yul\":16346:16347   */\n      dup2\n        /* \"#utility.yul\":16342:16354   */\n      add\n        /* \"#utility.yul\":16337:16354   */\n      swap1\n      pop\n        /* \"#utility.yul\":16312:16520   */\n      jump(tag_322)\n    tag_324:\n        /* \"#utility.yul\":16548:16554   */\n      dup7\n        /* \"#utility.yul\":16539:16546   */\n      dup4\n        /* \"#utility.yul\":16536:16555   */\n      lt\n        /* \"#utility.yul\":16533:16712   */\n      iszero\n      tag_325\n      jumpi\n        /* \"#utility.yul\":16606:16615   */\n      dup5\n        /* \"#utility.yul\":16601:16604   */\n      dup10\n        /* \"#utility.yul\":16597:16616   */\n      add\n        /* \"#utility.yul\":16591:16617   */\n      mload\n        /* \"#utility.yul\":16649:16697   */\n      tag_326\n        /* \"#utility.yul\":16691:16695   */\n      0x1f\n        /* \"#utility.yul\":16683:16689   */\n      dup10\n        /* \"#utility.yul\":16679:16696   */\n      and\n        /* \"#utility.yul\":16668:16677   */\n      dup3\n        /* \"#utility.yul\":16649:16697   */\n      tag_142\n      jump\t// in\n    tag_326:\n        /* \"#utility.yul\":16641:16647   */\n      dup4\n        /* \"#utility.yul\":16634:16698   */\n      sstore\n        /* \"#utility.yul\":16556:16712   */\n      pop\n        /* \"#utility.yul\":16533:16712   */\n    tag_325:\n        /* \"#utility.yul\":16758:16759   */\n      0x01\n        /* \"#utility.yul\":16754:16755   */\n      0x02\n        /* \"#utility.yul\":16746:16752   */\n      dup9\n        /* \"#utility.yul\":16742:16756   */\n      mul\n        /* \"#utility.yul\":16738:16760   */\n      add\n        /* \"#utility.yul\":16732:16736   */\n      dup9\n        /* \"#utility.yul\":16725:16761   */\n      sstore\n        /* \"#utility.yul\":16160:16771   */\n      pop\n      pop\n      pop\n        /* \"#utility.yul\":16123:17010   */\n    tag_317:\n      pop\n        /* \"#utility.yul\":15713:17016   */\n      pop\n      pop\n      pop\n        /* \"#utility.yul\":15621:17016   */\n      pop\n      pop\n      jump\t// out\n        /* \"#utility.yul\":17022:17247   */\n    tag_144:\n        /* \"#utility.yul\":17162:17196   */\n      0x4e6f7420417574686f726973656420746f20706572666f726d20746869732061\n        /* \"#utility.yul\":17158:17159   */\n      0x00\n        /* \"#utility.yul\":17150:17156   */\n      dup3\n        /* \"#utility.yul\":17146:17160   */\n      add\n        /* \"#utility.yul\":17139:17197   */\n      mstore\n        /* \"#utility.yul\":17231:17239   */\n      0x6374696f6e2e0000000000000000000000000000000000000000000000000000\n        /* \"#utility.yul\":17226:17228   */\n      0x20\n        /* \"#utility.yul\":17218:17224   */\n      dup3\n        /* \"#utility.yul\":17214:17229   */\n      add\n        /* \"#utility.yul\":17207:17240   */\n      mstore\n        /* \"#utility.yul\":17022:17247   */\n      pop\n      jump\t// out\n        /* \"#utility.yul\":17253:17619   */\n    tag_145:\n        /* \"#utility.yul\":17395:17398   */\n      0x00\n        /* \"#utility.yul\":17416:17483   */\n      tag_329\n        /* \"#utility.yul\":17480:17482   */\n      0x26\n        /* \"#utility.yul\":17475:17478   */\n      dup4\n        /* \"#utility.yul\":17416:17483   */\n      tag_101\n      jump\t// in\n    tag_329:\n        /* \"#utility.yul\":17409:17483   */\n      swap2\n      pop\n        /* \"#utility.yul\":17492:17585   */\n      tag_330\n        /* \"#utility.yul\":17581:17584   */\n      dup3\n        /* \"#utility.yul\":17492:17585   */\n      tag_144\n      jump\t// in\n    tag_330:\n        /* \"#utility.yul\":17610:17612   */\n      0x40\n        /* \"#utility.yul\":17605:17608   */\n      dup3\n        /* \"#utility.yul\":17601:17613   */\n      add\n        /* \"#utility.yul\":17594:17613   */\n      swap1\n      pop\n        /* \"#utility.yul\":17253:17619   */\n      swap2\n      swap1\n      pop\n      jump\t// out\n        /* \"#utility.yul\":17625:18044   */\n    tag_76:\n        /* \"#utility.yul\":17791:17795   */\n      0x00\n        /* \"#utility.yul\":17829:17831   */\n      0x20\n        /* \"#utility.yul\":17818:17827   */\n      dup3\n        /* \"#utility.yul\":17814:17832   */\n      add\n        /* \"#utility.yul\":17806:17832   */\n      swap1\n      pop\n        /* \"#utility.yul\":17878:17887   */\n      dup2\n        /* \"#utility.yul\":17872:17876   */\n      dup2\n        /* \"#utility.yul\":17868:17888   */\n      sub\n        /* \"#utility.yul\":17864:17865   */\n      0x00\n        /* \"#utility.yul\":17853:17862   */\n      dup4\n        /* \"#utility.yul\":17849:17866   */\n      add\n        /* \"#utility.yul\":17842:17889   */\n      mstore\n        /* \"#utility.yul\":17906:18037   */\n      tag_332\n        /* \"#utility.yul\":18032:18036   */\n      dup2\n        /* \"#utility.yul\":17906:18037   */\n      tag_145\n      jump\t// in\n    tag_332:\n        /* \"#utility.yul\":17898:18037   */\n      swap1\n      pop\n        /* \"#utility.yul\":17625:18044   */\n      swap2\n      swap1\n      pop\n      jump\t// out\n\n    auxdata: 0xa2646970667358221220c88dd3a143fa527db00c386287c64e5cbbac235f30c4ba9f12ef2ec1f47811f664736f6c634300081a0033\n}\n",
				"bytecode": {
					"linkReferences": {},
					"object": "6080604052348015600e575f80fd5b506114b88061001c5f395ff3fe60806040526004361061006f575f3560e01c80639b074a6f1161004d5780639b074a6f146100fa578063be091c0f14610122578063bf217b661461014c578063f445d492146101745761006f565b80635114cb5214610073578063729f55351461008f5780638c990f51146100d2575b5f80fd5b61008d60048036038101906100889190610b1b565b6101b7565b005b34801561009a575f80fd5b506100b560048036038101906100b09190610b1b565b610341565b6040516100c9989796959493929190610c1e565b60405180910390f35b3480156100dd575f80fd5b506100f860048036038101906100f39190610dfe565b6105bf565b005b348015610105575f80fd5b50610120600480360381019061011b9190610e7e565b610799565b005b34801561012d575f80fd5b5061013661085d565b6040516101439190610ed8565b60405180910390f35b348015610157575f80fd5b50610172600480360381019061016d9190610f1b565b610863565b005b34801561017f575f80fd5b5061019a60048036038101906101959190610b1b565b610931565b6040516101ae989796959493929190610c1e565b60405180910390f35b5f808281526020019081526020015f206001015f9054906101000a900473ffffffffffffffffffffffffffffffffffffffff1673ffffffffffffffffffffffffffffffffffffffff163373ffffffffffffffffffffffffffffffffffffffff1614610257576040517f08c379a000000000000000000000000000000000000000000000000000000000815260040161024e90610fc9565b60405180910390fd5b5f808281526020019081526020015f206004015434146102ac576040517f08c379a00000000000000000000000000000000000000000000000000000000081526004016102a390611031565b60405180910390fd5b5f15155f808381526020019081526020015f2060060160019054906101000a900460ff16151514610312576040517f08c379a000000000000000000000000000000000000000000000000000000000815260040161030990611099565b60405180910390fd5b60015f808381526020019081526020015f2060060160016101000a81548160ff02191690831515021790555050565b5f8060605f8060605f805f805f8b81526020019081526020015f20604051806101000160405290815f82015f9054906101000a900473ffffffffffffffffffffffffffffffffffffffff1673ffffffffffffffffffffffffffffffffffffffff1673ffffffffffffffffffffffffffffffffffffffff168152602001600182015f9054906101000a900473ffffffffffffffffffffffffffffffffffffffff1673ffffffffffffffffffffffffffffffffffffffff1673ffffffffffffffffffffffffffffffffffffffff168152602001600282018054610421906110e4565b80601f016020809104026020016040519081016040528092919081815260200182805461044d906110e4565b80156104985780601f1061046f57610100808354040283529160200191610498565b820191905f5260205f20905b81548152906001019060200180831161047b57829003601f168201915b5050505050815260200160038201548152602001600482015481526020016005820180546104c5906110e4565b80601f01602080910402602001604051908101604052809291908181526020018280546104f1906110e4565b801561053c5780601f106105135761010080835404028352916020019161053c565b820191905f5260205f20905b81548152906001019060200180831161051f57829003601f168201915b50505050508152602001600682015f9054906101000a900460ff161515151581526020016006820160019054906101000a900460ff1615151515815250509050805f015181602001518260400151836060015184608001518560a001518660c001518760e001519850985098509850985098509850985050919395975091939597565b60015f8154809291906105d190611141565b91905055506040518061010001604052803373ffffffffffffffffffffffffffffffffffffffff1681526020018573ffffffffffffffffffffffffffffffffffffffff1681526020018481526020018381526020018281526020016040518060400160405280600a81526020017f496e205472616e7369740000000000000000000000000000000000000000000081525081526020015f151581526020015f15158152505f8060015481526020019081526020015f205f820151815f015f6101000a81548173ffffffffffffffffffffffffffffffffffffffff021916908373ffffffffffffffffffffffffffffffffffffffff1602179055506020820151816001015f6101000a81548173ffffffffffffffffffffffffffffffffffffffff021916908373ffffffffffffffffffffffffffffffffffffffff16021790555060408201518160020190816107269190611325565b50606082015181600301556080820151816004015560a08201518160050190816107509190611325565b5060c0820151816006015f6101000a81548160ff02191690831515021790555060e08201518160060160016101000a81548160ff02191690831515021790555090505050505050565b5f808381526020019081526020015f205f015f9054906101000a900473ffffffffffffffffffffffffffffffffffffffff1673ffffffffffffffffffffffffffffffffffffffff163373ffffffffffffffffffffffffffffffffffffffff1614610838576040517f08c379a000000000000000000000000000000000000000000000000000000000815260040161082f90611464565b60405180910390fd5b805f808481526020019081526020015f2060050190816108589190611325565b505050565b60015481565b5f808381526020019081526020015f206001015f9054906101000a900473ffffffffffffffffffffffffffffffffffffffff1673ffffffffffffffffffffffffffffffffffffffff163373ffffffffffffffffffffffffffffffffffffffff1614610903576040517f08c379a00000000000000000000000000000000000000000000000000000000081526004016108fa90611464565b60405180910390fd5b805f808481526020019081526020015f206006015f6101000a81548160ff0219169083151502179055505050565b5f602052805f5260405f205f91509050805f015f9054906101000a900473ffffffffffffffffffffffffffffffffffffffff1690806001015f9054906101000a900473ffffffffffffffffffffffffffffffffffffffff1690806002018054610999906110e4565b80601f01602080910402602001604051908101604052809291908181526020018280546109c5906110e4565b8015610a105780601f106109e757610100808354040283529160200191610a10565b820191905f5260205f20905b8154815290600101906020018083116109f357829003601f168201915b505050505090806003015490806004015490806005018054610a31906110e4565b80601f0160208091040260200160405190810160405280929190818152602001828054610a5d906110e4565b8015610aa85780601f10610a7f57610100808354040283529160200191610aa8565b820191905f5260205f20905b815481529060010190602001808311610a8b57829003601f168201915b505050505090806006015f9054906101000a900460ff16908060060160019054906101000a900460ff16905088565b5f604051905090565b5f80fd5b5f80fd5b5f819050919050565b610afa81610ae8565b8114610b04575f80fd5b50565b5f81359050610b1581610af1565b92915050565b5f60208284031215610b3057610b2f610ae0565b5b5f610b3d84828501610b07565b91505092915050565b5f73ffffffffffffffffffffffffffffffffffffffff82169050919050565b5f610b6f82610b46565b9050919050565b610b7f81610b65565b82525050565b5f81519050919050565b5f82825260208201905092915050565b8281835e5f83830152505050565b5f601f19601f8301169050919050565b5f610bc782610b85565b610bd18185610b8f565b9350610be1818560208601610b9f565b610bea81610bad565b840191505092915050565b610bfe81610ae8565b82525050565b5f8115159050919050565b610c1881610c04565b82525050565b5f61010082019050610c325f83018b610b76565b610c3f602083018a610b76565b8181036040830152610c518189610bbd565b9050610c606060830188610bf5565b610c6d6080830187610bf5565b81810360a0830152610c7f8186610bbd565b9050610c8e60c0830185610c0f565b610c9b60e0830184610c0f565b9998505050505050505050565b610cb181610b65565b8114610cbb575f80fd5b50565b5f81359050610ccc81610ca8565b92915050565b5f80fd5b5f80fd5b7f4e487b71000000000000000000000000000000000000000000000000000000005f52604160045260245ffd5b610d1082610bad565b810181811067ffffffffffffffff82111715610d2f57610d2e610cda565b5b80604052505050565b5f610d41610ad7565b9050610d4d8282610d07565b919050565b5f67ffffffffffffffff821115610d6c57610d6b610cda565b5b610d7582610bad565b9050602081019050919050565b828183375f83830152505050565b5f610da2610d9d84610d52565b610d38565b905082815260208101848484011115610dbe57610dbd610cd6565b5b610dc9848285610d82565b509392505050565b5f82601f830112610de557610de4610cd2565b5b8135610df5848260208601610d90565b91505092915050565b5f805f8060808587031215610e1657610e15610ae0565b5b5f610e2387828801610cbe565b945050602085013567ffffffffffffffff811115610e4457610e43610ae4565b5b610e5087828801610dd1565b9350506040610e6187828801610b07565b9250506060610e7287828801610b07565b91505092959194509250565b5f8060408385031215610e9457610e93610ae0565b5b5f610ea185828601610b07565b925050602083013567ffffffffffffffff811115610ec257610ec1610ae4565b5b610ece85828601610dd1565b9150509250929050565b5f602082019050610eeb5f830184610bf5565b92915050565b610efa81610c04565b8114610f04575f80fd5b50565b5f81359050610f1581610ef1565b92915050565b5f8060408385031215610f3157610f30610ae0565b5b5f610f3e85828601610b07565b9250506020610f4f85828601610f07565b9150509250929050565b7f4e6f7420617574686f726973656420746f20706572666f726d207468697320615f8201527f6374696f6e000000000000000000000000000000000000000000000000000000602082015250565b5f610fb3602583610b8f565b9150610fbe82610f59565b604082019050919050565b5f6020820190508181035f830152610fe081610fa7565b9050919050565b7f5061796d656e7420616d6f756e7420697320696e636f727265637400000000005f82015250565b5f61101b601b83610b8f565b915061102682610fe7565b602082019050919050565b5f6020820190508181035f8301526110488161100f565b9050919050565b7f5061796d656e742068617320616c7265616479206265656e20646f6e650000005f82015250565b5f611083601d83610b8f565b915061108e8261104f565b602082019050919050565b5f6020820190508181035f8301526110b081611077565b9050919050565b7f4e487b71000000000000000000000000000000000000000000000000000000005f52602260045260245ffd5b5f60028204905060018216806110fb57607f821691505b60208210810361110e5761110d6110b7565b5b50919050565b7f4e487b71000000000000000000000000000000000000000000000000000000005f52601160045260245ffd5b5f61114b82610ae8565b91507fffffffffffffffffffffffffffffffffffffffffffffffffffffffffffffffff820361117d5761117c611114565b5b600182019050919050565b5f819050815f5260205f209050919050565b5f6020601f8301049050919050565b5f82821b905092915050565b5f600883026111e47fffffffffffffffffffffffffffffffffffffffffffffffffffffffffffffffff826111a9565b6111ee86836111a9565b95508019841693508086168417925050509392505050565b5f819050919050565b5f61122961122461121f84610ae8565b611206565b610ae8565b9050919050565b5f819050919050565b6112428361120f565b61125661124e82611230565b8484546111b5565b825550505050565b5f90565b61126a61125e565b611275818484611239565b505050565b5b818110156112985761128d5f82611262565b60018101905061127b565b5050565b601f8211156112dd576112ae81611188565b6112b78461119a565b810160208510156112c6578190505b6112da6112d28561119a565b83018261127a565b50505b505050565b5f82821c905092915050565b5f6112fd5f19846008026112e2565b1980831691505092915050565b5f61131583836112ee565b9150826002028217905092915050565b61132e82610b85565b67ffffffffffffffff81111561134757611346610cda565b5b61135182546110e4565b61135c82828561129c565b5f60209050601f83116001811461138d575f841561137b578287015190505b611385858261130a565b8655506113ec565b601f19841661139b86611188565b5f5b828110156113c25784890151825560018201915060208501945060208101905061139d565b868310156113df57848901516113db601f8916826112ee565b8355505b6001600288020188555050505b505050505050565b7f4e6f7420417574686f726973656420746f20706572666f726d207468697320615f8201527f6374696f6e2e0000000000000000000000000000000000000000000000000000602082015250565b5f61144e602683610b8f565b9150611459826113f4565b604082019050919050565b5f6020820190508181035f83015261147b81611442565b905091905056fea2646970667358221220c88dd3a143fa527db00c386287c64e5cbbac235f30c4ba9f12ef2ec1f47811f664736f6c634300081a0033",
					"opcodes": "PUSH1 0x80 PUSH1 0x40 MSTORE CALLVALUE DUP1 ISZERO PUSH1 0xE JUMPI PUSH0 DUP1 REVERT JUMPDEST POP PUSH2 0x14B8 DUP1 PUSH2 0x1C PUSH0 CODECOPY PUSH0 RETURN INVALID PUSH1 0x80 PUSH1 0x40 MSTORE PUSH1 0x4 CALLDATASIZE LT PUSH2 0x6F JUMPI PUSH0 CALLDATALOAD PUSH1 0xE0 SHR DUP1 PUSH4 0x9B074A6F GT PUSH2 0x4D JUMPI DUP1 PUSH4 0x9B074A6F EQ PUSH2 0xFA JUMPI DUP1 PUSH4 0xBE091C0F EQ PUSH2 0x122 JUMPI DUP1 PUSH4 0xBF217B66 EQ PUSH2 0x14C JUMPI DUP1 PUSH4 0xF445D492 EQ PUSH2 0x174 JUMPI PUSH2 0x6F JUMP JUMPDEST DUP1 PUSH4 0x5114CB52 EQ PUSH2 0x73 JUMPI DUP1 PUSH4 0x729F5535 EQ PUSH2 0x8F JUMPI DUP1 PUSH4 0x8C990F51 EQ PUSH2 0xD2 JUMPI JUMPDEST PUSH0 DUP1 REVERT JUMPDEST PUSH2 0x8D PUSH1 0x4 DUP1 CALLDATASIZE SUB DUP2 ADD SWAP1 PUSH2 0x88 SWAP2 SWAP1 PUSH2 0xB1B JUMP JUMPDEST PUSH2 0x1B7 JUMP JUMPDEST STOP JUMPDEST CALLVALUE DUP1 ISZERO PUSH2 0x9A JUMPI PUSH0 DUP1 REVERT JUMPDEST POP PUSH2 0xB5 PUSH1 0x4 DUP1 CALLDATASIZE SUB DUP2 ADD SWAP1 PUSH2 0xB0 SWAP2 SWAP1 PUSH2 0xB1B JUMP JUMPDEST PUSH2 0x341 JUMP JUMPDEST PUSH1 0x40 MLOAD PUSH2 0xC9 SWAP9 SWAP8 SWAP7 SWAP6 SWAP5 SWAP4 SWAP3 SWAP2 SWAP1 PUSH2 0xC1E JUMP JUMPDEST PUSH1 0x40 MLOAD DUP1 SWAP2 SUB SWAP1 RETURN JUMPDEST CALLVALUE DUP1 ISZERO PUSH2 0xDD JUMPI PUSH0 DUP1 REVERT JUMPDEST POP PUSH2 0xF8 PUSH1 0x4 DUP1 CALLDATASIZE SUB DUP2 ADD SWAP1 PUSH2 0xF3 SWAP2 SWAP1 PUSH2 0xDFE JUMP JUMPDEST PUSH2 0x5BF JUMP JUMPDEST STOP JUMPDEST CALLVALUE DUP1 ISZERO PUSH2 0x105 JUMPI PUSH0 DUP1 REVERT JUMPDEST POP PUSH2 0x120 PUSH1 0x4 DUP1 CALLDATASIZE SUB DUP2 ADD SWAP1 PUSH2 0x11B SWAP2 SWAP1 PUSH2 0xE7E JUMP JUMPDEST PUSH2 0x799 JUMP JUMPDEST STOP JUMPDEST CALLVALUE DUP1 ISZERO PUSH2 0x12D JUMPI PUSH0 DUP1 REVERT JUMPDEST POP PUSH2 0x136 PUSH2 0x85D JUMP JUMPDEST PUSH1 0x40 MLOAD PUSH2 0x143 SWAP2 SWAP1 PUSH2 0xED8 JUMP JUMPDEST PUSH1 0x40 MLOAD DUP1 SWAP2 SUB SWAP1 RETURN JUMPDEST CALLVALUE DUP1 ISZERO PUSH2 0x157 JUMPI PUSH0 DUP1 REVERT JUMPDEST POP PUSH2 0x172 PUSH1 0x4 DUP1 CALLDATASIZE SUB DUP2 ADD SWAP1 PUSH2 0x16D SWAP2 SWAP1 PUSH2 0xF1B JUMP JUMPDEST PUSH2 0x863 JUMP JUMPDEST STOP JUMPDEST CALLVALUE DUP1 ISZERO PUSH2 0x17F JUMPI PUSH0 DUP1 REVERT JUMPDEST POP PUSH2 0x19A PUSH1 0x4 DUP1 CALLDATASIZE SUB DUP2 ADD SWAP1 PUSH2 0x195 SWAP2 SWAP1 PUSH2 0xB1B JUMP JUMPDEST PUSH2 0x931 JUMP JUMPDEST PUSH1 0x40 MLOAD PUSH2 0x1AE SWAP9 SWAP8 SWAP7 SWAP6 SWAP5 SWAP4 SWAP3 SWAP2 SWAP1 PUSH2 0xC1E JUMP JUMPDEST PUSH1 0x40 MLOAD DUP1 SWAP2 SUB SWAP1 RETURN JUMPDEST PUSH0 DUP1 DUP3 DUP2 MSTORE PUSH1 0x20 ADD SWAP1 DUP2 MSTORE PUSH1 0x20 ADD PUSH0 KECCAK256 PUSH1 0x1 ADD PUSH0 SWAP1 SLOAD SWAP1 PUSH2 0x100 EXP SWAP1 DIV PUSH20 0xFFFFFFFFFFFFFFFFFFFFFFFFFFFFFFFFFFFFFFFF AND PUSH20 0xFFFFFFFFFFFFFFFFFFFFFFFFFFFFFFFFFFFFFFFF AND CALLER PUSH20 0xFFFFFFFFFFFFFFFFFFFFFFFFFFFFFFFFFFFFFFFF AND EQ PUSH2 0x257 JUMPI PUSH1 0x40 MLOAD PUSH32 0x8C379A000000000000000000000000000000000000000000000000000000000 DUP2 MSTORE PUSH1 0x4 ADD PUSH2 0x24E SWAP1 PUSH2 0xFC9 JUMP JUMPDEST PUSH1 0x40 MLOAD DUP1 SWAP2 SUB SWAP1 REVERT JUMPDEST PUSH0 DUP1 DUP3 DUP2 MSTORE PUSH1 0x20 ADD SWAP1 DUP2 MSTORE PUSH1 0x20 ADD PUSH0 KECCAK256 PUSH1 0x4 ADD SLOAD CALLVALUE EQ PUSH2 0x2AC JUMPI PUSH1 0x40 MLOAD PUSH32 0x8C379A000000000000000000000000000000000000000000000000000000000 DUP2 MSTORE PUSH1 0x4 ADD PUSH2 0x2A3 SWAP1 PUSH2 0x1031 JUMP JUMPDEST PUSH1 0x40 MLOAD DUP1 SWAP2 SUB SWAP1 REVERT JUMPDEST PUSH0 ISZERO ISZERO PUSH0 DUP1 DUP4 DUP2 MSTORE PUSH1 0x20 ADD SWAP1 DUP2 MSTORE PUSH1 0x20 ADD PUSH0 KECCAK256 PUSH1 0x6 ADD PUSH1 0x1 SWAP1 SLOAD SWAP1 PUSH2 0x100 EXP SWAP1 DIV PUSH1 0xFF AND ISZERO ISZERO EQ PUSH2 0x312 JUMPI PUSH1 0x40 MLOAD PUSH32 0x8C379A000000000000000000000000000000000000000000000000000000000 DUP2 MSTORE PUSH1 0x4 ADD PUSH2 0x309 SWAP1 PUSH2 0x1099 JUMP JUMPDEST PUSH1 0x40 MLOAD DUP1 SWAP2 SUB SWAP1 REVERT JUMPDEST PUSH1 0x1 PUSH0 DUP1 DUP4 DUP2 MSTORE PUSH1 0x20 ADD SWAP1 DUP2 MSTORE PUSH1 0x20 ADD PUSH0 KECCAK256 PUSH1 0x6 ADD PUSH1 0x1 PUSH2 0x100 EXP DUP2 SLOAD DUP2 PUSH1 0xFF MUL NOT AND SWAP1 DUP4 ISZERO ISZERO MUL OR SWAP1 SSTORE POP POP JUMP JUMPDEST PUSH0 DUP1 PUSH1 0x60 PUSH0 DUP1 PUSH1 0x60 PUSH0 DUP1 PUSH0 DUP1 PUSH0 DUP12 DUP2 MSTORE PUSH1 0x20 ADD SWAP1 DUP2 MSTORE PUSH1 0x20 ADD PUSH0 KECCAK256 PUSH1 0x40 MLOAD DUP1 PUSH2 0x100 ADD PUSH1 0x40 MSTORE SWAP1 DUP2 PUSH0 DUP3 ADD PUSH0 SWAP1 SLOAD SWAP1 PUSH2 0x100 EXP SWAP1 DIV PUSH20 0xFFFFFFFFFFFFFFFFFFFFFFFFFFFFFFFFFFFFFFFF AND PUSH20 0xFFFFFFFFFFFFFFFFFFFFFFFFFFFFFFFFFFFFFFFF AND PUSH20 0xFFFFFFFFFFFFFFFFFFFFFFFFFFFFFFFFFFFFFFFF AND DUP2 MSTORE PUSH1 0x20 ADD PUSH1 0x1 DUP3 ADD PUSH0 SWAP1 SLOAD SWAP1 PUSH2 0x100 EXP SWAP1 DIV PUSH20 0xFFFFFFFFFFFFFFFFFFFFFFFFFFFFFFFFFFFFFFFF AND PUSH20 0xFFFFFFFFFFFFFFFFFFFFFFFFFFFFFFFFFFFFFFFF AND PUSH20 0xFFFFFFFFFFFFFFFFFFFFFFFFFFFFFFFFFFFFFFFF AND DUP2 MSTORE PUSH1 0x20 ADD PUSH1 0x2 DUP3 ADD DUP1 SLOAD PUSH2 0x421 SWAP1 PUSH2 0x10E4 JUMP JUMPDEST DUP1 PUSH1 0x1F ADD PUSH1 0x20 DUP1 SWAP2 DIV MUL PUSH1 0x20 ADD PUSH1 0x40 MLOAD SWAP1 DUP2 ADD PUSH1 0x40 MSTORE DUP1 SWAP3 SWAP2 SWAP1 DUP2 DUP2 MSTORE PUSH1 0x20 ADD DUP3 DUP1 SLOAD PUSH2 0x44D SWAP1 PUSH2 0x10E4 JUMP JUMPDEST DUP1 ISZERO PUSH2 0x498 JUMPI DUP1 PUSH1 0x1F LT PUSH2 0x46F JUMPI PUSH2 0x100 DUP1 DUP4 SLOAD DIV MUL DUP4 MSTORE SWAP2 PUSH1 0x20 ADD SWAP2 PUSH2 0x498 JUMP JUMPDEST DUP3 ADD SWAP2 SWAP1 PUSH0 MSTORE PUSH1 0x20 PUSH0 KECCAK256 SWAP1 JUMPDEST DUP2 SLOAD DUP2 MSTORE SWAP1 PUSH1 0x1 ADD SWAP1 PUSH1 0x20 ADD DUP1 DUP4 GT PUSH2 0x47B JUMPI DUP3 SWAP1 SUB PUSH1 0x1F AND DUP3 ADD SWAP2 JUMPDEST POP POP POP POP POP DUP2 MSTORE PUSH1 0x20 ADD PUSH1 0x3 DUP3 ADD SLOAD DUP2 MSTORE PUSH1 0x20 ADD PUSH1 0x4 DUP3 ADD SLOAD DUP2 MSTORE PUSH1 0x20 ADD PUSH1 0x5 DUP3 ADD DUP1 SLOAD PUSH2 0x4C5 SWAP1 PUSH2 0x10E4 JUMP JUMPDEST DUP1 PUSH1 0x1F ADD PUSH1 0x20 DUP1 SWAP2 DIV MUL PUSH1 0x20 ADD PUSH1 0x40 MLOAD SWAP1 DUP2 ADD PUSH1 0x40 MSTORE DUP1 SWAP3 SWAP2 SWAP1 DUP2 DUP2 MSTORE PUSH1 0x20 ADD DUP3 DUP1 SLOAD PUSH2 0x4F1 SWAP1 PUSH2 0x10E4 JUMP JUMPDEST DUP1 ISZERO PUSH2 0x53C JUMPI DUP1 PUSH1 0x1F LT PUSH2 0x513 JUMPI PUSH2 0x100 DUP1 DUP4 SLOAD DIV MUL DUP4 MSTORE SWAP2 PUSH1 0x20 ADD SWAP2 PUSH2 0x53C JUMP JUMPDEST DUP3 ADD SWAP2 SWAP1 PUSH0 MSTORE PUSH1 0x20 PUSH0 KECCAK256 SWAP1 JUMPDEST DUP2 SLOAD DUP2 MSTORE SWAP1 PUSH1 0x1 ADD SWAP1 PUSH1 0x20 ADD DUP1 DUP4 GT PUSH2 0x51F JUMPI DUP3 SWAP1 SUB PUSH1 0x1F AND DUP3 ADD SWAP2 JUMPDEST POP POP POP POP POP DUP2 MSTORE PUSH1 0x20 ADD PUSH1 0x6 DUP3 ADD PUSH0 SWAP1 SLOAD SWAP1 PUSH2 0x100 EXP SWAP1 DIV PUSH1 0xFF AND ISZERO ISZERO ISZERO ISZERO DUP2 MSTORE PUSH1 0x20 ADD PUSH1 0x6 DUP3 ADD PUSH1 0x1 SWAP1 SLOAD SWAP1 PUSH2 0x100 EXP SWAP1 DIV PUSH1 0xFF AND ISZERO ISZERO ISZERO ISZERO DUP2 MSTORE POP POP SWAP1 POP DUP1 PUSH0 ADD MLOAD DUP2 PUSH1 0x20 ADD MLOAD DUP3 PUSH1 0x40 ADD MLOAD DUP4 PUSH1 0x60 ADD MLOAD DUP5 PUSH1 0x80 ADD MLOAD DUP6 PUSH1 0xA0 ADD MLOAD DUP7 PUSH1 0xC0 ADD MLOAD DUP8 PUSH1 0xE0 ADD MLOAD SWAP9 POP SWAP9 POP SWAP9 POP SWAP9 POP SWAP9 POP SWAP9 POP SWAP9 POP SWAP9 POP POP SWAP2 SWAP4 SWAP6 SWAP8 POP SWAP2 SWAP4 SWAP6 SWAP8 JUMP JUMPDEST PUSH1 0x1 PUSH0 DUP2 SLOAD DUP1 SWAP3 SWAP2 SWAP1 PUSH2 0x5D1 SWAP1 PUSH2 0x1141 JUMP JUMPDEST SWAP2 SWAP1 POP SSTORE POP PUSH1 0x40 MLOAD DUP1 PUSH2 0x100 ADD PUSH1 0x40 MSTORE DUP1 CALLER PUSH20 0xFFFFFFFFFFFFFFFFFFFFFFFFFFFFFFFFFFFFFFFF AND DUP2 MSTORE PUSH1 0x20 ADD DUP6 PUSH20 0xFFFFFFFFFFFFFFFFFFFFFFFFFFFFFFFFFFFFFFFF AND DUP2 MSTORE PUSH1 0x20 ADD DUP5 DUP2 MSTORE PUSH1 0x20 ADD DUP4 DUP2 MSTORE PUSH1 0x20 ADD DUP3 DUP2 MSTORE PUSH1 0x20 ADD PUSH1 0x40 MLOAD DUP1 PUSH1 0x40 ADD PUSH1 0x40 MSTORE DUP1 PUSH1 0xA DUP2 MSTORE PUSH1 0x20 ADD PUSH32 0x496E205472616E73697400000000000000000000000000000000000000000000 DUP2 MSTORE POP DUP2 MSTORE PUSH1 0x20 ADD PUSH0 ISZERO ISZERO DUP2 MSTORE PUSH1 0x20 ADD PUSH0 ISZERO ISZERO DUP2 MSTORE POP PUSH0 DUP1 PUSH1 0x1 SLOAD DUP2 MSTORE PUSH1 0x20 ADD SWAP1 DUP2 MSTORE PUSH1 0x20 ADD PUSH0 KECCAK256 PUSH0 DUP3 ADD MLOAD DUP2 PUSH0 ADD PUSH0 PUSH2 0x100 EXP DUP2 SLOAD DUP2 PUSH20 0xFFFFFFFFFFFFFFFFFFFFFFFFFFFFFFFFFFFFFFFF MUL NOT AND SWAP1 DUP4 PUSH20 0xFFFFFFFFFFFFFFFFFFFFFFFFFFFFFFFFFFFFFFFF AND MUL OR SWAP1 SSTORE POP PUSH1 0x20 DUP3 ADD MLOAD DUP2 PUSH1 0x1 ADD PUSH0 PUSH2 0x100 EXP DUP2 SLOAD DUP2 PUSH20 0xFFFFFFFFFFFFFFFFFFFFFFFFFFFFFFFFFFFFFFFF MUL NOT AND SWAP1 DUP4 PUSH20 0xFFFFFFFFFFFFFFFFFFFFFFFFFFFFFFFFFFFFFFFF AND MUL OR SWAP1 SSTORE POP PUSH1 0x40 DUP3 ADD MLOAD DUP2 PUSH1 0x2 ADD SWAP1 DUP2 PUSH2 0x726 SWAP2 SWAP1 PUSH2 0x1325 JUMP JUMPDEST POP PUSH1 0x60 DUP3 ADD MLOAD DUP2 PUSH1 0x3 ADD SSTORE PUSH1 0x80 DUP3 ADD MLOAD DUP2 PUSH1 0x4 ADD SSTORE PUSH1 0xA0 DUP3 ADD MLOAD DUP2 PUSH1 0x5 ADD SWAP1 DUP2 PUSH2 0x750 SWAP2 SWAP1 PUSH2 0x1325 JUMP JUMPDEST POP PUSH1 0xC0 DUP3 ADD MLOAD DUP2 PUSH1 0x6 ADD PUSH0 PUSH2 0x100 EXP DUP2 SLOAD DUP2 PUSH1 0xFF MUL NOT AND SWAP1 DUP4 ISZERO ISZERO MUL OR SWAP1 SSTORE POP PUSH1 0xE0 DUP3 ADD MLOAD DUP2 PUSH1 0x6 ADD PUSH1 0x1 PUSH2 0x100 EXP DUP2 SLOAD DUP2 PUSH1 0xFF MUL NOT AND SWAP1 DUP4 ISZERO ISZERO MUL OR SWAP1 SSTORE POP SWAP1 POP POP POP POP POP POP JUMP JUMPDEST PUSH0 DUP1 DUP4 DUP2 MSTORE PUSH1 0x20 ADD SWAP1 DUP2 MSTORE PUSH1 0x20 ADD PUSH0 KECCAK256 PUSH0 ADD PUSH0 SWAP1 SLOAD SWAP1 PUSH2 0x100 EXP SWAP1 DIV PUSH20 0xFFFFFFFFFFFFFFFFFFFFFFFFFFFFFFFFFFFFFFFF AND PUSH20 0xFFFFFFFFFFFFFFFFFFFFFFFFFFFFFFFFFFFFFFFF AND CALLER PUSH20 0xFFFFFFFFFFFFFFFFFFFFFFFFFFFFFFFFFFFFFFFF AND EQ PUSH2 0x838 JUMPI PUSH1 0x40 MLOAD PUSH32 0x8C379A000000000000000000000000000000000000000000000000000000000 DUP2 MSTORE PUSH1 0x4 ADD PUSH2 0x82F SWAP1 PUSH2 0x1464 JUMP JUMPDEST PUSH1 0x40 MLOAD DUP1 SWAP2 SUB SWAP1 REVERT JUMPDEST DUP1 PUSH0 DUP1 DUP5 DUP2 MSTORE PUSH1 0x20 ADD SWAP1 DUP2 MSTORE PUSH1 0x20 ADD PUSH0 KECCAK256 PUSH1 0x5 ADD SWAP1 DUP2 PUSH2 0x858 SWAP2 SWAP1 PUSH2 0x1325 JUMP JUMPDEST POP POP POP JUMP JUMPDEST PUSH1 0x1 SLOAD DUP2 JUMP JUMPDEST PUSH0 DUP1 DUP4 DUP2 MSTORE PUSH1 0x20 ADD SWAP1 DUP2 MSTORE PUSH1 0x20 ADD PUSH0 KECCAK256 PUSH1 0x1 ADD PUSH0 SWAP1 SLOAD SWAP1 PUSH2 0x100 EXP SWAP1 DIV PUSH20 0xFFFFFFFFFFFFFFFFFFFFFFFFFFFFFFFFFFFFFFFF AND PUSH20 0xFFFFFFFFFFFFFFFFFFFFFFFFFFFFFFFFFFFFFFFF AND CALLER PUSH20 0xFFFFFFFFFFFFFFFFFFFFFFFFFFFFFFFFFFFFFFFF AND EQ PUSH2 0x903 JUMPI PUSH1 0x40 MLOAD PUSH32 0x8C379A000000000000000000000000000000000000000000000000000000000 DUP2 MSTORE PUSH1 0x4 ADD PUSH2 0x8FA SWAP1 PUSH2 0x1464 JUMP JUMPDEST PUSH1 0x40 MLOAD DUP1 SWAP2 SUB SWAP1 REVERT JUMPDEST DUP1 PUSH0 DUP1 DUP5 DUP2 MSTORE PUSH1 0x20 ADD SWAP1 DUP2 MSTORE PUSH1 0x20 ADD PUSH0 KECCAK256 PUSH1 0x6 ADD PUSH0 PUSH2 0x100 EXP DUP2 SLOAD DUP2 PUSH1 0xFF MUL NOT AND SWAP1 DUP4 ISZERO ISZERO MUL OR SWAP1 SSTORE POP POP POP JUMP JUMPDEST PUSH0 PUSH1 0x20 MSTORE DUP1 PUSH0 MSTORE PUSH1 0x40 PUSH0 KECCAK256 PUSH0 SWAP2 POP SWAP1 POP DUP1 PUSH0 ADD PUSH0 SWAP1 SLOAD SWAP1 PUSH2 0x100 EXP SWAP1 DIV PUSH20 0xFFFFFFFFFFFFFFFFFFFFFFFFFFFFFFFFFFFFFFFF AND SWAP1 DUP1 PUSH1 0x1 ADD PUSH0 SWAP1 SLOAD SWAP1 PUSH2 0x100 EXP SWAP1 DIV PUSH20 0xFFFFFFFFFFFFFFFFFFFFFFFFFFFFFFFFFFFFFFFF AND SWAP1 DUP1 PUSH1 0x2 ADD DUP1 SLOAD PUSH2 0x999 SWAP1 PUSH2 0x10E4 JUMP JUMPDEST DUP1 PUSH1 0x1F ADD PUSH1 0x20 DUP1 SWAP2 DIV MUL PUSH1 0x20 ADD PUSH1 0x40 MLOAD SWAP1 DUP2 ADD PUSH1 0x40 MSTORE DUP1 SWAP3 SWAP2 SWAP1 DUP2 DUP2 MSTORE PUSH1 0x20 ADD DUP3 DUP1 SLOAD PUSH2 0x9C5 SWAP1 PUSH2 0x10E4 JUMP JUMPDEST DUP1 ISZERO PUSH2 0xA10 JUMPI DUP1 PUSH1 0x1F LT PUSH2 0x9E7 JUMPI PUSH2 0x100 DUP1 DUP4 SLOAD DIV MUL DUP4 MSTORE SWAP2 PUSH1 0x20 ADD SWAP2 PUSH2 0xA10 JUMP JUMPDEST DUP3 ADD SWAP2 SWAP1 PUSH0 MSTORE PUSH1 0x20 PUSH0 KECCAK256 SWAP1 JUMPDEST DUP2 SLOAD DUP2 MSTORE SWAP1 PUSH1 0x1 ADD SWAP1 PUSH1 0x20 ADD DUP1 DUP4 GT PUSH2 0x9F3 JUMPI DUP3 SWAP1 SUB PUSH1 0x1F AND DUP3 ADD SWAP2 JUMPDEST POP POP POP POP POP SWAP1 DUP1 PUSH1 0x3 ADD SLOAD SWAP1 DUP1 PUSH1 0x4 ADD SLOAD SWAP1 DUP1 PUSH1 0x5 ADD DUP1 SLOAD PUSH2 0xA31 SWAP1 PUSH2 0x10E4 JUMP JUMPDEST DUP1 PUSH1 0x1F ADD PUSH1 0x20 DUP1 SWAP2 DIV MUL PUSH1 0x20 ADD PUSH1 0x40 MLOAD SWAP1 DUP2 ADD PUSH1 0x40 MSTORE DUP1 SWAP3 SWAP2 SWAP1 DUP2 DUP2 MSTORE PUSH1 0x20 ADD DUP3 DUP1 SLOAD PUSH2 0xA5D SWAP1 PUSH2 0x10E4 JUMP JUMPDEST DUP1 ISZERO PUSH2 0xAA8 JUMPI DUP1 PUSH1 0x1F LT PUSH2 0xA7F JUMPI PUSH2 0x100 DUP1 DUP4 SLOAD DIV MUL DUP4 MSTORE SWAP2 PUSH1 0x20 ADD SWAP2 PUSH2 0xAA8 JUMP JUMPDEST DUP3 ADD SWAP2 SWAP1 PUSH0 MSTORE PUSH1 0x20 PUSH0 KECCAK256 SWAP1 JUMPDEST DUP2 SLOAD DUP2 MSTORE SWAP1 PUSH1 0x1 ADD SWAP1 PUSH1 0x20 ADD DUP1 DUP4 GT PUSH2 0xA8B JUMPI DUP3 SWAP1 SUB PUSH1 0x1F AND DUP3 ADD SWAP2 JUMPDEST POP POP POP POP POP SWAP1 DUP1 PUSH1 0x6 ADD PUSH0 SWAP1 SLOAD SWAP1 PUSH2 0x100 EXP SWAP1 DIV PUSH1 0xFF AND SWAP1 DUP1 PUSH1 0x6 ADD PUSH1 0x1 SWAP1 SLOAD SWAP1 PUSH2 0x100 EXP SWAP1 DIV PUSH1 0xFF AND SWAP1 POP DUP9 JUMP JUMPDEST PUSH0 PUSH1 0x40 MLOAD SWAP1 POP SWAP1 JUMP JUMPDEST PUSH0 DUP1 REVERT JUMPDEST PUSH0 DUP1 REVERT JUMPDEST PUSH0 DUP2 SWAP1 POP SWAP2 SWAP1 POP JUMP JUMPDEST PUSH2 0xAFA DUP2 PUSH2 0xAE8 JUMP JUMPDEST DUP2 EQ PUSH2 0xB04 JUMPI PUSH0 DUP1 REVERT JUMPDEST POP JUMP JUMPDEST PUSH0 DUP2 CALLDATALOAD SWAP1 POP PUSH2 0xB15 DUP2 PUSH2 0xAF1 JUMP JUMPDEST SWAP3 SWAP2 POP POP JUMP JUMPDEST PUSH0 PUSH1 0x20 DUP3 DUP5 SUB SLT ISZERO PUSH2 0xB30 JUMPI PUSH2 0xB2F PUSH2 0xAE0 JUMP JUMPDEST JUMPDEST PUSH0 PUSH2 0xB3D DUP5 DUP3 DUP6 ADD PUSH2 0xB07 JUMP JUMPDEST SWAP2 POP POP SWAP3 SWAP2 POP POP JUMP JUMPDEST PUSH0 PUSH20 0xFFFFFFFFFFFFFFFFFFFFFFFFFFFFFFFFFFFFFFFF DUP3 AND SWAP1 POP SWAP2 SWAP1 POP JUMP JUMPDEST PUSH0 PUSH2 0xB6F DUP3 PUSH2 0xB46 JUMP JUMPDEST SWAP1 POP SWAP2 SWAP1 POP JUMP JUMPDEST PUSH2 0xB7F DUP2 PUSH2 0xB65 JUMP JUMPDEST DUP3 MSTORE POP POP JUMP JUMPDEST PUSH0 DUP2 MLOAD SWAP1 POP SWAP2 SWAP1 POP JUMP JUMPDEST PUSH0 DUP3 DUP3 MSTORE PUSH1 0x20 DUP3 ADD SWAP1 POP SWAP3 SWAP2 POP POP JUMP JUMPDEST DUP3 DUP2 DUP4 MCOPY PUSH0 DUP4 DUP4 ADD MSTORE POP POP POP JUMP JUMPDEST PUSH0 PUSH1 0x1F NOT PUSH1 0x1F DUP4 ADD AND SWAP1 POP SWAP2 SWAP1 POP JUMP JUMPDEST PUSH0 PUSH2 0xBC7 DUP3 PUSH2 0xB85 JUMP JUMPDEST PUSH2 0xBD1 DUP2 DUP6 PUSH2 0xB8F JUMP JUMPDEST SWAP4 POP PUSH2 0xBE1 DUP2 DUP6 PUSH1 0x20 DUP7 ADD PUSH2 0xB9F JUMP JUMPDEST PUSH2 0xBEA DUP2 PUSH2 0xBAD JUMP JUMPDEST DUP5 ADD SWAP2 POP POP SWAP3 SWAP2 POP POP JUMP JUMPDEST PUSH2 0xBFE DUP2 PUSH2 0xAE8 JUMP JUMPDEST DUP3 MSTORE POP POP JUMP JUMPDEST PUSH0 DUP2 ISZERO ISZERO SWAP1 POP SWAP2 SWAP1 POP JUMP JUMPDEST PUSH2 0xC18 DUP2 PUSH2 0xC04 JUMP JUMPDEST DUP3 MSTORE POP POP JUMP JUMPDEST PUSH0 PUSH2 0x100 DUP3 ADD SWAP1 POP PUSH2 0xC32 PUSH0 DUP4 ADD DUP12 PUSH2 0xB76 JUMP JUMPDEST PUSH2 0xC3F PUSH1 0x20 DUP4 ADD DUP11 PUSH2 0xB76 JUMP JUMPDEST DUP2 DUP2 SUB PUSH1 0x40 DUP4 ADD MSTORE PUSH2 0xC51 DUP2 DUP10 PUSH2 0xBBD JUMP JUMPDEST SWAP1 POP PUSH2 0xC60 PUSH1 0x60 DUP4 ADD DUP9 PUSH2 0xBF5 JUMP JUMPDEST PUSH2 0xC6D PUSH1 0x80 DUP4 ADD DUP8 PUSH2 0xBF5 JUMP JUMPDEST DUP2 DUP2 SUB PUSH1 0xA0 DUP4 ADD MSTORE PUSH2 0xC7F DUP2 DUP7 PUSH2 0xBBD JUMP JUMPDEST SWAP1 POP PUSH2 0xC8E PUSH1 0xC0 DUP4 ADD DUP6 PUSH2 0xC0F JUMP JUMPDEST PUSH2 0xC9B PUSH1 0xE0 DUP4 ADD DUP5 PUSH2 0xC0F JUMP JUMPDEST SWAP10 SWAP9 POP POP POP POP POP POP POP POP POP JUMP JUMPDEST PUSH2 0xCB1 DUP2 PUSH2 0xB65 JUMP JUMPDEST DUP2 EQ PUSH2 0xCBB JUMPI PUSH0 DUP1 REVERT JUMPDEST POP JUMP JUMPDEST PUSH0 DUP2 CALLDATALOAD SWAP1 POP PUSH2 0xCCC DUP2 PUSH2 0xCA8 JUMP JUMPDEST SWAP3 SWAP2 POP POP JUMP JUMPDEST PUSH0 DUP1 REVERT JUMPDEST PUSH0 DUP1 REVERT JUMPDEST PUSH32 0x4E487B7100000000000000000000000000000000000000000000000000000000 PUSH0 MSTORE PUSH1 0x41 PUSH1 0x4 MSTORE PUSH1 0x24 PUSH0 REVERT JUMPDEST PUSH2 0xD10 DUP3 PUSH2 0xBAD JUMP JUMPDEST DUP2 ADD DUP2 DUP2 LT PUSH8 0xFFFFFFFFFFFFFFFF DUP3 GT OR ISZERO PUSH2 0xD2F JUMPI PUSH2 0xD2E PUSH2 0xCDA JUMP JUMPDEST JUMPDEST DUP1 PUSH1 0x40 MSTORE POP POP POP JUMP JUMPDEST PUSH0 PUSH2 0xD41 PUSH2 0xAD7 JUMP JUMPDEST SWAP1 POP PUSH2 0xD4D DUP3 DUP3 PUSH2 0xD07 JUMP JUMPDEST SWAP2 SWAP1 POP JUMP JUMPDEST PUSH0 PUSH8 0xFFFFFFFFFFFFFFFF DUP3 GT ISZERO PUSH2 0xD6C JUMPI PUSH2 0xD6B PUSH2 0xCDA JUMP JUMPDEST JUMPDEST PUSH2 0xD75 DUP3 PUSH2 0xBAD JUMP JUMPDEST SWAP1 POP PUSH1 0x20 DUP2 ADD SWAP1 POP SWAP2 SWAP1 POP JUMP JUMPDEST DUP3 DUP2 DUP4 CALLDATACOPY PUSH0 DUP4 DUP4 ADD MSTORE POP POP POP JUMP JUMPDEST PUSH0 PUSH2 0xDA2 PUSH2 0xD9D DUP5 PUSH2 0xD52 JUMP JUMPDEST PUSH2 0xD38 JUMP JUMPDEST SWAP1 POP DUP3 DUP2 MSTORE PUSH1 0x20 DUP2 ADD DUP5 DUP5 DUP5 ADD GT ISZERO PUSH2 0xDBE JUMPI PUSH2 0xDBD PUSH2 0xCD6 JUMP JUMPDEST JUMPDEST PUSH2 0xDC9 DUP5 DUP3 DUP6 PUSH2 0xD82 JUMP JUMPDEST POP SWAP4 SWAP3 POP POP POP JUMP JUMPDEST PUSH0 DUP3 PUSH1 0x1F DUP4 ADD SLT PUSH2 0xDE5 JUMPI PUSH2 0xDE4 PUSH2 0xCD2 JUMP JUMPDEST JUMPDEST DUP2 CALLDATALOAD PUSH2 0xDF5 DUP5 DUP3 PUSH1 0x20 DUP7 ADD PUSH2 0xD90 JUMP JUMPDEST SWAP2 POP POP SWAP3 SWAP2 POP POP JUMP JUMPDEST PUSH0 DUP1 PUSH0 DUP1 PUSH1 0x80 DUP6 DUP8 SUB SLT ISZERO PUSH2 0xE16 JUMPI PUSH2 0xE15 PUSH2 0xAE0 JUMP JUMPDEST JUMPDEST PUSH0 PUSH2 0xE23 DUP8 DUP3 DUP9 ADD PUSH2 0xCBE JUMP JUMPDEST SWAP5 POP POP PUSH1 0x20 DUP6 ADD CALLDATALOAD PUSH8 0xFFFFFFFFFFFFFFFF DUP2 GT ISZERO PUSH2 0xE44 JUMPI PUSH2 0xE43 PUSH2 0xAE4 JUMP JUMPDEST JUMPDEST PUSH2 0xE50 DUP8 DUP3 DUP9 ADD PUSH2 0xDD1 JUMP JUMPDEST SWAP4 POP POP PUSH1 0x40 PUSH2 0xE61 DUP8 DUP3 DUP9 ADD PUSH2 0xB07 JUMP JUMPDEST SWAP3 POP POP PUSH1 0x60 PUSH2 0xE72 DUP8 DUP3 DUP9 ADD PUSH2 0xB07 JUMP JUMPDEST SWAP2 POP POP SWAP3 SWAP6 SWAP2 SWAP5 POP SWAP3 POP JUMP JUMPDEST PUSH0 DUP1 PUSH1 0x40 DUP4 DUP6 SUB SLT ISZERO PUSH2 0xE94 JUMPI PUSH2 0xE93 PUSH2 0xAE0 JUMP JUMPDEST JUMPDEST PUSH0 PUSH2 0xEA1 DUP6 DUP3 DUP7 ADD PUSH2 0xB07 JUMP JUMPDEST SWAP3 POP POP PUSH1 0x20 DUP4 ADD CALLDATALOAD PUSH8 0xFFFFFFFFFFFFFFFF DUP2 GT ISZERO PUSH2 0xEC2 JUMPI PUSH2 0xEC1 PUSH2 0xAE4 JUMP JUMPDEST JUMPDEST PUSH2 0xECE DUP6 DUP3 DUP7 ADD PUSH2 0xDD1 JUMP JUMPDEST SWAP2 POP POP SWAP3 POP SWAP3 SWAP1 POP JUMP JUMPDEST PUSH0 PUSH1 0x20 DUP3 ADD SWAP1 POP PUSH2 0xEEB PUSH0 DUP4 ADD DUP5 PUSH2 0xBF5 JUMP JUMPDEST SWAP3 SWAP2 POP POP JUMP JUMPDEST PUSH2 0xEFA DUP2 PUSH2 0xC04 JUMP JUMPDEST DUP2 EQ PUSH2 0xF04 JUMPI PUSH0 DUP1 REVERT JUMPDEST POP JUMP JUMPDEST PUSH0 DUP2 CALLDATALOAD SWAP1 POP PUSH2 0xF15 DUP2 PUSH2 0xEF1 JUMP JUMPDEST SWAP3 SWAP2 POP POP JUMP JUMPDEST PUSH0 DUP1 PUSH1 0x40 DUP4 DUP6 SUB SLT ISZERO PUSH2 0xF31 JUMPI PUSH2 0xF30 PUSH2 0xAE0 JUMP JUMPDEST JUMPDEST PUSH0 PUSH2 0xF3E DUP6 DUP3 DUP7 ADD PUSH2 0xB07 JUMP JUMPDEST SWAP3 POP POP PUSH1 0x20 PUSH2 0xF4F DUP6 DUP3 DUP7 ADD PUSH2 0xF07 JUMP JUMPDEST SWAP2 POP POP SWAP3 POP SWAP3 SWAP1 POP JUMP JUMPDEST PUSH32 0x4E6F7420617574686F726973656420746F20706572666F726D20746869732061 PUSH0 DUP3 ADD MSTORE PUSH32 0x6374696F6E000000000000000000000000000000000000000000000000000000 PUSH1 0x20 DUP3 ADD MSTORE POP JUMP JUMPDEST PUSH0 PUSH2 0xFB3 PUSH1 0x25 DUP4 PUSH2 0xB8F JUMP JUMPDEST SWAP2 POP PUSH2 0xFBE DUP3 PUSH2 0xF59 JUMP JUMPDEST PUSH1 0x40 DUP3 ADD SWAP1 POP SWAP2 SWAP1 POP JUMP JUMPDEST PUSH0 PUSH1 0x20 DUP3 ADD SWAP1 POP DUP2 DUP2 SUB PUSH0 DUP4 ADD MSTORE PUSH2 0xFE0 DUP2 PUSH2 0xFA7 JUMP JUMPDEST SWAP1 POP SWAP2 SWAP1 POP JUMP JUMPDEST PUSH32 0x5061796D656E7420616D6F756E7420697320696E636F72726563740000000000 PUSH0 DUP3 ADD MSTORE POP JUMP JUMPDEST PUSH0 PUSH2 0x101B PUSH1 0x1B DUP4 PUSH2 0xB8F JUMP JUMPDEST SWAP2 POP PUSH2 0x1026 DUP3 PUSH2 0xFE7 JUMP JUMPDEST PUSH1 0x20 DUP3 ADD SWAP1 POP SWAP2 SWAP1 POP JUMP JUMPDEST PUSH0 PUSH1 0x20 DUP3 ADD SWAP1 POP DUP2 DUP2 SUB PUSH0 DUP4 ADD MSTORE PUSH2 0x1048 DUP2 PUSH2 0x100F JUMP JUMPDEST SWAP1 POP SWAP2 SWAP1 POP JUMP JUMPDEST PUSH32 0x5061796D656E742068617320616C7265616479206265656E20646F6E65000000 PUSH0 DUP3 ADD MSTORE POP JUMP JUMPDEST PUSH0 PUSH2 0x1083 PUSH1 0x1D DUP4 PUSH2 0xB8F JUMP JUMPDEST SWAP2 POP PUSH2 0x108E DUP3 PUSH2 0x104F JUMP JUMPDEST PUSH1 0x20 DUP3 ADD SWAP1 POP SWAP2 SWAP1 POP JUMP JUMPDEST PUSH0 PUSH1 0x20 DUP3 ADD SWAP1 POP DUP2 DUP2 SUB PUSH0 DUP4 ADD MSTORE PUSH2 0x10B0 DUP2 PUSH2 0x1077 JUMP JUMPDEST SWAP1 POP SWAP2 SWAP1 POP JUMP JUMPDEST PUSH32 0x4E487B7100000000000000000000000000000000000000000000000000000000 PUSH0 MSTORE PUSH1 0x22 PUSH1 0x4 MSTORE PUSH1 0x24 PUSH0 REVERT JUMPDEST PUSH0 PUSH1 0x2 DUP3 DIV SWAP1 POP PUSH1 0x1 DUP3 AND DUP1 PUSH2 0x10FB JUMPI PUSH1 0x7F DUP3 AND SWAP2 POP JUMPDEST PUSH1 0x20 DUP3 LT DUP2 SUB PUSH2 0x110E JUMPI PUSH2 0x110D PUSH2 0x10B7 JUMP JUMPDEST JUMPDEST POP SWAP2 SWAP1 POP JUMP JUMPDEST PUSH32 0x4E487B7100000000000000000000000000000000000000000000000000000000 PUSH0 MSTORE PUSH1 0x11 PUSH1 0x4 MSTORE PUSH1 0x24 PUSH0 REVERT JUMPDEST PUSH0 PUSH2 0x114B DUP3 PUSH2 0xAE8 JUMP JUMPDEST SWAP2 POP PUSH32 0xFFFFFFFFFFFFFFFFFFFFFFFFFFFFFFFFFFFFFFFFFFFFFFFFFFFFFFFFFFFFFFFF DUP3 SUB PUSH2 0x117D JUMPI PUSH2 0x117C PUSH2 0x1114 JUMP JUMPDEST JUMPDEST PUSH1 0x1 DUP3 ADD SWAP1 POP SWAP2 SWAP1 POP JUMP JUMPDEST PUSH0 DUP2 SWAP1 POP DUP2 PUSH0 MSTORE PUSH1 0x20 PUSH0 KECCAK256 SWAP1 POP SWAP2 SWAP1 POP JUMP JUMPDEST PUSH0 PUSH1 0x20 PUSH1 0x1F DUP4 ADD DIV SWAP1 POP SWAP2 SWAP1 POP JUMP JUMPDEST PUSH0 DUP3 DUP3 SHL SWAP1 POP SWAP3 SWAP2 POP POP JUMP JUMPDEST PUSH0 PUSH1 0x8 DUP4 MUL PUSH2 0x11E4 PUSH32 0xFFFFFFFFFFFFFFFFFFFFFFFFFFFFFFFFFFFFFFFFFFFFFFFFFFFFFFFFFFFFFFFF DUP3 PUSH2 0x11A9 JUMP JUMPDEST PUSH2 0x11EE DUP7 DUP4 PUSH2 0x11A9 JUMP JUMPDEST SWAP6 POP DUP1 NOT DUP5 AND SWAP4 POP DUP1 DUP7 AND DUP5 OR SWAP3 POP POP POP SWAP4 SWAP3 POP POP POP JUMP JUMPDEST PUSH0 DUP2 SWAP1 POP SWAP2 SWAP1 POP JUMP JUMPDEST PUSH0 PUSH2 0x1229 PUSH2 0x1224 PUSH2 0x121F DUP5 PUSH2 0xAE8 JUMP JUMPDEST PUSH2 0x1206 JUMP JUMPDEST PUSH2 0xAE8 JUMP JUMPDEST SWAP1 POP SWAP2 SWAP1 POP JUMP JUMPDEST PUSH0 DUP2 SWAP1 POP SWAP2 SWAP1 POP JUMP JUMPDEST PUSH2 0x1242 DUP4 PUSH2 0x120F JUMP JUMPDEST PUSH2 0x1256 PUSH2 0x124E DUP3 PUSH2 0x1230 JUMP JUMPDEST DUP5 DUP5 SLOAD PUSH2 0x11B5 JUMP JUMPDEST DUP3 SSTORE POP POP POP POP JUMP JUMPDEST PUSH0 SWAP1 JUMP JUMPDEST PUSH2 0x126A PUSH2 0x125E JUMP JUMPDEST PUSH2 0x1275 DUP2 DUP5 DUP5 PUSH2 0x1239 JUMP JUMPDEST POP POP POP JUMP JUMPDEST JUMPDEST DUP2 DUP2 LT ISZERO PUSH2 0x1298 JUMPI PUSH2 0x128D PUSH0 DUP3 PUSH2 0x1262 JUMP JUMPDEST PUSH1 0x1 DUP2 ADD SWAP1 POP PUSH2 0x127B JUMP JUMPDEST POP POP JUMP JUMPDEST PUSH1 0x1F DUP3 GT ISZERO PUSH2 0x12DD JUMPI PUSH2 0x12AE DUP2 PUSH2 0x1188 JUMP JUMPDEST PUSH2 0x12B7 DUP5 PUSH2 0x119A JUMP JUMPDEST DUP2 ADD PUSH1 0x20 DUP6 LT ISZERO PUSH2 0x12C6 JUMPI DUP2 SWAP1 POP JUMPDEST PUSH2 0x12DA PUSH2 0x12D2 DUP6 PUSH2 0x119A JUMP JUMPDEST DUP4 ADD DUP3 PUSH2 0x127A JUMP JUMPDEST POP POP JUMPDEST POP POP POP JUMP JUMPDEST PUSH0 DUP3 DUP3 SHR SWAP1 POP SWAP3 SWAP2 POP POP JUMP JUMPDEST PUSH0 PUSH2 0x12FD PUSH0 NOT DUP5 PUSH1 0x8 MUL PUSH2 0x12E2 JUMP JUMPDEST NOT DUP1 DUP4 AND SWAP2 POP POP SWAP3 SWAP2 POP POP JUMP JUMPDEST PUSH0 PUSH2 0x1315 DUP4 DUP4 PUSH2 0x12EE JUMP JUMPDEST SWAP2 POP DUP3 PUSH1 0x2 MUL DUP3 OR SWAP1 POP SWAP3 SWAP2 POP POP JUMP JUMPDEST PUSH2 0x132E DUP3 PUSH2 0xB85 JUMP JUMPDEST PUSH8 0xFFFFFFFFFFFFFFFF DUP2 GT ISZERO PUSH2 0x1347 JUMPI PUSH2 0x1346 PUSH2 0xCDA JUMP JUMPDEST JUMPDEST PUSH2 0x1351 DUP3 SLOAD PUSH2 0x10E4 JUMP JUMPDEST PUSH2 0x135C DUP3 DUP3 DUP6 PUSH2 0x129C JUMP JUMPDEST PUSH0 PUSH1 0x20 SWAP1 POP PUSH1 0x1F DUP4 GT PUSH1 0x1 DUP2 EQ PUSH2 0x138D JUMPI PUSH0 DUP5 ISZERO PUSH2 0x137B JUMPI DUP3 DUP8 ADD MLOAD SWAP1 POP JUMPDEST PUSH2 0x1385 DUP6 DUP3 PUSH2 0x130A JUMP JUMPDEST DUP7 SSTORE POP PUSH2 0x13EC JUMP JUMPDEST PUSH1 0x1F NOT DUP5 AND PUSH2 0x139B DUP7 PUSH2 0x1188 JUMP JUMPDEST PUSH0 JUMPDEST DUP3 DUP2 LT ISZERO PUSH2 0x13C2 JUMPI DUP5 DUP10 ADD MLOAD DUP3 SSTORE PUSH1 0x1 DUP3 ADD SWAP2 POP PUSH1 0x20 DUP6 ADD SWAP5 POP PUSH1 0x20 DUP2 ADD SWAP1 POP PUSH2 0x139D JUMP JUMPDEST DUP7 DUP4 LT ISZERO PUSH2 0x13DF JUMPI DUP5 DUP10 ADD MLOAD PUSH2 0x13DB PUSH1 0x1F DUP10 AND DUP3 PUSH2 0x12EE JUMP JUMPDEST DUP4 SSTORE POP JUMPDEST PUSH1 0x1 PUSH1 0x2 DUP9 MUL ADD DUP9 SSTORE POP POP POP JUMPDEST POP POP POP POP POP POP JUMP JUMPDEST PUSH32 0x4E6F7420417574686F726973656420746F20706572666F726D20746869732061 PUSH0 DUP3 ADD MSTORE PUSH32 0x6374696F6E2E0000000000000000000000000000000000000000000000000000 PUSH1 0x20 DUP3 ADD MSTORE POP JUMP JUMPDEST PUSH0 PUSH2 0x144E PUSH1 0x26 DUP4 PUSH2 0xB8F JUMP JUMPDEST SWAP2 POP PUSH2 0x1459 DUP3 PUSH2 0x13F4 JUMP JUMPDEST PUSH1 0x40 DUP3 ADD SWAP1 POP SWAP2 SWAP1 POP JUMP JUMPDEST PUSH0 PUSH1 0x20 DUP3 ADD SWAP1 POP DUP2 DUP2 SUB PUSH0 DUP4 ADD MSTORE PUSH2 0x147B DUP2 PUSH2 0x1442 JUMP JUMPDEST SWAP1 POP SWAP2 SWAP1 POP JUMP INVALID LOG2 PUSH5 0x6970667358 0x22 SLT KECCAK256 0xC8 DUP14 0xD3 LOG1 NUMBER STATICCALL MSTORE PUSH30 0xB00C386287C64E5CBBAC235F30C4BA9F12EF2EC1F47811F664736F6C6343 STOP ADDMOD BYTE STOP CALLER "
				},
				"gasEstimates": {
					"creation": {
						"codeDepositCost": "1060800",
						"executionCost": "1098",
						"totalCost": "1061898"
					},
					"external": {
						"TradeAgreements(uint256)": "infinite",
						"agreementcounter()": "2447",
						"createAgreement(address,string,uint256,uint256)": "infinite",
						"getTradeAgreementDetails(uint256)": "infinite",
						"makePayment(uint256)": "31534",
						"updateCompliantStatus(uint256,bool)": "27221",
						"updateShipmentStatus(uint256,string)": "infinite"
					}
				},
				"methodIdentifiers": {
					"TradeAgreements(uint256)": "f445d492",
					"agreementcounter()": "be091c0f",
					"createAgreement(address,string,uint256,uint256)": "8c990f51",
					"getTradeAgreementDetails(uint256)": "729f5535",
					"makePayment(uint256)": "5114cb52",
					"updateCompliantStatus(uint256,bool)": "bf217b66",
					"updateShipmentStatus(uint256,string)": "9b074a6f"
				}
			},
			"storageLayout": {
				"storage": [
					{
						"astId": 23,
						"contract": "contracts/Adv2/crossbordertrade.sol:CrossBorderTrade",
						"label": "TradeAgreements",
						"offset": 0,
						"slot": "0",
						"type": "t_mapping(t_uint256,t_struct(TradeAgreement)18_storage)"
					},
					{
						"astId": 25,
						"contract": "contracts/Adv2/crossbordertrade.sol:CrossBorderTrade",
						"label": "agreementcounter",
						"offset": 0,
						"slot": "1",
						"type": "t_uint256"
					}
				],
				"types": {
					"t_address": {
						"encoding": "inplace",
						"label": "address",
						"numberOfBytes": "20"
					},
					"t_bool": {
						"encoding": "inplace",
						"label": "bool",
						"numberOfBytes": "1"
					},
					"t_mapping(t_uint256,t_struct(TradeAgreement)18_storage)": {
						"encoding": "mapping",
						"key": "t_uint256",
						"label": "mapping(uint256 => struct CrossBorderTrade.TradeAgreement)",
						"numberOfBytes": "32",
						"value": "t_struct(TradeAgreement)18_storage"
					},
					"t_string_storage": {
						"encoding": "bytes",
						"label": "string",
						"numberOfBytes": "32"
					},
					"t_struct(TradeAgreement)18_storage": {
						"encoding": "inplace",
						"label": "struct CrossBorderTrade.TradeAgreement",
						"members": [
							{
								"astId": 3,
								"contract": "contracts/Adv2/crossbordertrade.sol:CrossBorderTrade",
								"label": "exporter",
								"offset": 0,
								"slot": "0",
								"type": "t_address"
							},
							{
								"astId": 5,
								"contract": "contracts/Adv2/crossbordertrade.sol:CrossBorderTrade",
								"label": "importer",
								"offset": 0,
								"slot": "1",
								"type": "t_address"
							},
							{
								"astId": 7,
								"contract": "contracts/Adv2/crossbordertrade.sol:CrossBorderTrade",
								"label": "product",
								"offset": 0,
								"slot": "2",
								"type": "t_string_storage"
							},
							{
								"astId": 9,
								"contract": "contracts/Adv2/crossbordertrade.sol:CrossBorderTrade",
								"label": "quantity",
								"offset": 0,
								"slot": "3",
								"type": "t_uint256"
							},
							{
								"astId": 11,
								"contract": "contracts/Adv2/crossbordertrade.sol:CrossBorderTrade",
								"label": "price",
								"offset": 0,
								"slot": "4",
								"type": "t_uint256"
							},
							{
								"astId": 13,
								"contract": "contracts/Adv2/crossbordertrade.sol:CrossBorderTrade",
								"label": "shipmentStatus",
								"offset": 0,
								"slot": "5",
								"type": "t_string_storage"
							},
							{
								"astId": 15,
								"contract": "contracts/Adv2/crossbordertrade.sol:CrossBorderTrade",
								"label": "isCompliant",
								"offset": 0,
								"slot": "6",
								"type": "t_bool"
							},
							{
								"astId": 17,
								"contract": "contracts/Adv2/crossbordertrade.sol:CrossBorderTrade",
								"label": "paymentReceived",
								"offset": 1,
								"slot": "6",
								"type": "t_bool"
							}
						],
						"numberOfBytes": "224"
					},
					"t_uint256": {
						"encoding": "inplace",
						"label": "uint256",
						"numberOfBytes": "32"
					}
				}
			},
			"userdoc": {
				"kind": "user",
				"methods": {},
				"version": 1
			}
		}
	}
}